:020000040800F2
:10000000B8D200209D010008E33100088D2A0008C5
:10001000E131000819050008713B000800000000EC
:10002000000000000000000000000000893300080C
:10003000D905000800000000E53100088B330008F6
:10004000B7010008B7010008B7010008B7010008B0
:10005000B7010008B7010008B7010008B7010008A0
:10006000B7010008B7010008B7010008B701000890
:10007000B7010008B7010008B7010008B701000880
:100080001D050008B7010008B7010008B701000806
:10009000B7010008B7010008B7010008B701000860
:1000A000B7010008B7010008B7010008B701000850
:1000B000B7010008B701000835340008B70100088F
:1000C000B7010008B7010008B7010008B701000830
:1000D000B7010008B70100084D3B0008B701000850
:1000E000DB050008B7010008B7010008B7010008E8
:1000F000B7010008B7010008B7010008B701000800
:10010000B7010008B7010008B7010008B7010008EF
:10011000B7010008B7010008B7010008B7010008DF
:10012000B7010008B7010008B70100082905000859
:10013000B7010008B7010008B7010008B7010008BF
:10014000B7010008B7010008B7010008B7010008AF
:10015000B7010008B7010008B7010008B70100089F
:10016000B7010008B7010008B7010008B70100088F
:10017000B7010008B7010008B7010008000000003F
:10018000B7010008B7010008DFF80CD000F0E0F874
:1001900000480047053E0208B8D2002006488047C4
:1001A00006480047FEE7FEE7FEE7FEE7FEE7FEE75C
:1001B000FEE7FEE7FEE7FEE72534000889010008B8
:1001C0002DE9F05F0546002092469B46884606468C
:1001D000814640241BE0284641464746224600F01F
:1001E000A7F853465A46C01A914110D311461846F3
:1001F000224600F08EF82D1A67EB01084F46224682
:100200000120002100F085F817EB00094E41201E67
:10021000A4F10104DFDC484631462A464346BDE8E6
:10022000F09F10B5431A934209D28318881803E04F
:1002300010F8011D03F8011D521EF9D210BD40EA4D
:1002400001039B0703D009E008C9121F08C0042A54
:10025000FAD203E011F8013B00F8013B521EF9D23B
:1002600010BDD2B201E000F8012B491EFBD270474D
:100270000022F6E710B513460A4604461946FFF772
:10028000F0FF204610BD30B505462A460B4612F851
:10029000010B13F8014B08B1A042F8D01CB10028A3
:1002A00002D06D1CF1E7284630BD421C10F8011B3E
:1002B0000029FBD1801A704710B5002200E0521CC3
:1002C000835C8C5CA34201D1002BF8D1D8B2E1B29F
:1002D000401A10BD034611F8012B00F8012B002A2B
:1002E000F9D11846704730B50B4601460020202250
:1002F000012409E021FA02F59D4205D303FA02F533
:10030000491B04FA02F52844151EA2F10102F1DC92
:1003100030BD202A04DB203A00FA02F100207047A9
:100320009140C2F1200320FA03F319439040704733
:10033000202A04DB203A21FA02F00021704721FA3A
:1003400002F3D040C2F120029140084319467047A1
:10035000064C074D06E0E06840F0010394E8070012
:1003600098471034AC42F6D3FFF712FF9CA904085B
:10037000BCA9040870B58C1810F8015B15F00703D0
:1003800001D110F8013B2A1106D110F8012B03E02E
:1003900010F8016B01F8016B5B1EF9D12B0705D436
:1003A0000023521E0DD401F8013BFAE710F8013B7F
:1003B000CB1A921C03E013F8015B01F8015B521E9B
:1003C000F9D5A142D8D3002070BD0000464910B530
:1003D0004A6822F440324A604A6843681A434A60D5
:1003E00001684A6822F480724A6001684A680369B9
:1003F00042EA03224A6001684A6822F040724A6079
:1004000001684A6883681A434A6001688A6822F46E
:1004100000628A6001688A68C3681A438A60816AD8
:100420006FF07062D14201688A6822F070628A605F
:1004300001688A680CD0836A1A438A6001688A68F6
:1004400022F040528A6001688A68C36A1A4301E058
:1004500022F040528A6001688A6822F002028A60B3
:1004600001688A68037E42EA43028A6090F820109D
:10047000002901684A680FD042F400624A600168AE
:100480004A6822F460424A6001684A68174C436A2D
:1004900004EB43331A4301E022F400624A6001682E
:1004A000CA6A22F47002CA620168CA6A838B104C5D
:1004B00004EB03531A43CA6201688A6822F400728B
:1004C0008A6001688A6890F8303042EA43228A6084
:1004D00001688A6822F480628A6001688A684069DB
:1004E00042EA8020886010BD0023014000E0FFFF49
:1004F0000000F0FF10B5044600F0F4F8462000F0CC
:10050000BFF800F02BF9204600F0BAF800F026F909
:10051000BDE8104000F006B9FEE70000014800F019
:10052000A7BA0000A0080020014800F0A1BA00000E
:100530009806002001681823CAB2103AB2FBF3F201
:10054000054B6FF30901032A9B5CC36500D9091DA4
:1005500081650846704700008AAE020810B5014662
:1005600000208B698A6A4FF0C07453B1B3F5005F05
:1005700015D072B1012A0CD0022A0AD0032A09D15F
:1005800004E01AB1012A06D0022A03D1C96AC901BE
:1005900000D5012010BDC96AA142FAD010BD002AC1
:1005A000F7D0012AF2D0022AF3D0032AF3D010BDEB
:1005B00030B50468256825F48025256004686360EB
:1005C0008368402B036803D099600068C26030BD27
:1005D0009A600068C16030BD70474FF4804000F001
:1005E000E7BB72B6FEE79620401E80B2FCD2704791
:1005F00010B586B014216846FFF73AFE1E48016820
:1006000041F01001016000681C4C00F010000590E2
:100610004FF44040009011200190012002900220F0
:1006200003906946204600F0CFFB0122910320464B
:1006300000F0CFFC0122D103204600F0CAFC642068
:1006400000F088FB0020FFF755FF0A2000F082FB36
:100650000120FFF74FFF0A2000F07CFB0720FFF787
:1006600049FF0A2000F076FB1120FFF743FFB4207A
:1006700000F070FB06B010BD3038024000100240A0
:100680002DE9F041164F054600244FF400484FF481
:10069000804600223146384600F09BFCFFF7A3FF5E
:1006A000280601D5012200E000224146384600F02C
:1006B00090FC6806050EFFF796FF0122314638468A
:1006C00000F087FCFFF78FFF641CE4B2082CE0D336
:1006D00031463846BDE8F041002200F07ABC000007
:1006E0000010024070B501220D4DD403214628466A
:1006F00000F06FFC012296033146284600F069FCA9
:10070000FFF771FF00222146284600F062FCFFF748
:100710006AFF31462846BDE87040002200F059BC0F
:100720000010024070B50C4D4FF4004400222146E9
:10073000284600F04EFC01229103284600F049FCB7
:10074000FFF751FF01222146284600F042FCBDE898
:100750007040FFF748BF0000001002402DE9F04153
:100760000122144DD60300243146284600F031FC06
:10077000FFF739FF012297033946284600F029FC8C
:10078000FFF731FF08E0641CE4B2FA2C04D9FFF74C
:10079000C9FF0120BDE8F0813146284600F00CFC7D
:1007A0000028F0D100223946284600F012FC002033
:1007B000F0E700000010024078B50024009490F8A3
:1007C0003C20012A19D0012280F83C200A68072326
:1007D0000568092A13D9EE680A3A02EB42029340EF
:1007E0009E43EE600B788A680A3B03EB43039A4012
:1007F0000368DD682A43DA6010E0022078BD2E69C4
:1008000002EB420293409E432E610B788A6803EB11
:1008100043039A4003681D692A431A614A681F23EB
:10082000072A13D205686E6B521E02EB82029340B8
:100830009E436E630B790A885B1E92B203EB8303BF
:100840009A4003685D6B2A435A6327E005680D2AC6
:1008500012D22E6BD21F02EB820293409E432E6374
:100860000B790A88DB1F92B203EB83039A4003687B
:100870001D6B2A431A6311E0EE6A0D3A02EB820205
:1008800093409E43EE620B790A880D3B92B203EBD4
:1008900083039A400368DD6A2A43DA62164B0568CF
:1008A000144A9D4206D10D68122D03D1556845F4B6
:1008B0008005556005689D4218D10B68102B01D04A
:1008C000112B13D1536843F40003536009681029B6
:1008D0000CD10A490A4A0968B1FBF2F101EB810126
:1008E000490000E0491E00910029FBD180F83C40FE
:1008F000002078BD002301400020014018000020A6
:1009000040420F0070B504004FF0000503D0206C8A
:10091000002610B107E0012070BD204600F01CF851
:10092000666484F83C60206CC00610D4206C20F40F
:10093000885040F0020020642046FFF747FD6664BF
:10094000206C20F0020040F00100206400E001254E
:1009500084F83C60284670BD10B586B0044614216A
:100960006846FFF785FC1149206888421CD1104871
:100970000021026842F480720260006800F4807016
:1009800005900B481438026842F0010202600068CA
:1009900000F001000590102000900320CDE9010136
:1009A0006946044800F010FA06B010BD002001406E
:1009B00044380240000002402DE9F0410446876DB2
:1009C00000F00CFB064694F835000025022806D0FE
:1009D0008020606584F834500120BDE8F0812068F3
:1009E000016821F0160101602068416921F0800151
:1009F0004161206C08B9A06C20B12068016821F029
:100A0000080101602068016821F0010101600CE02B
:100A100000F0E4FA801B052807D920206065032038
:100A200084F8350084F83450D7E720680068C007A0
:100A3000EED194F85C103F208840B860012084F823
:100A4000350084F834500020C7E790F835100229AB
:100A500003D08021416501207047052180F83510C1
:100A60000068016821F0010101600020704700006A
:100A70002DE9F84304464FF00009CDF80090634893
:100A80004FF41651A56D0068B0FBF1F72E6894F88D
:100A90005C10082000FA01F131420FD021680A6889
:100AA00052070BD50A6822F004020A6094F85C1021
:100AB0008840A860606D40F00100606594F85C10AB
:100AC0004FF0010808FA01F0304208D02168496966
:100AD000090604D5A860606D40F00200606594F8D6
:100AE0005C1004208840304208D0216809688907DA
:100AF00004D5A860606D40F00400606594F85C1057
:100B000010208840304218D021680968090714D5A0
:100B1000A86020680168490304D50068000308D56F
:100B2000A16C07E00168C90503D4016821F0080140
:100B30000160216C09B12046884794F85C102020A0
:100B40008840304231D021680968C9062DD5A86097
:100B500094F8350005282068016806D0490347D578
:100B6000006800031DD4616C1CE021F016010160D7
:100B70002068416921F080014161206C08B9A06CB6
:100B800020B12068016821F00801016094F85C1030
:100B90003F208840A86084F8358084F83490216D27
:100BA0001FE0E16B09B120468847606D00282BD01B
:100BB000606DC00714D0052084F8350020680168F6
:100BC00021F0010101600098401C0090B84203D858
:100BD00020680068C007F6D184F8358084F8349026
:100BE000E16C002910D001B02046BDE8F043084771
:100BF0000168C905D5D4016821F01001016084F8AD
:100C0000358084F83490CCE7BDE8F88318000020E4
:100C10002DE9F041044600F0E1F906465CB10220FE
:100C200084F83500002584F834502068016821F0EC
:100C3000010101600DE00120BDE8F08100F0CEF976
:100C4000801B052805D920206065032084F8350025
:100C5000F2E720680068C007F0D1226811682048D8
:100C60000140D4E901031843D4E903363343184360
:100C700063691843A3691843E3691843236A184357
:100C80000843616A042903D1D4E90B1319430843CB
:100C9000106020684069666A20F0070130460E4304
:100CA000012704280CD1A06A0643E06A40B120461F
:100CB000FFF754FC20B14020606584F83570BAE736
:100CC000206846612046FFF735FC94F85C203F2100
:100CD00091408160656584F835700020ACE70000C4
:100CE0003F8010F02DE9F0410446866D90F8340005
:100CF000002501280DD0012084F8340094F83570C7
:100D00000020012F07D084F8340002252846BDE8D2
:100D1000F0810220FBE7022784F8357060652046E9
:100D2000FFF746FC94F85C103F208840B0602068D4
:100D3000016841F016010160206C20B12068016853
:100D400041F0080101602068016841F00101016083
:100D5000DCE7000070B5044600F040F90546601C71
:100D600002D004480078044400F038F9401BA04247
:100D7000FAD370BD0C00002010B54FF48044A0429F
:100D80000AD12146054800F017F9012802D104A034
:100D900002F0F0FE0548046010BD000000040240AF
:100DA000BCECB2E2B5BDBBF0D1E60A00143C014098
:100DB000044910B50A68024202D00860FFF7DCFF60
:100DC00010BD0000143C01402DE9F84FDFF8BCA134
:100DD0000022012503264FF00F090AF1040BAAF1A6
:100DE000040E00BF0B6805FA02F42340A34270D141
:100DF0000F7907F00307012F01D0022F16D1876862
:100E00004FEA420806FA08FC27EA0C07D1F80CC0A2
:100E10000CFA08FC4CEA070CC0F808C04768A74366
:100E20000C79C4F3001494403C4344600C79E443CF
:100E3000A4070AD0C4684FEA420C06FA0CF7BC4378
:100E40008F6807FA0CF72743C7600C7904F0030496
:100E5000022C12D1D40800EB840CDCF82040570798
:100E6000FF0E09FA07F824EA0804D1F8108008FAFE
:100E700007F848EA0408CCF8208004684FEA420CDE
:100E800006FA0CF7BC430F7907F0030707FA0CF7D3
:100E9000274307604C6814F4403F70D03C4C2768EF
:100EA00047F480472760246822F0030704F4804455
:100EB0000094384C07EB040CDCF8084897074FEA1D
:100EC000177809FA08F7BC43334FB84202D100271C
:100ED00024E054E0314FB84201D101271EE0304FE9
:100EE000B84201D1022719E02E4FB84201D10327A1
:100EF00014E02D4FB84201D104270FE02B4FB84228
:100F000001D105270AE02A4FB84201D1062705E0A2
:100F1000284FB84201D1072700E0082707FA08F751
:100F20002743CCF80878DAF800405746D1F804C0D7
:100F30009C435FEACC2C00D51C433C60DBF80040AE
:100F40005F46D1F804C09C435FEA8C2C00D51C435B
:100F50003C60DEF800407746D1F804C09C435FEA6D
:100F60008C3C00D51C433C60084F083F3C68D1F8DE
:100F700004C09C435FEACC3C00D51C433C60521C3F
:100F8000102AFFF42FAFBDE8F88F0000083C0140A5
:100F9000443802400030014000000240000402409A
:100FA00000080240000C0240001002400014024001
:100FB00000180240001C02400069084000D00120D7
:100FC0007047426921EA02030A4043EA0241816113
:100FD00070470AB1816170470904FBE701488068E6
:100FE000704700000C00002070B5040025D094F874
:100FF0003D00002520B984F83C50204600F0B4F9AB
:10100000242084F83D002068016821F0010101607E
:101010002068016841F4004101602068016821F402
:101020000041016000F008FB4D4A6168914201D81F
:101030004C4900E04C49884201D2012070BD4B4927
:101040002368B0FBF1F15E6826F03F060E435E6058
:101050006368934206D94FF4967359434FF47A73F9
:10106000B1FBF3F12368491C1E6A26F03F063143A9
:1010700019626168914210D84900401EB0FBF1F23C
:10108000521CC2F30B02042A01D2042022E0B0FB5E
:10109000F1F0401CC0F30B001CE0A268F2B301EBBE
:1010A000C10303EB0116431EB3FBF6F35B1C43F4D1
:1010B00080431B0549D092B301EBC10202EB011141
:1010C000401EB0FBF1F0401CC0F30B0040F4804028
:1010D00040F400402168CA694CF6FF739A431043FC
:1010E000C861D4E9071001432068026822F0C002F9
:1010F00011430160D4E9030101432068826848F28A
:10110000FF339A4311438160D4E905010843216804
:10111000CA6822F0FF021043C86001E00EE016E04A
:101120002068016841F0010101602564202084F8F5
:101130003D00256384F83E50002070BD01EB410660
:10114000431EB3FBF6F35B1CB3E70120C2E701EBE0
:101150004101401EB0FBF1F0401CC0F30B00B7E7AB
:10116000A086010080841E0000093D0040420F005F
:101170002DE9FF4F83B09A46DDE911979346044667
:10118000DDF84080FFF72AFF054694F83D0020284F
:1011900070D11923012271492046009501F00CFD00
:1011A0000028F5D194F83C00012863D0012084F890
:1011B0003C0020680168C90703D1016841F00101C2
:1011C00001602068016821F400610160222084F838
:1011D0003D00402084F83E0000262664C4F82480A8
:1011E000A4F82A90608D20855D48E062CDE9007505
:1011F00053465A462046049901F060FC00287CD1F1
:10120000208DD0B1012821D00228206824D0416946
:1012100080690090208D032869D801282BD051497E
:1012200002283B464FF00002009559D088462046E0
:1012300001F0C2FC002860D13CE02068416981696E
:101240000091016841F40071016077E02068016855
:1012500021F480610160F0E7016821F480610160A0
:101260002068016841F4006101602068416980697B
:10127000009063E06FE02A463946204601F01BFDEE
:1012800098BB20680069616A08704EE020680168B8
:1012900041F40071016020680069616A0870606A49
:1012A000401C6062218D491E2185618D491E61852A
:1012B000216838E02068016821F4806101602068BD
:1012C0000069616A0870606A401C6062208D401E7F
:1012D0002085608D401E60853B460022414600957A
:1012E000204601F069FC00B9D0E706E0FFE72A4696
:1012F0003946204601F0DFFC18B1012007B0BDE8F7
:10130000F08F20680069616A0870606A401C606242
:10131000218D491E2185618D491E618521684A699B
:10132000D24352070AD409690170606A401C6062A6
:10133000208D401E2085608D401E6085208D0028F8
:101340007FF468AF202084F83D0084F83E6084F884
:101350003C600020D2E70220D0E70000020010002D
:101360000000FFFF0400010010B586B00446142100
:101370006846FEF77DFF13492068884220D1124855
:101380000021026842F002020260006800F00200E0
:101390000590C02000901220CDE9010103200390A8
:1013A0000420049069460948FFF70EFD06481030F6
:1013B000016841F400110160006800F4001005901C
:1013C00006B010BD00540040303802400004024016
:1013D0000248816802781144816070470C00002047
:1013E0000B4810B5016841F400710160016841F4D7
:1013F00080610160016841F480710160032000F0A8
:101400006FF80F2000F006F800F024F8002010BD5F
:10141000003C024070B50D4D04464FF47A712878B7
:10142000B1FBF0F00A490968B1FBF0F000F0E0FC14
:1014300048B9102C07D200222146501E00F030F887
:1014400000206C6070BD012070BD00000C00002009
:10145000180000200A4808B5016841F48041016085
:10146000006800F4804000900548001F016841F0CA
:1014700080510160006800F08050009008BD0000BD
:1014800044380240002809DB00F01F02012191408E
:101490004009800000F1E020C0F800117047000012
:1014A000F0B40E4B1B680C46C3F30223C3F10705CF
:1014B000042D00D90425191D072901D2002300E0BD
:1014C000DB1E012606FA05F1491E214099409E4087
:1014D000761E16403143F0BC02F070BB0CED00E00C
:1014E000064900F0070208684FF6FF03184040EA7B
:1014F0000220034A10430860704700000CED00E032
:101500000000FA052DE9F0470E46050065D0DFF82A
:101510001481D8F80000F7B200F00700B04207D2FB
:1015200088F80070D8F8000000F00700B04254D1ED
:1015300028683D4C810712D5400703D5206840F448
:10154000E05020602878000703D5206840F4604010
:1015500020602068A96820F0F00008432060287807
:10156000C0072DD0304968680839012812D00228F8
:1015700013D0032811D00968890700292DDA2168C2
:1015800021F0030101432160FFF728FD814641F26C
:10159000883A0EE009688903EFE709688901ECE7FA
:1015A000FFF71CFDA0EB0901514502D90320BDE85E
:1015B000F0872068696800F00C00B0EB810FEFD174
:1015C000D8F80010404601F00701B14207D9077072
:1015D000006800F00700B04201D00120E7E728785A
:1015E000400705D52068E96820F4E05008432060F2
:1015F0002878000706D52068296920F4604040EA71
:10160000C100206000F038F82168084AC1F30311D6
:10161000515CC8400649086006480068FFF7FAFEBA
:101620000020C4E7003C02400838024092AE0208A5
:1016300018000020100000200448054900680968CF
:10164000044AC1F38221515CC84070471800002051
:1016500008380240A2AE020804480549006809683B
:10166000044AC1F34231515CC84070471800002061
:1016700008380240A2AE0208154810B5006810F004
:101680000C02144813D04110042A0FD0082A0ED19E
:101690000F4C241F2268236802F03F025B0207D52B
:1016A0002068C0F38810A0FB010106E0084610BDC9
:1016B0002168C1F38811A1FB00010023FEF780FD22
:1016C0002168C1F30141491C4900B0FBF1F010BD94
:1016D000083802400024F4002DE9F84F04006ED0D1
:1016E0002078DFF84C93C007A9F104054AD009F12E
:1016F00004000168C1F38101012908D00068C0F32A
:10170000810002280AD1D9F80000400206D52868D5
:10171000800337D560680028E1D033E06068B0F519
:10172000803F10D0B0F5A02F286810D020F4803072
:101730002860286820F4802028606068A8B1FFF73E
:101740004DFC06460DE0286840F48030F4E740F494
:1017500080202860F7E700BFFFF740FC801B64286B
:1017600073D828688003F7D50CE0FFF737FC0646EE
:1017700005E000BFFFF732FC801B6428F0D8286822
:101780008003F7D42078DFF8AC8280074FF0000A9E
:101790003ED5A748001D016811F00C0F08D0006865
:1017A000C0F3810002280BD1D9F80000400207D411
:1017B0002868800716D5E068012800D112E033E1DF
:1017C000E068B8B10120C8F80000FFF707FC064642
:1017D00005E000BFFFF702FC801B0228C0D8286884
:1017E0008007F7D52868216920F0F80040EAC10099
:1017F00028600DE0C8F800A0FFF7F0FB064604E003
:10180000FFF7ECFB801B02281FD828688007F7D45D
:101810002078000722D5864F87486169703771B1FB
:1018200001210160FFF7DAFB064604E0FFF7D6FB73
:10183000801B022809D838688007F7D50EE0C0F869
:1018400000A0FFF7CBFB064605E082E0FFF7C6FBF2
:10185000801B02287DD838688007F7D4207840079D
:1018600068D5DFF8CCB100270BF13C0BDBF80000AA
:10187000C0000BD4DBF8001041F08051CBF8001011
:10188000DBF80000012700F0805000906B4E3068BC
:10189000C00510D4306840F480703060FFF79EFBC4
:1018A000009005E0FFF79AFB0099401A022850D8F3
:1018B0003068C005F6D55E4EA0686C3601280FD0A2
:1018C0000528306810D020F001003060306820F02A
:1018D00004003060A068B8B1FFF780FB00900FE013
:1018E000306840F00100F4E740F004003060F7E7B2
:1018F000FFF774FB0099411A41F28830814266D8A3
:1019000030688007F4D50EE0FFF768FB009007E031
:10191000FFF764FB0099411A41F28830814256D8A2
:1019200030688007F4D42FB1DBF8001021F080512B
:10193000CBF80010A069C8B33D49091D0968C1F37F
:10194000810102294AD00228504607D0C8F8600019
:1019500000E03CE0FFF742FB04463BE04746C8F8A6
:101960006000FFF73BFB064605E000BFFFF736FBD4
:10197000801B02282BD828688001F7D4D4E90701FE
:101980000843A16A2E4A490802EB0141626A41EA12
:101990008211084394F82C1040EA0161C9F8001044
:1019A00001203866FFF71AFB044606E03EE000BF60
:1019B000FFF714FB001B022809D828688001F7D51F
:1019C00034E000BFFFF70AFB001B022802D9032006
:1019D000BDE8F88F28688001F4D427E00128F7D00B
:1019E000D9F80000E26900F4800191421CD1226A1A
:1019F00000F03F01914217D147F6C071626A014081
:101A0000B1EB821F10D1A26A4FF0FF3300F44031D6
:101A100003EB5202B1EB024F06D194F82C1000F008
:101A20007060B0EB016F01D00120D1E70020CFE75B
:101A30000438024000004742800E474200700040D8
:101A40000000FFFF704790F85100704770B5040028
:101A500009D0606A002540B125616561A56294F8EE
:101A6000510040B10CE0012070BD6068B0F5827F8C
:101A7000F4D0E561F2E784F85050204600F044F8D5
:101A8000022084F851002068016821F040010160C3
:101A9000A088218900F4827001F404410843A189DF
:101AA00001F400610843217C01F002010843217D1B
:101AB00001F001010843218B01F400710843217FEB
:101AC00001F03801084394F8201001F08001084328
:101AD000218D01F40051084321680860A0690421A8
:101AE00001EA104094F8241001F010010843216825
:101AF00048602068C16921F40061C1616565012009
:101B000084F85100002070BD70B586B006461421DF
:101B10006846FEF7ADFB20493068884239D11F483E
:101B20000025016841F480510160006800F4805094
:101B300005901A481438016841F0010101600068FD
:101B4000694600F001000590A02000900220CDE938
:101B5000010503200390052004901148FFF734F994
:101B6000114C104820604FF0C06060604020C4E914
:101B700002050001C4E90405C001A561C4E90750DC
:101B800020466562FFF744F808B1FEF72AFDB46409
:101B9000A66306B070BD000000300140443802402A
:101BA0000000024058640240980600202DE9F84FDA
:101BB000044690F8500000271D4616468946012825
:101BC0000DD04FF0010B84F850B0FFF707FA8046B4
:101BD00094F85100BA46012804D0022793E002206D
:101BE000BDE8F88FB9F1000F73D0002E71D003203B
:101BF00084F85100C4F854A0C4F83090A686E68654
:101C0000C4F838A0A4F83CA0A4F83EA0C4F844A0AE
:101C1000C4F840A0A068B0F5004F09D12068016861
:101C200021F0400101602068016841F480410160B9
:101C300020680168490603D4016841F04001016051
:101C4000E068B0F5006F606803D030B3012E24D097
:101C500041E008B1012E1CD1206B21680088C860CA
:101C600006E020688168890709D5216B0988C16071
:101C7000206B801C2063E08E401EE08609E0FFF7A9
:101C8000ADF9A0EB0800A84202D3681C01D031E0F6
:101C90007DB3E08E0028E4D120E0206B216800783D
:101CA000087306E020688168890709D5216B0978E7
:101CB0000173206B401C2063E08E401EE0860AE02A
:101CC000FFF78CF9A0EB0800A84203D3681C02D0F0
:101CD00010E017E06DB1E08E0028E3D142462946BE
:101CE000204601F0C9FA08B120206065A06818B14B
:101CF00006E0FFE7032706E02068C16880680090DF
:101D0000606D00B1012784F851B084F850A03846C6
:101D100066E700002DE9F041044690F850000026E7
:101D2000012809D0012784F8507094F8510000254B
:101D3000012804D002264EE00220BDE8F08189B1DE
:101D400082B1032084F8510065652163A286E28692
:101D5000A56365642564A587E587A068B0F5004F95
:101D600002D00BE0012636E02068016821F0400136
:101D700001602068016841F480410160A16C18484D
:101D80000864A16C1748C863A16C1748C864A06CAC
:101D90000565E38E2268216B0C32A06CFEF7A2FF72
:101DA00038B1606D40F010006065012684F8517014
:101DB00011E020680168490603D4016841F0400140
:101DC00001602068416841F020014160206841685D
:101DD00041F00201416084F850503046ADE7000008
:101DE0000932000813320008E731000870477047D5
:101DF00010B5401EB0F1807F01D3012010BD4FF01F
:101E0000E02460610F21601701F0D8FE0020A0617E
:101E100007202061002010BD7047704770B590F812
:101E20003C20012A32D0012480F83C40022280F874
:101E30003D2003685A689D6822F070060A683243A4
:101E40005A60134B02689A4214D0B2F1804F11D0FD
:101E5000104B9A420ED0104B9A420BD00F4B9A4225
:101E600008D00F4B9A4205D00E4B9A4202D00E4B2F
:101E70009A4204D1496825F080031943916080F8A3
:101E80003D40002180F83C10084670BD022070BD26
:101E9000000001400004004000080040000C004029
:101EA00000040140004001400018004010B504004B
:101EB00003D094F83D0010B107E0012010BD0020D0
:101EC00084F83C00204600F01FF8022084F83D0012
:101ED000211D206801F0B4FA012084F8460084F83E
:101EE0003E0084F83F0084F8400084F8410084F804
:101EF000420084F8430084F8440084F8450084F8E4
:101F00003D00002010BD000008B50168194881425D
:101F100001D1194819E01848001FB1F1804F14D0C1
:101F2000164A914219D1016841F00401016000682C
:101F3000002200F00400009001211E20FFF7B0FAFB
:101F4000BDE808401E20FFF79DBA016841F001017D
:101F50000160006800F0010009E0094A914207D1E0
:101F6000016841F008010160006800F0080000907D
:101F700008BD000000000140443802400008004055
:101F8000000C004090F83D10012901D0012070475D
:101F9000022180F83D100168CA6842F00102CA605F
:101FA00000681149884214D0B0F1804F11D00F4918
:101FB00088420ED00E4988420BD00E49884208D084
:101FC0000D49884205D00D49884202D00C4988420B
:101FD00004D1816801F00701062903D0016841F0AE
:101FE0000101016000207047000001400004004032
:101FF00000080040000C0040000401400040014087
:102000000018004070B5044690F83C0000250128F7
:1020100017D0012684F83C60022084F83D00206837
:10202000826822F0770222F47F428260086850289A
:1020300038D00DDC20284FD005DC90B3102811D10A
:102040004AE0022070BD302846D040280AD13BE04B
:1020500060282FD070280DD0B0F5805F03D0B0F588
:10206000005F12D0012584F83D60002084F83C0018
:10207000284670BDCB68D1E90121206801F051FAF2
:102080002068816841F0770109E0CB68D1E901213E
:10209000206801F046FA2068816841F4804181603F
:1020A000E1E719E0CA684968206801F00FFB502198
:1020B000206806E0CA684968206801F018FB6021C2
:1020C000206801F038FACEE7CA684968206801F054
:1020D000FDFA40212068F4E7226801461046F0E747
:1020E000704770B50446006801694FF00005C943A8
:1020F000890715D4C168C943890711D4E91E016154
:1021000001202077206880698007204602D0FFF7F1
:10211000E7FF04E000F0C0F8204600F052F9257710
:1021200020680169C943490717D4C168C9434907F1
:1021300013D46FF0040101610220207720688069C8
:1021400010F4407F204602D0FFF7CAFF04E000F001
:10215000A3F8204600F035F9257720680169C943C6
:10216000090716D4C168C943090712D46FF00801E2
:102170000161042020772068C0698007204602D0D2
:10218000FFF7AEFF04E000F087F8204600F019F9F1
:10219000257720680169C943C90617D4C168C943B6
:1021A000C90613D46FF01001016108202077206860
:1021B000C06910F4407F204602D0FFF791FF04E091
:1021C00000F06AF8204600F0FCF8257720680169E5
:1021D000C943C90708D1C168C943C90704D1891EC9
:1021E0000161204600F052F920680169C9430906DF
:1021F00009D4C168C943090605D46FF080010161A3
:102200002046FFF709FE20680169C943490609D441
:10221000C168C943490605D46FF0400101612046F9
:1022200000F058F920680169C94389060BD4C168D8
:10223000C943890607D46FF0200101612046BDE83B
:102240007040FFF7EABD70BD10B586B0044614219A
:102250006846FEF70DF82068B0F1804F16D10C48A3
:102260000021026842F002020260006800F00200F1
:1022700005904FF4806000900220CDE9010101201B
:10228000CDE9031069460348FEF79EFD06B010BD78
:102290003038024000040240704770B5044690F8A0
:1022A0003C0000260D4601280FD0012084F83C0098
:1022B0006AB1042A1DD0082A2FD00C2A3FD001264B
:1022C000002084F83C00304670BD022070BD2068BC
:1022D00001F03AF92068816941F0080181612068C4
:1022E000816921F004018161206881692A691143B3
:1022F00011E0206801F058F92068816941F400611B
:1023000081612068816921F480618161206881692F
:102310002A6941EA02218161D2E7206801F07AF955
:102320002068C16941F00801C1612068C16921F0DC
:102330000401C1612068C1692A69114311E0206864
:1023400001F09CF92068C16941F40061C161206815
:10235000C16921F48061C1612068C1692A6941EACB
:102360000221C161ACE710B5040003D094F83D0030
:1023700010B107E0012010BD002084F83C00204689
:1023800000F01EF8022084F83D00211D206801F0B5
:1023900057F8012084F8460084F83E0084F83F0096
:1023A00084F8400084F8410084F8420084F8430037
:1023B00084F8440084F8450084F83D00002010BDF6
:1023C0007047704710B50446022249B104290ED067
:1023D000082913D094F84100012816D0012010BD1F
:1023E00094F83E000128F9D184F83E200FE094F8DB
:1023F0003F000128F2D184F83F2008E094F8400023
:102400000128EBD184F8402001E084F8412001222A
:10241000206801F079F816492068164A884201D0F0
:10242000904203D1436C43F40043436420688842E4
:1024300013D0B0F1804F10D00F4988420DD00F4912
:1024400088420AD00E49884207D0904205D00D49F3
:10245000884202D00C49884204D1816801F007010A
:10246000062903D0016841F001010160002010BD80
:10247000000001400004014000040040000800404A
:10248000000C0040004001400018004070B500689A
:102490000D49884216D10D4C00256068401C6060D3
:1024A000B0F57A7F04D1042109486560FEF789FD03
:1024B0002078401CC0B22070052803D3052020F0EE
:1024C0007DFF257070BD0000000800400000002066
:1024D000000402407047704710B504460068406928
:1024E00094F83D10C0F3C010212911D180B12068AB
:1024F000143050E8001F21F0800140E80012002A4B
:10250000F5D1606B08B1FEF757FA204601F0A3F948
:102510002068406994F83E10C0F38010222911D140
:1025200080B12068143050E8001F21F0400140E8DD
:102530000012002AF5D1A06B08B1FEF73DFA204643
:1025400001F062F9002010BD70470000F8B5016885
:1025500004460868CA684B6910F00F0F4FF0000579
:1025600059D003F0010602F49077374365D0C107D4
:1025700005D0D10503D5216C41F00101216441074B
:1025800005D5D90703D0216C41F0020121648107F0
:1025900005D5D90703D0216C41F00401216401075E
:1025A00007D502F02001314303D0216C41F008012E
:1025B0002164216C00293AD0800604D5900602D50A
:1025C000204601F056F920684069216CC0F3801064
:1025D000090700D460B3204601F016F9206840696D
:1025E000400621D52068143050E8001F21F040013A
:1025F00040E80012002AF5D1A06BA8B16C49016532
:10260000A06BFEF722FA002811D0A06B016D01B07B
:10261000BDE8F040084783060FD593060DD5204648
:10262000BDE8F84001F025B92046FFF78DFFF8BD61
:102630002046FFF789FF2564F8BD266B2023012E75
:1026400079D1C60677D5D60675D508684868009052
:102650004869400640D5A16B086840680004000C3A
:10266000EAD0A28D8242E7D9E085C869B0F5807FC3
:102670002DD020680C3050E8001F21F4807140E814
:102680000012002AF5D12068143050E8001F21F014
:10269000010140E80012002AF5D12068143050E80A
:1026A000001F21F0400140E80012002AF5D184F813
:1026B0003E30256320680C3050E8001F21F01001E7
:1026C00040E80012002AF5D1A06BFEF775F9A08D45
:1026D000E18D401A81B229E0A08DE18D401A81B2CE
:1026E000E08D0028A8D00029A6D020680C3050E842
:1026F000002F22F4907240E80026002EF5D12068C9
:10270000143050E8002F22F0010240E80026002E8D
:10271000F5D184F83E30256320680C3050E8002F56
:1027200022F0100240E80023002BF5D12046FFF7ED
:10273000D2FEF8BDFFE705062BD5150629D594F87E
:102740003D002128F5D1A068B0F5805F01D1206956
:10275000B0B1206A411C2162216800784860E08C99
:10276000401E0004000CE084E3D12068C16821F021
:102770008001C1602068C16841F04001C160D8E7B4
:10278000206A0088C0F308004860206A801C20622C
:10279000E5E74006CDD55006CBD5CA68204622F0E5
:1027A0004002CA6084F83D3000F06FF9C1E70000D4
:1027B00013370008F8B5184A016891422AD10A680F
:1027C000002649680091FFF787FE144800684068BA
:1027D000C0F500700404240C10D0114D11A128463E
:1027E0002E55FDF750FD20B1294612A001F0C2F987
:1027F00004E0A5F80042012085F804024FF40072BD
:102800000749114800F0D0F8002803D0BDE8F8408F
:10281000FDF7E7BEF8BD000000440040A00800201E
:10282000000900202B4D51545453554252454356F4
:10283000000000004D515454204D6573736167656D
:102840003A2025730A0000005C08002070B50400DF
:1028500004D094F83D00002510B106E0012070BDC1
:1028600084F83C50204600F023F8242084F83D00F2
:102870002068C16821F40051C160204601F05AF877
:102880002068016921F4904101612068416921F0CB
:102890002A0141612068C16841F40051C16025648A
:1028A000202084F83D0084F83E00002070BD000028
:1028B000F0B587B0064614216846FDF7D9FCDFF86D
:1028C000D0C0306800253349022203230727324C49
:1028D00060451CD12F481430066846F0100606608B
:1028E000006800F010000590086840F001000860E2
:1028F0000868694600F00100059058028DE825003F
:10290000CDE903372046FEF75FFA07B0F0BDDFF8E8
:102910008CC06045F9D11F481030D0F800C04CF48D
:10292000003CC0F800C0006800F400300590086862
:1029300040F0010008600868694600F00100059059
:102940000C208DE82500CDE903372046FEF73CFA40
:10295000144C134820604FF00060C4E90105401496
:10296000C4E903506561A561E561256220466562A1
:10297000FEF74EF908B1FDF734FEB46300221146AC
:102980002620A663FEF78CFD2620FEF77BFDBCE724
:102990000010014030380240000002400044004076
:1029A00088600240A008002090F83E30202B0ED115
:1029B00059B152B190F83C30012B08D0012380F876
:1029C0003C300023036301F03BB801207047022034
:1029D00070477047704700002DE9F843044690F8AF
:1029E0003D001F4616460D4620284CD1C5B1BEB14C
:1029F00094F83C00012846D0012084F83C004FF0B8
:102A00000008C4F84080212084F83D00FEF7E6FA73
:102A1000A6848146E684A068B0F5805F03D004E018
:102A20000120BDE8F883206928B12E465FF000053B
:102A300084F83C800EE00026FAE78021204601F071
:102A400049F8A0B9AEB116F8010B21684860E08CD6
:102A5000401EE084E08C4B464FF0000200970028B7
:102A6000EBD14FF04001204601F034F830B10320A3
:102A7000D7E735F8020BC0F30800E6E7202084F81A
:102A80003D000020CDE70220CBE77047FEE701685C
:102A90004A69D24352050FD46FF480624A61002123
:102AA00040F8301F202242738173026942F0040211
:102AB0000261017301207047002070472DE9F84F33
:102AC0000446006889460B9D01689846174641F404
:102AD000806101602068016841F4807101600095A7
:102AE0004FF0011B0022594620460A9B00F064F873
:102AF0004FF4007A40B120680068C00501D5C4F8E1
:102B000040A00320BDE8F88F216809F0FE000861AD
:102B10002B46284920460A9A00F082F8F0BB20682C
:102B20004169806900902A4620460A9900F0F6F82B
:102B300040B1206C04283AD12068016841F400714A
:102B4000016034E0FEB2B8F1010F09D02168380A03
:102B500008612A4620460A9900F0E0F80028E8D1EA
:102B6000206806612A4620460A9900F0D7F8002816
:102B7000DFD12068016841F4807101600095002276
:102B8000594620460A9B00F017F80028B3D1216867
:102B900009F0FF0040F00100086100E007E02B466B
:102BA000044920460A9A00F03BF80028AAD00120E8
:102BB000A8E70000020001002DE9F0471E469046FC
:102BC0000D460446C1F30747DDF8209008E0701C6D
:102BD00006D0FEF703FAA0EB0900B0420FD876B199
:102BE0002068012F18D0806925EA00000004000C3D
:102BF00014D000214145EAD00020BDE8F087002034
:102C000044F8300F20216173A073216941F0200145
:102C1000216120730120F0E74069E5E70121E9E740
:102C20002DE9F0479A4691460E46044600254FF09E
:102C30002008C1F3074725E020684069C0434005EC
:102C400014D42068016841F40071016021686FF4B8
:102C500080604861256384F83D8084F83E50206C94
:102C600040F00400206484F83C501FE0B9F1FF3FBD
:102C700008D0FEF7B3F9A0EB0A0149450CD8B9F129
:102C8000000F09D02068012F13D0806926EA0000C8
:102C90000004000C0BD0CFE744F8305F84F80D80BF
:102CA000A573206940F02000206125730120BDE854
:102CB000F0874069EAE72DE9F041002590460E468D
:102CC0000446202717E04069C043C0060CD454F8DE
:102CD000301B6FF01000486144F810596777A577F2
:102CE000206A2062257717E0FEF778F9A0EB08004C
:102CF000B04208D83EB120684169C9434906E2D4D0
:102D00000020BDE8F08144F8305F6773A573206947
:102D100040F02000206125730120F2E770B51646CF
:102D20000D4604460DE02046FFF7B1FE08B1012034
:102D300070BD681C05D0FEF751F9801BA84207D86A
:102D400035B120684069C0430006ECD4002070BD56
:102D5000002044F8300F20216173A073216941F0F5
:102D6000200121612073E2E7B0F57A7F01D340F2C0
:102D7000E73002490968C863704700004007002037
:102D80007FB50024154800940194029412490394DD
:102D900001604FF48031C0E901140125046105761A
:102DA00080F820400E49C0E90A14C561C46080F86B
:102DB00030404561FDF7A6FD08B1FDF712FC042087
:102DC000CDE90005694602940448FDF7F5FC0028AA
:102DD00001D0FDF706FC7FBD00200140A4050020C6
:102DE0000100000F114808B5016841F4800101603D
:102DF000016801F480010091016841F40011016053
:102E00000068002200F40010009011461020FEF728
:102E100047FB1020FEF736FB002211463B20FEF751
:102E20003FFBBDE808403B20FEF72CBB303802409A
:102E3000F0B587B014216846FDF71AFA344800242B
:102E4000016841F080010160016801F08001059195
:102E5000016841F001010160016801F00101059183
:102E6000016841F002010160016801F00201059171
:102E7000016841F0100101600068264E00F010006A
:102E80000590012204213046FEF7A3F8224F0122CB
:102E900080213846FEF79DF80022B1143846FEF72F
:102EA00098F800224FF460513046FEF792F843F64E
:102EB000040000900125CDE9015469463046039491
:102EC000FDF782FF4FF484500090CDE9015469462C
:102ED00038460394FDF778FF4FF460608DE83100C9
:102EE00069463846FDF770FFA80300904FF488103C
:102EF000CDE9010469463046FDF766FF0022012155
:102F00002820FEF7CDFA2820FEF7BCFA07B0F0BD66
:102F10003038024000040240001002400D4810B555
:102F20000B4901600C49416000214FF480428160EF
:102F3000C0E9031241618161C1610162FEF754F889
:102F4000002803D0BDE81040FDF74BBB10BD0000CA
:102F500000540040EC050020A0860100104810B588
:102F60000E4901604FF48271416000218160C160AF
:102F70004FF400720161C0E905121022C0E9072177
:102F8000416281620A21C162FEF760FD002803D020
:102F9000BDE81040FDF725BB10BD0000003001402A
:102FA0004006002010B586B0002417480094019414
:102FB00002940394049413490594C0E900144FF655
:102FC000FF71C0E90241046144618461FEF76EFF54
:102FD00008B1FDF706FB4FF48050009069460A489F
:102FE000FFF710F808B1FDF7FCFA049404A90648AD
:102FF0000594FEF713FF002801D0FDF7F2FA06B0A2
:1030000010BD000000000140F806002010B58EB091
:1030100000240794089409940A940B941C21684690
:103020000C94FDF725F91E484FF0804101605321B3
:10303000C0E9011440F2E731C0E903148021816145
:10304000FEF734FF08B1FDF7CCFA4FF4805007903B
:1030500007A91348FEF7D6FF08B1FDF7C2FA1048DA
:10306000FFF781F908B1FDF7BCFA0B940BA90C48E6
:103070000C94FEF7D3FE08B1FDF7B3FA6020CDE95A
:10308000000402940822694605480494FFF705F9F4
:1030900008B1FDF7A6FA0248FFF7D6F80EB010BD4A
:1030A0004007002010B586B0002417480094019412
:1030B0000294039404941349059401605321C0E9D8
:1030C00001144FF47A71C0E903148461FEF7EEFE37
:1030D00008B1FDF786FA4FF48050009069460A481F
:1030E000FEF790FF08B1FDF77CFA049404A90648A6
:1030F0000594FEF793FE002801D0FDF772FA06B0A2
:1031000010BD0000000800408807002010B586B000
:1031100000241648009401940294039404941249E4
:10312000059401605321C0E90114611EC0E9031434
:103130008461FEF7BBFE08B1FDF753FA4FF48050EF
:10314000009069460948FEF75DFF08B1FDF749FAAE
:10315000049404A905480594FEF760FE002801D0F8
:10316000FDF73FFA06B010BD000C0040D00700206C
:103170000C4810B50A4901604FF4E131416000216B
:1031800081600C22C160C0E904128161C161FFF756
:103190005DFB002803D0BDE81040FDF722BA10BD4A
:1031A00000100140180800200C4810B50A490160C1
:1031B0004FF4E1314160002181600C22C160C0E91F
:1031C00004128161C161FFF741FB002803D0BDE813
:1031D0001040FDF706BA10BD004400405C08002016
:1031E000FEE7FEE7704710B5806B01684A6822F081
:1031F00003024A60416D41F010014165012180F8F0
:103200005110FEF71FFC10BD10B5806BFEF7EFFDEF
:1032100010BD38B50546846BFDF7E0FE0246286810
:103220000068C00523D42068416821F02001416076
:103230002068416821F0020141606421204600F0CD
:103240001BF818B1606D40F020006065A068002197
:1032500018B92068C26880680090E186012084F86F
:103260005100606D18B12046FEF7ECFB38BD2046DA
:10327000FEF7BCFD38BD000038B504461248134BBC
:103280000068B0FBF3F04FF47A7358430090606825
:10329000B0F5827F0DD10B4600920022802120469E
:1032A00000F016F870B1606D40F0200060650320FA
:1032B00038BD009830B1401E009020688068C0433F
:1032C0000006F6D5002038BD1800002000366E013B
:1032D0002DE9F8431E46914688460446089DFDF7B1
:1032E0007DFE401B351AFDF779FE0746254800682C
:1032F000C0F3CB30684338E0701C37D0FDF76EFE6A
:10330000C01BA84203D215B1009860B32CE020681E
:10331000416821F0E00141606068B0F5827F0BD127
:10332000A068B0F5004F02D0B0F5806F04D12068DE
:10333000016821F040010160A06AB0F5005F09D189
:103340002068016821F4005101602068016841F49F
:1033500000510160012084F85100002084F85000E1
:103360000320BDE8F8830025401E00902068816896
:1033700038EA010004D000214945BDD10020F0E722
:103380000121F9E7180000207047FEF721B800007E
:1033900030B593B030216846FCF76AFF14210CA8C1
:1033A000FCF766FF1D480025016841F0805101606F
:1033B000006800F0805011901948016841F4804184
:1033C00001600068022400F4804011900120009008
:1033D000000401908001CDE9064008AA0420A8213C
:1033E00082E813000B906846FEF776F908B172B6D2
:1033F000FEE70CA90F2081E831004FF4A0500F9098
:103400004FF48050109005210CA8FEF77BF800289F
:1034100001D072B6FEE713B030BD00004038024064
:10342000007000400248016841F47001016070477B
:1034300088ED00E00148FEF754BE00008807002038
:10344000F0B50268254C264D264E274F274B4FF0EE
:10345000804CA04209D0604507D0A84205D0B042B8
:1034600003D0B84201D0984204D122F0700E4A68CD
:1034700042EA0E02A0421BD0604519D0A84217D0E4
:10348000B04215D0B84213D0984211D0184DA8427E
:103490000ED0184DA8420BD0174DA84208D0174D9A
:1034A000A84205D0164DA84202D0164DA84203D11D
:1034B00022F44075CA682A434D6922F080022A43EB
:1034C00002608A68C2620A688262A04201D09842A1
:1034D00001D10969016301214161F0BD0000014092
:1034E0000004004000080040000C004000040140BF
:1034F00000400140004401400048014000180040E5
:10350000001C00400020004010B501F01F03012105
:10351000046A99408C430462016A9A401143016233
:1035200010BD10B5846842EA032224F47F440A43A4
:103530002243826010BD826822F070020A4342F08A
:103540000701816070470000F0B5026A22F00102B5
:103550000262036A42688469124E24F073050C68A3
:103560002C4323F002058B682B430D4DA84201D05C
:10357000B04205D123F00807CB683B4323F0040396
:10358000A84201D0B04205D14D6922F440721543E2
:103590008A692A4342608461496841630362F0BDDD
:1035A0000000014000040140F0B5026A22F0100260
:1035B0000262026A436884690D6824F4E64444EABE
:1035C00005248D6822F0200242EA05120F4D104EAC
:1035D000A84201D0B04206D1CF6822F0800242EA70
:1035E000071222F04002A84201D0B04207D14D6933
:1035F00023F4406343EA85038D6943EA850343600E
:103600008461496881630262F0BD000000000140EE
:1036100000040140F0B5026A22F480720262026A7C
:103620004368C46922F4007224F073050C68124EDA
:103630002C438D6842EA05220E4DA84201D0B042CB
:1036400006D1CF6822F4006242EA072222F48062A7
:10365000A84201D0B04207D14D6923F4405343EA58
:1036600005138D6943EA05134360C4614968C1636A
:103670000262F0BD000001400004014030B5026A62
:1036800022F480520262046A4268C3690D6823F41E
:10369000E64343EA05238D6824F4005444EA0534E4
:1036A000084DA84202D0084DA84204D14D6922F429
:1036B000804242EA85124260C36149680164046243
:1036C00030BD0000000001400004014010B5036A55
:1036D000046A24F001040462846924F0F00444EADA
:1036E000021423F00A020A438461026210BD10B57D
:1036F000036A23F0100303628369046A23F47043AE
:1037000043EA023224F0A00343EA0111826101621C
:1037100010BD10B5806B0021C185C184FEF714FF78
:1037200010BD70B5846B2068406994F83D10C0F3FB
:10373000C0100025212904D118B1E584204600F0ED
:103740008AF82068406994F83E10C0F3801022295E
:1037500004D118B1E585204600F056F8206C40F001
:10376000100020642046FEF7EFFE70BD10B5014644
:10377000806B09680968C9052FD40021C1850168DB
:103780000C3151E8002F22F4807241E80023002B15
:10379000F5D10168143151E8002F22F0010241E80F
:1037A0000023002BF5D10168143151E8002F22F0DD
:1037B000400241E80023002BF5D1202180F83E1083
:1037C000016B012909D101680C3151E8002F22F069
:1037D000100241E80023002BF5D1016B012902D032
:1037E000FFF7F7F810BD818DFEF775FE10BD10B51F
:1037F000806B016B012902D0FFF7ECF810BD818DC1
:103800004908FEF768FE10BD01680C3151E8002F31
:1038100022F4907241E80023002BF5D101681431A5
:1038200051E8002F22F0010241E80023002BF5D1DE
:10383000016B012909D101680C3151E8002F22F0F8
:10384000100241E80023002BF5D1202180F83E1022
:1038500000210163704701680C3151E8002F22F00C
:10386000C00241E80023002BF5D1202180F83D1053
:10387000704708B590F83E10222901D0022008BDFB
:1038800082684FF480539A4201D1016921B1816A63
:103890009A421BD04AB10AE00268816A5268C2F3B8
:1038A00008020A80816A891C08E0026972B1026814
:1038B000526802F07F020A70816A491C8162C18DE0
:1038C000491E0904090CC18503D019E00268526839
:1038D000F1E70168CA6822F02002CA600168CA687C
:1038E00022F48072CA6001684A6922F001024A61CA
:1038F000202180F83E10016B012903D0FFF769F801
:10390000002008BD0021016301680C3151E8002F3F
:1039100022F0100241E80023002BF5D101680A686B
:10392000D20602D50A6849680091818DFEF7D3FD61
:10393000E6E7000070B5044600680169E26821F41A
:103940004051114301612169A068E269084361693E
:10395000114308432168CA6849F20C639A43024341
:10396000CA6020684169A26921F440711143416134
:1039700031492068884202D03049884202D1FDF79F
:103980006BFE01E0FDF758FEE26900231921642572
:103990003226B2F5004F626828D0A0FB0101930FD8
:1039A0009200FCF70DFC0146B0FBF5F06FF0180239
:1039B000504301EB800006EB0010B0FBF5F000F087
:1039C000F002B1FBF5F002EB0012B1FBF5F06FF085
:1039D0001803584301EB800006EB0010B0FBF5F034
:1039E00000F00F0021681044886070BDA0FB010149
:1039F00092185B41FCF7E4FB0146B0FBF5F00201D5
:103A0000B1FBF5F06FF01803584301EB800006EBB3
:103A1000C000B0FBF5F000F0F80002EB4002B1FB93
:103A2000F5F0584301EB800006EBC000B0FBF5F069
:103A300000F00700D6E7000000100140001401402C
:103A400038B581628285002513460446056422202C
:103A500084F83E00A26B1C48D063A26B1B48106424
:103A6000A26B1B48D064A06B0A4605652168A06B59
:103A7000091DFDF737F9206801684068009084F857
:103A80003C50206948B120680C3050E8001F41F4D8
:103A9000807140E80012002AF5D12068143050E807
:103AA000001F41F0010140E80012002AF5D1206812
:103AB000143050E8001F41F0400140E80012002A95
:103AC000F5D1002038BD00006D370008EF37000841
:103AD000233700082DE9F041984617460E46044664
:103AE000069D27E0681C25D02DB1FDF777FAA0EBE5
:103AF0000800A8421ED920680C3050E8001F21F4AD
:103B0000D07140E80012002AF5D12068143050E846
:103B1000001F21F0010140E80012002AF5D1202009
:103B200084F83D0084F83E00002084F83C00032027
:103B3000BDE8F0812068006836EA000004D000206B
:103B4000B842CFD00020F3E70120F9E7074810B5CD
:103B500000680068C043C00602D40448FEF72AFE8D
:103B6000BDE810400148FEF7F1BC00005C080020F1
:103B7000FEE700000FB4054B10B503A9044A0298F4
:103B800001F030FD10BC5DF814FB0000E1F9000805
:103B9000AC0200200FB4084B10B504A902AA039888
:103BA00001F020FD044602A9002001F0F7FD2046A7
:103BB00010BC5DF814FB00009D5700080907090EB2
:103BC000002804DB00F1E02080F80014704700F0CA
:103BD0000F0000F1E02080F8141D704702E008C8D3
:103BE000121F08C1002AFAD170477047002001E077
:103BF00001C1121F002AFBD1704770B50446002591
:103C00006FF02F0608E02068411C2160007805EB6A
:103C1000850106EB410145182068007800F004F8A2
:103C20000028F0D1284670BD3038092801D801207D
:103C3000704700207047000010B54421074800F08D
:103C400085FF00221E2106481FF012FC054CA060D3
:103C500002F03CF90020207010BD0000E838002080
:103C6000815F0008AC0100202DE9F0470E46814637
:103C700017461146304600F01CF94FF0FF3A002875
:103C80007DD000223946304600F0BFF800284FF0C2
:103C9000000075D1B6F90480B6F900305246A8EBA1
:103CA0000301491C0AFA81F10FFA81FAB6F906C03C
:103CB000B6F90210ACEB010C0CF1010C02FA8CF21B
:103CC000B7F802C012B2ACEB010C0FFA8CFCBCF1DD
:103CD000000F0EDD63F30F0468F30F0501EB0C001A
:103CE00061F31F4460F31F45C9F800400120C9F883
:103CF0000450B7F906107388CB1AD21A12B2002AF0
:103D000013DDB6F9063099420FDA338863F30F04F6
:103D1000B38861F31F4463F30F05114461F31F453A
:103D200009EBC001401C0C604D60B7F90220B6F9E8
:103D300002108A4200DD1146B7F90630B6F90620B6
:103D4000934200DA1A463B88B6F900C0521AA3EB38
:103D50000C031BB212B2002B10DD002A0EDD6344EF
:103D600063F30F058B1863F31F456CF30F0409EB26
:103D7000C00361F31F441C605D60401C01E01AE059
:103D800017E0B7F9043036889F1BAAEB070636B256
:103D9000002E0EDD63F30F0461F31F44334463F31D
:103DA0000F05114461F31F4509EBC001401C0C6075
:103DB0004D60BDE8F0875046FBE770B5B1F90030C3
:103DC000B2F90040A34200DC23460380B1F902505F
:103DD000B2F90240A54200DD2C464480B1F90460EE
:103DE000B2F90450AE4200DA35468580B1F90610CA
:103DF000B2F90620914200DB1146C1800120AB429E
:103E000001DC8C4200DD002070BDF8B50D46044693
:103E1000B0F90000B1F900101646884247DBB4F94A
:103E20000210B5F90220914241DBB4F90410B5F952
:103E3000042091423BDCB4F90610B5F9062091420A
:103E400035DC96B3ADF800006088ADF8020032466C
:103E50006946284600F099F8002827D0A088ADF8D8
:103E600000006088ADF8020032466946284600F03E
:103E70008CF800281AD02088ADF80000E088ADF852
:103E8000020032466946284600F07FF800280DD02F
:103E9000A088ADF80000E088ADF80200324669461F
:103EA000284600F072F8002800D00120F8BD00205C
:103EB000F8BDB0F90020B1F904309A4213DCB0F932
:103EC0000420B1F900309A420DDBB0F90220B1F9BB
:103ED00006309A4207DCB0F90600B1F902108842B8
:103EE00001DB0120704700207047F8B50D460446FD
:103EF000B0F90400B1F900101646884243DBB4F96A
:103F00000600B5F9021088423DDBB4F90000B5F9AE
:103F10000410884237DCB4F90210B5F9062091424A
:103F200031DC76B3ADF800006088ADF802003246AF
:103F30006946284600F029F818BBA088ADF80000B3
:103F40006088ADF8020032466946284600F01DF848
:103F5000B8B92088ADF80000E088ADF8020032461C
:103F60006946284600F011F858B9A088ADF800005D
:103F7000E088ADF8020032466946284600F005F8B0
:103F800008B10020F8BD0120F8BD2DE9FC41144620
:103F90000E46B1F90020B0F9001005468A423ADB1E
:103FA000B5F90400824236DCB6F90270B5F9022098
:103FB000974230DBB5F906309F422CDC002C75DDD2
:103FC000401A9A1A401C521C00B212B200EBD07078
:103FD00002EBD27240105210904200DB1046844235
:103FE00000DD0446ADF80010288800222044ADF81A
:103FF00004006888ADF80200688831462044ADF8B6
:1040000006006846FFF7C1FF40B1BDF80400204438
:10401000ADF804003FE00020BDE8FC81E888002204
:10402000001BADF80200E888ADF80600314668468E
:10403000FFF7ABFF28B1BDF804002044ADF8040041
:1040400011E0A8880022001BADF80000A888ADF898
:10405000040031466846FFF798FF50B1BDF80000F4
:10406000001BADF80000BDF80200001BADF8020017
:1040700016E06888ADF80200688800222044ADF898
:10408000060031466846FFF780FF70B1BDF80000BA
:10409000001BADF80000BDF806002044ADF8060096
:1040A000314668461CF0C2FCB6E7FFE70120B3E7E3
:1040B00010B5B1F90040B2F900309C4200DA234655
:1040C0000380B1F90240B2F902309C4200DA234683
:1040D0004380B1F90440B2F904309C4200DD23462C
:1040E0008380B1F90610B2F90620914200DC114636
:1040F000C18010BD2DE9F0418AB007461FF054F988
:104100000026A34C054600960FB1F86801E011F0B7
:104110009BFC606000691CF085FB6068406908B129
:104120001CF080FB6068C0691CF07CFB6068006A62
:104130001CF078FB6068016991B11CF025FD21F04D
:104140004DFA20F073FF6068B0F85011E9B30068D1
:10415000017CC9071FD0C0684068E0B1002715E0A6
:10416000A0F850610AB0BDE8F081C11991F8301192
:1041700051B900F5AC7000F040FD616801EBC7017A
:104180000A6B0260496B41607F1CBFB26068B0F887
:104190005011B942E9D860684FF48071303017F09F
:1041A0003BFF6068202100F5987017F035FF6068CC
:1041B000A0F8506128461FF0F1F800906068006890
:1041C000436A13B122680099984717F05DFD00F02B
:1041D0002BF900F0FDF86F4D6F69D7BB17F0E3FACC
:1041E00016F0DCFB074600227F211CF0C2F910F01C
:1041F0000BFE0146002238461CF0A5F911F08BF8A1
:104200000146002238461CF067FA00220321384696
:104210001CF04EFA0022032138461CF03AFA002224
:10422000032138461CF03AFA0022032138461CF0DC
:104230003AFA0022032138461CF049FA56A13846C2
:1042400017F032FA00231A460621384618F0D0FA41
:104250006F6128681FF0A2F84FF4967840450CD2A1
:10426000206841F28831884234D96968009808444E
:104270006860A868401CA8602CE01FF095F82860D2
:104280006068406828B100684FF47A71B1FBF0F0C3
:1042900000E02120696809B901216960A968F1B1CC
:1042A0004FF47A7251436A68B1FBF2F46E60AE600B
:1042B000844200D90446286920442861E868401CEB
:1042C000E8601FF007F9C0F16403224633A13846C5
:1042D00017F021FA2E4D08356C6814B137E004460A
:1042E000E4E717F060FA16F059FB044600227F213C
:1042F0001CF03FF910F088FD0146002220461CF01A
:1043000022F911F008F80146002220461CF0E4F9D9
:104310000022032120461CF0CBF900220321204675
:104320001CF0B7F90022032120461CF0B7F9002247
:10433000032120461CF0B7F917A1204617F0B4F965
:1043400000231A460421204618F052FA6C602868AF
:104350001FF024F840457FF605AF1FF025F82860D0
:1043600002A817F029FD04990298401A820A5142C6
:1043700000EB81206621B0FBF1F39DF821109DF840
:104380002000CDE9000109A1204617F0C4F9E9E6B3
:1043900064000020543700203F00000025752046AF
:1043A00050530A25752525204350550025752E2587
:1043B00075206B42207573656420282564202525AF
:1043C000290A2564252520667261672E00000000F9
:1043D00070B50A4D002400BFC4EBC40655F8260092
:1043E00008B117F0C5FC05EB86001C2117F014FE80
:1043F000641CE4B2042CEFD370BD0000C43900206B
:10440000084949680AE04A68824202D00A68824242
:1044100003D10A7E42F001020A7649690029F2D1ED
:104420007047000038000020704700000421014858
:1044300000F08CBBDC3800202021014800F086BB56
:10444000F43800202DE9FF410446DDE90A671D002C
:104450004FF0000002D1B6F5807F2BD00390019081
:104460000290ADF80C100090ADF80410ADF80A20E1
:10447000ADF80E203B463246294668461CF036FA17
:104480003B463246294601A81CF030FA3B463246EC
:10449000294602A81CF02AFA3B463246294603A8C0
:1044A0001CF024FABDF90000BDF90430984209DA85
:1044B000054608E02080491E6080A180521EE280EF
:1044C000BDE8FF811D46BDF90820BDF90C108A42E8
:1044D00001DA164600E00E46B54203DA984206DBE2
:1044E000184604E08A4201DA104600E00846801EC1
:1044F0002080BDF90030BDF90420934201DD1D4646
:1045000000E01546BDF90800BDF90C10884201DD38
:10451000064600E00E46B54205DD934201DD194630
:1045200004E0114602E0884200DD0146891CA180BA
:10453000BDF90230BDF90620934201DA1D4600E0C4
:104540001546BDF90A00BDF90E10884201DA06468B
:1045500000E00E46B54205DA934201DA194604E05E
:10456000114602E0884200DA0146891E6180BDF9E9
:104570000230BDF90620934201DD1D4600E01546DC
:10458000BDF90A00BDF90E10884201DD064600E0C3
:104590000E46B54205DD934201DD194604E01146A1
:1045A00002E0884200DD0146891CE18088E70000C6
:1045B0002DE9F04115460E460746114C1EF0F4FE5B
:1045C00080462B4632463946204615F027FC20B15E
:1045D0000020A062E06950B110E02C21204617F0C5
:1045E0001BFD4FF00040A0620020BDE8F081404676
:1045F0001EF0D4FEE06108B90120E0612046F4E736
:104600001839002010B51421074800F09FFA15F062
:10461000CBFB40B105490160054941600549816016
:104620000549C16010BDFEE7003900207D970108F3
:10463000F99A0108C99C01084997010870B50D460F
:1046400004461021284617F0E7FC2068007801286E
:1046500004D0022807D0042807D008E0A08A2880C8
:10466000E08A688003E0E06800E00A206860206873
:104670004268002A03D02946BDE87040104770BD4B
:104680002DE9FE430446808A10B9E08A002874D0E0
:10469000D4F82C805FEA080010D120460AF081FC93
:1046A0005FEA000869D020460DF054F80022092185
:1046B000404614F0ADFA607880075ED44FF48079FC
:1046C00000274E464546002128461AF023F9384473
:1046D00007B2002128461AF03BF9C11700EB116020
:1046E000001210FB06F006B2284619F00FF905007B
:1046F000E9D10FB94E450CD0784201B24FF4803069
:1047000090FBF6F002B26B4604F1140000951CF029
:10471000EDF8ADF80450ADF8085094F8400000F002
:104720000F000328404616D019F042FA06464046CC
:1047300019F0F8F803460C200090B4F91610324630
:10474000404609F0ADFFADF80800404619F03CF9CD
:10475000C10713D018E019F0BFF90646404619F01A
:104760005BF9024603200090B4F91410334640462A
:1047700009F096FFADF80400E7E736E0BDF9041054
:10478000002901DDADF80450810705D4BDF90410FE
:10479000002901DAADF80450410705D4BDF908102D
:1047A000002901DDADF80850000705D4BDF9080067
:1047B000002801DAADF8085002AA01A9204621F02C
:1047C000A7FABDF90820BDF90410404600F08AFAA6
:1047D0006078800709D4208BBDF80410084420833A
:1047E000608BBDF8081008446083BDE8FE832DE9A6
:1047F000FC5F0446C06A5FEA000B71D094F8400089
:1048000000076DD015F09CFD019000684021457EA9
:1048100058461AF0C9F94FF0000818B9A4F81E80DC
:10482000A4F81C80584619F0B5F98246584619F08C
:10483000B8F9064694F840004FF0640900F00F0004
:104840000C2802D003284CD09AE0A4F81C8056B162
:10485000B4F91E50002715F073FD00684946407EEC
:10486000C0F1640022E0E08BC5F1640110FB01F1AE
:1048700091FBF9F0E083584619F054F80546584684
:1048800019F096F902460C200090B4F91E102B4640
:10489000584609F005FFE083024600231EE07A191E
:1048A00017B210FB05F292FBF1F215B2002DF6D112
:1048B000ADF80070A4F81E806A460021204621F061
:1048C00027FA41F6FF72BDF90030514258460AF00E
:1048D000FFFCBDF800100123084402B200214CE0A7
:1048E0009AE0A4F81E80BAF1000F0AD0B4F91C5067
:1048F000002715F025FD00684946407EC0F16400A0
:1049000022E0A08BC5F1640110FB01F191FBF9F0ED
:10491000A083584619F080F80546584619F0DCF88F
:10492000034603200090B4F91C102A46584609F0AB
:10493000B7FEA083014600231EE07A1917B210FBD0
:1049400005F292FBF1F215B2002DF6D1ADF8007030
:10495000A4F81C8000226946204621F0D9F941F6CE
:10496000FF72BDF90030514258460AF029FCBDF8EB
:1049700000100123084401B2002258461BF03AFA05
:10498000A08B002848D1E08B002845D1C6B95846F5
:1049900019F00EF90546584618F0C4FF002D06DC44
:1049A00000280DDD002D02DA01232A4604E000284C
:1049B00006DA0123404202B2002158461BF01AFADF
:1049C000BAF1000F19D1584619F026F80546584695
:1049D00019F082F8002D07DC00280EDD002D03DA27
:1049E00001230022294605E0002806DA01230022DF
:1049F000404201B258461BF0FDF90A215846019A7F
:104A000014F006F96078800706D414F8400F20F0FF
:104A10000F00207044F8148CBDE8FC9F7FB50E4653
:104A2000040003D111F010F804002CD011F080F82C
:104A3000002828D094F82800400724D4002506B385
:104A4000ADF80050ADF80250204611F015F8401EA8
:104A5000ADF80400204611F055F8401EADF80600F0
:104A60006A46314602A8FFF7A8F900280BD0206853
:104A7000017C890708D5DDE90001C4E90C010120AA
:104A800029E0A4F850517FBD82690AB102A990477C
:104A900000260AE004EBC601002202A83031FFF72D
:104AA000B4F90028EFD1761CB6B2B4F85001B04288
:104AB000F0D880B2202804D204EBC00002A9303024
:104AC00004E0A4F8505104F1300069460EF0EAFC0D
:104AD000B4F85001401CA4F8500160680028D2D0FE
:104AE0001EF0A6FD7FBD70B5054600F012F8044625
:104AF0000CE02146284600F01EF8064621462846CE
:104B000000F0A2F8204617F033F93446002CF0D11B
:104B100070BD002800D04068704700B503460022F1
:104B2000FFF7F7FF03E01846521C00F004F80100FD
:104B3000F9D1104600BD0068091D40587047006853
:104B400040587047002800D08068704700224260BB
:104B5000C91C21F0030182600160704770B50446F2
:104B60000068083017F078F8050013D001460022DD
:104B700020461FF05BFE2946204662681FF050FE6B
:104B8000616819B12A4620461FF050FE6560A06892
:104B900000B9A560284670BD2DE9F0410C4606001D
:104BA0000AD04CB1FFF7B5FFA04208D13046FFF75D
:104BB000D5FF051E01D01EE00020BDE8F081306861
:104BC000083017F049F8051EF7D030682A46075913
:104BD000304639461FF024FE3A46294630461FF03B
:104BE00025FE2A46214630461FF020FE2246294651
:104BF00030461FF015FE2846DFE770B50446006812
:104C0000083017F029F8050013D00146002220468D
:104C10001FF006FE29462046A2681FF007FEA16885
:104C200019B12A4620461FF0FBFDA560606800B957
:104C30006560284670BD28B1416809B9806808B12F
:104C4000002070470120704770B504000DD0FFF7B9
:104C500060FF00228842204608D1FFF76CFF6060A9
:104C6000011E01D000221EE0A26070BDFFF76AFFA6
:104C70008842206808440AD10168A16029B1204611
:104C8000BDE8704000221FF0CBBD626070BD0568BA
:104C90002046FFF750FF06460246294620461FF0F1
:104CA000BFFD2A4631462046BDE870401FF0BEBD1C
:104CB00010B50446006882680AB121469047206812
:104CC0000068002801D02060F5E710BD806800284A
:104CD00001D0B0F9160070478068002801D0807EAE
:104CE0008009704770B5164605460C4651EA060025
:104CF0001AD0284617F0F6FEA86801233246018A2A
:104D000021440182A868418A3144418221462846D3
:104D10001AF0C8FA00220B21284613F079FF012867
:104D200003D128461AF017FA012070BD77B581B07B
:104D30000E46050017D0622219F01AFD040012D0A9
:104D4000206880B128463146632219F011FD10F029
:104D5000FF0208D023682046039998470090BDF8C9
:104D60000000ADF80C00039804B070BD2DE9F047C9
:104D7000074692B0408C1A9E40F00400788490461A
:104D80003A8499468A463289384619F0F1FC05463C
:104D9000A7F8209032895146384619F0E9FC0446BC
:104DA000788CA54220F00400788403D12904B1EB6B
:104DB000044F68D0A7F8208032895146384619F050
:104DC000D7FC05468046A7F82090514638460BF0A0
:104DD00007FD318900682A461DF08CF930890B28BF
:104DE00023D147F6FF794D4501D04C451DD13846BA
:104DF00019F091FE00EBD0704510384618F045FDD3
:104E000000EBD0704010C84506D1691C431C994284
:104E100000DA00E0194688464C4506D1691C421C60
:104E2000914201DA6C1C00E014461948FFF796FE27
:104E300005002BD02F60C5E903843089A88068461F
:104E4000C5F808A00DF0ECFD1248FF21CDE9005097
:104E5000114802901148039000200890CDE9090103
:104E600030880B9070889DF8421040420C90F0689A
:104E70000790002060F300018DF842103069069021
:104E800068460DF041FE12B0BDE8F087FEE7000075
:104E90000C390020D1A60208BDA8020819A80208F2
:104EA00014210148FFF752BE0C3900202DE9F84FBC
:104EB00000259046894606462C460427E5E000BFBB
:104EC000F16807EBC400085882017AD480B230EA56
:104ED000090211D05FF0000230EA08000ED0002075
:104EE00082426ED051F834A06A46102150461CF020
:104EF0005FFE002871D103E00122EDE70120EFE71A
:104F00006A46112150461CF053FE002865D16A46BE
:104F1000122150461CF04CFE00285ED16A46132137
:104F200050461CF045FE002857D16A4615215046D0
:104F30001CF03EFE002850D16A46142150461CF059
:104F400037FEE8BB6A460A2150461CF031FEB8BB6A
:104F50006A466B2150461CF02BFE88BB6A466C21CA
:104F600050461CF025FE58BB6A46012150461CF0F5
:104F70001FFE28BB6A46042150461CF019FEF8B9F2
:104F80006A46022150461CF013FEC8B96A46032146
:104F900050461CF00DFE98B96A46052150461CF09B
:104FA00007FE68B96A46062150461CF001FE38B972
:104FB0006A46322150461CF0FBFD08B96A4601E002
:104FC0000BE061E06E2150461CF0F2FD28B96A4604
:104FD0006D2150461CF0ECFD10B10320BDE8F88FA8
:104FE0006A46692150461CF0E3FDE8BB6A466A2127
:104FF00050461CF0DDFDB8BB6A466E2150461CF0E1
:10500000D7FD88BB6A466D2150461CF0D1FD58BBC8
:105010006A46372150461CF0CBFD28BB6A46382132
:1050200050461CF0C5FDF8B96A46352150461CF0C3
:10503000BFFDC8B96A46402150461CF0B9FD98B979
:105040006A46452150461CF0B3FD68B96A464121C5
:1050500050461CF0ADFD38B96A46422150461CF05E
:10506000A7FD08B96A4600E00AE0432150461CF05B
:105070009FFD28B96A46492150461CF099FD08B1A8
:10508000022501E005B90125641C708CC0F3C50040
:10509000A0423FF615AF2846A0E70000014840684F
:1050A0007047000064000020054900204860086146
:1050B000C8608860086048610249086048607047BD
:1050C000543700206C000020C0F30410072800D9DA
:1050D00007207047A0F57F41FF3905D0002804D094
:1050E000712803D208490AE01F2070470749713828
:1050F00080B2096829B1064A5268904201D2085C20
:10510000704700207047000048EE0208D8010020D8
:10511000EC01002010B518210348FFF717FD0349E3
:105120000120087010BD0000B8380020F4010020F4
:105130002DE9F04190460C46050015D0FBF7B5F877
:105140000A4F06462146BA68284690470446BA6880
:105150002819414690470146701A03E06218AA5C7C
:105160002A55641CA042F9D2BDE8F0810802002053
:105170002DE9F041094D90460E466A681C460746E7
:1051800019469047306020B120686A683844002191
:105190009047C8F80000BDE8F08100000802002038
:1051A0002DE9F04F87B08A46DDE910581F46934637
:1051B0000446002105B129805CB12078002809D07F
:1051C000BAF1000F05D0002618F0060F15D0002008
:1051D00004E0002007B0BDE8F08F401C215C0A29E4
:1051E00004D00D2902D00029F7D100E0401C002D89
:1051F000F0D04FF0FF312980ECE75FEA887001D5ED
:1052000041F6FF77894608468DF81410049127E08F
:105210000498CDF8189068B34FF0000C05AA06ABBF
:10522000CDF80CC0CDF80080CDE9013220443B46DA
:105230005A4651461EF060FB06997A1A314417B25D
:105240000EB288B104990144049120780A280BD049
:105250000D2809D0605C0A280FD00D280DD0084613
:10526000205C08B1002FD3DC049848B105B12E8032
:105270000498AFE74FF0010CD0E7481C0490F3E727
:10528000064A04A9204652689047002DF0D00146F6
:105290000022504613F0D0FD06B2E8E708020020D5
:1052A0002DE9F0411746884606001ED0002F1CD07D
:1052B000FAF7FBFF04463846FAF7F7FF050014D06B
:1052C0000B4A2C444146926830469047411903E00E
:1052D000621BB25C3255641EA142F9D930442A46A1
:1052E0003946BDE8F04116F059BEBDE8F081000036
:1052F0000802002000230278232902D0012A0DD0C1
:105300000FE02AB10021012A04D0022A04D008E0CB
:10531000012101E0017004E0017001E0202902D0C8
:105320000123184670470221F6E72DE9F0410E46A9
:10533000804602460021334608461EF01BFD044607
:105340000027401C16F088FC050008D02F55334676
:105350004246611C1EF00EFD2846BDE8F081FEE7C6
:105360002DE9F0471E4614460D468246DDF8209092
:1053700015E000BF4FEA540808FB0657394650466F
:105380004A469047002808DD44F30000C0EB54046F
:1053900007EB0605A4F1010401E005DA4446002C00
:1053A000E8D12046BDE8F0873846FBE72DE9FC5FF1
:1053B0009B460CAB8A468146DDE9116093E81210EA
:1053C000DDE90F575FEA80784FF030031AD45EB101
:1053D0005FEAC07808D000F00C0858EA0C0803D047
:1053E000761E01E00B55641CBC4204D2202CF9D37C
:1053F00001E00B55641C5FEAC07803D0B44201D2CF
:10540000202CF6D35FEAC06825D55FEA40580AD45D
:105410004CB1BC4201D0B44205D1641E03D0102D62
:1054200003D1641E04E0102D02D0022D0AD00EE03C
:10543000850603D4202C1ED2782506E0202C1AD213
:10544000582502E0202C16D262250D55641C202C14
:1054500011D20B55641C202C0DD2BCF1000F01D0D1
:105460002D2306E0430701D52B2302E0030702D5D5
:1054700020230B55641CCDE900BAC8461546814669
:105480008B46AA46800714D1274607E02A46DDE965
:1054900000316D1C2020C446E0477F1CB742F5D385
:1054A00007E02A466D1C641EDDE900311BF804008C
:1054B000C047002CF5D15FEA897006D409E02A467E
:1054C000DDE900316D1C2020C047A5EB0A00B04289
:1054D000F5D32846BDE8FC9F2DE9F04F8FB09946E3
:1054E0008B46DDE91818DDE91C63DDE91A479246B1
:1054F0008646002209B923F01003580507AD00D5F0
:10550000C9B1B1FBF4F004FB1010C0B20A2801D2FB
:10551000303009E05FEA836C02D54FF0410C01E0C6
:105520004FF0610C60440A38B1FBF4F1A854521CEE
:1055300009B1202AE5D3CDF80880CDE90563CDE98E
:105540000052CDE903474B46524659467046FFF795
:105550002DFF0FB0BDE8F08F2DE9FF4F8FB01CACD1
:10556000DDE9239594E8030820AC94E8C004002406
:1055700050EA010201D125F010056A050DF11C0861
:1055800002D550EA010217D032463B46FAF718FE20
:10559000D2B20A2A01D2303206E0AB0601D541234D
:1055A00000E061231A440A3A08F80420641C50EA17
:1055B000010201D0202CE7D3CDE90084CDF808B05A
:1055C000CDE90595CDE9036A0FAF97E80F00FFF726
:1055D000EDFE13B0BDE8F08F9A4200D288547047B8
:1055E000704700002DE9FF4F8BB09A460F460546E5
:1055F000002606E025280BD052460D9990476D1CD9
:10560000761C28780028F5D10FB03046BDE8F08F21
:105610000024A0460122604900E0044315F8013F40
:10562000203B02FA03F00842F7D128782E2817D140
:1056300015F8010F44F004042A280ED06FF02F0251
:105640002878A0F1300109290AD808EB880102EB7B
:10565000410100EB01086D1CF2E757F8048B6D1C4B
:10566000287869283ED006DC0028CDD063280BD0EE
:10567000642804D136E0732810D075284BD05246E8
:105680000D999047761C85E017F8040B8DF8000003
:1056900000208DF80100E946012003E057F8049B43
:1056A0004FF0FF3061074FF0000401D40AE0641CA2
:1056B00044450DDA8442FADB19F804100029F6D1CA
:1056C00006E0641C8442FCDB19F804100029F8D1C0
:1056D000264404E019F8010B52460D999047641EC8
:1056E000F8D257E001CF4FF00A0B002802DA40420F
:1056F0002D2102E0210504D52B218DF82410012154
:1057000003E0E10705D02021F7E70DF1200908911A
:105710000CE00021F9E701CF4FF00A0BF9E75946F9
:10572000FAF7E1FD01F1300209F8012D0028F6D168
:10573000ADEB090000F1200B600701D44FF0010828
:10574000D84502DDA8EB0B0000E0002080460024D5
:1057500006E009A85246005D0D999047641C761C2E
:1057600008988442F5DB04E0302052460D999047BA
:10577000761CB8F10001A8F10108F5DC05E019F884
:10578000010B52460D999047761CBBF10001ABF11D
:10579000010BF4DC6D1C34E7092801000A68531C76
:1057A0000B601070704700002DE9FF4F89B005466F
:1057B0000A9800249246002800D1FE4D8FE125284A
:1057C00004D02246641C53460A990BE2491C4FF050
:1057D000000808460C9101782B2919D004DC2029F7
:1057E00019D0232904D119E02D290ED0302909D050
:1057F0000026C8B2FEF718FAB0B10CA8FEF7FDF902
:1058000006461FE048F001010AE048F0020107E007
:1058100048F0040104E048F0080101E048F01001FC
:10582000401C88460C90D6E70C9908782A2809D1A4
:10583000169840C81690002E02DA48F00208764208
:10584000491C0C910C984FF0000B01782E2919D1AE
:10585000401C0C9048F480680078FEF7E5F920B110
:105860000CA8FEF7CAF983460CE00C9A10782A2897
:1058700008D1169802C81690002900DC0021521C9D
:105880008B460C920C9801786C290AD004DC6829AC
:105890000FD06A2919D128E0742929D07A2914D186
:1058A00026E0401C0C90017848F480786C291CD0CC
:1058B0000BE0401C0C90017848F08008682904D166
:1058C00048F04001401C88460C9002460078692848
:1058D00022D015DC62281FD00DDC252871D050287D
:1058E0001AD058287FF46DAF16E048F40071E9E74C
:1058F00048F48071E6E7632878D06428F2D10BE0A1
:10590000732874D004DC6F2806D07028EAD103E035
:10591000752801D07828E5D178280DD058280BD0EB
:1059200070280BD0502809D06F2816D0622816D0C6
:105930000A2128F0100016E0102107E0507810210D
:1059400048F48878562804D1521C0C9210785828B4
:1059500007D01078502804D006E0082109E0022181
:1059600007E048F0200080461078692803D06428BA
:1059700001D028F00C085FEA485001D528F0010852
:10598000107869281ED064281CD0562864D05FEA9D
:10599000885072D5169804ABC01D002283E8060813
:1059A0000292CDE9076820F007005346F0E80212A2
:1059B000CDE900121690224628460A99FFF7CCFD41
:1059C00089E00AE15FEA885024D5169804AFC01D2B
:1059D00020F00703F3E802021693002387E80A0881
:1059E000CDE90768002A03DA012102E080E0A6E0A1
:1059F00000210023029119461B1A914101DA114638
:105A000003E00021404261EB020153462246CDE90A
:105A10000001D1E75FEAC85004D5169804C80FE02A
:105A2000524215E05FEA486003D5169810F8042B3F
:105A300006E05FEA0860F0D5169830F8042B12B241
:105A40001690CDE9021BCDE90468D00F002AE7DDEE
:105A5000CDE9002053461EE01698AAEB040202C8C6
:105A600016904868006800900A980B68011928464B
:105A7000FFF79AFE04442FE0FFE75FEAC8500CD519
:105A8000CDE9021BCDE9046816980021534604C8ED
:105A9000CDE900211690224619E05FEA486003D55F
:105AA000169810F8042B08E05FEA0860169803D5F2
:105AB00030F8042B92B200E004C816900020CDE923
:105AC0000020CDE9021BCDE9046853462246284652
:105AD0000A99FFF701FD04460C98401C0C900C99A4
