:020000040800F2
:10000000281101205D020008474700085D3C0008F8
:1000100045470008450A00088D510008000000000F
:100020000000000000000000000000009D0100082A
:10003000790C000800000000F90100088949000857
:1000400077020008770200087702000877020008AC
:10005000770200087702000877020008770200089C
:10006000770200087702000877020008770200088C
:10007000770200087702000877020008770200087C
:10008000BD0B00087702000877020008770200081D
:10009000770200087702000877020008B90F00080D
:1000A000770200087702000877020008770200084C
:1000B000770200084D4A000877020008770200081E
:1000C000770200087702000877020008770200082C
:1000D00077020008770200086951000877020008DB
:1000E000B10F0008770200087702000877020008C5
:1000F00077020008770200087702000877020008FC
:1001000077020008770200087702000877020008EB
:1001100077020008770200087702000877020008DB
:10012000770200087702000877020008C90B000870
:1001300077020008770200087702000877020008BB
:1001400077020008770200087702000877020008AB
:10015000770200087702000877020008770200089B
:10016000770200087702000877020008770200088B
:1001700077020008770200087702000800000000FC
:100180007702000877020008DFF80CD000F076FB59
:1001900000480047753C0208281101202C4B1968C3
:1001A0000868B0E8F04F80F30988BFF36F8F4FF015
:1001B000000080F3118870470000000008480068C4
:1001C000006880F308884FF0000080F3148862B65E
:1001D00061B6BFF34F8FBFF36F8F00DF00BF00BF6B
:1001E00008ED00E0DFF80C00016841F470010160E7
:1001F000704700BF88ED00E0EFF30980BFF36F8F19
:10020000134B1A681EF0100F08BF20ED108A20E96A
:10021000F04F106009B44FF0500080F31188BFF325
:100220004F8FBFF36F8F2CF05BFC4FF0000080F31B
:10023000118809BC19680868B0E8F04F1EF0100F6B
:1002400008BFB0EC108A80F30988BFF36F8F704746
:10025000A4010020EFF305807047000006488047A6
:1002600006480047FEE7FEE7FEE7FEE7FEE7FEE79B
:10027000FEE7FEE7FEE7FEE73D4A000889010008C9
:100280002DE9F05F0546002092469B4688460646CB
:10029000814640241BE0284641464746224600F05E
:1002A000E6F953465A46C01A914110D311461846F2
:1002B000224600F0CDF92D1A67EB01084F46224681
:1002C0000120002100F0C4F917EB00094E41201E67
:1002D000A4F10104DFDC484631462A464346BDE826
:1002E000F09F10B5431A934209D28318881803E08F
:1002F00010F8011D03F8011D521EF9D210BD40EA8D
:1003000001039B0703D009E008C9121F08C0042A93
:10031000FAD203E011F8013B00F8013B521EF9D27A
:1003200010BDD2B201E000F8012B491EFBD270478C
:100330000022F6E710B513460A4604461946FFF7B1
:10034000F0FF204610BD30B505462A460B4612F890
:10035000010B13F8014B08B1A042F8D01CB10028E2
:1003600002D06D1CF1E7284630BD421C10F8011B7D
:100370000029FBD1801A704710B5002200E0521C02
:10038000835C8C5CA34201D1002BF8D1D8B2E1B2DE
:10039000401A10BD034611F8012B00F8012B002A6A
:1003A000F9D1184670472DE9FE4F804681EA0300D7
:1003B000C00F0C46009021F0004123F00045B8EB3F
:1003C0000200A94105D24046214690461C460B46F4
:1003D000024623F00040104347D0270DC7F30A0020
:1003E000C3F30A510290401A019040286BDAC3F31C
:1003F000130040F4801B0098924620B10023D2EBFA
:10040000030A63EB0B0B01985946C0F140025046BA
:1004100000F01EF906460D4650465946019A00F076
:1004200036F910EB08006141002487EA115284EA92
:10043000E7731A4340D0009A62B3019A012A4FEA47
:10044000075215DC001B61EB02014FF0004202EA8B
:100450000752CDE90042001C41F5801132462B467F
:1004600000F036F903B0BDE8F08F40462146F9E7C9
:10047000001B61EB0201001C41F5801300185B4179
:100480002018A2F5001747EB030140EAD570B61912
:100490006D4111E06D084FEA360645EAC0754FEA36
:1004A0000752001B61EB0201001C41F58011490855
:1004B0004FEA30000019514132462B4603B0BDE8E7
:1004C000F04F00F0F6B80098012240000023D0EB76
:1004D000020263EBE073009821464FEAE074B8EB48
:1004E000000061EB0401E9E783F000435BE781F082
:1004F000004158E72DE9FE4F81EA030404F000446F
:1005000021F0004100944FF0000B23F0004350EA2B
:1005100001045ED052EA03045BD0C3F30A54C1F372
:100520000A552C44A4F2F3340194A0FB0254C1F305
:10053000130141F48011C3F3130343F4801301FB4F
:10054000024400FB034E840A970A44EA815447EAB6
:100550008357A4FB076802958D0A05FB07854FEAC0
:10056000932C04FB0C542705029D4FEA065847EADA
:100570001637B5EB08056EEB070C870E920E47EAAF
:10058000811742EA8312A7FB0201B6EB0B0164EB71
:1005900000042B0D43EA0C335E1844EB1C50DA4682
:1005A0005146E7FB0201C5F313044FEA0B3343EA5C
:1005B00014534FEA0432019C43EA0603A4F10C04ED
:1005C0000294009CCDE900B400F082F803B0BDE8CD
:1005D000F08F00200146F9E70EB540F23341029159
:1005E0000021CDE900110A460B4600F071F803B076
:1005F00000BD000030B5041E71F1000404DB4FF0B3
:100600000044404264EB0101141E73F1000405DB59
:100610001C464FF00043524263EB0403994208BF6B
:10062000904230BD30B50B46014600202022012407
:1006300009E021FA02F59D4205D303FA02F5491BB0
:1006400004FA02F52844151EA2F10102F1DC30BDC6
:10065000202A04DB203A00FA02F100207047914082
:10066000C2F1200320FA03F3194390407047202A77
:1006700004DB203A21FA02F00021704721FA02F34C
:10068000D040C2F120029140084319467047202A09
:1006900006DBCB17203A41FA02F043EAE07306E0AA
:1006A00041FA02F3D040C2F12002914008431946BA
:1006B000704710B5141E73F1000408DA401C41F1B4
:1006C000000192185B411A4301D120F0010010BDD6
:1006D0002DE9F04D92469B4611B1B1FA81F202E04C
:1006E000B0FA80F220329046FFF7B2FF04460F4680
:1006F00040EA0A0041EA0B0153465A46084313D028
:10070000114653EA010019D0C8F140025046FFF7E4
:10071000AEFF05460E46504659464246FFF798FF43
:10072000084305D0012004E020463946BDE8F08D9D
:100730000020054346EAE0762C4337430A986305D8
:10074000E40AA0EB08000022FD0A44EA47540A30FC
:1007500002D500200146E9E7010510196941DDE9EC
:10076000084500196941BDE8F04DA2E72DE9F04DBB
:1007700081EA030404F0004B21F0004514464FF0D9
:10078000000A23F0004150EA050220D054EA010299
:100790001DD0C5F30A570246C5F31303C1F3130076
:1007A000C1F30A5640F4801543F48013A7EB060802
:1007B000101BD64608F2FD3873EB050002D308F192
:1007C000010801E092185B41B8F1000F03DA002044
:1007D0000146BDE8F08D00204FF4801106468446A6
:1007E0000EE0171B73EB050705D3121B63EB050324
:1007F00006434CEA010C49084FEA300092185B416D
:1008000050EA0107EDD152EA030012D082EA040057
:1008100083EA0501084305D0101BAB4106D2012233
:10082000002306E000224FF0004302E06FF00102D7
:1008300053101AEB06004CEB085110EB0A0041EB89
:100840000B01BDE8F04DFFF734BFC1F30A52C1F30D
:10085000130140F2FF3341F480119A4202DA002082
:100860000146704740F233439A42A2F2334202DC1F
:100870005242FFF7FCBEFFF7EBBE0000064C074DEF
:1008800006E0E06840F0010394E807009847103460
:10089000AC42F6D3FFF77CFC34120508741205084D
:1008A00070B58C1810F8015B15F0070301D110F832
:1008B000013B2A1106D110F8012B03E010F8016B5F
:1008C00001F8016B5B1EF9D12B0705D40023521EE2
:1008D0000DD401F8013BFAE710F8013BCB1A921C4A
:1008E00003E013F8015B01F8015B521EF9D5A14248
:1008F000D8D3002070BD0000464910B54A6822F4E4
:1009000040324A604A6843681A434A6001684A684C
:1009100022F480724A6001684A68036942EA03224D
:100920004A6001684A6822F040724A6001684A6879
:1009300083681A434A6001688A6822F400628A6008
:1009400001688A68C3681A438A60816A6FF07062BE
:10095000D14201688A6822F070628A6001688A6800
:100960000CD0836A1A438A6001688A6822F0405278
:100970008A6001688A68C36A1A4301E022F0405223
:100980008A6001688A6822F002028A6001688A68C7
:10099000037E42EA43028A6090F820100029016831
:1009A0004A680FD042F400624A6001684A6822F443
:1009B00060424A6001684A68174C436A04EB43335B
:1009C0001A4301E022F400624A600168CA6A22F414
:1009D0007002CA620168CA6A838B104C04EB03532D
:1009E0001A43CA6201688A6822F400728A60016848
:1009F0008A6890F8303042EA43228A6001688A6847
:100A000022F480628A6001688A68406942EA802034
:100A1000886010BD0023014000E0FFFF0000F0FFF0
:100A200010B5044600F0D2FB462000F09DFB00F01C
:100A300009FC204600F098FB00F004FCBDE81040E3
:100A400000F0E4BBFEE7000000B585B04FF4807015
:100A5000009001200190022003906946024801F0B5
:100A6000A1F805B000BD0000001002402DE9F05FC4
:100A7000002634464FF47A7B4FF4807A5D465F4619
:100A8000D046DFF8609001E07F1E13D04146484613
:100A900001F070F90028F7D0282023F0CDFE47465A
:100AA0004146C846484601F065F9012805D012E0E4
:100AB0006D1E04D10020BDE8F09FB9464746494667
:100AC000384601F057F90128F2D0C4F1070101209E
:100AD0008840C0B20643641CE4B2082CCED3304632
:100AE000E9E70000001002402DE9F04186B004461D
:100AF000FFF7AAFF304F4FF4807600223146384688
:100B000001F03DF914202BF0A9FE012231463846B0
:100B100001F035F91E2023F08FFE0020CDE90060A2
:100B2000012002906946384601F03CF842F2107804
:100B3000454601E06D1E3DD03146384601F01AF9B8
:100B40000128F7D0454601E06D1E33D031463846C6
:100B500001F010F90028F7D0454601E06D1E29D0BC
:100B60003146384601F006F90128F7D0FFF77EFF3D
:100B70002070FFF77BFF6070FFF778FFA070FFF732
:100B800075FFE070FFF772FF2071FFF75DFF012234
:100B90003146384601F0F3F820786178E27808446D
:100BA000A178114408442179884203D1012006B07C
:100BB000BDE8F0810020FAE700100240014800F093
:100BC000EDBD00007C030020014800F0E7BD0000FF
:100BD0005003001001681823CAB2103AB2FBF3F2B6
:100BE000054B6FF30901032A9B5CC36500D9091DFE
:100BF0008165084670470000CCDB020810B501464D
:100C000000208B698A6A4FF0C07453B1B3F5005F5E
:100C100015D072B1012A0CD0022A0AD0032A09D1B8
:100C200004E01AB1012A06D0022A03D1C96AC90117
:100C300000D5012010BDC96AA142FAD010BD002A1A
:100C4000F7D0012AF2D0022AF3D0032AF3D010BD44
:100C500030B50468256825F4802525600468636044
:100C60008368402B036803D099600068C26030BD80
:100C70009A600068C16030BD7047000010B59AB03E
:100C80000B4602460BA1684604F0AAFA44F620621D
:100C90000EA1684600F020F9040005D00EA004F073
:100CA00077FA1AB0204610BD1149012081F80302DD
:100CB00010A0F4E741542B43574A41503D2225737D
:100CC000222C222573220D0A0000000057494649B4
:100CD00020474F54204950005769466920636F6E82
:100CE0006E656374206661696C65640D0A000000BE
:100CF000DC0300205769466920636F6E6E6563747C
:100D000065640D0A0000000038B540F20621354840
:100D1000FFF70EFB34490868C26842F01002C26057
:100D200008680168406800904FF400722D492E4811
:100D300002F024FF08B100F049F94FF4FA7000F016
:100D40009FFE2A4C4FF4FA6505E029A004F020FA32
:100D5000642000F095FE2A462AA12BA000F0BCF8E2
:100D600021680028F1D12BA004F012FA40F6B83522
:100D700005E02EA004F00CFA642000F081FE2A4663
:100D800020A12FA000F0A8F821680028F1D12EA002
:100D900004F0FEF905E030A004F0FAF9642000F058
:100DA0006FFE012000F0DCF821680028F3D130A0AC
:100DB00004F0EEF905E034A004F0EAF9642000F054
:100DC0005FFE38A13BA0FFF759FF21680028F2D150
:100DD0003AA004F0DDF90349012081F80202002065
:100DE00038BD0000DC030020380300201400001090
:100DF00025733A2041542B525354206661696C6527
:100E0000640D0A004F4B000041542B5253540D0AFD
:100E10000000000025733A2041542B525354207394
:100E20007563636573730D0A0000000025733A2033
:100E300041544530206661696C65640D0A0000000C
:100E4000415445300D0A000025733A204563686F10
:100E5000206F66660D0A000025733A2053657420E2
:100E60006D6F6465206661696C65640D0A00000041
:100E700025733A20536574206D6F64652073756324
:100E8000636573730D0A000025733A20436F6E6E1D
:100E90006563742057694669206661696C65640DF5
:100EA0000A00000061626331383831333439313738
:100EB00031380000585843484F4E470025733A20B8
:100EC000436F6E6E6563742057694669207375635E
:100ED000636573730D0A00002DE9F04117468846DB
:100EE000044600F051FF06464FF400711448FFF726
:100EF0001FFA204600F04EF80025114C15E094F83A
:100F0000040278B141460E48FFF71DFA84F80452F6
:100F1000A4F8005230B10A490AA004F039F90020BF
:100F2000BDE8F081012000F0ABFD00F02DFF801B3B
:100F3000B842E4D307A004F02BF90220F0E7000048
:100F4000DC030020526563656976653A2025730DE0
:100F50000A00000054696D656F7574210D0A000068
:100F600000B585B0024606A1684604F039F940F69E
:100F7000B83207A16846FFF7AFFF05B000BD00001B
:100F800041542B43574D4F44453D25640D0A000005
:100F90004F4B000010B50446FFF7E7F9214682B237
:100FA000BDE810406423014802F0FFBD3803002073
:100FB0004FF4804000F0EABD10B5402000F0E6FD9F
:100FC000BDE810404FF4807000F0E0BD72B6FEE75F
:100FD000002000BF401CC0B20A28FAD370470000AE
:100FE00010B586B014216846FFF7A2F92B480168B6
:100FF00041F0100101600068294C00F010000590DC
:101000004FF44040009011200190012002900220F6
:1010100003906946204600F0C5FD01229103204659
:1010200000F0ADFE0122D103204600F0A8FE00F042
:10103000ABFE044600F0A8FE001B6428FAD3002093
:10104000FFF7EEFC00F0A0FE044600F09DFE001B42
:101050000A28FAD30120FFF7E3FC00F095FE0446CE
:1010600000F092FE001B0A28FAD30720FFF7D8FCF5
:1010700000F08AFE044600F087FE001B0A28FAD31F
:101080001120FFF7CDFC00F07FFE044600F07CFE4F
:10109000001BB428FAD306B010BD0000303802405F
:1010A000001002402DE9F0470122234E8046D7036D
:1010B00000243946304600F062FE0025B9467F1014
:1010C0006006040E00223946304600F058FEFFF755
:1010D0007FFF01223946304600F051FEFFF778FFCE
:1010E0004946304600F046FE08B144F001046D1C4C
:1010F000EDB2082DE4D300223946304600F03FFE21
:10110000B8F1000F01D0002200E00122494630462C
:1011100000F035FEFFF75CFF01223946304600F053
:101120002EFEFFF755FF00223946304600F027FE1D
:101130002046BDE8F08700000010024070B500F0C6
:1011400045F8472000F010F800F07CF80120FFF788
:10115000A9FF05460020FFF7A5FF044600F056F85A
:1011600044EA052070BD00002DE9F041164F054608
:1011700000244FF400484FF48046002231463846A0
:1011800000F0FDFDFFF724FF280601D5012200E055
:1011900000224146384600F0F2FD6806050EFFF7D2
:1011A00017FF01223146384600F0E9FDFFF710FF36
:1011B000641CE4B2082CE0D331463846BDE8F04167
:1011C000002200F0DCBD00000010024070B50122DA
:1011D0000D4DD4032146284600F0D1FD012296038F
:1011E0003146284600F0CBFDFFF7F2FE00222146F3
:1011F000284600F0C4FDFFF7EBFE31462846BDE867
:101200007040002200F0BBBD0010024070B50C4DD4
:101210004FF4004400222146284600F0B0FD012290
:101220009103284600F0ABFDFFF7D2FE01222146D4
:10123000284600F0A4FDBDE87040FFF7C9BE0000DD
:10124000001002402DE9F0410122154DD6034FF464
:101250007A743146284600F092FDFFF7B9FE01226C
:1012600097033946284600F08AFDFFF7B1FE04E0F7
:10127000641E2404240C0ED000BF3146284600F022
:1012800079FD0028F4D100223946284600F077FD88
:101290000020BDE8F081FFF7B9FF0120F9E7000069
:1012A0000010024070B504460D46104800F07EF96B
:1012B00001210E4800F024F90C4800F0C3F800EEBC
:1012C000100ADFED0B0A2060B8EE400A20EE200A7B
:1012D000DFED080A20EE200ABCEEC00A10EE100A6C
:1012E0002870BDE87040014800F0DEB9FC01002024
:1012F0000000C8420000803978B50024009490F8BE
:101300003C20012A19D0012280F83C200A680725D8
:101310000368092A13D9DE680A3A02EB42029540B3
:10132000AE43DE600A788B680A3A02EB42029340D1
:101330000268D5682B43D36010E0022078BD1E6997
:1013400002EB42029540AE431E610A788B6802EBC5
:1013500042029340026815692B4313614A681F25B6
:10136000072A13D203685E6B521E02EB820295407D
:10137000AE435E630A8893B20A79521E02EB820280
:1013800093400268556B2B43536327E003680D2A93
:1013900012D21E6BD21F02EB82029540AE431E6337
:1013A0000A8893B20A79D21F02EB82029340026844
:1013B000156B2B43136311E0DE6A0D3A02EB8202D8
:1013C0009540AE43DE620A8893B20A790D3A02EB89
:1013D000820293400268D56A2B43D362164B05689C
:1013E000144A9D4206D10D68122D03D1556845F46B
:1013F0008005556005689D4218D10B68102B01D0FF
:10140000112B13D1536843F400035360096810296A
:101410000CD10A490A4A0968B1FBF2F101EB8101DA
:10142000490000E0491E00910029FBD180F83C40B2
:10143000002078BD0023014000200140340000203E
:1014400040420F000068C06C704770B504004FF058
:10145000000603D0206C002510B107E0012070BD0C
:10146000204600F01DF8656484F83C50206CC006EE
:1014700010D4206C20F4885040F0020020642046F4
:10148000FFF73AFA6564206C20F0020040F001009A
:10149000206400E0012684F83C50304670BD000016
:1014A00010B586B0044614216846FEF741FF114985
:1014B000206888421CD110480021026842F48072E2
:1014C0000260006800F4807005900B4814380268D0
:1014D00042F001020260006800F001000590102057
:1014E00000900320CDE901016946044800F05AFB51
:1014F00006B010BD00200140443802400000024008
:101500002DE9F041044600680D4681684FF0000760
:1015100049050BD58068C00508D5206C40F0200037
:10152000206484F83C700120BDE8F08100F02CFCC0
:10153000064613E0681C11D025B100F025FC801B85
:10154000A8420BD920680068800707D4206C40F0BF
:101550000400206484F83C700320E5E720680068FC
:101560008007E7D521686FF012000860206C40F416
:10157000007020642068816811F0405F13D1217EE3
:1015800089B9C16A11F4700F02D0806840050AD48D
:10159000206C20F480702064206CC00403D4206C84
:1015A00040F0010020640020BEE7000018B50022D2
:1015B000009290F83C10012907D0012180F83C10DE
:1015C00001688B68DB0702D011E0022018BD8B6830
:1015D00043F001038B602E492E4B0968B1FBF3F1F8
:1015E00001EB410100E0491E00910029FBD1016897
:1015F0008B68DB0742D0036C40F20164A34343F4E1
:10160000807303644B685B0505D5036C23F40053BA
:1016100043F480530364036CDB0404D5436C23F070
:101620000603436400E0426480F83C201A4A6FF0ED
:1016300022030B6051680068CA06184906D0884228
:1016400024D1816811F0405F13D01FE08842F8D0A8
:10165000134A904203D1D1F80423D206F1D0114AA3
:10166000904213D1D1F8041301F01F011029E8D3DF
:101670000CE0816841F08041816007E0016C41F03D
:1016800010010164416C41F001014164002018BD6A
:101690003400002040420F000023014000200140A0
:1016A000002101400022014090F83C1001290CD09B
:1016B000012180F83C1001688A6822F001028A60EA
:1016C00001688968C90702D007E002207047016CF1
:1016D00021F4885141F001010164002180F83C109F
:1016E000084670472DE9F0410446876D00F04CFB39
:1016F000054694F835000026022806D08020606553
:1017000084F834600120BDE8F0812068016821F090
:10171000160101602068416921F080014161206C5F
:1017200008B9A06C20B12068016821F008010160AF
:101730002068016821F0010101600CE000F024FB49
:10174000401B052807D920206065032084F8350058
:1017500084F83460D7E720680068C007EED194F8B9
:101760005C103F208840B860012084F8350084F880
:1017700034600020C7E790F83510022903D080219B
:10178000416501207047052180F835100068016827
:1017900021F0010101600020704700002DE9F843AD
:1017A00004464FF00009CDF8009063484FF41651FD
:1017B000A56D0068B0FBF1F72E6894F85C20082155
:1017C00001FA02F030420FD02068026852070BD5B0
:1017D000026822F00402026094F85C008140A96073
:1017E000606D40F00100606594F85C104FF00108F6
:1017F00008FA01F0304208D021684969090604D589
:10180000A860606D40F00200606594F85C100420F0
:101810008840304208D021680968890704D5A8604B
:10182000606D40F00400606594F85C101020884002
:10183000304218D021680968090714D5A8602068CB
:101840000168490304D50068000308D5A16C07E0CE
:101850000168C90503D4016821F008010160216C09
:1018600009B12046884794F85C1020208840304217
:1018700031D021680968C9062DD5A86094F83500D3
:1018800005282068016806D0490347D50068000391
:101890001DD4616C1CE021F01601016020684169D3
:1018A00021F080014161206C08B9A06C20B1206852
:1018B000016821F00801016094F85C103F20884025
:1018C000A86084F8358084F83490216D1FE0E16BC6
:1018D00009B120468847606D00282BD0606DC00795
:1018E00014D0052084F835002068016821F001013A
:1018F00001600098401C0090B84203D8206800683E
:10190000C007F6D184F8358084F83490E16C002962
:1019100010D001B02046BDE8F04308470168C90572
:10192000D5D4016821F01001016084F8358084F875
:101930003490CCE7BDE8F883340000202DE9F04175
:10194000044600F021FA05465CB1022084F8350017
:10195000002684F834602068016821F001010160EC
:101960000DE00120BDE8F08100F00EFA401B0528D3
:1019700005D920206065032084F83500F2E720684F
:101980000068C007F0D121680A6820480240D4E905
:1019900001031843D4E903352B4318436369184303
:1019A000A3691843E3691843236A18431043626A22
:1019B000042A03D1D4E90B231A431043086020689A
:1019C0004069656A20F0070128460D430127042875
:1019D0000CD1A06A0543E06A40B12046FFF70EF93A
:1019E00020B14020606584F83570BAE72068456111
:1019F0002046FFF7EFF894F85C203F21914081608A
:101A0000666584F835700020ACE700003F8010F078
:101A10002DE9F0410446866D90F834000025012838
:101A20000DD0012084F8340094F835700020012F87
:101A300007D084F8340002252846BDE8F081022052
:101A4000FBE7022784F8357060652046FFF700F950
:101A500094F85C103F208840B0602068016841F035
:101A600016010160206C20B12068016841F0080176
:101A700001602068016841F001010160DCE70000BD
:101A800070B5044600F080F90546601C02D0044899
:101A90000078044400F078F9401BA042FAD370BDEE
:101AA000080000102DE9FC4700264FF48041284F24
:101AB000284D04460196884213D1384600F05AF961
:101AC000012840D12870244D286800283BD02BF0F5
:101AD0000DFE0246009601AB072128682BF0D8FFC7
:101AE00031E04FF4FA79402C0CD04FF48078444523
:101AF00029D100F049F906464146384600F03AF946
:101B0000A8B120E000F040F906464021134800F05B
:101B100031F9C0B9E868301A484514D96868401CE2
:101B2000686069680EA003F033FBEE600BE0286983
:101B3000301A484507D9A868401CA860A9680DA0BC
:101B400003F026FB2E6110480460BDE8FC8700000E
:101B50000004024020000020040000200000024099
:101B600050413620636F756E743A20256C640D0AFF
:101B70000000000050423820636F756E743A2025D3
:101B80006C640D0A00000000143C0140044910B5CB
:101B90000A68024202D00860FFF784FF10BD00000F
:101BA000143C01402DE9F84FDFF89C910022A9F187
:101BB000040B03274FF00F0C09F1040AABF1040EDC
:101BC00001250B6895402B40AB426ED10C7904F097
:101BD0000304012C01D0022C15D18668540007FAA9
:101BE00004F826EA0806D1F80C8008FA04F848EA56
:101BF0000608C0F808804468AC430D79C5F30015A9
:101C00009540254345600C79E443A40708D0C56896
:101C1000540007FA04F6B5438E68A6402E43C6600A
:101C20000C7904F00304022C11D1D40800EB8406D3
:101C3000356A5407E40E0CFA04F825EA0805D1F8D1
:101C4000108008FA04F848EA0508C6F820800568FC
:101C5000540007FA04F6B5430E7906F00306A640D1
:101C60002E4306604C6814F4403F66D0374C25681C
:101C700045F480452560246822F0030504F480447F
:101C80000094334C05EB0408D8F808589407260F45
:101C90000CFA06F4A5432F4CA04201D1002424E005
:101CA0002D4CA04202D101241FE046E02B4CA04263
:101CB00001D1022419E02A4CA04201D1032414E0EE
:101CC000284CA04201D104240FE0274CA04201D1AE
:101CD00005240AE0254CA04201D1062405E0244C4D
:101CE000A04201D1072400E00824B4402C43C8F8E6
:101CF0000848D9F800404D464E689C43F60200D58E
:101D00001C432C60DAF8004055464E689C43B602EE
:101D100000D51C432C60DBF800405D464E689C43B8
:101D2000B60300D51C432C60DEF8004075464E68B3
:101D30009C43F60300D51C432C60521C102AFFF470
:101D40003FAFBDE8F88F0000083C01404438024036
:101D50000030014000000240000402400008024040
:101D6000000C024000100240001402400018024023
:101D7000001C02400069084000D0012070470AB1F1
:101D8000816170470904FBE70148806870470000E3
:101D90000800001070B5040025D094F83D0000251F
:101DA00020B984F83C50204600F0B4F9242084F88F
:101DB0003D002068016821F0010101602068016890
:101DC00041F4004101602068016821F40041016094
:101DD00000F0F6FB4D4B6168994201D84C4900E098
:101DE0004C49884201D2012070BD4B492268B0FBAA
:101DF000F1F1566826F03F060E43566062689A423B
:101E000006D94FF4967251434FF47A72B1FBF2F156
:101E10002268491C166A26F03F0631431162616848
:101E2000994210D84900401EB0FBF1F2521CC2F397
:101E30000B02042A01D2042022E0B0FBF1F0401C86
:101E4000C0F30B001CE0A268F2B301EBC10303EB8B
:101E50000116431EB3FBF6F35B1C43F480431B05E2
:101E600049D092B301EBC10202EB0111401EB0FB5D
:101E7000F1F0401CC0F30B0040F4804040F40040FF
:101E80002168CA694CF6FF739A431043C861D4E9CC
:101E9000071001432068026822F0C002114301606C
:101EA000D4E9030101432068826848F2FF339A4372
:101EB00011438160D4E9051001432068C26822F013
:101EC000FF021143C16001E00EE016E020680168E6
:101ED00041F0010101602564202084F83D00256364
:101EE00084F83E50002070BD01EB4106431EB3FB59
:101EF000F6F35B1CB3E70120C2E701EB4101401E92
:101F0000B0FBF1F0401CC0F30B00B7E7A086010066
:101F100080841E0000093D0040420F002DE9FF4F64
:101F200083B09A46DDE9119793460446DDF8408078
:101F3000FFF72AFF054694F83D00202870D11923A9
:101F4000012271492046009501F01EFF0028F5D1BD
:101F500094F83C00012863D0012084F83C002068FC
:101F60000168C90703D1016841F0010101602068DF
:101F7000016821F400610160222084F83D004020C6
:101F800084F83E0000262664C4F82480A4F82A9031
:101F9000608D20855D48E062CDE9007553465A4664
:101FA0002046049901F072FE00287CD1208DD0B12A
:101FB000012821D00228206824D04169806900903E
:101FC000208D032869D801282BD0514902283B468F
:101FD0004FF00002009559D08846204601F0D4FE0B
:101FE000002860D13CE02068416981690091016866
:101FF00041F40071016077E02068016821F480619C
:102000000160F0E7016821F48061016020680168E7
:1020100041F400610160206841698069009063E0DB
:102020006FE02A463946204601F02EFF98BB206813
:102030000069616A08704EE02068016841F400712F
:10204000016020680069616A0870606A401C606213
:10205000218D491E2185618D491E6185216838E0E9
:102060002068016821F48061016020680069616A6C
:102070000870606A401C6062208D401E2085608D63
:10208000401E60853B46002241460095204601F0F7
:102090007BFE00B9D0E706E0FFE72A463946204636
:1020A00001F0F2FE18B1012007B0BDE8F08F206802
:1020B0000069616A0870606A401C6062218D491E77
:1020C0002185618D491E618521684A69D243520785
:1020D0000AD409690170606A401C6062208D401E4C
:1020E0002085608D401E6085208D00287FF468AFBC
:1020F000202084F83D0084F83E6084F83C60002095
:10210000D2E70220D0E70000020010000000FFFF2D
:102110000400010010B586B0044614216846FEF79D
:1021200007F913492068884220D11248002102682B
:1021300042F002020260006800F002000590C02038
:1021400000901220CDE901010320039004200490A7
:1021500069460948FFF726FD06481030016841F43A
:1021600000110160006800F40010059006B010BD79
:1021700000540040303802400004024002488168A8
:102180000278114481607047080000100B4810B5B8
:10219000016841F400710160016841F480610160EF
:1021A000016841F480710160032000F09FF80F2066
:1021B00000F006F800F050F8002010BD003C02408E
:1021C00030B505461F4887B00024016841F0020180
:1021D0000160006806A900F002000590684600F062
:1021E000CFF90398A8B100F0EBF940001649174A5F
:1021F000B0FBF1F11648491E026040F2E732C0E937
:102200000324C0E90114846100F020FF040003D01E
:1022100015E000F0D5F9E9E70D4800F09FFF040054
:102220000DD11D2000F034F8102D07D200222946D0
:102230001D2000F03BF80748056000E0012407B0CE
:10224000204630BD4038024040420F0000040040AC
:10225000B00300100C0000100C4882B0016841F47B
:1022600080410160006800F4804000900748001F32
:10227000016841F0805101600068002200F0805048
:1022800000900F21901E02B000F010B844380240B8
:10229000002809DB00F01F02012191404009800065
:1022A00000F1E020C0F8001170470000F0B40E4BC0
:1022B0001B68C3F30223C3F10704042C00D90424D0
:1022C0001D1D072D01D2002300E0DB1E012606FAAA
:1022D00004F56D1E0D409D409E40761E164045EA59
:1022E0000601F0BC02F090BF0CED00E0064A00F0E1
:1022F000070110684FF6FF03184040EA0120034928
:1023000008431060704700000CED00E00000FA0583
:102310002DE9F843044600684FF00109C1074FF06A
:10232000000501D1400726D5DFF80C81C8F86850B8
:10233000FFF72AFD0646414F04E0FFF725FD801B0D
:10234000022857D838680001F7D46068217A8001E4
:1023500040EA0170394984310860C8F86890FFF795
:1023600013FD064604E0FFF70FFD801B022841D84D
:1023700038680001F7D52078800752D52F484030C3
:10238000016841F08051016000682D4F00F08050DD
:102390000090386840F480703860FFF7F5FC06461E
:1023A00004E0FFF7F1FC801B022823D83868C00541
:1023B000F7D5224E7036306810F4407020D0A189D5
:1023C00001F4407181421BD030681E4920F44070F6
:1023D000C1F800900D6030603068C00710D0FFF782
:1023E000D3FC054641F2883707E0FFF7CDFC401BE0
:1023F000B84202D90320BDE8F88330688007F4D5DD
:10240000E0680E49C0F301220831032A0BD00868A6
:1024100020F4F81008603068A189C1F30B0108436B
:1024200030600020E7E70A68074B22F4F8121840F2
:1024300002430A60EFE70000000047420038024014
:1024400000700040400E4742FFFCFF0F2DE9F047AF
:102450000D46040065D0DFF81491D9F80000EFB202
:1024600000F00700A84207D289F80070D9F80000F0
:1024700000F00700A84254D120683D4E810712D5D4
:10248000400703D5306840F4E05030602078000702
:1024900003D5306840F4604030603068A16820F0B7
:1024A000F000084330602078C0072DD030496068C4
:1024B0000839012812D0022813D0032811D0096846
:1024C000890700292DDA316821F0030101433160C9
:1024D000FFF75AFC804641F2883A0EE0096889030A
:1024E000EFE709688901ECE7FFF74EFCA0EB080174
:1024F000514502D90320BDE8F0873068616800F0DB
:102500000C00B0EB810FEFD1D9F80010484601F074
:102510000701A94207D90770006800F00700A84228
:1025200001D00120E7E72078400705D53068E16851
:1025300020F4E050084330602078000706D530686A
:10254000216920F4604040EAC100306000F058F892
:102550003168084AC1F30311515CC840064908605C
:1025600006480068FFF72CFE0020C4E7003C02404C
:1025700008380240D4DB0208340000200C000010B0
:102580000F2202600C4A136803F0030343601368D0
:1025900003F0F0038360136803F4E053C360126830
:1025A0004FF4E05303EAD20202610448006800F0ED
:1025B000070008607047000008380240003C0240F5
:1025C0000448054900680968044AC1F38221515C46
:1025D000C84070473400002008380240E4DB02089D
:1025E0000448054900680968044AC1F34231515C56
:1025F000C84070473400002008380240E4DB02087D
:10260000154810B5006810F00C01144813D04310A1
:1026100004290FD008290ED10F4C241F216801F086
:102620003F022168490207D52068C0F38810A0FB4B
:10263000030106E0184610BD2168C1F38811A1FB13
:1026400000010023FDF71CFE2168C1F30141491C74
:102650004900B0FBF1F010BD083802400024F4003E
:102660002DE9F84F040075D02078DFF838A3C007B3
:10267000AAF1040548D00AF104000168C1F3810100
:10268000012908D00068C0F3810002280AD1DAF8D5
:102690000000400206D52868800335D56068002810
:1026A000E1D031E06068B0F5803F10D0B0F5A02FE8
:1026B000286810D020F480302860286820F480201A
:1026C00028606068A0B1FFF75FFB06460CE0286851
:1026D00040F48030F4E740F480202860F7E7FFF70B
:1026E00053FB801B642871D828688003F7D50BE062
:1026F000FFF74AFB064604E0FFF746FB801B642811
:10270000F1D828688003F7D42078DFF89C928007FE
:102710004FF0000B3DD5A348001D016811F00C0FD0
:1027200008D00068C0F3810002280AD1DAF800005E
:10273000400206D42868800715D5E068012809D131
:1027400011E0E068B8B10120C9F80000FFF71CFBF8
:10275000064605E022E1FFF717FB801B0228C2D8DE
:1027600028688007F7D52868216920F0F80040EA3A
:10277000C10028600DE0C9F800B0FFF705FB064670
:1027800004E0FFF701FB801B02281FD828688007A0
:10279000F7D42078000722D5824F844861697037CA
:1027A00071B101210160FFF7EFFA064604E0FFF77F
:1027B000EBFA801B022809D838688007F7D50EE0AD
:1027C000C0F800B0FFF7E0FA064605E082E0FFF748
:1027D000DBFA801B02287DD838688007F7D4207880
:1027E000400765D56F484FF000083C300068C000D6
:1027F0000BD46C483C30016841F0805101600068A6
:102800004FF0010800F080500090694F3868C00513
:102810000FD4386840F480703860FFF7B5FA064688
:1028200004E0FFF7B1FA801B022853D83868C005CE
:10283000F7D55C4FA0686C3701280FD005283868A1
:1028400010D020F001003860386820F004003860B3
:10285000A068B0B1FFF798FA06460EE0386840F07D
:102860000100F4E740F004003860F7E7FFF78CFA66
:10287000811B41F28830814263D838688007F5D5E2
:102880000DE0FFF781FA064606E0FFF77DFA811BAF
:1028900041F28830814254D838688007F5D4B8F1C5
:1028A000000F05D03F483C30016821F080510160A5
:1028B000A069B8B33B49091D0968C1F38101022928
:1028C00046D00228584606D0C9F86000FFF75CFAE7
:1028D000044639E035E04F46C9F86000FFF754FA86
:1028E000064604E0FFF750FA801B022829D8286822
:1028F0008001F7D4D4E907010843A16A2D4A4908A9
:1029000002EB0141626A41EA8211084394F82C10FB
:1029100040EA0161CAF8001001203866FFF734FA76
:10292000044605E03CE0FFF72FFA001B022808D818
:1029300028688001F7D533E0FFF726FA001B02284C
:1029400002D90320BDE8F88F28688001F4D427E07D
:102950000128F7D0DAF80000E26900F48001914222
:102960001CD1226A00F03F01914217D147F6C07195
:10297000626A0140B1EB821F10D1A26A4FF0FF33AF
:1029800000F4403103EB5202B1EB024F06D194F850
:102990002C1000F07060B0EB016F01D00120D1E786
:1029A0000020CFE70438024000004742800E474233
:1029B000007000400000FFFF10B5040002D0607FEF
:1029C00010B106E0012010BD00202077204600F065
:1029D00039F8022060772168CA20486221685320B4
:1029E0004862204601F0BCFE30BB20688168144A72
:1029F000114081602068816862681143D4E9042332
:102A00001A43114381602168E06808612068016908
:102A1000228941EA02410161204601F0C4FE58B911
:102A200021680A6C22F480220A6421680A6CA36976
:102A30001A430A64012161772268FF21516210BDA7
:102A4000BFFF8FFF1FB500210091019102910391FB
:102A50000068084988420CD10220009000020390CF
:102A60006846FFF755FC08B1FEF7B0FA02490120AD
:102A700008601FBD002800403C0E474270B5044668
:102A8000007F0B46012819D00126267702206077A7
:102A9000B2B19878D97840EA01455878197800029F
:102AA00040EA413005432168CA204862216853202A
:102AB0004862204601F054FED0B122E0022070BDF1
:102AC0005878C10603D500F0EF000A305870D87866
:102AD00001F03AFE0204587801F036FE42EA002284
:102AE000987801F031FE0243187842EA4035DAE77F
:102AF0000748054020684560204601F054FE00B9B3
:102B000066772268FF2151620021217770BD0000A5
:102B10003FFFFF002DE9F0410446007F0D460128EC
:102B200023D04FF0010884F81C80022060772068D1
:102B3000002780684FEA4060D2B1002800DBEF70C8
:102B4000A878297840EA01466878E978000240EAE6
:102B5000815006432168CA20486221685320486298
:102B6000204601F0FDFDB8B12CE00220BDE8F08167
:102B7000002800DBEF70287801F0E6FD0204687899
:102B800001F0E2FD42EA0022A87801F0DDFD0243F7
:102B9000E87842EA8056DDE70D4806402068066086
:102BA0002068816821F480218160D5E90310014308
:102BB0002068826811438160204601F0F4FD08B965
:102BC00084F81D802268FF2151622777CEE700003C
:102BD0007F7F7F0070B505460068C16821F0A001C5
:102BE000C160FFF7D1F804464FF47A7606E0FFF7AC
:102BF000CBF8001BB04201D9032070BD2868C06823
:102C00008006F4D5002070BD704790F851007047E1
:102C100070B5040009D0606A002540B12561656186
:102C2000A56294F8510040B10CE0012070BD6068CD
:102C3000B0F5827FF4D0E561F2E784F85050204689
:102C400000F044F8022084F851002068016821F067
:102C500040010160A088218900F4827001F40441E0
:102C60000843A18901F400610843217C01F00201BD
:102C70000843217D01F001010843218B01F400711B
:102C80000843217F01F03801084394F8201001F037
:102C900080010843218D01F4005108432168086038
:102CA000A069042101EA104094F8241001F01001F9
:102CB0000843216848602068C16921F40061C1614E
:102CC0006565012084F85100002070BD70B586B0A4
:102CD000064614216846FDF72BFB204930688842E0
:102CE00039D11F480025016841F480510160006816
:102CF00000F4805005901A481438016841F0010131
:102D000001600068694600F001000590A020009075
:102D10000220CDE90105032003900520049011480D
:102D2000FEF740FF114C104820604FF0C06060601B
:102D30004020C4E902050001C4E90405C001A56101
:102D4000C4E9075020466562FEF7F8FD08B1FEF7BA
:102D50003DF9B464A66306B070BD000000300140C8
:102D60004438024000000240586402405003001002
:102D70002DE9F84F044690F8500000261D46904675
:102D8000894601280ED04FF0010B84F850B0FEF7B1
:102D9000FBFF074694F851004146B246012804D093
:102DA000022694E00220BDE8F88FB9F1000F74D03C
:102DB000B8F1000F71D0032084F85100C4F854A07A
:102DC000C4F83090A4F83480A4F83680C4F838A051
:102DD000A4F83CA0A4F83EA0C4F844A0C4F840A0C5
:102DE000A068B0F5004F09D12068026822F04002C7
:102DF00002602068026842F4804202602068026833
:102E0000520603D4026842F040020260E068B0F566
:102E1000006F606803D028B3012923D03FE008B1D8
:102E200001291BD1206B21680088C86006E020685A
:102E30008168890709D5216B0988C160206B801CD6
:102E40002063E08E401EE08608E0FEF79DFFC01B79
:102E5000A84202D3681C01D030E075B3E08E002890
:102E6000E5D11FE0206B21680078087306E0206838
:102E70008168890709D5216B09780173206B401C93
:102E80002063E08E401EE08609E0FEF77DFFC01B58
:102E9000A84203D3681C02D010E017E06DB1E08EA9
:102EA0000028E4D13A462946204601F0D9FC08B171
:102EB00020206065A06818B106E0FFE7032606E061
:102EC0002068C16880680090606D00B1012684F8B8
:102ED00051B084F850A0304665E700002DE9F0417C
:102EE000044690F850000025012809D0012784F8F5
:102EF000507094F851000026012804D002254EE0BD
:102F00000220BDE8F08189B182B1032084F851002C
:102F100066652163A286E286A66366642664A68748
:102F2000E687A068B0F5004F02D00BE0012536E03F
:102F30002068016821F0400101602068016841F4C7
:102F400080410160A16C18480864A16C1748C863EF
:102F5000A16C1748C864A06C0665E38E2268216BDB
:102F60000C32A06CFEF754FD38B1606D40F01000DB
:102F70006065012584F8517011E0206801684906F8
:102F800003D4016841F0400101602068416841F0CC
:102F9000200141602068416841F00201416084F8ED
:102FA00050602846ADE70000F3470008FD470008E1
:102FB000D1470008704770477047704770B590F868
:102FC0003C20012A32D0012580F83C50022280F8B2
:102FD0003D2002685368946823F070060B68334301
:102FE0005360134B02689A4214D0B2F1804F11D053
:102FF000104B9A420ED0104B9A420BD00F4B9A4274
:1030000008D00F4B9A4205D00E4B9A4202D00E4B7D
:103010009A4204D1496824F080031943916080F8F2
:103020003D50002180F83C10084670BD022070BD64
:10303000000001400004004000080040000C004077
:1030400000040140004001400018004010B5040099
:1030500003D094F83D0010B107E0012010BD00201E
:1030600084F83C00204600F01FF8022084F83D0060
:10307000211D206801F0F0FC012084F8460084F84E
:103080003E0084F83F0084F8400084F8410084F852
:10309000420084F8430084F8440084F8450084F832
:1030A0003D00002010BD000008B500680B49B0F1DC
:1030B000804F0BD00A4A904207D1086840F00800C0
:1030C0000860086800F00800009008BD086840F03B
:1030D00001000860086800F00100F5E74038024090
:1030E000000C004090F83D10012901D001207047EC
:1030F000022180F83D1000681149884214D0B0F1D7
:10310000804F11D00F4988420ED00F4988420BD012
:103110000E49884208D00E49884205D00D498842A0
:1031200002D00D49884204D1816801F007010629C7
:1031300003D0016841F001010160002070470000E8
:10314000000001400004004000080040000C004066
:1031500000040140004001400018004090F83D107C
:10316000012901D001207047022180F83D1001683B
:10317000CA6842F00102CA6000681149884214D04E
:10318000B0F1804F11D00F4988420ED00E498842CD
:103190000BD00E49884208D00D49884205D00D4910
:1031A000884202D00C49884204D1816801F00701AD
:1031B000062903D0016841F0010101600020704739
:1031C000000001400004004000080040000C0040E6
:1031D00000040140004001400018004001680A6AF4
:1031E00041F211131A4207D10A6A9B101A4203D105
:1031F0000A6822F001020A60012180F83D100020D7
:10320000704770B5044690F83C000025012817D09F
:10321000012684F83C60022084F83D002068826822
:1032200022F0770222F47F4282600868502838D06A
:103230000DDC20284FD005DC90B3102811D14AE0D6
:10324000022070BD302846D040280AD13BE06028DB
:103250002FD070280DD0B0F5805F03D0B0F5005F9F
:1032600012D0012584F83D60002084F83C002846F7
:1032700070BDCB68D1E90121206801F05EFC2068B7
:10328000816841F0770109E0CB68D1E9012120682C
:1032900001F053FC2068816841F480418160E1E7DE
:1032A00019E0CA684968206801F01CFD50212068B7
:1032B00006E0CA684968206801F025FD60212068A1
:1032C00001F045FCCEE7CA684968206801F00AFDB4
:1032D00040212068F4E7226801461046F0E7704775
:1032E00070B50446006801694FF00005C9438907BD
:1032F00015D4C168C943890711D4E91E01610120B1
:103300002077206880698007204602D0FFF7E7FF1A
:1033100004E000F0C1F8204600F053F9257720685A
:103320000169C943490717D4C168C943490713D480
:103330006FF004010161022020772068806910F499
:10334000407F204602D0FFF7CAFF04E000F0A4F857
:10335000204600F036F9257720680169C94309073E
:1033600016D4C168C943090712D46FF0080101617E
:10337000042020772068C0698007204602D0FFF72C
:10338000AEFF04E000F088F8204600F01AF9257737
:1033900020680169C943C90617D4C168C943C90671
:1033A00013D46FF010010161082020772068C069F4
:1033B00010F4407F204602D0FFF791FF04E000F0B8
:1033C0006BF8204600F0FDF8257720680169C943B5
:1033D000C90708D1C168C943C90704D1891E016161
:1033E000204600F057F920680169C943090609D44D
:1033F000C168C943090605D46FF080010161204608
:10340000FFF7DAFD20680169C943490609D4C1689C
:10341000C943490605D46FF040010161204600F020
:1034200043F920680169C94389060BD4C168C943BF
:10343000890607D46FF0200101612046BDE8704085
:10344000FFF7BBBD70BD000010B586B00446142167
:103450006846FCF76DFF2068B0F1804F16D10C482C
:103460000021026842F002020260006800F00200DF
:1034700005904FF4806000900220CDE90101012009
:10348000CDE9031069460348FEF78CFB06B010BD7A
:103490003038024000040240704770B5044690F88E
:1034A0003C0000260D4601280FD0012084F83C0086
:1034B0006AB1042A1DD0082A2FD00C2A3FD0012639
:1034C000002084F83C00304670BD022070BD2068AA
:1034D00001F046FB2068816941F0080181612068A4
:1034E000816921F004018161206881692A691143A1
:1034F00011E0206801F064FB2068816941F40061FB
:1035000081612068816921F480618161206881691D
:103510002A6941EA02218161D2E7206801F086FB35
:103520002068C16941F00801C1612068C16921F0CA
:103530000401C1612068C1692A69114311E0206852
:1035400001F0A8FB2068C16941F40061C1612068F5
:10355000C16921F48061C1612068C1692A6941EAB9
:103560000221C161ACE710B5040003D094F83D001E
:1035700010B107E0012010BD002084F83C00204677
:1035800000F01EF8022084F83D00211D206801F0A3
:1035900063FA012084F8460084F83E0084F83F0076
:1035A00084F8400084F8410084F8420084F8430025
:1035B00084F8440084F8450084F83D00002010BDE4
:1035C0007047704710B5044649B104290AD008294C
:1035D0000BD094F8410001280AD0012010BD94F8C6
:1035E0003E00F8E794F83F00F5E794F84000F2E772
:1035F0000220B1B3042938D0082939D084F8410019
:103600000122206801F08CFA1B4920681B4A88427D
:1036100001D0904203D1436C43F4004343642068DB
:10362000884213D0B0F1804F10D0154988420DD098
:10363000144988420AD01449884207D0904205D0E4
:103640001249884202D01249884204D1816801F0AF
:103650000701062903D0016841F001010160002043
:1036600010BDFFE784F83E00CAE784F83F00C7E7D3
:1036700084F84000C4E7000000000140000401405D
:103680000004004000080040000C004000400140E1
:103690000018004000680349884201D1FEF76EBD62
:1036A00070470000000400407047704710B50446A2
:1036B0000068406994F83D10C0F3C010212911D171
:1036C00080B12068143050E8001F21F0800140E8EC
:1036D0000012002AF5D1606B08B1FEF703F820460E
:1036E00001F0C5FB2068406994F83E10C0F38010DB
:1036F000222911D180B12068143050E8001F21F038
:10370000400140E80012002AF5D1A06B08B1FDF796
:10371000E9FF204601F084FB002010BD7047000047
:10372000F8B5016804460868CA684B6910F00F0FC5
:103730004FF0000559D003F0010602F490773743AB
:1037400065D0C10705D0D10503D5216C41F0010139
:103750002164410705D5D90703D0216C41F002014E
:103760002164810705D5D90703D0216C41F00401FC
:103770002164010707D502F02001314303D0216CF9
:1037800041F008012164216C00293AD0800604D55B
:10379000900602D5204601F078FB20684069216C34
:1037A000C0F38010090700D460B3204601F038FB55
:1037B00020684069400621D52068143050E8001F79
:1037C00021F0400140E80012002AF5D1A06BA8B119
:1037D0006C490165A06BFDF7CEFF002811D0A06BEE
:1037E000016D01B0BDE8F040084783060FD5930690
:1037F0000DD52046BDE8F84001F047BB2046FFF755
:103800008DFFF8BD2046FFF789FF2564F8BD266BC4
:103810002023012E79D1C60677D5D60675D508683E
:10382000486800904869400640D5A16B0868406828
:103830000004000CEAD0A28D8242E7D9E085C86975
:10384000B0F5807F2DD020680C3050E8001F21F4A7
:10385000807140E80012002AF5D12068143050E849
:10386000001F21F0010140E80012002AF5D1206874
:10387000143050E8001F21F0400140E80012002AF7
:10388000F5D184F83E30256320680C3050E8001FE5
:1038900021F0100140E80012002AF5D1A06BFDF7DD
:1038A00021FFA08DE18D401A81B229E0A08DE18D2C
:1038B000401A81B2E08D0028A8D00029A6D0206847
:1038C0000C3050E8002F22F4907240E80026002EC1
:1038D000F5D12068143050E8002F22F0010240E8B2
:1038E0000026002EF5D184F83E30256320680C3088
:1038F00050E8002F22F0100240E80023002BF5D101
:103900002046FFF7D2FEF8BDFFE705062BD51506CA
:1039100029D594F83D002128F5D1A068B0F5805F45
:1039200001D12069B0B1206A411C21622168007870
:103930004860E08C401E0004000CE084E3D1206865
:10394000C16821F08001C1602068C16841F0400178
:10395000C160D8E7206A0088C0F308004860206A88
:10396000801C2062E5E74006CDD55006CBD5CA685D
:10397000204622F04002CA6084F83D3000F06DF924
:10398000C1E700002B4D0008F8B5184A01689142C4
:103990002AD10A68002549680091FFF787FE14487C
:1039A00000684068C0F500700404240C10D0114E6B
:1039B00011A130463555FCF7C6FC20B1314612A0A6
:1039C00001F0E6FB04E0A6F80042012086F80402BC
:1039D0004FF400720749114800F0D0F8002803D0D6
:1039E000BDE8F840FDF7F2BAF8BD00000044004021
:1039F0007C030020DC0300202B4D515454535542CE
:103A000052454356000000004D515454204D6573FB
:103A1000736167653A2025730A00000038030020AF
:103A200070B5040004D094F83D00002510B106E004
:103A3000012070BD84F83C50204600F023F824207B
:103A400084F83D002068C16821F40051C16020461F
:103A500001F07CFA2068016921F49041016120683D
:103A6000416921F02A0141612068C16841F4005197
:103A7000C1602564202084F83D0084F83E000020C9
:103A800070BD0000F0B587B0064614216846FCF70B
:103A90004FFCDFF8D0C030680025334902220323F1
:103AA0000727324C60451CD12F481430066846F079
:103AB00010060660006800F010000590086840F0ED
:103AC000010008600868694600F00100059058028E
:103AD0008DE82500CDE903372046FEF763F807B0EF
:103AE000F0BDDFF88CC06045F9D11F481030D0F828
:103AF00000C04CF4003CC0F800C0006800F4003086
:103B00000590086840F0010008600868694600F008
:103B1000010005900C208DE82500CDE903372046F3
:103B2000FEF740F8144C134820604FF00060C4E9E1
:103B300001054014C4E903506561A561E561256292
:103B400020466562FDF7FAFE08B1FDF73FFAB4635F
:103B5000002205212620A663FEF7A8FB2620FEF7FB
:103B600097FBBCE7001001403038024000000240E3
:103B700000440040886002407C03002090F83E3002
:103B8000202B0ED159B152B190F83C30012B08D006
:103B9000012380F83C300023036301F05DBA01206B
:103BA000704702207047704770472DE9F84304467C
:103BB00090F83D001F4615460E4620284BD1C6B151
:103BC000BDB194F83C00012845D0012084F83C00A8
:103BD0004FF00008C4F84080212084F83D00FEF733
:103BE000D3F8A5848146E584A068B0F5805F03D052
:103BF00004E00120BDE8F883206920B135460026A5
:103C000084F83C800EE00025FAE78021204601F090
:103C10006FFAA0B9ADB115F8010B21684860E08CCE
:103C2000401EE084E08C4B464FF0000200970028D5
:103C3000EBD14FF04001204601F05AFA30B1032099
:103C4000D8E736F8020BC0F30800E6E7202084F836
:103C50003D000020CEE70220CCE77047FEE7016878
:103C60004A69D24352050FD46FF480624A61002141
:103C700040F8301F202242738173026942F004022F
:103C80000261017301207047002070472DE9F84F51
:103C90000446006889460B9E01689846174641F421
:103CA000806101602068016841F4807101600096C4
:103CB0004FF0011B0022594620460A9B00F064F891
:103CC0004FF4007A40B120680068C00501D5C4F8FF
:103CD00040A00320BDE8F88F216809F0FE000861CC
:103CE0003346284920460A9A00F082F8F0BB206843
:103CF000416980690090324620460A9900F0F9F83F
:103D000040B1206C04283AD12068016841F4007168
:103D1000016034E0FDB2B8F1010F09D02168380A22
:103D20000861324620460A9900F0E3F80028E8D1FD
:103D300020680561324620460A9900F0DAF800282A
:103D4000DFD12068016841F4807101600096002293
:103D5000594620460A9B00F017F80028B3D1216885
:103D600009F0FF0040F00100086100E007E0334681
:103D7000044920460A9A00F03BF80028AAD0012006
:103D8000A8E70000020001002DE9F0471D4690461B
:103D90000E460446C1F30747DDF8209008E0681C92
:103DA00006D0FDF7F1FFA0EB0900A8420FD875B1CE
:103DB0002068012F18D0806926EA00000004000C5A
:103DC00014D000204045EAD00020BDE8F087002054
:103DD00044F8300F20216173A073216941F0200164
:103DE000216120730120F0E74069E5E70120E9E760
:103DF0002DE9F047984615460E4604464FF0000957
:103E00004FF0200AC1F3074723E020684069C04310
:103E1000400515D42068016841F4007101602168F3
:103E20006FF480604861C4F8309084F83DA084F855
:103E30003E90216C41F00401216484F83C901EE026
:103E4000681C06D0FDF7A0FFA0EB0800A8420AD826
:103E50004DB12068012F15D0806926EA00000004CA
:103E6000000C0DD0D1E744F8309F84F80DA084F801
:103E70000E90216941F02001216184F80C9001200D
:103E8000BDE8F0874069E8E72DE9F04116460D46A8
:103E9000044600274FF0200817E04069C043C006E1
:103EA0000DD454F8301B6FF01000486144F80D7BBE
:103EB00004F81D89A777206A2062277717E0FDF7AD
:103EC00063FF801BA84208D83DB120684169C943FF
:103ED0004906E2D40020BDE8F08144F8307F84F840
:103EE0000D80A773206940F0200020612773012016
:103EF000F1E770B516460D4604460DE02046FFF783
:103F0000AEFE08B1012070BD681C05D0FDF73CFF76
:103F1000801BA84207D835B120684069C04300061D
:103F2000ECD4002070BD002044F8300F20216173D4
:103F3000A073216941F0200121612073E2E70000B4
:103F4000B0F57A7F01D340F2E73002490968C863CF
:103F5000704700006402002070B54FF47A75A0B07D
:103F60000A242A462FA130A0FCF7B6FF2846FDF709
:103F700087FDC8222BA131A0FCF7AEFF18B1641E4B
:103F8000002C42D0F5DC4FF4FA763046FDF778FD90
:103F90000A24C82223A13348FCF79EFF18B1641EEF
:103FA000002C34D0F5DC3046FDF76AFD0A242E499A
:103FB000684601F015F9C8221AA16846FCF78CFF83
:103FC00018B1641E002C22D0F5DC3046FDF758FDF8
:103FD0000A2441F28836324612A12448FCF77CFFBD
:103FE000B8B1641E002C1BD0F5DC2846FDF748FD57
:103FF000C8220CA11E48FCF76FFFC82209A11D486A
:10400000FCF76AFF002020B070BD0120FBE7022012
:10401000F9E719A001F0BCF81C4901200870E4E799
:104020000320F0E74F4B000041542B4D51545443B3
:104030004C45414E3D300D0A0000000041542B43D9
:104040004950534E54504346473D312C382C226E34
:104050007470312E616C6979756E2E636F6D220DEF
:104060000A0000009C0B0508C40C0508180D050883
:10407000700C0508200C05084D51545420636F6ED8
:104080006E65637465640D0A000000004400002042
:1040900030B5144C0546ADF5017D2078012807D0D8
:1040A00011A0616801F074F803200DF5017D30BDA9
:1040B0000B462A4613A1684601F092F841F2883275
:1040C00018A16846FCF708FF28B117A0616801F045
:1040D0005FF80520E9E72A4619A0616801F058F861
:1040E0000020E2E74400002025733A204D5154544B
:1040F000206E6F7420636F6E6E65637465640D0A65
:104100000000000041542B4D5154545055423D3055
:104110002C222573222C222573222C312C300D0ABF
:10412000000000004F4B000025733A205075626C70
:10413000697368206661696C65640D0A000000009F
:1041400025733A205075626C697368656420746FDA
:104150002025730D0A00000030B5134C0546C1B090
:104160002078012806D011A0616801F011F8032021
:1041700041B030BD2A4614A1684601F031F841F241
:10418000883217A16846FCF7A7FE28B115A0616820
:1041900000F0FEFF0420EBE72A4618A0616800F05B
:1041A000F7FF0020E4E700004400002025733A20D8
:1041B0004D515454206E6F7420636F6E6E6563743E
:1041C00065640D0A0000000041542B4D51545453B6
:1041D00055423D302C222573222C310D0A0000005F
:1041E0004F4B000025733A20537562736372696206
:1041F00065206661696C65640D0A000025733A20CC
:104200005375627363726962656420746F202573ED
:104210000D0A00007FB50024154800940194029413
:104220001249039401604FF48031C0E90114012563
:104230000461057680F820400E49C0E90A14C56182
:10424000C46080F830404561FDF7FFF808B1FCF725
:10425000BDFE0420CDE90005694602940448FDF73F
:104260004BF8002801D0FCF7B1FE7FBD00200140D3
:10427000FC0100200100000F114808B5016841F45D
:1042800080010160016801F480010091016841F43E
:10429000001101600068002200F400100090052168
:1042A0001020FEF703F81020FDF7F2FF0022052191
:1042B0003B20FDF7FBFFBDE808403B20FDF7E8BFD2
:1042C0003038024038B51F4820F0F3FB1E4C002266
:1042D0001021A061052028F07FFDA06020B91BA05F
:1042E00000F056FFFCF772FE1F48002300901A46AC
:1042F00042F210711DA029F081FB206020B91EA0A0
:1043000000F046FFFCF762FE0E4A0021903A214879
:1043100020F024FC0B4A6060483A00211E4820F03F
:104320001DFC084A20616C3A00211C4820F016FC54
:10433000044AE060243A0021194820F00FFC606133
:1043400038BD0000BCDB0208040000205175657513
:1043500065206372656174696F6E206661696C6562
:1043600064210D0A0000000029FC0008666C616DE4
:10437000655F74696D65720054696D657220637262
:10438000656174696F6E206661696C6564210D0AF0
:104390000000000071490008ED9600089D6A0208BF
:1043A000CD4502082DE9F04186B014216846FBF79F
:1043B000BFFF43480024016841F0800101600168AB
:1043C00001F080010591016841F00101016001687F
:1043D00001F001010591016841F0020101600168ED
:1043E00001F002010591016841F0100101600068CF
:1043F000DFF8D08000F01000059001220421404633
:10440000FDF7BDFC304F012280213846FDF7B7FC97
:1044100000224FF488513846FDF7B1FC00224FF4DA
:1044200060514046FDF7ABFC40203E01CDE900065F
:104430000125694602952548FDF7B4FB43F60400C3
:104440000090CDE90154694640460394FDF7AAFB6C
:104450004FF48C500090CDE90154694638460394DE
:10446000FDF7A0FB4FF460608DE8310069463846E7
:10447000FDF798FBA80300904FF48810CDE90104E4
:1044800069464046FDF78EFB2802CDE900066946E5
:1044900002954046FDF786FB002205211720FDF717
:1044A00005FF1720FDF7F4FE002205212820FDF767
:1044B000FDFE2820FDF7ECFE06B0BDE8F08100000F
:1044C0003038024000040240001002400000024068
:1044D0000D4810B50B4901600C49416000214FF4B3
:1044E00080428160C0E9031241618161C161016262
:1044F000FDF750FC002803D0BDE81040FCF766BD76
:1045000010BD000000540040A4020010A08601006D
:1045100010B586B014216846FBF70AFF1B4800243B
:1045200019490594C0E900147F218160FF21C0E989
:10453000031444618461FEF73FFA08B1FCF746FDBD
:104540008DF800408DF801408DF80240039401225F
:1045500069460E480494FEF7DDFA08B1FCF736FD13
:1045600001208DF814008DF815008DF81600024614
:104570008DF8174005A90548FEF780FA002801D0FC
:10458000FCF724FD06B010BD0028004044020020C6
:10459000104810B50E4901604FF48271416000214E
:1045A0008160C1604FF400720161C0E90512102200
:1045B000C0E90721416281620A21C162FEF728FB3E
:1045C000002803D0BDE81040FCF700BD10BD00007E
:1045D00000300140F802001010B58EB0002407949E
:1045E000089409940A940B941C2168460C94FBF7D8
:1045F0009FFE1E484FF0804101605321C0E9011425
:1046000040F2E731C0E9031480218161FEF71EFD0D
:1046100008B1FCF7DBFC4FF48050079007A9134862
:10462000FEF7EFFD08B1FCF7D1FC1048FEF79BFF49
:1046300008B1FCF7CBFC0B940BA90C480C94FEF7CB
:10464000BDFC08B1FCF7C2FC6020CDE90004029477
:104650000822694605480494FEF71FFF08B1FCF7DD
:10466000B5FC0248FEF7F0FE0EB010BD640200205B
:1046700010B586B000241648009401940294039467
:1046800004941249059401605321C0E90114611E8C
:10469000C0E903148461FEF7D9FC08B1FCF796FC6D
:1046A0004FF48050009069460948FEF7AAFD08B112
:1046B000FCF78CFC049404A905480594FEF77EFCE5
:1046C000002801D0FCF782FC06B010BD000C0040B1
:1046D000AC0200200C4810B50A4901604FF4E131EA
:1046E0004160002181600C22C160C0E90412816137
:1046F000C161FFF795F9002803D0BDE81040FCF731
:1047000065BC10BD00100140F40200200C4810B53B
:104710000A4901604FF4E1314160002181600C22BF
:10472000C160C0E904128161C161FFF779F9002815
:1047300003D0BDE81040FCF749BC10BD0044004068
:1047400038030020FEE7FEE7002103E0491C0A3899
:10475000C9B2C0B20A28F9D2090740EA116070470D
:104760002DE9F041054600680024C168490617D4C8
:10477000C16841F08001C160FDF706FB06464FF4B9
:104780007A78042706E0FDF7FFFA801B404501D93F
:104790006F7701242868C068400601D4002CF2D04D
:1047A0002046BDE8F08170B5044600680025C16868
:1047B00021F08001C16020688068800606D4204610
:1047C000FEF708FA10B1042060770125284670BD75
:1047D00010B5806B01684A6822F003024A60416D9F
:1047E00041F010014165012180F85110FEF70CFAEB
:1047F00010BD10B5806BFEF7DEFB10BD38B5054669
:10480000846BFDF7C1FA024628680068C00523D40E
:104810002068416821F0200141602068416821F052
:10482000020141606421204600F01AF818B1606D61
:1048300040F020006065A068002118B92068C268B7
:1048400080680090E186012084F85100606D18B105
:104850002046FEF7D9F938BD2046FEF7ABFB38BD40
:1048600038B504461248134D4FF47A730068B0FB14
:10487000F5F0584300906068B0F5827F0DD10B468B
:10488000009200228021204600F016F870B1606D81
:1048900040F020006065032038BD009830B1401E14
:1048A000009020688068C0430006F6D5002038BD1F
:1048B0003400002000366E012DE9F8431E46914673
:1048C00088460446089DFDF75FFA401B351AFDF740
:1048D0005BFA074625480068C0F3CB30684338E0F0
:1048E000701C37D0FDF750FAC01BA84203D215B197
:1048F000009860B32CE02068416821F0E00141603D
:104900006068B0F5827F0BD1A068B0F5004F02D08F
:10491000B0F5806F04D12068016821F0400101608A
:10492000A06AB0F5005F09D12068016821F4005148
:1049300001602068016841F400510160012084F8A1
:104940005100002084F850000320BDE8F8830025C2
:10495000401E00902068816838EA010004D00020E1
:104960004845BDD10020F0E70120F9E734000020E0
:1049700001A000F00DFCFEE748656C6C6F20576FDE
:10498000726C640A0000000010B54FF0E02000696E
:1049900028F098FE012803D0BDE8104028F0EEB9B9
:1049A00010BD000030B593B030216846FBF7C0FC65
:1049B00014210CA8FBF7BCFC1E480025016841F03F
:1049C00080510160006800F0805011901A48016821
:1049D00041F4804101600068022400F4804011909D
:1049E000092000904FF4803001900120CDE90504AA
:1049F0008005079008AA0420A82182E813000B90E4
:104A00006846FDF72DFE08B172B6FEE70CA90F202F
:104A100081E831004FF4A0500F904FF48050109077
:104A200005210CA8FDF712FD002801D072B6FEE7A3
:104A300013B030BD403802400070004002480168A9
:104A400041F470010160704788ED00E00148FEF715
:104A500047BC0000B0030010F0B50268254D264E9B
:104A6000264FDFF89CC0274B4FF0804EA84209D05C
:104A7000704507D0B04205D0B84203D0604501D0A0
:104A8000984203D122F070044A682243A8421BD006
:104A9000704519D0B04217D0B84215D0604513D038
:104AA000984211D0184CA0420ED0184CA0420BD006
:104AB000174CA04208D0174CA04205D0164CA0427B
:104AC00002D0164CA04203D122F44074CA6822439B
:104AD0004C6922F08002224302608A68C2620A683E
:104AE0008262A84201D0984201D109690163012183
:104AF0004161F0BD0000014000040040000800409A
:104B0000000C00400004014000400140004401400E
:104B10000048014000180040001C004000200040F8
:104B200010B501F01F010123046A8B409C4304620D
:104B3000036A8A401343036210BD10B5846842EAD9
:104B4000032224F47F440A432243826010BD82681A
:104B500022F070020A4342F00701816070470000B2
:104B6000F0B5026A22F001020262026A43688469B7
:104B7000114E24F073050C68104F2C4322F00205EF
:104B80008A682A43B04201D0B84205D122F0080514
:104B9000CA682A4322F00402B04201D0B84205D1CB
:104BA0004D6923F440731D438B692B43436084613B
:104BB000496841630262F0BD000001400004014009
:104BC000F0B5026A22F010020262026A4368846948
:104BD0000D6824F4E64444EA05248D6822F020029E
:104BE00042EA05120F4D104EA84201D0B04206D144
:104BF000CF6822F0800242EA071222F04002A84267
:104C000001D0B04207D14D6923F4406343EA8503E4
:104C10008D6943EA85034360846149688163026268
:104C2000F0BD00000000014000040140F0B5026A40
:104C300022F480720262026A4368C46922F400723C
:104C400024F073050C68124E2C438D6842EA05224D
:104C50000E4DA84201D0B04206D1CF6822F40062C6
:104C600042EA072222F48062A84201D0B04207D172
:104C70004D6923F4405343EA05138D6943EA051354
:104C80004360C4614968C1630262F0BD0000014035
:104C90000004014030B5026A22F480520262036AC5
:104CA0004268C4690D6824F4E64444EA05248D682A
:104CB00023F4005343EA0533084DA84202D0084DBF
:104CC000A84204D14D6922F4804242EA8512426032
:104CD000C46149680164036230BD00000000014006
:104CE0000004014010B5046A036A23F00103036263
:104CF000836923F0F00343EA021324F00A020A4313
:104D00008361026210BD10B5036A23F010030362D1
:104D10008469036A24F4704444EA023223F0A00355
:104D200043EA01118261016210BD10B5806B002160
:104D3000C185C184FEF7F2FC10BD70B5846B20689C
:104D4000406994F83D10C0F3C0100025212904D11A
:104D500018B1E584204600F08AF82068406994F88C
:104D60003E10C0F38010222904D118B1E5852046F9
:104D700000F056F8206C40F0100020642046FEF74A
:104D8000CDFC70BD10B50146806B09680968C90586
:104D90002FD40021C18501680C3151E8002F22F485
:104DA000807241E80023002BF5D10168143151E8ED
:104DB000002F22F0010241E80023002BF5D1016809
:104DC000143151E8002F22F0400241E80023002B6B
:104DD000F5D1202180F83E10016B012909D101682D
:104DE0000C3151E8002F22F0100241E80023002B83
:104DF000F5D1016B012902D0FEF7D5FE10BD818DE2
:104E0000FEF753FC10BD10B5806B016B012902D079
:104E1000FEF7CAFE10BD818D4908FEF746FC10BDA5
:104E200001680C3151E8002F22F4907241E8002310
:104E3000002BF5D10168143151E8002F22F0010256
:104E400041E80023002BF5D1016B012909D101684C
:104E50000C3151E8002F22F0100241E80023002B12
:104E6000F5D1202180F83E100021016370470168D0
:104E70000C3151E8002F22F0C00241E80023002B42
:104E8000F5D1202180F83D10704708B590F83E100C
:104E9000222901D0022008BD81684FF48053994235
:104EA00001D1026922B1826A99421BD049B10AE05C
:104EB0000268816A5268C2F308020A80816A891C0A
:104EC00008E0016971B10168496801F07F01117062
:104ED000816A491C8162C18D491E0904090CC18582
:104EE00003D019E001684968F1E70168CA6822F057
:104EF0002002CA600168CA6822F48072CA60016830
:104F00004A6922F001024A61202180F83E10016BBB
:104F1000012903D0FEF747FE002008BD00210163F0
:104F200001680C3151E8002F22F0100241E8002303
:104F3000002BF5D101680A68D20602D50A684968D3
:104F40000091818DFEF7B1FBE6E7000070B50446E5
:104F500000680169E26821F4405111430161A168D0
:104F60002069E26901436069104301432068C26817
:104F700049F20C639A430A43C26020684169A269FE
:104F800021F440711143416131492068884202D0C7
:104F90003049884202D1FDF723FB01E0FDF710FB09
:104FA000E2690023192164253226B2F5004F6268B8
:104FB00028D0A0FB0101930F9200FBF761F9014695
:104FC000B0FBF5F06FF01802504301EB800006EBE8
:104FD0000010B0FBF5F000F0F002B1FBF5F002EBD1
:104FE0000012B1FBF5F06FF01803584301EB80009D
:104FF00006EB0010B0FBF5F000F00F002168104444
:10500000886070BDA0FB010192185B41FBF738F985
:105010000146B0FBF5F00201B1FBF5F06FF01803AB
:10502000584301EB800006EBC000B0FBF5F000F048
:10503000F80002EB4002B1FBF5F0584301EB8000B1
:1050400006EBC000B0FBF5F000F00700D6E700006B
:10505000001001400014014037B582B01346039A96
:1050600082628385002504460564222084F83E0080
:10507000A16B1C48C863A16B1B480864A16B1B484B
:10508000C864A06B05652168A06B091DFCF7C0FC16
:10509000206801684068009084F83C50206948B15D
:1050A00020680C3050E8001F41F4807140E8001285
:1050B000002AF5D12068143050E8001F41F00101AA
:1050C00040E80012002AF5D12068143050E8001F93
:1050D00041F0400140E80012002AF5D105B000205F
:1050E00030BD0000854D0008074E00083B4D00080C
:1050F0002DE9F0411E46174688460446069D26E0E7
:10510000681C24D025B1FCF73FFE801BA8421ED9A5
:1051100020680C3050E8001F21F4D07140E80012E4
:10512000002AF5D12068143050E8001F21F0010159
:1051300040E80012002AF5D1202084F83D0084F8D0
:105140003E00002084F83C000320BDE8F081206888
:10515000016838EA010004D00020B842D0D0002015
:10516000F3E70120F9E70000074810B50068006880
:10517000C043C00602D40448FEF706FCBDE8104058
:105180000148FEF7CDBA000038030020FEE700001A
:105190000FB4054B10B503A9044A029801F0EAFCCC
:1051A00010BC5DF814FB0000FDFF0008F4010020B6
:1051B0000FB41CB50246002007AC00290BD0491ED5
:1051C000CDE90021054B6A462146069801F0D2FC44
:1051D000009A002111701CBC5DF814FBA37200083A
:1051E0000FB4084B10B504A902AA039801F0C2FC41
:1051F000044602A9002002F05FF8204610BC5DF8CA
:1052000014FB0000B97200080907090E002804DB2E
:1052100000F1E02080F80014704700F00F0000F16A
:10522000E02080F8141D704702E008C8121F08C172
:10523000002AFAD170477047002001E001C1121F17
:10524000002AFBD1704770B5044600256FF02F0689
:1052500008E02068411C2160007805EB850106EB21
:10526000410145182068007800F0C6F80028F0D108
:10527000284670BD2DE9FF5F82B00021DDE90430D2
:10528000020DDDF840B0034318D044F61050A2F2EE
:10529000FF3242431514119801281FD0A5EB0B00D3
:1052A000401C5FEA000A4FF000064E4FDFF83891CD
:1052B000B046504615D5CAF1000413E011980124F8
:1052C0004AA3012801D16FEA0B010298119AC0E9A3
:1052D0000031C0E9024206B0BDE8F09FCBF100000A
:1052E000DFE704460021404A491842EB0450CDE96B
:1052F000001012E0E00707D032463B4640464946E0
:10530000FBF7F8F88046894632463B461046194678
:10531000FBF7F0F806460F466410002CEAD1DDE9F1
:105320000401DDE90023BAF1000F06DAFBF7E2F829
:1053300042464B46FBF7DEF805E0FBF717FA42461C
:105340004B46FBF713FA04460E460022284BFBF7A8
:1053500051F903D84FF0FF30014607E00022254BFA
:1053600020463146FBF71FF8FBF76FFA102409E0DF
:10537000002C0ADB0A220023FAF782FF039B30325B
:105380001A55641E50EA0102F2D1641C039AC4F15A
:1053900011031444119A012A03D0012208430DD1AC
:1053A0000AE0084304D000204FF0110B119072E77F
:1053B000A3EB0B056D1E0DE05B4504DD4FF0000215
:1053C00005F1010504E003DA4FF00002A5F1010543
:1053D000002AECD002981199C0E90231C0E90045D9
:1053E00079E70000000014400000F03F30000000AA
:1053F0000000F0430000E03F3038092801D80120C8
:10540000704700207047000010B54421074800F0A5
:105410007DFE00221E2106481DF078FF054CA0608D
:1054200002F0BEFA0020207010BD000040320020C3
:10543000557A0008140100202DE9F0470F468146F7
:1054400090461146384600F00CF940B10022414622
:10545000384600F0B2F828B10020BDE8F0874FF0E0
:10546000FF30FAE7002638460EF02EFB401E0FFAFA
:1054700080FA38460EF0CCFA401E02B2B8F802109C
:10548000B7F90200091A09B200290FDD3B8801268D
:1054900063F30F0460F31F44BB88084463F30F05F4
:1054A00060F31F45C9F80040C9F80450B8F9060078
:1054B0007988411A511A09B2002913DDB7F906207B
:1054C00090420FDA3A8862F30F04BA8860F31F44FF
:1054D00062F30F05084460F31F4509EBC600761C14
:1054E00004604560B8F90200B7F90210884200DC98
:1054F0000846B8F90610B7F90620914200DB1146BC
:10550000B8F80030B7F90020091A9B1A1BB209B28B
:10551000002B10DD00290EDD62F30F041A4462F344
:105520000F05421862F31F4509EBC60260F31F44E2
:1055300014605560761CB8F904203B88D71AAAEB92
:1055400007031BB2002B0EDD62F30F0460F31F4450
:105550001A4462F30F05084460F31F4509EBC600C7
:10556000761C04604560304677E770B5B1F90040BD
:10557000B2F900309C4200DD23460380B1F90240BD
:10558000B2F90250AC4200DC2C464480B1F9045020
:10559000B2F90460B54200DB35468580B1F90610EA
:1055A000B2F90620914200DB1146C1800120AB42D6
:1055B00001DC8C4200DD002070BDF8B50D460446CC
:1055C000B0F90000B1F900101646884247DBB4F983
:1055D0000210B5F90220914241DBB4F90410B5F98B
:1055E000042091423BDCB4F90610B5F90620914243
:1055F00035DC96B3ADF800006088ADF802003246A5
:105600006946284600F099F8002827D0A088ADF810
:1056100000006088ADF8020032466946284600F076
:105620008CF800281AD02088ADF80000E088ADF88A
:10563000020032466946284600F07FF800280DD067
:10564000A088ADF80000E088ADF802003246694657
:10565000284600F072F8002800D00120F8BD002094
:10566000F8BDB0F90020B1F904309A4213DCB0F96A
:105670000420B1F900309A420DDBB0F90220B1F9F3
:1056800006309A4207DCB0F90600B1F902108842F0
:1056900001DB0120704700207047F8B50D46044635
:1056A000B0F90400B1F900101646884243DBB4F9A2
:1056B0000600B5F9021088423DDBB4F90000B5F9E7
:1056C0000410884237DCB4F90210B5F90620914283
:1056D00031DC76B3ADF800006088ADF802003246E8
:1056E0006946284600F029F818BBA088ADF80000EC
:1056F0006088ADF8020032466946284600F01DF881
:10570000B8B92088ADF80000E088ADF80200324654
:105710006946284600F011F858B9A088ADF8000095
:10572000E088ADF8020032466946284600F005F8E8
:1057300008B10020F8BD0120F8BD2DE9FC41054667
:105740000F46B1F90000B5F90010144688423BDB62
:10575000B5F90410884237DCB7F90200B5F9021038
:10576000884231DBB5F9061088422DDC002C76DD4D
:1057700028460EF0A9F900EBD070461028460EF02E
:1057800047F900EBD0704010864200DA3046844280
:1057900000DD04462888ADF8000028880022204457
:1057A000ADF804006888ADF80200688839462044E6
:1057B000ADF806006846FFF7C0FF40B1BDF8040031
:1057C0002044ADF804003FE00020BDE8FC81E888FB
:1057D0000022001BADF80200E888ADF8060039464B
:1057E0006846FFF7AAFF28B1BDF804002044ADF8D1
:1057F000040011E0A8880022001BADF80000A88872
:10580000ADF8040039466846FFF797FF50B1BDF880
:105810000000001BADF80000BDF80200001BADF851
:10582000020016E06888ADF8020068880022204473
:10583000ADF8060039466846FFF77FFF70B1BDF846
:105840000000001BADF80000BDF806002044ADF8D4
:105850000600394668461BF045F8B6E7FFE7012029
:10586000B3E710B5B1F90030B2F90040A34200DB54
:1058700023460380B1F90230B2F90240A34200DBB3
:1058800023464380B1F90430B2F90440A34200DC5E
:1058900023468380B1F90610B2F90620914200DC5C
:1058A0001146C18010BD0000F8B504461DF0CAFCC9
:1058B0000026374D0746009634B1E0686860204600
:1058C0001DF0F2FD686802E010F002F968600069FE
:1058D0001AF006FF6868406908B11AF001FF6868AD
:1058E000C0691AF0FDFE6868006A1AF0F9FE68687F
:1058F000016991B11BF0A4F820F036FC20F058F9B2
:105900006868B0F85011D9B30068017CC9071DD090
:10591000C0684068D0B1002413E0A0F85061F8BD21
:10592000011991F8301151B900F5AC7000F045FC47
:10593000696801EBC4010A6B0260496B4160641C39
:10594000A4B26868B0F85011A142E9D868684FF471
:105950008071303016F00EFB6868202100F59870D9
:1059600016F008FB6868A0F8506138461DF064FC2A
:10597000009068680068436A13B12A6800999847E4
:1059800016F06EF900F030F8BDE8F84000F002B80B
:105990003400001070B5094E0024C4EBC40556F85D
:1059A000250008B116F0D0F906EB85001C2116F091
:1059B000E1FA641CE4B2042CEFD370BD1C33002068
:1059C000084949680AE04A68824202D00A6882426D
:1059D00003D10A7E42F001020A7649690029F2D118
:1059E000704700004C00002070470000042101486F
:1059F00000F08CBB343200202021014800F086BB2F
:105A00004C3200202DE9FF410446DDE90A571E0013
:105A10004FF0000002D1B5F5807F2BD003900190AC
:105A20000290ADF80C100090ADF80410ADF80A200B
:105A3000ADF80E203B462A46314668461AF0B4FEC1
:105A40003B462A46314601A81AF0AEFE3B462A469E
:105A5000314602A81AF0A8FE3B462A46314603A862
:105A60001AF0A2FEBDF90030BDF90420934209DA14
:105A70001D4608E02080491E6080A180521EE28001
:105A8000BDE8FF811546BDF90800BDF90C1088423C
:105A900001DA064600E00E46B54205DA934201DA25
:105AA000184604E0104602E0884200DB0846801EEB
:105AB0002080BDF90030BDF90400834201DD1D46A0
:105AC00000E00546BDF90820BDF90C108A4201DD51
:105AD000164600E00E46B54203DD834206DD184659
