:020000040800F2
:100000001827001071020008AF1D00081B1C000813
:10001000AD1D0008FF0700083F2100080000000098
:10002000000000000000000000000000551F000854
:10003000B108000800000000B11D0008571F0008AB
:100040008B0200088B0200088B0200088B0200085C
:100050008B0200088B0200088B0200088B0200084C
:100060008B0200088B0200088B0200088B0200083C
:100070008B0200088B0200088B0200088B0200082C
:100080008B0200088B0200088B0200088B0200081C
:100090008B0200088B0200088B0200088B0200080C
:1000A0008B0200088B0200088B0200088B020008FC
:1000B0008B0200088B020008012000088B02000858
:1000C0008B0200088B0200088B0200088B020008DC
:1000D0008B0200088B0200088B0200088B020008CC
:1000E0008B0200088B0200088B0200088B020008BC
:1000F0008B0200088B0200088B0200088B020008AC
:100100008B0200088B0200088B0200088B0200089B
:100110008B0200088B0200088B0200088B0200088B
:100120008B0200088B0200088B02000801080008FF
:100130008B0200088B0200088B0200088B0200086B
:100140008B0200088B0200088B0200088B0200085B
:100150008B0200088B0200088B0200088B0200084B
:100160008B0200088B0200088B0200088B0200083B
:100170008B0200088B0200088B02000800000000C0
:100180008B0200088B02000800F002F800F060F813
:100190000AA090E8000C82448344AAF10107DA45E2
:1001A00001D100F055F8AFF2090EBAE80F0013F0D4
:1001B000010F18BFFB1A43F001031847ACAB020054
:1001C000DCAB02000A444FF0000C10F8013B13F0C6
:1001D000070408BF10F8014B1D1108BF10F8015BA0
:1001E000641E05D010F8016B641E01F8016BF9D193
:1001F00013F0080F1EBF10F8014BAD1C0C1B09D1EA
:100200006D1E58BF01F801CBFAD505E014F8016B5B
:1002100001F8016B6D1EF9D59142D6D370470000ED
:100220000023002400250026103A28BF78C1FBD8FF
:10023000520728BF30C148BF0B6070471FB526F07A
:1002400034FA9DE8030000F003FA1FBD10B510BD9D
:1002500000F05FFA1146FFF7F1FF21F067FB00F0B5
:100260007DFA03B4FFF7F2FF03BC00F0CFF9000002
:100270000948804709480047FEE7FEE7FEE7FEE73A
:10028000FEE7FEE7FEE7FEE7FEE7FEE70448054976
:10029000054A064B70470000F11F0008890100085D
:1002A0001807001018270010181700101817001052
:1002B00070B5064600F0B0F9056806F10B0020F0B5
:1002C0000704B4429CBF002070BD2B466A68BAB1D7
:1002D0001068A04210D304F1080188423CBF506866
:1002E000586007D35168101941601168091B0160FB
:1002F00058601460101D70BD13465268002AE7D183
:100300002146284600F090F90028DED170BD70B576
:100310000446051F00F080F90068002C14BF4468F3
:1003200070BD002C18BFAC423CBF20466468F8D3B7
:1003300001680A18AA4218BF456003D12A68054619
:100340001144016028684119A1421CBF6C6070BD56
:100350006168696021680844286070BD53EA020C36
:1003600000F069802DE9F04B4FF00006002B1FBF15
:10037000B3FA83F503FA05F424FA05F65E4012BFDA
:100380001643B2FA82F502FA05F4C5F120051EBF44
:1003900022FA05FC44EA0C04203556EA044C4FEAE4
:1003A000144418BF641C4FF000084FF0000990423D
:1003B00071EB030C39D3002919BFB1FA81F701FAA7
:1003C00007F6B0FA80F700FA07F6C7F120071EBF5C
:1003D00020FA07FC46EA0C062037B6FBF4FCA7EB34
:1003E0000507103F07F01F0BCBF120060CFA0BFBA3
:1003F0002CFA06F644BFB3460026202FA4BF5E4663
:100400004FF0000B5BEA060C08BF4FF0010B19EB35
:100410000B09ABFB027C48EB0608C01B06FB02CCB9
:100420000BFB03CC71EB0C01C1E70B4602464146C6
:100430004846BDE8F08B13B54FF000004FF00001C7
:10044000AFF30080BDE81C40704740EA010302465C
:1004500030B59B0710D14FF0013400E008C208C945
:100460001D1B9D4315EAC41FF8D013F0FF0102F8CD
:10047000011B0DD01B0AF8E711F8013B002B02F815
:10048000013B05D011F8013B002B02F8013BF3D1F1
:1004900030BD10B5431C02E010F8011B71B181079B
:1004A000FAD14FF0013202C88C1A8C4314EAC211FF
:1004B000F9D0C01A0A0603D0C01E10BDC01A10BD64
:1004C0000A0401D0801E10BD0902FCD0401E10BDE0
:1004D00010B5203AC0F00B80B1E81850203AA0E8DF
:1004E0001850B1E81850A0E81850BFF4F5AF5FEA13
:1004F000027C24BFB1E81850A0E8185044BF18C9C6
:1005000018C0BDE810405FEA827C24BF51F8043B6C
:1005100040F8043B08BF7047D20728BF31F8023BC0
:1005200048BF11F8012B28BF20F8023B48BF00F854
:10053000012B70474FF0000200B5134694469646D3
:10054000203922BFA0E80C50A0E80C50B1F12001E6
:10055000BFF4F7AF090728BFA0E80C5048BF0CC094
:100560005DF804EB890028BF40F8042B08BF7047F2
:1005700048BF20F8022B11F0804F18BF00F8012B64
:10058000704700004FF0013C50F8042B51F8043B39
:100590009A4221D1A2EB0C03934313EACC1317D157
:1005A00050F8042B51F8043B9A4215D1A2EB0C03EE
:1005B000934313EACC130BD150F8042B51F8043BAE
:1005C0009A4209D1A2EB0C03934313EACC13DBD07C
:1005D0004FF00000704700BFD01A01BAB1FA81F1A4
:1005E00001F0180122FA01F0CB40C1F12001DBB289
:1005F000C0B2C01A2CFA01F3D11A914311EAC31107
:10060000E6D17047704770477047000001491820D5
:10061000ABBEFEE72600020000487047BC06001093
:10062000704770477047704738B504460A46002047
:100630006946AFF30080002808BF38BD0246009924
:10064000204600F040F8012038BD012000F05AB8E3
:10065000F8B5AFF30080054600200C46102000BF1F
:100660000646A819A0420DD9324669460020AFF3CC
:100670000080070008BF00F045F80098A04218BFAE
:100680000546C419FFF7C8FF05600746F01D20F0B6
:1006900007004619284600F00AF8B44208BFF8BD22
:1006A000A21B31463868BDE8F84000F00CB80021C4
:1006B0000160C0E901107047102070470048704782
:1006C000B40600107047034640688C46002818BFE7
:1006D00088423CBF03464068F8D3186818448842F3
:1006E00007D00CF1030020F00700001D411A521A38
:1006F0000146081D0A60FFF70ABE002801D0FFF777
:1007000085BF704710B500F04BF8BDE81040FFF70B
:10071000F4BF7546FFF7D2FFAE4605006946534663
:1007200020F00700854618B020B5FFF7AFFDBDE803
:1007300020404FF000064FF000074FF000084FF048
:10074000000B21F00701AC46ACE8C009ACE8C009D9
:10075000ACE8C009ACE8C0098D46704710B5044646
:10076000AFF300802046BDE81040FFF77ABD70B5BA
:1007700005460C460A2000E06D1C00F039F835B142
:1007800028780028F8D102E0641C00F031F814B198
:1007900020780028F8D1BDE870400A2000F028B881
:1007A00010B5012805D0002103A0FFF7E0FF0120CC
:1007B00010BD09A1F8E7000053494752544D454D7B
:1007C0003A204F7574206F662068656170206D65F2
:1007D0006D6F7279000000003A2048656170206DED
:1007E000656D6F727920636F7272757074656400E5
:1007F00008B569468DF800000320ABBE08BDFEE7D2
:10080000014800F059B800008C020010016818235C
:10081000CAB2103AB2FBF3F2054B6FF30901032A97
:100820009B5CC36500D9091D8165084670470000BF
:10083000B466020810B5014600208B698A6A4FF041
:10084000C07453B1B3F5005F15D072B1012A0CD05A
:10085000022A0AD0032A09D104E01AB1012A06D0DB
:10086000022A03D1C96AC90100D5012010BDC96A95
:10087000A142FAD010BD002AF7D0012AF2D0022AF4
:10088000F3D0032AF3D010BD30B50468256825F4F1
:1008900080252560046863608368402B036803D06B
:1008A00099600068C26030BD9A600068C16030BD68
:1008B000704772B6FEE700002DE9F84304464FF09A
:1008C0000009CDF8009063484FF41651A56D0068FB
:1008D000B0FBF1F72E6894F85C10082000FA01F1E3
:1008E00031420FD021680A6852070BD50A6822F0FE
:1008F00004020A6094F85C108840A860606D40F0C3
:100900000100606594F85C104FF0010808FA01F0EE
:10091000304208D021684969090604D5A860606D95
:1009200040F00200606594F85C100420884030427A
:1009300008D021680968890704D5A860606D40F077
:100940000400606594F85C1010208840304218D094
:1009500021680968090714D5A8602068016849035F
:1009600004D50068000308D5A16C07E00168C9053B
:1009700003D4016821F008010160216C09B120460F
:10098000884794F85C1020208840304231D021689C
:100990000968C9062DD5A86094F835000528206897
:1009A000016806D0490347D5006800031DD4616C77
:1009B0001CE021F0160101602068416921F08001EE
:1009C0004161206C08B9A06C20B12068016821F059
:1009D0000801016094F85C103F208840A86084F80A
:1009E000358084F83490216D1FE0E16B09B1204619
:1009F0008847606D00282BD0606DC00714D005209B
:100A000084F835002068016821F001010160009838
:100A1000401C0090B84203D820680068C007F6D197
:100A200084F8358084F83490E16C002910D001B04E
:100A30002046BDE8F04308470168C905D5D40168E0
:100A400021F01001016084F8358084F83490CCE7FF
:100A5000BDE8F883100000102DE9F041044600F0D5
:100A6000B9F906465CB1022084F83500002584F807
:100A700034502068016821F0010101600DE001207F
:100A8000BDE8F08100F0A6F9801B052805D92020DB
:100A90006065032084F83500F2E720680068C0072D
:100AA000F0D12268116820480140D4E901031843BD
:100AB000D4E903363343184363691843A3691843E1
:100AC000E3691843236A18430843616A042903D180
:100AD000D4E90B1319430843106020684069666A23
:100AE00020F0070130460E43012704280CD1A06AEC
:100AF0000643E06A40B12046FFF79CFE20B140204B
:100B0000606584F83570BAE7206846612046FFF7D3
:100B10007DFE94F85C203F2191408160656584F8FA
:100B200035700020ACE700003F8010F02DE9F04167
:100B30000446866D90F83400002501280DD0012070
:100B400084F8340094F835700020012F07D084F821
:100B5000340002252846BDE8F0810220FBE7022789
:100B600084F8357060652046FFF78EFE94F85C10BF
:100B70003F208840B0602068016841F016010160A4
:100B8000206C20B12068016841F0080101602068F4
:100B9000016841F001010160DCE7000070B5044626
:100BA00000F018F90546601C02D00448007804449F
:100BB00000F010F9401BA042FAD370BD04000010F1
:100BC0002DE9F84FDFF8BCA10022012503264FF0E4
:100BD0000F090AF1040BAAF1040E00BF0B6805FA15
:100BE00002F42340A34270D10F7907F00307012FCD
:100BF00001D0022F16D187684FEA420806FA08FC96
:100C000027EA0C07D1F80CC00CFA08FC4CEA070CD8
:100C1000C0F808C04768A7430C79C4F30014944097
:100C20003C4344600C79E443A4070AD0C4684FEA0B
:100C3000420C06FA0CF7BC438F6807FA0CF72743FF
:100C4000C7600C7904F00304022C12D1D40800EB25
:100C5000840CDCF820405707FF0E09FA07F824EA55
:100C60000804D1F8108008FA07F848EA0408CCF81C
:100C7000208004684FEA420C06FA0CF7BC430F7957
:100C800007F0030707FA0CF7274307604C6814F4D2
:100C9000403F70D03C4C276847F480472760246869
:100CA00022F0030704F480440094384C07EB040C52
:100CB000DCF8084897074FEA177809FA08F7BC43A9
:100CC000334FB84202D1002724E054E0314FB842FC
:100CD00001D101271EE0304FB84201D1022719E0AF
:100CE0002E4FB84201D1032714E02D4FB84201D155
:100CF00004270FE02B4FB84201D105270AE02A4F05
:100D0000B84201D1062705E0284FB84201D1072794
:100D100000E0082707FA08F72743CCF80878DAF844
:100D200000405746D1F804C09C435FEACC2C00D564
:100D30001C433C60DBF800405F46D1F804C09C4394
:100D40005FEA8C2C00D51C433C60DEF800407746FF
:100D5000D1F804C09C435FEA8C3C00D51C433C6046
:100D6000084F083F3C68D1F804C09C435FEACC3C84
:100D700000D51C433C60521C102AFFF42FAFBDE885
:100D8000F88F0000083C0140443802400030014028
:100D9000000002400004024000080240000C024033
:100DA000001002400014024000180240001C0240E3
:100DB0000069084000D001207047426921EA02031F
:100DC0000A4043EA0241816170470AB1816170477C
:100DD0000904FBE701488068704700000400001028
:100DE0000248816802781144816070470400001055
:100DF0000B4810B5016841F400710160016841F4CD
:100E000080610160016841F480710160032000F09D
:100E10006FF80F2000F006F800F024F8002010BD55
:100E2000003C024070B50D4D04464FF47A712878AD
:100E3000B1FBF0F00A490968B1FBF0F000F0C0FC2A
:100E400048B9102C07D200222146501E00F030F87D
:100E500000206C6070BD012070BD00000400001017
:100E6000100000100A4808B5016841F48041016093
:100E7000006800F4804000900548001F016841F0C0
:100E800080510160006800F08050009008BD0000B3
:100E900044380240002809DB00F01F020121914084
:100EA0004009800000F1E020C0F800117047000008
:100EB000F0B40E4B1B680C46C3F30223C3F10705C5
:100EC000042D00D90425191D072901D2002300E0B3
:100ED000DB1E012606FA05F1491E214099409E407D
:100EE000761E16403143F0BC01F02AB90CED00E04B
:100EF000064900F0070208684FF6FF03184040EA71
:100F00000220034A10430860704700000CED00E027
:100F10000000FA052DE9F0470E46050065D0DFF820
:100F20001481D8F80000F7B200F00700B04207D2F1
:100F300088F80070D8F8000000F00700B04254D1E3
:100F400028683D4C810712D5400703D5206840F43E
:100F5000E05020602878000703D5206840F4604006
:100F600020602068A96820F0F000084320602878FD
:100F7000C0072DD0304968680839012812D00228EE
:100F800013D0032811D00968890700292DDA2168B8
:100F900021F0030101432160FFF71CFF814641F26C
:100FA000883A0EE009688903EFE709688901ECE7F0
:100FB000FFF710FFA0EB0901514502D90320BDE85E
:100FC000F0872068696800F00C00B0EB810FEFD16A
:100FD000D8F80010404601F00701B14207D9077068
:100FE000006800F00700B04201D00120E7E7287850
:100FF000400705D52068E96820F4E05008432060E8
:101000002878000706D52068296920F4604040EA66
:10101000C100206000F018F82168084AC1F30311EC
:10102000515CC8400649086006480068FFF7FAFEB0
:101030000020C4E7003C024008380240BC660208B9
:101040001000001008000010154810B5006810F0DE
:101050000C02144813D04110042A0FD0082A0ED1D4
:101060000F4C241F2268236802F03F025B0207D561
:101070002068C0F38810A0FB010106E0084610BDFF
:101080002168C1F38811A1FB00010023FFF766F975
:101090002168C1F30141491C4900B0FBF1F010BDCA
:1010A000083802400024F4002DE9F84F04006ED007
:1010B0002078DFF84C93C007A9F104054AD009F164
:1010C00004000168C1F38101012908D00068C0F360
:1010D000810002280AD1D9F80000400206D528680C
:1010E000800337D560680028E1D033E06068B0F550
:1010F000803F10D0B0F5A02F286810D020F48030A9
:101100002860286820F4802028606068A8B1FFF774
:1011100061FE06460DE0286840F48030F4E740F4B4
:1011200080202860F7E700BFFFF754FE801B64288B
:1011300073D828688003F7D50CE0FFF74BFE06460E
:1011400005E000BFFFF746FE801B6428F0D8286842
:101150008003F7D42078DFF8AC8280074FF0000AD4
:101160003ED5A748001D016811F00C0F08D000689B
:10117000C0F3810002280BD1D9F80000400207D447
:101180002868800716D5E068012800D112E033E115
:10119000E068B8B10120C8F80000FFF71BFE064662
:1011A00005E000BFFFF716FE801B0228C0D82868A4
:1011B0008007F7D52868216920F0F80040EAC100CF
:1011C00028600DE0C8F800A0FFF704FE064604E022
:1011D000FFF700FE801B02281FD828688007F7D47D
:1011E0002078000722D5864F87486169703771B132
:1011F00001210160FFF7EEFD064604E0FFF7EAFD7E
:10120000801B022809D838688007F7D50EE0C0F89F
:1012100000A0FFF7DFFD064605E082E0FFF7DAFDFC
:10122000801B02287DD838688007F7D420784007D3
:1012300068D5DFF8CCB100270BF13C0BDBF80000E0
:10124000C0000BD4DBF8001041F08051CBF8001047
:10125000DBF80000012700F0805000906B4E3068F2
:10126000C00510D4306840F480703060FFF7B2FDE4
:10127000009005E0FFF7AEFD0099401A022850D813
:101280003068C005F6D55E4EA0686C3601280FD0D8
:101290000528306810D020F001003060306820F060
:1012A00004003060A068B8B1FFF794FD00900FE033
:1012B000306840F00100F4E740F004003060F7E7E8
:1012C000FFF788FD0099411A41F28830814266D8C3
:1012D00030688007F4D50EE0FFF77CFD009007E052
:1012E000FFF778FD0099411A41F28830814256D8C3
:1012F00030688007F4D42FB1DBF8001021F0805162
:10130000CBF80010A069C8B33D49091D0968C1F3B5
:10131000810102294AD00228504607D0C8F860004F
:1013200000E03CE0FFF756FD04463BE04746C8F8C6
:101330006000FFF74FFD064605E000BFFFF74AFDDE
:10134000801B02282BD828688001F7D4D4E9070134
:101350000843A16A2E4A490802EB0141626A41EA48
:101360008211084394F82C1040EA0161C9F800107A
:1013700001203866FFF72EFD044606E03EE000BF80
:10138000FFF728FD001B022809D828688001F7D53F
:1013900034E000BFFFF71EFD001B022802D9032026
:1013A000BDE8F88F28688001F4D427E00128F7D041
:1013B000D9F80000E26900F4800191421CD1226A50
:1013C00000F03F01914217D147F6C071626A0140B7
:1013D000B1EB821F10D1A26A4FF0FF3300F440310D
:1013E00003EB5202B1EB024F06D194F82C1000F03F
:1013F0007060B0EB016F01D00120D1E70020CFE792
:101400000438024000004742800E4742007000400E
:101410000000FFFF704790F85100704770B504005E
:1014200009D0606A002540B125616561A56294F824
:10143000510040B10CE0012070BD6068B0F5827FC2
:10144000F4D0E561F2E784F85050204600F044F80B
:10145000022084F851002068016821F040010160F9
:10146000A088218900F4827001F404410843A18915
:1014700001F400610843217C01F002010843217D51
:1014800001F001010843218B01F400710843217F21
:1014900001F03801084394F8201001F0800108435E
:1014A000218D01F40051084321680860A0690421DE
:1014B00001EA104094F8241001F01001084321685B
:1014C00048602068C16921F40061C161656501203F
:1014D00084F85100002070BD70B586B00646142116
:1014E0006846FFF727F820493068884239D11F48FD
:1014F0000025016841F480510160006800F48050CB
:1015000005901A481438016841F001010160006833
:10151000694600F001000590A02000900220CDE96E
:10152000010503200390052004901148FFF748FBB4
:10153000114C104820604FF0C06060604020C4E94A
:1015400002050001C4E90405C001A561C4E9075012
:1015500020466562FFF780FA08B1FFF7AAF9B46484
:10156000A66306B070BD0000003001404438024060
:1015700000000240586402408C0200102DE9F84F30
:10158000044690F8500000271D461646894601285B
:101590000DD04FF0010B84F850B0FFF71BFC8046D4
:1015A00094F85100BA46012804D0022793E00220A3
:1015B000BDE8F88FB9F1000F73D0002E71D0032071
:1015C00084F85100C4F854A0C4F83090A686E6868A
:1015D000C4F838A0A4F83CA0A4F83EA0C4F844A0E5
:1015E000C4F840A0A068B0F5004F09D12068016898
:1015F00021F0400101602068016841F480410160F0
:1016000020680168490603D4016841F04001016087
:10161000E068B0F5006F606803D030B3012E24D0CD
:1016200041E008B1012E1CD1206B21680088C86000
:1016300006E020688168890709D5216B0988C160A7
:10164000206B801C2063E08E401EE08609E0FFF7DF
:10165000C1FBA0EB0800A84202D3681C01D031E016
:101660007DB3E08E0028E4D120E0206B2168007873
:10167000087306E020688168890709D5216B09781D
:101680000173206B401C2063E08E401EE0860AE060
:10169000FFF7A0FBA0EB0800A84203D3681C02D010
:1016A00010E017E06DB1E08E0028E3D142462946F4
:1016B000204600F0C7FB08B120206065A06818B183
:1016C00006E0FFE7032706E02068C1688068009015
:1016D000606D00B1012784F851B084F850A03846FD
:1016E00066E700002DE9F041044690F8500000261E
:1016F000012809D0012784F8507094F85100002582
:10170000012804D002264EE00220BDE8F08189B114
:1017100082B1032084F8510065652163A286E286C8
:10172000A56365642564A587E587A068B0F5004FCB
:1017300002D00BE0012636E02068016821F040016C
:1017400001602068016841F480410160A16C184883
:101750000864A16C1748C863A16C1748C864A06CE2
:101760000565E38E2268216B0C32A06CFFF7DEF971
:1017700038B1606D40F010006065012684F851704A
:1017800011E020680168490603D4016841F0400176
:1017900001602068416841F0200141602068416893
:1017A00041F00201416084F850503046ADE700003E
:1017B000D51D0008DF1D0008B31D000870477047E5
:1017C00010B5401EB0F1807F01D3012010BD4FF055
:1017D000E02460610F21601700F0B2FC0020A061DE
:1017E00007202061002010BD7047704770B590F849
:1017F0003C20012A32D0012480F83C40022280F8AB
:101800003D2003685A689D6822F070060A683243DA
:101810005A60134B02689A4214D0B2F1804F11D033
:10182000104B9A420ED0104B9A420BD00F4B9A425B
:1018300008D00F4B9A4205D00E4B9A4202D00E4B65
:101840009A4204D1496825F080031943916080F8D9
:101850003D40002180F83C10084670BD022070BD5C
:10186000000001400004004000080040000C00405F
:1018700000040140004001400018004010B5040081
:1018800003D094F83D0010B107E0012010BD002006
:1018900084F83C00204600F01FF8022084F83D0048
:1018A000211D206800F0B2FB012084F8460084F876
:1018B0003E0084F83F0084F8400084F8410084F83A
:1018C000420084F8430084F8440084F8450084F81A
:1018D0003D00002010BD000008B500680B4988429B
:1018E00012D10B48016841F0040101600068002238
:1018F00000F00400009011461E20FFF7D9FABDE861
:1019000008401E20FFF7C6BA08BD000000080040CE
:101910004038024090F83D10012901D00120704765
:10192000022180F83D100168CA6842F00102CA60D5
:1019300000681149884214D0B0F1804F11D00F498E
:1019400088420ED00E4988420BD00E49884208D0FA
:101950000D49884205D00D49884202D00C49884281
:1019600004D1816801F00701062903D0016841F024
:1019700001010160002070470000014000040040A8
:1019800000080040000C00400004014000400140FD
:101990000018004070B5044690F83C00002501286E
:1019A00017D0012684F83C60022084F83D002068AE
:1019B000826822F0770222F47F4282600868502811
:1019C00038D00DDC20284FD005DC90B3102811D181
:1019D0004AE0022070BD302846D040280AD13BE0C2
:1019E00060282FD070280DD0B0F5805F03D0B0F5FF
:1019F000005F12D0012584F83D60002084F83C008F
:101A0000284670BDCB68D1E90121206800F062FB57
:101A10002068816841F0770109E0CB68D1E90121B4
:101A2000206800F057FB2068816841F480418160A4
:101A3000E1E719E0CA684968206800F05DFB5021C1
:101A4000206806E0CA684968206800F066FB6021EB
:101A5000206800F049FBCEE7CA684968206800F0BA
:101A60004BFB40212068F4E7226801461046F0E76E
:101A7000704770B50446006801694FF00005C9431E
:101A8000890715D4C168C943890711D4E91E0161CA
:101A900001202077206880698007204602D0FFF768
:101AA000E7FF04E000F098F8204600F096F825776C
:101AB00020680169C943490717D4C168C943490768
:101AC00013D46FF00401016102202077206880693F
:101AD00010F4407F204602D0FFF7CAFF04E000F078
:101AE0007BF8204600F079F8257720680169C94322
:101AF000090716D4C168C943090712D46FF0080159
:101B00000161042020772068C0698007204602D048
:101B1000FFF7AEFF04E000F05FF8204600F05DF84C
:101B2000257720680169C943C90617D4C168C9432C
:101B3000C90613D46FF010010161082020772068D6
:101B4000C06910F4407F204602D0FFF791FF04E007
:101B500000F042F8204600F040F82577206801693F
:101B6000C943C90708D1C168C943C90704D1891E3F
:101B70000161204600F032F820680169C943090676
:101B800009D4C168C943090605D46FF08001016119
:101B90002046FFF729FE20680169C943490609D498
:101BA000C168C943490605D46FF040010161204670
:101BB00000F032F820680169C94389060BD4C16876
:101BC000C943890607D46FF0200101612046BDE8B2
:101BD0007040FFF70ABE70BD7047704710B50068CF
:101BE0000A49884210D101201FF07CF90849086891
:101BF000401C0860642807D100200860BDE8104040
:101C000004210448FFF7D9B810BD000000080040C7
:101C100000000010000402407047FEE7094808B5C4
:101C2000016841F4800101600068002200F4800036
:101C3000009011463B20FFF73BF9BDE808403B20F0
:101C4000FFF728B930380240F0B587B01421684654
:101C5000FEF770FC25480024016841F08001016016
:101C6000016801F080010591016841F00101016006
:101C7000016801F001010591016841F00201016074
:101C8000016801F002010591016841F01001016055
:101C90000068174E00F01000059001220F21304619
:101CA000FFF793F8134F012204213846FFF78DF810
:101CB0000F2000900125CDE9015469463046039478
:101CC000FEF77EFF04200090CDE9015469463846B6
:101CD0000394FEF775FF4FF460608DE831006946AC
:101CE0000548FEF76DFF07B0F0BD00003038024038
:101CF000000002400004024000100240104810B5ED
:101D00000E4901604FF48271416000218160C16021
:101D10004FF400720161C0E905121022C0E90721E9
:101D2000416281620A21C162FFF778FB002803D07B
:101D3000BDE81040FEF7BDBD10BD00000030014001
:101D40003402001010B586B00024174800940194A6
:101D5000029403940494134905940160A721C0E9F7
:101D600001144FF47A71C0E903148461FFF786FD12
:101D700008B1FEF79EFD4FF48050009069460A4876
:101D8000FFF708FE08B1FEF794FD049404A9064885
:101D90000594FFF72BFD002801D0FEF78AFD06B061
:101DA00010BD000000080040EC020010FEE7FEE756
:101DB000704710B5806B01684A6822F003024A60E0
:101DC000416D41F010014165012180F85110FFF78C
:101DD00021FB10BD10B5806BFFF7F1FC10BD38B5CD
:101DE0000546846BFEF7F6FF024628680068C005CA
:101DF00023D42068416821F02001416020684168B7
:101E000021F0020141606421204600F01BF818B166
:101E1000606D40F020006065A068002118B920685E
:101E2000C26880680090E186012084F85100606DEE
:101E300018B12046FFF7EEFA38BD2046FFF7BEFC8A
:101E400038BD000038B504461248134B0068B0FB9B
:101E5000F3F04FF47A73584300906068B0F5827FD6
:101E60000DD10B46009200228021204600F016F88A
:101E700070B1606D40F020006065032038BD0098AF
:101E800030B1401E009020688068C0430006F6D53F
:101E9000002038BD1000001000366E012DE9F84317
:101EA0001E46914688460446089DFEF793FF401B58
:101EB000351AFEF78FFF074625480068C0F3CB3080
:101EC000684338E0701C37D0FEF784FFC01BA8427F
:101ED00003D215B1009860B32CE02068416821F06E
:101EE000E00141606068B0F5827F0BD1A068B0F579
:101EF000004F02D0B0F5806F04D12068016821F056
:101F000040010160A06AB0F5005F09D12068016856
:101F100021F4005101602068016841F40051016022
:101F2000012084F85100002084F850000320BDE80F
:101F3000F8830025401E00902068816838EA01007F
:101F400004D000214945BDD10020F0E70121F9E787
:101F5000100000107047FEF743BF000030B593B08B
:101F600030216846FEF7E6FA14210CA8FEF7E2FAE3
:101F70001D480025016841F080510160006800F0B3
:101F8000805011901948016841F480410160006857
:101F9000022400F480401190012000900004019080
:101FA0008001CDE9064008AA0420A82182E8130098
:101FB0000B906846FFF778F808B172B6FEE70CA9F7
:101FC0000F2081E831004FF4A0500F904FF4805063
:101FD000109005210CA8FEF79DFF002801D072B6D5
:101FE000FEE713B030BD00004038024000700040F2
:101FF0000248016841F470010160704788ED00E01B
:102000000148FFF736BD0000EC020010F0B5026891
:10201000254C264D264E274F274B4FF0804CA04293
:1020200009D0604507D0A84205D0B04203D0B842DD
:1020300001D0984204D122F0700E4A6842EA0E02A2
:10204000A0421BD0604519D0A84217D0B04215D08D
:10205000B84213D0984211D0184DA8420ED0184D56
:10206000A8420BD0174DA84208D0174DA84205D062
:10207000164DA84202D0164DA84203D122F4407555
:10208000CA682A434D6922F080022A4302608A68A6
:10209000C2620A688262A04201D0984201D10969F5
:1020A000016301214161F0BD0000014000040040D6
:1020B00000080040000C00400004014000400140C6
:1020C000004401400048014000180040001C00404E
:1020D0000020004010B5846842EA032224F47F44C3
:1020E0000A432243826010BD826822F070020A43D4
:1020F00042F007018160704710B5036A046A24F05A
:1021000001040462846924F0F00444EA021423F018
:102110000A020A438461026210BD10B5036A23F00B
:10212000100303628369046A23F4704343EA0232B2
:1021300024F0A00343EA01118261016210BDFEE7B1
:102140000907090E002804DB00F1E02080F80014E4
:10215000704700F00F0000F1E02080F8141D704778
:1021600070B5044600256FF02F0608E02068411C7A
:102170002160007805EB850106EB410145182068D8
:10218000007800F004F80028F0D1284670BD3038FF
:10219000092801D8012070470020704710B544215C
:1021A000074800F085FF00220A2106481EF0F4FED1
:1021B000054CA06002F05AF80020207010BD00000D
:1021C000E8040010214300089C0100102DE9F047AD
:1021D0000E46814617461146304600F01CF94FF076
:1021E000FF3A00287DD000223946304600F0BFF883
:1021F00000284FF0000075D1B6F90480B6F9003020
:102200005246A8EB0301491C0AFA81F10FFA81FA40
:10221000B6F906C0B6F90210ACEB010C0CF1010CDA
:1022200002FA8CF2B7F802C012B2ACEB010C0FFA52
:102230008CFCBCF1000F0EDD63F30F0468F30F0597
:1022400001EB0C0061F31F4460F31F45C9F8004027
:102250000120C9F80450B7F906107388CB1AD21AB6
:1022600012B2002A13DDB6F9063099420FDA33882C
:1022700063F30F04B38861F31F4463F30F05114444
:1022800061F31F4509EBC001401C0C604D60B7F9BC
:102290000220B6F902108A4200DD1146B7F9063075
:1022A000B6F90620934200DA1A463B88B6F900C018
:1022B000521AA3EB0C031BB212B2002B10DD002A42
:1022C0000EDD634463F30F058B1863F31F456CF356
:1022D0000F0409EBC00361F31F441C605D60401CE8
:1022E00001E01AE017E0B7F9043036889F1BAAEB2B
:1022F000070636B2002E0EDD63F30F0461F31F44B0
:10230000334463F30F05114461F31F4509EBC0012A
:10231000401C0C604D60BDE8F0875046FBE770B58F
:10232000B1F90030B2F90040A34200DC234603803B
:10233000B1F90250B2F90240A54200DD2C464480BA
:10234000B1F90460B2F90450AE4200DA3546858036
:10235000B1F90610B2F90620914200DB1146C180A6
:102360000120AB4201DC8C4200DD002070BDF8B5DD
:102370000D460446B0F90000B1F900101646884237
:1023800047DBB4F90210B5F90220914241DBB4F900
:102390000410B5F9042091423BDCB4F90610B5F9FC
:1023A0000620914235DC96B3ADF800006088ADF8A8
:1023B000020032466946284600F099F8002827D0E6
:1023C000A088ADF800006088ADF80200324669468A
:1023D000284600F08CF800281AD02088ADF80000BC
:1023E000E088ADF8020032466946284600F07FF8E2
:1023F00000280DD0A088ADF80000E088ADF80200FC
:1024000032466946284600F072F8002800D00120C4
:10241000F8BD0020F8BDB0F90020B1F904309A42AF
:1024200013DCB0F90420B1F900309A420DDBB0F9A9
:102430000220B1F906309A4207DCB0F90600B1F982
:102440000210884201DB0120704700207047F8B578
:102450000D460446B0F90400B1F900101646884252
:1024600043DBB4F90600B5F9021088423DDBB4F94C
:102470000000B5F90410884237DCB4F90210B5F950
:102480000620914231DC76B3ADF800006088ADF8EB
:10249000020032466946284600F029F818BBA08899
:1024A000ADF800006088ADF8020032466946284663
:1024B00000F01DF8B8B92088ADF80000E088ADF84C
:1024C000020032466946284600F011F858B9A08843
:1024D000ADF80000E088ADF80200324669462846B3
:1024E00000F005F808B10020F8BD0120F8BD2DE985
:1024F000FC4114460E46B1F90020B0F90010054623
:102500008A423ADBB5F90400824236DCB6F9027041
:10251000B5F90220974230DBB5F906309F422CDC3A
:10252000002C75DD401A9A1A401C521C00B212B2DF
:1025300000EBD07002EBD27240105210904200DBE0
:102540001046844200DD0446ADF8001028880022C1
:102550002044ADF804006888ADF802006888314670
:102560002044ADF806006846FFF7C1FF40B1BDF852
:1025700004002044ADF804003FE00020BDE8FC81E9
:10258000E8880022001BADF80200E888ADF80600DC
:1025900031466846FFF7ABFF28B1BDF80400204480
:1025A000ADF8040011E0A8880022001BADF800007F
:1025B000A888ADF8040031466846FFF798FF50B18F
:1025C000BDF80000001BADF80000BDF80200001BC4
:1025D000ADF8020016E06888ADF8020068880022B5
:1025E0002044ADF8060031466846FFF780FF70B121
:1025F000BDF80000001BADF80000BDF80600204447
:10260000ADF80600314668461CF094F9B6E7FFE7DE
:102610000120B3E710B5B1F90040B2F900309C4297
:1026200000DA23460380B1F90240B2F902309C423D
:1026300000DA23464380B1F90440B2F904309C42E9
:1026400000DD23468380B1F90610B2F906209142DD
:1026500000DC1146C18010BD2DE9F0418AB007466B
:102660001EF036FC0026A34C054600960FB1F86814
:1026700001E011F029FA606000691CF057F8606809
:10268000406908B11CF052F86068C0691CF04EF84F
:102690006068006A1CF04AF86068016991B11CF03A
:1026A000F1F920F05DFC20F083F96068B0F850117A
:1026B000E9B30068017CC9071FD0C0684068E0B179
:1026C000002715E0A0F850610AB0BDE8F081C119FB
:1026D00091F8301151B900F5AC7000F040FD61681F
:1026E00001EBC7010A6B0260496B41607F1CBFB2FE
:1026F0006068B0F85011B942E9D860684FF4807151
:10270000303017F0BBFC6068202100F5987017F09E
:10271000B5FC6068A0F8506128461EF0D3FB00901D
:1027200060680068436A13B122680099984717F0FF
:10273000E9FA00F02BF900F0FDF86F4D6F69D7BB97
:1027400017F091F816F08AF9074600227F211BF056
:1027500006FF10F0CDFB0146002238461BF0EEFECE
:1027600010F019FE0146002238461BF04DFF0022F2
:10277000032138461BF03EFF0022032138461BF0A0
:102780002AFF0022032138461BF02AFF00220321E2
:1027900038461BF02AFF0022032138461BF02FFF8A
:1027A00056A1384616F0E0FF00231A4606213846A7
:1027B00018F050F86F6128681EF084FB4FF496788B
:1027C00040450CD2206841F28831884234D969688A
:1027D000009808446860A868401CA8602CE01EF0BF
:1027E00077FB28606068406828B100684FF47A7110
:1027F000B1FBF0F000E06420696809B9012169606B
:10280000A968F1B14FF47A7251436A68B1FBF2F4EE
:102810006E60AE60844200D9044628692044286175
:10282000E868401CE8601EF0E9FBC0F16403224642
:1028300033A1384616F0CFFF2E4D08356C6814B121
:1028400037E00446E4E717F00EF816F007F90446FF
:1028500000227F211BF083FE10F04AFB014600227C
:1028600020461BF06BFE10F096FD0146002220462C
:102870001BF0CAFE0022032120461BF0BBFE0022F3
:10288000032120461BF0A7FE0022032120461BF057
:10289000A7FE0022032120461BF0A7FE17A1204619
:1028A00016F062FF00231A460421204617F0D2FFDB
:1028B0006C6028681EF006FB40457FF605AF1EF0F1
:1028C00007FB286002A817F0B5FA04990298401A8D
:1028D000820A514200EB81206621B0FBF1F39DF8A2
:1028E00021109DF82000CDE9000109A1204616F035
:1028F00072FFE9E654000010540300103F0000008E
:102900002575204650530A2575252520435055002E
:1029100025752E2575206B4220757365642028254A
:1029200064202525290A2564252520667261672EE5
:102930000000000070B50A4D002400BFC4EBC406BF
:1029400055F8260008B117F051FA05EB86001C2156
:1029500017F094FB641CE4B2042CEFD370BD0000AC
:10296000C4050010084949680AE04A68824202D05A
:102970000A68824203D10A7E42F001020A7649695E
:102980000029F2D1704700002800001070470000B5
:102990000421014800F08CBBDC0400102021014818
:1029A00000F086BBF40400102DE9FF410446DDE988
:1029B0000A671D004FF0000002D1B6F5807F2BD0D2
:1029C000039001900290ADF80C100090ADF8041047
:1029D000ADF80A20ADF80E203B463246294668463F
:1029E0001BF008FF3B463246294601A81BF002FFB8
:1029F0003B463246294602A81BF0FCFE3B463246C7
:102A0000294603A81BF0F6FEBDF90000BDF904300D
:102A1000984209DA054608E02080491E6080A180BE
:102A2000521EE280BDE8FF811D46BDF90820BDF9B8
:102A30000C108A4201DA164600E00E46B54203DA6F
:102A4000984206DB184604E08A4201DA104600E0AC
:102A50000846801E2080BDF90030BDF90420934255
:102A600001DD1D4600E01546BDF90800BDF90C105A
:102A7000884201DD064600E00E46B54205DD934280
:102A800001DD194604E0114602E0884200DD0146FE
:102A9000891CA180BDF90230BDF90620934201DAFC
:102AA0001D4600E01546BDF90A00BDF90E1088422A
:102AB00001DA064600E00E46B54205DA934201DA35
:102AC000194604E0114602E0884200DA0146891EF8
:102AD0006180BDF90230BDF90620934201DD1D463B
:102AE00000E01546BDF90A00BDF90E10884201DD6F
:102AF000064600E00E46B54205DD934201DD19466B
:102B000004E0114602E0884200DD0146891CE180B4
:102B100088E700002DE9F04115460E460746114CA6
:102B20001EF0D6F980462B4632463946204615F02F
:102B3000CDF920B10020A062E06950B110E02C2155
:102B4000204617F09BFA4FF00040A0620020BDE83D
:102B5000F08140461EF0B6F9E06108B90120E0615D
:102B60002046F4E71805001010B51421074800F0BE
:102B70009FFA15F071F940B10549016005494160BE
:102B8000054981600549C16010BDFEE700050010E0
:102B90002D780108A97B0108797D0108F9770108E2
:102BA00070B50D4604461021284617F067FA2068D4
:102BB0000078012804D0022807D0042807D008E0B4
:102BC000A08A2880E08A688003E0E06800E00A20AC
:102BD000686020684268002A03D02946BDE870403A
:102BE000104770BD2DE9FE430446808A10B9E08A83
:102BF000002874D0D4F82C805FEA080010D1204659
:102C00000AF009FB5FEA000869D020460CF0BAFE22
:102C100000220921404614F031F8607880075ED424
:102C20004FF4807900274E4645460021284619F08A
:102C300087FE384407B20021284619F09FFEC117CD
:102C400000EB1160001210FB06F006B2284618F0E7
:102C500073FE0500E9D10FB94E450CD0784201B2A0
:102C60004FF4803090FBF6F002B26B4604F1140092
:102C700000951BF0BFFDADF80450ADF8085094F876
:102C8000400000F00F000328404616D018F0A6FFC1
:102C90000646404618F05CFE03460C200090B4F94E
:102CA00016103246404609F04DFEADF80800404689
:102CB00018F0A0FEC10713D018E018F023FF064655
:102CC000404618F0BFFE024603200090B4F91410ED
:102CD0003346404609F036FEADF80400E7E736E03B
:102CE000BDF90410002901DDADF80450810705D4B9
:102CF000BDF90410002901DAADF80450410705D4EC
:102D0000BDF90810002901DDADF80850000705D411
:102D1000BDF90800002801DAADF8085002AA01A99F
:102D2000204620F053FCBDF90820BDF904104046B0
:102D300000F08AFA6078800709D4208BBDF804106F
:102D400008442083608BBDF8081008446083BDE808
:102D5000FE832DE9FC5F0446C06A5FEA000B71D078
:102D600094F8400000076DD015F042FB0190006818
:102D70004021457E584619F02DFF4FF0000818B944
:102D8000A4F81E80A4F81C80584618F019FF82464B
:102D9000584618F01CFF064694F840004FF06409AE
:102DA00000F00F000C2802D003284CD09AE0A4F8C1
:102DB0001C8056B1B4F91E50002715F019FB0068AD
:102DC0004946407EC0F1640022E0E08BC5F1640119
:102DD00010FB01F191FBF9F0E083584618F0B8FDC3
:102DE0000546584618F0FAFE02460C200090B4F949
:102DF0001E102B46584609F0A5FDE083024600232D
:102E00001EE07A1917B210FB05F292FBF1F215B22F
:102E1000002DF6D1ADF80070A4F81E806A4600219E
:102E2000204620F0D3FB41F6FF72BDF9003051423D
:102E300058460AF087FBBDF800100123084402B28F
:102E400000214CE09AE0A4F81E80BAF1000F0AD0ED
:102E5000B4F91C50002715F0CBFA00684946407EB3
:102E6000C0F1640022E0A08BC5F1640110FB01F108
:102E700091FBF9F0A083584618F0E4FD054658464A
:102E800018F040FE034603200090B4F91C102A46B7
:102E9000584609F057FDA083014600231EE07A1929
:102EA00017B210FB05F292FBF1F215B2002DF6D12C
:102EB000ADF80070A4F81C8000226946204620F07E
:102EC00085FB41F6FF72BDF90030514258460AF0C9
:102ED000B1FABDF800100123084401B2002258469F
:102EE0001AF09EFFA08B002848D1E08B002845D126
:102EF000C6B9584618F072FE0546584618F028FD27
:102F0000002D06DC00280DDD002D02DA01232A4603
:102F100004E0002806DA0123404202B200215846AC
:102F20001AF07EFFBAF1000F19D1584618F08AFD49
:102F30000546584618F0E6FD002D07DC00280EDD9A
:102F4000002D03DA01230022294605E0002806DAD5
:102F500001230022404201B258461AF061FF0A21C3
:102F60005846019A13F08AFE6078800706D414F858
:102F7000400F20F00F00207044F8148CBDE8FC9F37
:102F80007FB50E46040003D110F09EFD04002CD046
:102F900010F00EFE002828D094F82800400724D412
:102FA000002506B3ADF80050ADF80250204610F0F1
:102FB000A3FD401EADF80400204610F0E3FD401EC6
:102FC000ADF806006A46314602A8FFF7A8F90028C6
:102FD0000BD02068017C890708D5DDE90001C4E930
:102FE0000C01012029E0A4F850517FBD82690AB18B
:102FF00002A9904700260AE004EBC601002202A8BD
:103000003031FFF7B4F90028EFD1761CB6B2B4F82E
:103010005001B042F0D880B2202804D204EBC000A6
:1030200002A9303004E0A4F8505104F130006946A0
:103030000EF0ECFAB4F85001401CA4F8500160689E
:103040000028D2D01EF088F87FBD70B5054600F08C
:1030500012F804460CE02146284600F01EF8064609
:103060002146284600F0A2F8204616F0BFFE34465E
:10307000002CF0D170BD002800D04068704700B52A
:1030800003460022FFF7F7FF03E01846521C00F04A
:1030900004F80100F9D1104600BD0068091D405830
:1030A0007047006840587047002800D0806870471B
:1030B00000224260C91C21F0030182600160704758
:1030C00070B504460068083016F004FE050013D001
:1030D0000146002220461FF06FF82946204662680C
:1030E0001FF064F8616819B12A4620461FF064F8A1
:1030F0006560A06800B9A560284670BD2DE9F04163
:103100000C4606000AD04CB1FFF7B5FFA04208D12B
:103110003046FFF7D5FF051E01D01EE00020BDE8B8
:10312000F0813068083016F0D5FD051EF7D0306804
:103130002A460759304639461FF038F83A4629469C
:1031400030461FF039F82A46214630461FF034F841
:103150002246294630461FF029F82846DFE770B599
:1031600004460068083016F0B5FD050013D001468E
:10317000002220461FF01AF829462046A2681FF0B8
:103180001BF8A16819B12A4620461FF00FF8A56068
:10319000606800B96560284670BD28B1416809B90A
:1031A000806808B1002070470120704770B50400A6
:1031B0000DD0FFF760FF00228842204608D1FFF7BC
:1031C0006CFF6060011E01D000221EE0A26070BD95
:1031D000FFF76AFF8842206808440AD10168A160AD
:1031E00029B12046BDE8704000221EF0DFBF6260BA
:1031F00070BD05682046FFF750FF06460246294687
:1032000020461EF0D3FF2A4631462046BDE87040D6
:103210001EF0D2BF10B50446006882680AB121468C
:10322000904720680068002801D02060F5E710BDB5
:103230008068002801D0B0F9160070478068002827
:1032400001D0807E8009704770B5164605460C4651
:1032500051EA06001AD0284617F076FCA868012328
:103260003246018A21440182A868418A3144418260
:10327000214628461AF02CF800220B21284613F08C
:10328000FDFC012803D1284619F07BFF012070BD09
:1032900077B581B00E46050017D0622219F07EFA8C
:1032A000040012D0206880B128463146632219F00C
:1032B00075FA10F0FF0208D023682046039998475A
:1032C0000090BDF80000ADF80C00039804B070BD8C
:1032D0002DE9F047074692B0408C1A9E40F004005A
:1032E000788490463A8499468A463289384619F05D
:1032F00055FA0546A7F8209032895146384619F00C
:103300004DFA0446788CA54220F00400788403D15D
:103310002904B1EB044F68D0A7F8208032895146C8
:10332000384619F03BFA05468046A7F820905146EA
:1033300038460BF083FB318900682A461CF01EFDDD
:1033400030890B2823D147F6FF794D4501D04C45F4
:103350001DD1384619F0F5FB00EBD070451038460A
:1033600018F0A9FA00EBD0704010C84506D1691CCE
:10337000431C994200DA00E0194688464C4506D1C4
:10338000691C421C914201DA6C1C00E01446194889
:10339000FFF796FE05002BD02F60C5E90384308926
:1033A000A8806846C5F808A00DF044FC1248FF212B
:1033B000CDE9005011480290114803900020089078
:1033C000CDE9090130880B9070889DF84210404289
:1033D0000C90F0680790002060F300018DF8421017
:1033E0003069069068460DF099FC12B0BDE8F08790
:1033F000FEE700000C050010455F0208316102087D
:103400008D60020814210148FFF752BE0C05001020
:103410002DE9F84F00259046894606462C4604279C
:10342000E5E000BFF16807EBC400085882017AD4D8
:1034300080B230EA090211D05FF0000230EA0800E1
:103440000ED0002082426ED051F834A06A4610217E
:1034500050461CF0F5F9002871D103E00122EDE798
:103460000120EFE76A46112150461CF0E9F90028D7
:1034700065D16A46122150461CF0E2F900285ED15F
:103480006A46132150461CF0DBF9002857D16A46E2
:10349000152150461CF0D4F9002850D16A46142159
:1034A00050461CF0CDF9E8BB6A460A2150461CF094
:1034B000C7F9B8BB6A466B2150461CF0C1F988BBFE
:1034C0006A466C2150461CF0BBF958BB6A46012184
:1034D00050461CF0B5F928BB6A46042150461CF042
:1034E000AFF9F8B96A46022150461CF0A9F9C8B9EB
:1034F0006A46032150461CF0A3F998B96A46052193
:1035000050461CF09DF968B96A46062150461CF0E9
:1035100097F938B96A46322150461CF091F908B93A
:103520006A4601E00BE061E06E2150461CF088F92C
:1035300028B96A466D2150461CF082F910B103206B
:10354000BDE8F88F6A46692150461CF079F9E8BB5E
:103550006A466A2150461CF073F9B8BB6A466E2170
:1035600050461CF06DF988BB6A466D2150461CF030
:1035700067F958BB6A46372150461CF061F928BBF1
:103580006A46382150461CF05BF9F8B96A46352185
:1035900050461CF055F9C8B96A46402150461CF007
:1035A0004FF998B96A46452150461CF049F968B967
:1035B0006A46412150461CF043F938B96A46422117
:1035C00050461CF03DF908B96A4600E00AE0432184
:1035D00050461CF035F928B96A46492150461CF07E
:1035E0002FF908B1022501E005B90125641C708C92
:1035F000C0F3C500A0423FF615AF2846A0E7000083
:103600000148406870470000540000100549002040
:1036100048600861C86088600860486102490860C5
:1036200048607047540300105C000010C0F30410A1
:10363000072800D907207047A0F57F41FF3905D042
:10364000002804D0712803D208490AE01F207047DF
:103650000749713880B2096829B1064A5268904218
:1036600001D2085C704700207047000068A602087D
:10367000C8010010DC01001010B518210348FFF745
:1036800017FD03490120087010BD0000B8040010A8
:10369000E40100102DE9F04190460C46050015D0DC
:1036A000FCF7F7FE0A4F06462146BA6828469047BF
:1036B0000446BA682819414690470146701A03E04B
:1036C0006218AA5C2A55641CA042F9D2BDE8F081B8
:1036D000F80100102DE9F041094D90460E466A6848
:1036E0001C46074619469047306020B120686A683A
:1036F000384400219047C8F80000BDE8F081000080
:10370000F80100102DE9F04F87B08A46DDE9105826
:103710001F4693460446002105B129805CB12078FC
:10372000002809D0BAF1000F05D0002618F0060FC6
:1037300015D0002004E0002007B0BDE8F08F401C49
:10374000215C0A2904D00D2902D00029F7D100E01C
:10375000401C002DF0D04FF0FF312980ECE75FEAEC
:10376000887001D541F6FF77894608468DF8141018
:10377000049127E00498CDF8189068B34FF0000C3E
:1037800005AA06ABCDF80CC0CDF80080CDE901321A
:1037900020443B465A4651461DF042FE06997A1A8D
:1037A000314417B20EB288B10499014404912078D3
:1037B0000A280BD00D2809D0605C0A280FD00D28EC
:1037C0000DD00846205C08B1002FD3DC049848B126
:1037D00005B12E800498AFE74FF0010CD0E7481CEC
:1037E0000490F3E7064A04A9204652689047002D4A
:1037F000F0D001460022504613F054FB06B2E8E731
:10380000F80100102DE9F0411746884606001ED049
:10381000002F1CD0FCF73DFE04463846FCF739FE6D
:10382000050014D00B4A2C4441469268304690471C
:10383000411903E0621BB25C3255641EA142F9D902
:1038400030442A463946BDE8F04116F0D9BBBDE800
:10385000F0810000F801001000230278232902D033
:10386000012A0DD00FE02AB10021012A04D0022A3A
:1038700004D008E0012101E0017004E0017001E0E2
:10388000202902D00123184670470221F6E72DE9CE
:10389000F0410E46804602460021334608461DF0A0
:1038A000FDFF04460027401C16F014FA050008D05E
:1038B0002F5533464246611C1DF0F0FF2846BDE8F7
:1038C000F081FEE72DE9F0471E4614460D4682467C
:1038D000DDF8209015E000BF4FEA540808FB0657BA
:1038E000394650464A469047002808DD44F3000018
:1038F000C0EB540407EB0605A4F1010401E005DA6E
:103900004446002CE8D12046BDE8F0873846FBE766
:103910002DE9FC5F9B460CAB8A468146DDE91160D0
:1039200093E81210DDE90F575FEA80784FF030031B
:103930001AD45EB15FEAC07808D000F00C0858EAEB
:103940000C0803D0761E01E00B55641CBC4204D267
:10395000202CF9D301E00B55641C5FEAC07803D03A
:10396000B44201D2202CF6D35FEAC06825D55FEAC5
:1039700040580AD44CB1BC4201D0B44205D1641EB7
:1039800003D0102D03D1641E04E0102D02D0022DAF
:103990000AD00EE0850603D4202C1ED2782506E03E
:1039A000202C1AD2582502E0202C16D262250D5563
:1039B000641C202C11D20B55641C202C0DD2BCF1A0
:1039C000000F01D02D2306E0430701D52B2302E091
:1039D000030702D520230B55641CCDE900BAC84665
:1039E000154681468B46AA46800714D1274607E034
:1039F0002A46DDE900316D1C2020C446E0477F1CCB
:103A0000B742F5D307E02A466D1C641EDDE900319C
:103A10001BF80400C047002CF5D15FEA897006D47A
:103A200009E02A46DDE900316D1C2020C047A5EBE6
:103A30000A00B042F5D32846BDE8FC9F2DE9F04FBF
:103A40008FB099468B46DDE91818DDE91C63DDE986
:103A50001A4792468646002209B923F010035805FA
:103A600007AD00D5C9B1B1FBF4F004FB1010C0B232
:103A70000A2801D2303009E05FEA836C02D54FF0AA
:103A8000410C01E04FF0610C60440A38B1FBF4F1E5
:103A9000A854521C09B1202AE5D3CDF80880CDE9FD
:103AA0000563CDE90052CDE903474B4652465946DE
:103AB0007046FFF72DFF0FB0BDE8F08F2DE9FF4FE7
:103AC0008FB01CACDDE9239594E8030820AC94E8A2
:103AD000C004002450EA010201D125F010056A0556
:103AE0000DF11C0802D550EA010217D032463B46C0
:103AF000FCF734FCD2B20A2A01D2303206E0AB061F
:103B000001D5412300E061231A440A3A08F8042051
:103B1000641C50EA010201D0202CE7D3CDE90084D7
:103B2000CDF808B0CDE90595CDE9036A0FAF97E868
:103B30000F00FFF7EDFE13B0BDE8F08F9A4200D200
:103B400088547047704700002DE9FF4F89B0054643
:103B50000A9800249246002800D1FE4D8FE12528C6
:103B600004D02246641C53460A990BE2491C4FF0CC
:103B7000000808460C9101782B2919D004DC202973
:103B800019D0232904D119E02D290ED0302909D0CC
:103B90000026C8B2FEF7FBFAB0B10CA8FEF7E0FAB7
:103BA00006461FE048F001010AE048F0020107E084
:103BB00048F0040104E048F0080101E048F0100179
:103BC000401C88460C90D6E70C9908782A2809D121
:103BD000169840C81690002E02DA48F00208764285
:103BE000491C0C910C984FF0000B01782E2919D12B
:103BF000401C0C9048F480680078FEF7C8FA20B1A9
:103C00000CA8FEF7ADFA83460CE00C9A10782A282F
:103C100008D1169802C81690002900DC0021521C19
:103C20008B460C920C9801786C290AD004DC682928
:103C30000FD06A2919D128E0742929D07A2914D102
:103C400026E0401C0C90017848F480786C291CD048
:103C50000BE0401C0C90017848F08008682904D1E2
:103C600048F04001401C88460C90024600786928C4
:103C700022D015DC62281FD00DDC252871D05028F9
:103C80001AD058287FF46DAF16E048F40071E9E7C8
:103C900048F48071E6E7632878D06428F2D10BE01D
:103CA000732874D004DC6F2806D07028EAD103E0B2
:103CB000752801D07828E5D178280DD058280BD068
:103CC00070280BD0502809D06F2816D0622816D043
:103CD0000A2128F0100016E0102107E0507810218A
:103CE00048F48878562804D1521C0C921078582831
:103CF00007D01078502804D006E0082109E00221FE
:103D000007E048F0200080461078692803D0642836
:103D100001D028F00C085FEA485001D528F00108CE
:103D2000107869281ED064281CD0562864D05FEA19
:103D3000885072D5169804ABC01D002283E806088F
:103D40000292CDE9076820F007005346F0E802121E
:103D5000CDE900121690224628460A99FFF7AEFEDA
:103D600089E00AE15FEA885024D5169804AFC01DA7
:103D700020F00703F3E802021693002387E80A08FD
:103D8000CDE90768002A03DA012102E080E0A6E01D
:103D900000210023029119461B1A914101DA1146B4
:103DA00003E00021404261EB020153462246CDE987
:103DB0000001D1E75FEAC85004D5169804C80FE0A7
:103DC000524215E05FEA486003D5169810F8042BBC
:103DD00006E05FEA0860F0D5169830F8042B12B2BE
:103DE0001690CDE9021BCDE90468D00F002AE7DD6B
:103DF000CDE9002053461EE01698AAEB040202C843
:103E000016904868006800900A980B6801192846C7
:103E1000FFF79AFE04442FE0FFE75FEAC8500CD595
:103E2000CDE9021BCDE9046816980021534604C869
:103E3000CDE900211690224619E05FEA486003D5DB
:103E4000169810F8042B08E05FEA0860169803D56E
:103E500030F8042B92B200E004C816900020CDE99F
:103E60000020CDE9021BCDE90468534622462846CE
:103E70000A99FFF7E3FD04460C98401C0C900C993E
:103E8000087800287FF46BAE54457DD222467DE051
:103E900001275FEA887006D509E02246641C534674
:103EA00020200A99A84738467F1CB042F5D31699BE
:103EB0002246641C11F8040B169153460A99A84730
:103EC0005FEA887006D4D7E72246641C5346202058
:103ED0000A99A84738467F1CB042F5D3CCE716981C
:103EE00050F8049B16904B46BBF1000001D00146F0
:103EF00001E04FF0FF31484600E0401C02780AB173
:103F0000491EFAD2C71A5FEA485003D558465F45A2
:103F100000D307465FEA887006D512E02246641C8B
:103F2000534620200A99A84738467F1CB042F5D353
:103F300007E000BF224609F10109641C53460A99B3
:103F4000A84799F8000040B15FEA4851F2D5BBF1AB
:103F5000010B01E0453B0008ECD25FEA887006D413
:103F60008AE72246641C534620200A99A84738460F
:103F70007F1CB042F5D37FE706E02246641C53461F
:103F800025200A99A84777E7AAF1010253460020A5
:103F90000A99A8470DB02046BDE8F08F10B5020081
:103FA0004FF000000CD04B1E194200D0FEE70A442F
:103FB000521E9A43B2F5803F02D20C2A01D9104614
:103FC00010BD0C2010BD08444A1E401E90431142F3
:103FD00000D0FEE7704700002DE9F0410F460121B7
:103FE0000025044641862E460BE01B49FCF7CAFA21
:103FF00010B16D1CADB202E0608E401C6086761C74
:10400000B6B257F8260010B101780029EDD1208E04
:10401000A8421ED0A06A002610B115F0E7FEA662E5
:10402000E06A10B115F0E2FEE662E80015F052FE1B
:10403000A06238B1680015F04DFEE06218B1A16AC7
:1040400011B102E0FEE7FEE70025690016F016F860
:104050002586BDE8F08100000C2001082DE9F84F0D
:104060008146407A0F4600F00700022819D010461A
:104070008046974200DD3A46164603202A4C2B4ADA
:1040800000EB460020F00305A06811681035411AC6
:10409000636805EB010C9C4505D2416821F00041A5
:1040A00024E00846E4E79D4219D892464FF0FF3BD2
:1040B00048196168884210D9002269461C48CDF829
:1040C00000B00CF039F8002269461A480CF034F8B8
:1040D000A168DAF80000091AEAE7A068DDE72846D7
:1040E00015F0F8FDC0B1416841F0004188EA67026F
:1040F000416089EA02010160416801F04041491CC8
:1041000031F0804141608681A0F80E8005D500F134
:1041100010018160BDE8F88FFEE7A16801F110028F
:1041200029448260A160F5E764000010C40100101A
:1041300005D200089901010870B586B000224A4CEA
:104140008DF808208DF80C208DF81020E2888A4226
:1041500001D0FF22A270E18090F83C20142302F0ED
:1041600003024FF4B475012A24D0022A5ED0A57848
:10417000AA4211D010F8265F05EB051505EB4505A1
:10418000B5FBF3F52570407800EB001000EB400024
:10419000B0FBF3F06070A27004AA03A8CDE900029E
:1041A00001EB41004FF6FF7101EA400002AB62787B
:1041B00021781BE0A678B24210D0868C06EB46062A
:1041C0007602B6FBF5F5A58090F8270000EB00100D
:1041D00000EB4000B0FBF3F06070A27004AA03A8EB
:1041E000CDE90002C9B202AB62783AE008F01DFDE9
:1041F0009DF810109DF80C00CB08BDF800109DF83C
:10420000082063F30401ADF800108108BDF8000038
:1042100061F34A10D10880B261F3CF20ADF80000FD
:1042200080B20090BDF8000006B070BDA678B24222
:1042300010D0868C06EB46067602B6FBF5F5A58017
:1042400090F8260000EB001000EB4000B0FBF3F00C
:104250002070A27004AA03A8CDE90002CAB2217896
:1042600002ABA088C2E700001001001010B5084C96
:10427000012020700748FEF7FEFE0028A06803D04A
:10428000BDE810401CF068BFBDE810401CF058BFEE
:104290009C010010E804001010B5044690F842009C
:1042A000A16B820709D4B4F840204AB1A2F57F433C
:1042B000FF3B1BD0521EA4F84020B4F84020AAB9FE
:1042C00009B1820712D521461448FEF76FFFFFF7A8
:1042D000CDFFE16809B120468847216909B1204630
:1042E00088472046BDE8104015F080BDE26B524281
:1042F0002263002911D0820702D4626B52422263EA
:104300004210521C62F3410084F84200A26A206A03
:104310002262A062E06AE162A06310BDE8040010BE
:1043200070B5304D68681CF0CDFD0646687880F0A9
:104330000100687047E00020287094F84200697816
:10434000C0F380028A4242D061F3820084F84200C6
:10435000216B8A19030719D4002917DC002A15DB01
:10436000C00709D1616939B120468847216A0144F3
:104370002162A16A0844A062A16809B12046884769
:1043800094F8420040F0080084F84200206B801945
:10439000206316D4E16A884200DD2163E16920468A
:1043A00088470146606A884204D0616262680AB147
:1043B00020689047D4E90B01814202DB2046FFF7D9
:1043C0006BFF287818B10848FEF755FE03E0214638
:1043D0000548FEF762FE0400ADD11CF079FD68606F
:1043E00070BD00009C010010E804001070B5044688
:1043F00040680D4608B1FFF7F9FF2268002A04D093
:1044000029462046BDE87040104770BD89B20DF0C6
:1044100062B889B20DF09BB82DE9FF4F99B098466C
:10442000DDE926B12D9816468A464FF0000904288A
:1044300011D0052811D0062812D0142870D10127D8
:104440000225002418FB06F00E901A98401E0D90CD
:10445000701E069051E10027F2E701270325F0E7DF
:1044600001270225FFF7CCF80068D0F83890E8E77C
:10447000289860430BEB2022299860430AEB202107
:1044800010124FEA212E7DD41A9B98427ADABEF19F
:10449000000F77DBB64575DAD2B2CBB2802A05DAE7
:1044A000C2F17F024FF0FF31520003E001215200C0
:1044B000A2F580720992802B05DAC3F17F034FF0D9
:1044C000FF325B0003E001225B00A3F580730A93D7
:1044D0000EFB080C199B0CFB053307934318119333
:1044E00072D4DDF834C063456EDC1EEB02036BD47E
:1044F000DDF818C0634567DCDDF81CC011FB05C1A1
:10450000CDE915C112FB08F101FB05C10C91D7B330
:104510002D99052905D014290BD0062955D066E020
:10452000EFE01598807807900C988178169880783D
:1045300010E0199A0E990EFB08FC02EB41010A18D3
:104540000EFB08111CF802000790119803FB08F3FA
:10455000085C995C079A91420AD00A9A11FB02F210
:104560000A99C1F58073079911FB0321C1F3072153
:10457000079A90420DD0099A10FB02F20998C0F5F3
:10458000807301E02FE035E0079810FB0320C0F3B3
:10459000072008442C994008085527D01598017821
:1045A000407801EB0020ADF80C000C9801784078C1
:1045B00001EB0020ADF8100016980178407801EB6F
:1045C0000020ADF8080023E04CE0159801881FFAA0
:1045D00089F0814207D00C990988814203D016994D
:1045E0000988814203D12C990020085583E0FF21DE
:1045F0000846CEE715980088ADF80C00169800889C
:10460000ADF808000888ADF810002C98FF2101557E
:10461000BDF80C00BDF81010884209D1BDF8081093
:10462000884205D12B98BDF80C1000EB440017E030
:104630000A98C2B2DDE903100EF022FE0490099838
:10464000C2B2DDE902010EF01BFE7F220290049946
:104650000EF016FE00902B98BDF8001000EB440001
:10466000018048E0079B93F800C05B780CEB0323C4
:10467000DDF8ACC09BB22CF81430DDF8B4C0BCF14E
:10468000050F06D0BCF1060F06D0BCF1140F09D1FE
:104690000AE0079B9B780FE01FFA89FC634501D174
:1046A000002309E0FF2307E0199B0EFB083C0E9B4B
:1046B00000EB43031CF8033008B9002905DBDDF8E3
:1046C00034C0604503D1002901DD09980AE0BEF13C
:1046D000000F01D1002A04DB06998E4508D1002A7B
:1046E00006DD0A98C0F1FF0010FB03F0010A00E0AC
:1046F00000212C980155641C24B22A988442FFF6AC
:10470000B7AE1DB0BDE8F08F10B5818F92B00446F2
:10471000A9B168460CF08EFA0B480121CDE90040A2
:10472000A08F0B9000200890CDE909010748079061
:104730000748039068460CF0F1FA12B010BD12B0B1
:10474000BDE810401DF084BEC9240208F30C010826
:10475000CB24020810B50446406882080AD0496894
:1047600021F00301091D08446060204600F042F872
:10477000204610BDFEE74068103120F0030088425B
:1047800001D301207047002070472DE9FC47054602
:1047900048680C4620F0030001AA69461DF0AEFBF4
:1047A000DDE9007005EBC71101EB80098046D9F8FF
:1047B0003C0060B164B1C4E9020504F10806C460BC
:1047C00030460421FFF7FFFB864202D0FEE7FEE7FA
:1047D000FEE7C9F83C400120296900FA07F21143BD
:1047E000296105EB870100FA08F04A6902434A6132
:1047F000BDE8FC8710B5044600F087F8046010BDE2
:104800002DE9FC4706464FF000000D0000900746DA
:10481000019042D00C46E9460DF10408802907D3E7
:10482000084621F087FB411F01208840401E0444B8
:104830004246494620461DF061FB009C0A2C2CDABA
:1048400006EB8400019A40694FF0FF3101FA02F251
:1048500010400CD1641C3069A14008401DD021F0EB
:1048600061FB0446009006EB8000406978B121F0BE
:1048700059FB034606EBC411019001EB8000C76BA6
:104880005FB1786820F00300A84201D2FEE7FEE79E
:1048900039463046009A1EF0B1FC3846BDE8FC8728
:1048A00010B50446FFF7A6FF416841F002014160E0
:1048B000606840F00100606010BD10B5044600F073
:1048C00024F8416821F002014160606820F0010095
:1048D000606010BD70B506460D46084600F015F83C
:1048E000040010D02079C0070BD0686880080BD076
:1048F0002146304600F03CF821462846FFF72AFFC3
:104900000546284670BDFEE7FEE7426800F1080153
:1049100022F00300001F0844910800D1FEE7704711
:1049200070B506460C004FF000001ED0F2B12079A1
:104930001546C0071BD011462046FFF71CFF78B173
:104940002946204600F025F805462046FFF752FF8D
:104950006868294640F0020068603046FFF715FF9E
:104960002046FFF7AAFF04F1080070BDFEE7FEE74E
:104970007CB5054648680C4620F0030001AA69464C
:104980001DF0BCFADDE90023214628461EF036FC66
:104990007CBD2DE9F0410D46044600F10801281FB9
:1049A0000E18606806F1080720F00300401BA0F114
:1049B000040838460421FFF706FB874200D0FEE7D3
:1049C000606820F0030108EB0500001D814200D063
:1049D000FEE7307900F0030040EA0800706020F044
:1049E00003000C2800D2FEE7207900F003002843E2
:1049F00060603046FFF754FF3046BDE8F08138B5BF
:104A0000044613F0F5FC054613F027FD0028204668
:104A100005D0218FE18618F0B4FB012038BD11F0DC
:104A2000EBFE002820461ED011F0BAFD218FE08E4B
:104A300081420CD02087E08E00906A461C212046DF
:104A400012F01CF90128E9D1204618F09AFB2846FB
:104A500013F00FFD0428E0D1204616F027FF0021B7
:104A600012F03AFED9E711F023FFD6E770B512F045
:104A700001F9054616F060FF044628460DF08EFB4E
:104A800001462046BDE8704000221BF049BD0000F1
:104A90002DE9F04F0D4687B00446002116F03AFE8E
:104AA00060B32946204600F061FA2946204600F00E
:104AB0006FF80021204617F05DFD0590002120468B
:104AC00017F00CFE04900021204617F01EFC012870
:104AD00000D0002080460021204617F061FF0746E5
:104AE0000021204617F08CFC42F2D17906464F4552
:104AF0000BD1608C400508D4012707E007B0284699
:104B0000BDE8F04F1C2115F0B9BA0027204616F079
:104B10007FFEDFF878A0834620460021BAF8042003
:104B200017F03CFED5F810C0AB682968CDF800C07E
:104B3000CDF80C80CDE90131C2B239465846059B0B
:104B400009F0EEFF28834E4504D1608C800501D426
:104B5000012600E00026204616F040FE07462046CB
:104B60000021BAF8082017F019FEC2B268690024C3
:104B70006B68E9688DE81B0031463846049B09F0F4
:104B8000CFFF688307B0BDE8F08F000084000010FD
:104B90002DE9F34F81B00C46019809F043FA06461F
:104BA000019816F035FE8246304600F0E3FF2061A2
:104BB000400015F0BDF820602069400015F0B8F8FD
:104BC000002541F69A79A0603AE036F91510DFF831
:104BD0002081494533D10027DFF818B11FE039465D
:104BE000019816F097FD5946009017F0FAFFA8B902
:104BF000009809F029FA012810D1009809F01AFA52
:104C0000A8420BD1009817F09CFF4146404501DABD
:104C1000084602E0009817F094FF80467F1C019838
:104C200016F08AFDB842DAD8B8F1000F03DBA168AC
:104C300021F8158003E0A168002021F815006D1C03
:104C40002069A842C1D800252F46284641F69B7806
:104C50004B4615E036F91010414504DB0D44A5F52F
:104C6000F8559B3D0BE0994204D1A16831F8101032
:104C7000394403E0A26822F8101039440FB2401CF6
:104C800021698142E6D80021019817F073FC21695F
:104C9000C1F1010200FB02A0C01B00B2002800DA33
:104CA000002000224FF0FF331146C44611E000BF40
:104CB00036F9117067450BDBA7F5F8579B3F3AB201
:104CC00010FB02F3B3FBF5F3A76827F811300B468E
:104CD000491C27698F42EBD8002B07DBA91A4143F7
:104CE000B1FBF5F1401AA16821F81300BDE8FE8F71
:104CF00001E0FFFF010006002DE9F14F00221146FF
:104D0000009819F0CFF90021009817F037FB0446FE
:104D10000021009817F0F4FC20440FFA80F90021DC
:104D2000009817F0DFFB20440FFA80F8009817F086
:104D300099FA00EB090101EB0800DFF898A006B230
:104D40005446009816F0F8FC074600252AE0009823
:104D500021498068006850F82500834617F041FF1C
:104D6000F8B9584618F066FA40BB0021584617F0CB
:104D70009DFA18B3012821D002281FD003281DD086
:104D80000021584617F024FE58B9BBF81A10BBF89A
:104D90001600081A401C00B24844A04200DB04463A
:104DA00024B26D1CBD42D2D3544504D004EB08009C
:104DB00000B2B04200DC3046BDE8F88F0098BBF985
:104DC0001A10B0F91600081A411CA142E8DB0C4683
:104DD000E6E7000001E0FFFF010004002DE9F84FC5
:104DE00000228046114619F047F90021404617F08D
:104DF000C5FA04460021404617F028FC20440FFA6B
:104E000080FA0021404617F0D3FB20440FFA80F9C6
:104E1000404617F035FA00EB090101EB0A00DFF814
:104E200044B105B25C46404616F086FC07460021B8
:104E3000404617F058FA01284FF0000644D078E0B9
:104E4000D8F808004849006850F82600009017F08C
:104E5000C8FEC0BB009818F0EDF950B10098B8F941
:104E60001810B0F91400091A481CA0422ADB4C1C87
:104E700028E00021009817F019FA58B1032809D04A
:104E8000062807D0082805D00021009817F09AFDC1
:104E900058B118E00098B8F91810B0F91400081AC1
:104EA000411CA1420EDB0C460CE00098143000902F
:104EB0000CF026FC5044A04204DB00980CF020FCCF
:104EC00000EB0A0424B2761CBE42B9D35C453BD049
:104ED00004EB090033E000BFD8F80800224900685D
:104EE00050F82600009017F07CFE08BB009818F0E0
:104EF000A1F960BB0021009817F0D8F938B3012858
:104F000025D0042823D0072821D00021009817F0AD
:104F10005FFD68B90098143000900CF0F1FB484434
:104F2000A04204DB00980CF0EBFB00EB090424B278
:104F3000761CBE42D0D35C4506D004EB0A0000B21A
:104F4000584501D0A84200DC2846BDE8F88F0098FB
:104F5000B0F91810B8F91400091A481CA042E6DB91
:104F60004C1CE4E701E0FFFF010004002DE9F84FCD
:104F70000C46834609F05AFC064600F0FBFD6061D2
:104F8000400014F0D5FE60606069400014F0D0FE6F
:104F9000002541F69A79E0603AE036F91500DFF82D
:104FA0002881484533D10027DFF820A11FE039468A
:104FB000584616F0AFFB5146009017F012FEA8B904
:104FC000009809F0BFFC012810D1009809F0B0FC4E
:104FD000A8420BD1009816F06EFC4146404501DA1C
:104FE000084602E0009816F066FC80467F1C584692
:104FF00016F0A2FBB842DAD8B8F1000F03DBE16883
:1050000021F8158003E0E168002021F815006D1CEF
:105010006069A842C1D800252F46284641F69B78F2
:105020004B4615E036F91010414504DB0D44A5F55B
:10503000F8559B3D0BE0994204D1E16831F810101E
:10504000394403E0E26822F8101039440FB2401CE2
:1050500061698142E6D80021584617F03FFB81463E
:10506000584616F0BBFB01466069C0F1010209FB1E
:105070000210C01B00B2002800DA002000224FF00E
:10508000FF331146C44610E036F9117067450BDB5B
:10509000A7F5F8579B3F3AB210FB02F3B3FBF5F3C9
:1050A000E76827F811300B46491C67698F42EBD837
:1050B000002B07DBA91A4143B1FBF5F1401AE16867
:1050C00021F81300BDE8F88F01E0FFFF01000600A2
:1050D0001CB50B8804892344ADF800304B88448903
:1050E0002344ADF802308B8804892344ADF80430A2
:1050F000C98843891944ADF8061043696946984741
:105100001CBD00002DE9FF4F89B0C8781A9CC0076C
:105110000D46002801D0F84800E0F848069001D07C
:10512000F74800E0F748049001D1F54800E0F54861
:105130004FF010034FF00C0E4FF0080BCDF8140099
:105140006188A2884FF0000AA1EB0201504609B223
:105150005246D4F810C00FE002EB8207E66803EB7A
:10516000870816F808805FEAC87809D00BEB870734
:10517000F65B891B09B2521C9445EDD8002254E01D
:105180000EEB8707F65B304400B2F4E7E66802EB0B
:10519000820703EB870CB146CDF820C016F80C60EF
:1051A000F60741D1002872D091FBF0F80EEB87068C
:1051B000079639F8066006FB08F60FFA86FCCDF86C
:1051C00000C04FF0060C0CEB870C042639F90C805C
:1051D00006EB8706DDF800C039F90660E04500DC23
:1051E000C446664504DC009EC446B04500DC664605
:1051F000DDF800C00196664506D0DDF820C04FF00E
:105200000108C24649F80C80D4F80C80019E0BEBD3
:10521000870728F80760D4F80CC0079F3CF8077090
:10522000C01B891B00B209B2521C26699642ADD838
:10523000BAF1000F84D10021099817F060F8012815
:1052400026D000270020ADF80800ADF80C0003A917
:1052500002A8CDE900012089B4F9022003B2287820
:1052600018991DF042F8E878384207D0099816F0EE
:10527000CFFABDF808100844ADF808000B9909985A
:1052800016F048FA06464FF4FA682AE1FFE7FEE70F
:105290000127D7E79C49304617F0A3FC00286FD1BF
:1052A0000021304617F096F8F0B34FF00009484659
:1052B00021690FE0E26800EB800352F82320B2423C
:1052C00007D1E16800EB80020BEB820031F900901E
:1052D00002E0401C8142EDD8E878C007708C04D011
:1052E00020F4007040F4806003E020F4806040F41B
:1052F0000070708406F1140004998246884748457E
:1053000028D0304617F03DFFB08AADF80000F08A93
:10531000ADF80200308BADF80400708BADF80600DC
:1053200049465046069A00E010E090476A46292117
:10533000304611F0A3FC304616F0FEFA3246222128
:1053400011F09CFC304617F01CFF03E0708C20F439
:10535000C0607084002000906878012811D0022875
:1053600017D1059906F114008847B4F90010491CBB
:1053700021F00101081A00EBD07040F34F0007E064
:10538000A7E0059906F1140088472188081A00B2A1
:105390000090E878384208D0049906F11400884754
:1053A000BDF80810081AADF80800304600216B223D
:1053B00017F0F4F90FFA80F9304600216C2217F04B
:1053C000EDF90FFA80FA304617F0BBFB019030463A
:1053D00016F071FA0146C9F3413001280FD129F4C2
:1053E000C04040450BDCB0F57A7F01DDC0F57A7036
:1053F000019A5043642290FBF2F00FFA80F9CAF34D
:10540000413001280ED12AF4C04040450ADCB0F5F5
:105410007A7F01DDC0F57A704843642190FBF1F09A
:105420000FFA80FAB18A1698F28A411A01EB090044
:10543000179900B28A1A02EB0A01EA7809B2D20778
:10544000002A02D0BDF9082000E0009A10440FFAAB
:1054500080FA01D0009801E0BDF9080008440FFA75
:1054600080F95AEA09011BD0304617F08AFEB18A4A
:1054700001EB0A00B082318B01EB0A003083F18A24
:1054800001EB0900F082718B01EB0900708330465B
:1054900017F077FE00234A465146304617F018FFB2
:1054A000E87838420CD1049906F11400884719991C
:1054B0000844BDF80C100844BDF80810084406E084
:1054C000BDF80C1019980844BDF80810081AADF87A
:1054D0000800E8780BAAC0F38001099809F06CF87D
:1054E0000646002E04D0DDE90B0188427FF4D2AEDF
:1054F0000DB0BDE8F08F0000891701087F17010883
:1055000025170108CD160108010006002DE9F04F0E
:1055100091B00E0005463FD02E83286808B114F0E4
:1055200065FC06EB4600062101EB400014F0D2FBBF
:10553000286040B3022101EB46010144E9600421E7
:1055400001EB86010144C5E9010101210024012E7E
:105550001AD0F000083014F0EBFB814600EB860017
:1055600000F10408B00000B2A346ADF81000C0F18D
:1055700001028010ADF812B00FFA82FA5C46CDF845
:1055800028B00690ABE0FEE7B4220270E868048021
:10559000E8684180A868048011B0BDE8F08F00275A
:1055A000BDF81220BAF1000F07DC032101EB420124
:1055B0000AEB01000FFA80FA0CE0BDF81010052389
:1055C000521A03EB420202EB0A00491E0FFA80FA5C
:1055D000ADF81010BDF81200401CADF8120004A880
:1055E00000F0E9F868B1BDF9100006A9821041F891
:1055F00027200AA900F0030041F827007F1C042F90
:10560000CEDB042F71D109990698884212D129F86E
:10561000140028F814B0DDE90A010144DDE90C208A
:105620001044084469680855696800010855641CFD
:1056300024B252E00799884219D029F8140028F8BA
:1056400014B06A680A9810556A6800011055641C05
:10565000069A20B2521E29F8102028F810B0DDE971
:105660000B120A440D99091D11446A682FE008992C
:1056700029F81400884228F814B0DDE90A025946D6
:10568000104412D06A6810556A6800011055641CF5
:10569000069A20B2521E29F8102028F81010DDE9D1
:1056A0000C12114408316A6811E00C9A10446A68BF
:1056B00010556A6800011055641C069A20B2521EEB
:1056C00029F8102028F810100D996A680C3111542F
:1056D0006A6809011154401C04B20BF1010B04A8C3
:1056E00000F069F800287FF45AAF40F2D32016FB8F
:1056F00000F109EB4402881232F9022C824205D1F2
:1057000008EB440232F9022C82421AD0A1EB80212C
:10571000B1F5007F03DC494341F3CF3106E0C1F529
:105720008061494341F3CF31C1F10F0129F81400E1
:1057300028F8140068680155686809010155641C5F
:1057400024B2A01E0EE000BF38F8102029F8142063
:1057500039F8102028F8142069680A5C0A55641C7E
:1057600024B2401E0028EFDAEA68002108461180C2
:105770001BE0EA6822F81100AB6839F8102023F822
:1057800011200AE0AE6839F9102036F81130934242
:1057900000DA1A4626F81120401C38F910208A42F7
:1057A00001D1A042EEDB491C09B2A042E1DB484630
:1057B00014F00AFBF0E6B0F90210B0F900008142E3
:1057C00001DC012070470020704717B581B0022A24
:1057D00003D8BDF8080004B010BDBDF80830BDF80E
:1057E0000400D90A01EBD0211F2900D31F2161F346
:1057F000CF20C3F34511C0F345142144ADF8040094
:105800003F2900D33F2161F34A1003F01F0100F04C
:105810001F031944ADF804001F2900D31F2161F3B1
:105820000400ADF80400FF2A07D0DDE901010DF006
:105830000DFD0090BDF80000CDE780B2CBE717B5B5
:1058400081B0022A03D8BDF8080004B010BDBDF82D
:105850000400BDF80810C30ACC0A13FB04F35B096B
:1058600063F3CF2000F01F0301F01F0413FB04F3C8
:105870005B0963F30400C0F34513C1F3451113FB47
:1058800001F1890961F34A10ADF80400FF2A07D03D
:10589000DDE901010DF0DAFC0090BDF80000D4E76D
:1058A00080B2D2E717B581B0022A03D8BDF808004C
:1058B00004B010BDBDF80830BDF80400D90AA1EB52
:1058C000D021002900DC002161F3CF20C3F3451172
:1058D000C0F34514091BADF80400002900DC0021C9
:1058E00061F34A1003F01F0100F01F03C91AADF85D
:1058F0000400002900DC002161F30400ADF804007D
:10590000FF2A07D0DDE901010DF0A0FC0090BDF8F1
:105910000000CDE780B2CBE7F8B5044611F0AAF954
:105920000646204611F068F90546304616F004F8A0
:1059300004462B2D34D00A2D31D112F059FD10B16F
:10594000007901282BD06946304616F05BF894F8B0
:105950002C0010F00C0F30462BD015F059FF0546E7
:105960000021204616F0D7FC0128BDF9000005EB08
:10597000D5711BD000EB610090FBF5F001B200295E
:1059800000DA0021608D4FF00102884220461BD0D2
:105990001AF0C6FD00221C21204611F06FF9F8BD57
:1059A000618DBDE8F84000221AF0BABDC0EB61007D
:1059B000E2E715F013FFBDF9021000EBD07201EB26
:1059C000620191FBF0F0D9E71AF0AAFDF8BD2DE9CC
:1059D000FF4F89B00446169EDDE919577000DDF8C7
:1059E0006090DDF828A00FFA80FBB9F1040F22D0F7
:1059F000B9F1060F1FD0B9F1050F5CD0B9F1140F42
:105A000056D1B4F90000B4F90210CDF80CB006FB81
:105A100001030AEB43020092E2884FF00008511A9A
:105A2000491C0FFA81F9A188081A401C0FFA80FA64
:105A30004FEA4A0B81E020460BF054FE01460390EA
:105A4000384614F049FBB4F90000B4F90280A1888B
:105A500006FB0802081A401C00B2069040000AEB40
:105A6000420A2E4602900CE051463046029A14F04B
:105A700033FA069808F10108DA4406EB40060FFAFB
:105A800088F8B4F906004045EEDAB9F1060F0FD1F7
:105A900000224FF4FC60ADF80000114605E035F837
:105AA0001130834200D17A54491C039B9942F6D3AA
:105AB0000DB0BDE8F08FB4F90010B4F9023006FB68
:105AC000031000EB400202EB0A00A288511A491CA5
:105AD0000AB2B11A01EB41010EB2E188C91A491CA0
