:020000040800F2
:1000000090CE00209D0100089B2A0008C124000812
:10001000992A0008A70300088932000800000000A0
:10002000000000000000000000000000412C00085B
:1000300065040008000000009D2A0008432C000809
:10004000B7010008B7010008B7010008B7010008B0
:10005000B7010008B7010008B7010008B7010008A0
:10006000B7010008B7010008B7010008B701000890
:10007000B7010008B7010008B7010008B701000880
:10008000A9030008B7010008B7010008B70100087C
:10009000B7010008B7010008B7010008B701000860
:1000A000B7010008B7010008B7010008B701000850
:1000B000B7010008B7010008ED2C0008B7010008DF
:1000C000B7010008B7010008B7010008B701000830
:1000D000B7010008B701000865320008B701000841
:1000E00067040008B7010008B7010008B70100085D
:1000F000B7010008B7010008B7010008B701000800
:10010000B7010008B7010008B7010008B7010008EF
:10011000B7010008B7010008B7010008B7010008DF
:10012000B7010008B7010008B7010008B5030008CF
:10013000B7010008B7010008B7010008B7010008BF
:10014000B7010008B7010008B7010008B7010008AF
:10015000B7010008B7010008B7010008B70100089F
:10016000B7010008B7010008B7010008B70100088F
:10017000B7010008B7010008B7010008000000003F
:10018000B7010008B7010008DFF80CD000F0CEF886
:1001900000480047112D020890CE002006488047F5
:1001A00006480047FEE7FEE7FEE7FEE7FEE7FEE75C
:1001B000FEE7FEE7FEE7FEE7DD2C00088901000808
:1001C0002DE9F05F0546002092469B46884606468C
:1001D000814640241BE0284641464746224600F01F
:1001E00095F853465A46C01A914110D31146184605
:1001F000224600F07CF82D1A67EB01084F46224694
:100200000120002100F073F817EB00094E41201E79
:10021000A4F10104DFDC484631462A464346BDE8E6
:10022000F09F10B5431A934209D28318881803E04F
:1002300010F8011D03F8011D521EF9D210BD40EA4D
:1002400001039B0703D009E008C9121F08C0042A54
:10025000FAD203E011F8013B00F8013B521EF9D23B
:1002600010BDD2B201E000F8012B491EFBD270474D
:100270000022F6E710B513460A4604461946FFF772
:10028000F0FF204610BD421C10F8011B0029FBD1D5
:10029000801A704710B5002200E0521C835C8C5C11
:1002A000A34201D1002BF8D1D8B2E1B2401A10BD5F
:1002B000034611F8012B00F8012B002AF9D118464A
:1002C000704730B50B46014600202022012409E08A
:1002D00021FA02F59D4205D303FA02F5491B04FAFF
:1002E00002F52844151EA2F10102F1DC30BD202ADE
:1002F00004DB203A00FA02F1002070479140C2F17D
:10030000200320FA03F3194390407047202A04DBAE
:10031000203A21FA02F00021704721FA02F3D0407E
:10032000C2F120029140084319467047064C074D20
:1003300006E0E06840F0010394E8070098471034B5
:10034000AC42F6D3FFF724FFC0170308E0170308F9
:1003500070B58C1810F8015B15F0070301D110F887
:10036000013B2A1106D110F8012B03E010F8016BB4
:1003700001F8016B5B1EF9D12B0705D40023521E37
:100380000DD401F8013BFAE710F8013BCB1A921C9F
:1003900003E013F8015B01F8015B521EF9D5A1429D
:1003A000D8D3002070BDFEE7014800F0CBB90000B3
:1003B0007C040020014800F0C5B9000004030020BF
:1003C00001681823CAB2103AB2FBF3F2054B6FF37F
:1003D0000901032A9B5CC36500D9091D8165084694
:1003E00070470000E27B020810B5014600208B69CF
:1003F0008A6A4FF0C07453B1B3F5005F15D072B183
:10040000012A0CD0022A0AD0032A09D104E01AB129
:10041000012A06D0022A03D1C96AC90100D50120E8
:1004200010BDC96AA142FAD010BD002AF7D0012A36
:10043000F2D0022AF3D0032AF3D010BD30B50468FD
:10044000256825F480252560046863608368402B57
:10045000036803D099600068C26030BD9A6000688C
:10046000C16030BD70474FF4804000F00BBB72B6E6
:10047000FEE79620401E80B2FCD270472DE9F0477F
:100480000122234E8046D70300243946304600F02F
:100490000AFC0025B9467F106006040E002239468A
:1004A000304600F000FCFFF7E4FF012239463046F9
:1004B00000F0F9FBFFF7DDFF4946304600F0E6FBB0
:1004C00008B144F001046D1CEDB2082DE4D3002204
:1004D0003946304600F0E7FBB8F1000F01D00022AA
:1004E00000E001224946304600F0DDFBFFF7C1FF86
:1004F00001223946304600F0D6FBFFF7BAFF002252
:100500003946304600F0CFFB2046BDE8F0870000BA
:100510000010024070B500F04FF8472000F01AF8C4
:1005200000F086F80120FFF7A9FF04460020FFF73E
:10053000A5FF054600F060F845EA042000EE100A29
:100540009FED031AF8EE400A80EE810A70BD0000AC
:100550009A99993F2DE9F041164F054600244FF432
:1005600000484FF4804600223146384600F09BFB9D
:10057000FFF77FFF280601D5012200E00022414657
:10058000384600F090FB6806050EFFF772FF012267
:100590003146384600F087FBFFF76BFF641CE4B27E
:1005A000082CE0D331463846BDE8F041002200F087
:1005B0007ABB00000010024070B501220D4DD4033B
:1005C0002146284600F06FFB01229603314628465B
:1005D00000F069FBFFF74DFF00222146284600F09E
:1005E00062FBFFF746FF31462846BDE87040002217
:1005F00000F059BB0010024070B50C4D4FF40044A0
:1006000000222146284600F04EFB01229103284695
:1006100000F049FBFFF72DFF01222146284600F09C
:1006200042FBBDE87040FFF724BF0000001002400D
:100630002DE9F0410122144DD6030024314628460D
:1006400000F031FBFFF715FF0122970339462846DA
:1006500000F029FBFFF70DFF08E0641CE4B2FA2C60
:1006600004D9FFF7C9FF0120BDE8F08131462846D3
:1006700000F00CFB0028F0D100223946284600F09B
:1006800012FB0020F0E70000001002402DE9F041CD
:100690000446876D00F00CFB064694F835000025F3
:1006A000022806D08020606584F834500120BDE81F
:1006B000F0812068016821F016010160206841691D
:1006C00021F080014161206C08B9A06C20B1206844
:1006D000016821F0080101602068016821F0010132
:1006E00001600CE000F0E4FA801B052807D9202007
:1006F0006065032084F8350084F83450D7E720681B
:100700000068C007EED194F85C103F208840B860C4
:10071000012084F8350084F834500020C7E790F8B1
:100720003510022903D08021416501207047052141
:1007300080F835100068016821F001010160002097
:10074000704700002DE9F84304464FF00009CDF84A
:10075000009063484FF41651A56D0068B0FBF1F7A7
:100760002E6894F85C10082000FA01F131420FD095
:1007700021680A6852070BD50A6822F004020A6051
:1007800094F85C108840A860606D40F001006065DE
:1007900094F85C104FF0010808FA01F0304208D0DC
:1007A00021684969090604D5A860606D40F002001F
:1007B000606594F85C1004208840304208D02168BD
:1007C0000968890704D5A860606D40F00400606581
:1007D00094F85C1010208840304218D021680968D5
:1007E000090714D5A86020680168490304D500688A
:1007F000000308D5A16C07E00168C90503D40168AE
:1008000021F008010160216C09B12046884794F865
:100810005C1020208840304231D021680968C90628
:100820002DD5A86094F8350005282068016806D009
:10083000490347D5006800031DD4616C1CE021F01A
:10084000160101602068416921F080014161206C3E
:1008500008B9A06C20B12068016821F0080101608E
:1008600094F85C103F208840A86084F8358084F8B4
:100870003490216D1FE0E16B09B120468847606D1F
:1008800000282BD0606DC00714D0052084F83500F7
:100890002068016821F0010101600098401C00906F
:1008A000B84203D820680068C007F6D184F83580C4
:1008B00084F83490E16C002910D001B02046BDE8E6
:1008C000F04308470168C905D5D4016821F010013B
:1008D000016084F8358084F83490CCE7BDE8F88373
:1008E000180000202DE9F041044600F0E1F9064629
:1008F0005CB1022084F83500002584F8345020686B
:10090000016821F0010101600DE00120BDE8F081E6
:1009100000F0CEF9801B052805D920206065032052
:1009200084F83500F2E720680068C007F0D122683B
:10093000116820480140D4E901031843D4E9033683
:100940003343184363691843A3691843E3691843A1
:10095000236A18430843616A042903D1D4E90B13BD
:1009600019430843106020684069666A20F0070157
:1009700030460E43012704280CD1A06A0643E06AE2
:1009800040B12046FFF730FD20B14020606584F87B
:100990003570BAE7206846612046FFF711FD94F8EC
:1009A0005C203F2191408160656584F835700020AE
:1009B000ACE700003F8010F02DE9F0410446866D61
:1009C00090F83400002501280DD0012084F834006F
:1009D00094F835700020012F07D084F834000225E8
:1009E0002846BDE8F0810220FBE7022784F8357035
:1009F00060652046FFF722FD94F85C103F20884098
:100A0000B0602068016841F016010160206C20B1DF
:100A10002068016841F0080101602068016841F028
:100A200001010160DCE7000070B5044600F040F908
:100A30000546601C02D004480078044400F038F9F0
:100A4000401BA042FAD370BD0C00002010B54FF43B
:100A50008044A0420AD12146054800F017F9012838
:100A600002D104A002F012FC0548046010BD000091
:100A700000040240BCECB2E2B5BDBBF0D1E60A0016
:100A8000143C0140044910B50A68024202D00860D3
:100A9000FFF7DCFF10BD0000143C01402DE9F84FCA
:100AA000DFF8BCA10022012503264FF00F090AF14F
:100AB000040BAAF1040E00BF0B6805FA02F42340F0
:100AC000A34270D10F7907F00307012F01D0022F45
:100AD00016D187684FEA420806FA08FC27EA0C0795
:100AE000D1F80CC00CFA08FC4CEA070CC0F808C09E
:100AF0004768A7430C79C4F3001494403C43446016
:100B00000C79E443A4070AD0C4684FEA420C06FA01
:100B10000CF7BC438F6807FA0CF72743C7600C79C2
:100B200004F00304022C12D1D40800EB840CDCF88E
:100B300020405707FF0E09FA07F824EA0804D1F805
:100B4000108008FA07F848EA0408CCF82080046806
:100B50004FEA420C06FA0CF7BC430F7907F0030783
:100B600007FA0CF7274307604C6814F4403F70D035
:100B70003C4C276847F480472760246822F003072D
:100B800004F480440094384C07EB040CDCF808486B
:100B900097074FEA177809FA08F7BC43334FB84272
:100BA00002D1002724E054E0314FB84201D101279F
:100BB0001EE0304FB84201D1022719E02E4FB84253
:100BC00001D1032714E02D4FB84201D104270FE0D3
:100BD0002B4FB84201D105270AE02A4FB84201D174
:100BE000062705E0284FB84201D1072700E0082773
:100BF00007FA08F72743CCF80878DAF80040574698
:100C0000D1F804C09C435FEACC2C00D51C433C6067
:100C1000DBF800405F46D1F804C09C435FEA8C2CAF
:100C200000D51C433C60DEF800407746D1F804C094
:100C30009C435FEA8C3C00D51C433C60084F083F56
:100C40003C68D1F804C09C435FEACC3C00D51C430F
:100C50003C60521C102AFFF42FAFBDE8F88F000053
:100C6000083C01404438024000300140000002408E
:100C70000004024000080240000C02400010024044
:100C80000014024000180240001C024000690840A5
:100C900000D001207047426921EA02030A4043EA7A
:100CA0000241816170470AB1816170470904FBE725
:100CB00001488068704700000C00002070B50400F7
:100CC00025D094F83D00002520B984F83C502046FA
:100CD00000F0B4F9242084F83D002068016821F078
:100CE000010101602068016841F400410160206851
:100CF000016821F40041016000F008FB4D4A616881
:100D0000914201D84C4900E04C49884201D201206F
:100D100070BD4B492368B0FBF1F15E6826F03F06D9
:100D20000E435E606368934206D94FF4967359434D
:100D30004FF47A73B1FBF3F12368491C1E6A26F065
:100D40003F06314319626168914210D84900401E44
:100D5000B0FBF1F2521CC2F30B02042A01D20420B0
:100D600022E0B0FBF1F0401CC0F30B001CE0A268D5
:100D7000F2B301EBC10303EB0116431EB3FBF6F321
:100D80005B1C43F480431B0549D092B301EBC102C5
:100D900002EB0111401EB0FBF1F0401CC0F30B0050
:100DA00040F4804040F400402168CA694CF6FF736B
:100DB0009A431043C861D4E90710014320680268D0
:100DC00022F0C00211430160D4E90301014320680D
:100DD000826848F2FF339A4311438160D4E90501E8
:100DE00008432168CA6822F0FF021043C86001E08E
:100DF0000EE016E02068016841F001010160256401
:100E0000202084F83D00256384F83E50002070BD0A
:100E100001EB4106431EB3FBF6F35B1CB3E7012075
:100E2000C2E701EB4101401EB0FBF1F0401CC0F3F2
:100E30000B00B7E7A086010080841E0000093D007A
:100E400040420F002DE9FF4F83B09A46DDE911972C
:100E500093460446DDF84080FFF72AFF054694F8E4
:100E60003D00202870D119230122714920460095A8
:100E700001F0BCFB0028F5D194F83C00012863D0B8
:100E8000012084F83C0020680168C90703D101688B
:100E900041F0010101602068016821F400610160F6
:100EA000222084F83D00402084F83E00002626647D
:100EB000C4F82480A4F82A90608D20855D48E06203
:100EC000CDE9007553465A462046049901F010FBBF
:100ED00000287CD1208DD0B1012821D002282068A3
:100EE00024D0416980690090208D032869D80128A9
:100EF0002BD0514902283B464FF00002009559D0B3
:100F00008846204601F072FB002860D13CE0206852
:100F1000416981690091016841F40071016077E0E5
:100F20002068016821F480610160F0E7016821F424
:100F3000806101602068016841F4006101602068FF
:100F400041698069009063E06FE02A463946204697
:100F500001F0CBFB98BB20680069616A08704EE025
:100F60002068016841F40071016020680069616ACD
:100F70000870606A401C6062218D491E2185618D68
:100F8000491E6185216838E02068016821F480618C
:100F9000016020680069616A0870606A401C6062D4
:100FA000208D401E2085608D401E60853B460022BE
:100FB00041460095204601F019FB00B9D0E706E054
:100FC000FFE72A463946204601F08FFB18B1012081
:100FD00007B0BDE8F08F20680069616A0870606A38
:100FE000401C6062218D491E2185618D491E6185ED
:100FF00021684A69D24352070AD409690170606ABC
:10100000401C6062208D401E2085608D401E6085E2
:10101000208D00287FF468AF202084F83D0084F8FC
:101020003E6084F83C600020D2E70220D0E7000058
:10103000020010000000FFFF0400010010B586B0A0
:10104000044614216846FFF713F9134920688842C3
:1010500020D112480021026842F0020202600068BA
:1010600000F002000590C02000901220CDE901019F
:10107000032003900420049069460948FFF70EFD01
:1010800006481030016841F400110160006800F466
:101090000010059006B010BD0054004030380240EA
:1010A0000004024002488168027811448160704760
:1010B0000C0000200B4810B5016841F4007101607C
:1010C000016841F480610160016841F48071016050
:1010D000032000F06FF80F2000F006F800F024F86D
:1010E000002010BD003C024070B50D4D04464FF489
:1010F0007A712878B1FBF0F00A490968B1FBF0F089
:1011000000F0E0FC48B9102C07D200222146501E06
:1011100000F030F800206C6070BD012070BD000050
:101120000C000020180000200A4808B5016841F4AE
:1011300080410160006800F4804000900548001F75
:10114000016841F080510160006800F0805000901B
:1011500008BD000044380240002809DB00F01F02EF
:10116000012191404009800000F1E020C0F8001109
:1011700070470000F0B40E4B1B680C46C3F302230B
:10118000C3F10705042D00D90425191D072901D233
:10119000002300E0DB1E012606FA05F1491E21406E
:1011A00099409E40761E16403143F0BC02F07EB856
:1011B0000CED00E0064900F0070208684FF6FF0357
:1011C000184040EA0220034A1043086070470000BC
:1011D0000CED00E00000FA052DE9F0470E46050091
:1011E00065D0DFF81481D8F80000F7B200F00700EE
:1011F000B04207D288F80070D8F8000000F007006D
:10120000B04254D128683D4C810712D5400703D520
:10121000206840F4E05020602878000703D520685B
:1012200040F4604020602068A96820F0F000084386
:1012300020602878C0072DD0304968680839012817
:1012400012D0022813D0032811D009688907002979
:101250002DDA216821F0030101432160FFF728FD09
:10126000814641F2883A0EE009688903EFE7096890
:101270008901ECE7FFF71CFDA0EB0901514502D9FC
:101280000320BDE8F0872068696800F00C00B0EB2F
:10129000810FEFD1D8F80010404601F00701B142AC
:1012A00007D90770006800F00700B04201D00120A4
:1012B000E7E72878400705D52068E96820F4E05082
:1012C000084320602878000706D52068296920F4A3
:1012D000604040EAC100206000F038F82168084A08
:1012E000C1F30311515CC840064908600648006814
:1012F000FFF7FAFE0020C4E7003C02400838024035
:10130000EA7B02081800002010000020044805496C
:1013100000680968044AC1F38221515CC8407047E3
:101320001800002008380240FA7B020804480549EA
:1013300000680968044AC1F34231515CC8407047F3
:101340001800002008380240FA7B0208154810B542
:10135000006810F00C02144813D04110042A0FD07A
:10136000082A0ED10F4C241F2268236802F03F0286
:101370005B0207D52068C0F38810A0FB010106E0DE
:10138000084610BD2168C1F38811A1FB00010023AC
:10139000FEF716FF2168C1F30141491C4900B0FB6B
:1013A000F1F010BD083802400024F4002DE9F84F98
:1013B00004006ED02078DFF84C93C007A9F1040533
:1013C0004AD009F104000168C1F38101012908D064
:1013D0000068C0F3810002280AD1D9F80000400259
:1013E00006D52868800337D560680028E1D033E04F
:1013F0006068B0F5803F10D0B0F5A02F286810D0FD
:1014000020F480302860286820F4802028606068FC
:10141000A8B1FFF74DFC06460DE0286840F4803087
:10142000F4E740F480202860F7E700BFFFF740FCB6
:10143000801B642873D828688003F7D50CE0FFF779
:1014400037FC064605E000BFFFF732FC801B64282E
:10145000F0D828688003F7D42078DFF8AC828007C2
:101460004FF0000A3ED5A748001D016811F00C0F8F
:1014700008D00068C0F3810002280BD1D9F8000021
:10148000400207D42868800716D5E068012800D1FB
:1014900012E033E1E068B8B10120C8F80000FFF7BE
:1014A00007FC064605E000BFFFF702FC801B022890
:1014B000C0D828688007F7D52868216920F0F8008F
:1014C00040EAC10028600DE0C8F800A0FFF7F0FB7B
:1014D000064604E0FFF7ECFB801B02281FD82868B3
:1014E0008007F7D42078000722D5864F87486169A6
:1014F000703771B101210160FFF7DAFB064604E0A5
:10150000FFF7D6FB801B022809D838688007F7D57B
:101510000EE0C0F800A0FFF7CBFB064605E082E036
:10152000FFF7C6FB801B02287DD838688007F7D4F8
:101530002078400768D5DFF8CCB100270BF13C0BD1
:10154000DBF80000C0000BD4DBF8001041F0805144
:10155000CBF80010DBF80000012700F0805000906D
:101560006B4E3068C00510D4306840F48070306035
:10157000FFF79EFB009005E0FFF79AFB0099401AE9
:10158000022850D83068C005F6D55E4EA0686C368B
:1015900001280FD00528306810D020F001003060FD
:1015A000306820F004003060A068B8B1FFF780FB1D
:1015B00000900FE0306840F00100F4E740F00400D4
:1015C0003060F7E7FFF774FB0099411A41F2883069
:1015D000814266D830688007F4D50EE0FFF768FBDB
:1015E000009007E0FFF764FB0099411A41F2883050
:1015F000814256D830688007F4D42FB1DBF8001050
:1016000021F08051CBF80010A069C8B33D49091DF5
:101610000968C1F3810102294AD00228504607D047
:10162000C8F8600000E03CE0FFF742FB04463BE006
:101630004746C8F86000FFF73BFB064605E000BFE1
:10164000FFF736FB801B02282BD828688001F7D4CF
:10165000D4E907010843A16A2E4A490802EB014177
:10166000626A41EA8211084394F82C1040EA016151
:10167000C9F8001001203866FFF71AFB044606E09F
:101680003EE000BFFFF714FB001B022809D82868C2
:101690008001F7D534E000BFFFF70AFB001B0228EA
:1016A00002D90320BDE8F88F28688001F4D427E030
:1016B0000128F7D0D9F80000E26900F480019142D6
:1016C0001CD1226A00F03F01914217D147F6C07148
:1016D000626A0140B1EB821F10D1A26A4FF0FF3362
:1016E00000F4403103EB5202B1EB024F06D194F803
:1016F0002C1000F07060B0EB016F01D00120D1E739
:101700000020CFE70438024000004742800E4742E5
:10171000007000400000FFFF704790F851007047D4
:1017200070B5040009D0606A002540B1256165618B
:10173000A56294F8510040B10CE0012070BD6068D2
:10174000B0F5827FF4D0E561F2E784F8505020468E
:1017500000F044F8022084F851002068016821F06C
:1017600040010160A088218900F4827001F40441E5
:101770000843A18901F400610843217C01F00201C2
:101780000843217D01F001010843218B01F4007120
:101790000843217F01F03801084394F8201001F03C
:1017A00080010843218D01F400510843216808603D
:1017B000A069042101EA104094F8241001F01001FE
:1017C0000843216848602068C16921F40061C16153
:1017D0006565012084F85100002070BD70B586B0A9
:1017E000064614216846FEF743FD204930688842CA
:1017F00039D11F480025016841F48051016000681B
:1018000000F4805005901A481438016841F0010135
:1018100001600068694600F001000590A02000907A
:101820000220CDE901050320039005200490114812
:10183000FFF734F9114C104820604FF0C060606031
:101840004020C4E902050001C4E90405C001A56106
:10185000C4E9075020466562FFF744F808B1FEF777
:1018600006FEB464A66306B070BD000000300140FF
:101870004438024000000240586402400403002043
:101880002DE9F84F044690F8500000271D461646F3
:10189000894601280DD04FF0010B84F850B0FFF7B6
:1018A00007FA804694F85100BA46012804D002276E
:1018B00093E00220BDE8F88FB9F1000F73D0002E3D
:1018C00071D0032084F85100C4F854A0C4F83090BB
:1018D000A686E686C4F838A0A4F83CA0A4F83EA0EA
:1018E000C4F844A0C4F840A0A068B0F5004F09D1E6
:1018F0002068016821F0400101602068016841F41E
:101900008041016020680168490603D4016841F004
:1019100040010160E068B0F5006F606803D030B34B
:10192000012E24D041E008B1012E1CD1206B21688A
:101930000088C86006E020688168890709D5216BA6
:101940000988C160206B801C2063E08E401EE08609
:1019500009E0FFF7ADF9A0EB0800A84202D3681C2C
:1019600001D031E07DB3E08E0028E4D120E0206B8F
:1019700021680078087306E020688168890709D526
:10198000216B09780173206B401C2063E08E401EA0
:10199000E0860AE0FFF78CF9A0EB0800A84203D329
:1019A000681C02D010E017E06DB1E08E0028E3D192
:1019B00042462946204601F0BBF808B12020606568
:1019C000A06818B106E0FFE7032706E02068C168B9
:1019D00080680090606D00B1012784F851B084F8F0
:1019E00050A0384666E700002DE9F041044690F823
:1019F00050000026012809D0012784F8507094F87F
:101A000051000025012804D002264EE00220BDE846
:101A1000F08189B182B1032084F8510065652163AA
:101A2000A286E286A56365642564A587E587A0682C
:101A3000B0F5004F02D00BE0012636E020680168C7
:101A400021F0400101602068016841F4804101609B
:101A5000A16C18480864A16C1748C863A16C1748AA
:101A6000C864A06C0565E38E2268216B0C32A06C03
:101A7000FEF7A2FF38B1606D40F0100060650126EE
:101A800084F8517011E020680168490603D40168A8
:101A900041F0400101602068416841F0200141604F
:101AA0002068416841F00201416084F8505030469E
:101AB000ADE70000C12A0008CB2A00089F2A0008D1
:101AC0007047704710B5401EB0F1807F01D30120F0
:101AD00010BD4FF0E02460610F21601701F0E6FBBC
:101AE0000020A06107202061002010BD70477047D2
:101AF00070B590F83C20012A32D0012480F83C4097
:101B0000022280F83D2003685A689D6822F0700622
:101B10000A6832435A60134B02689A4214D0B2F1F9
:101B2000804F11D0104B9A420ED0104B9A420BD0DE
:101B30000F4B9A4208D00F4B9A4205D00E4B9A4257
:101B400002D00E4B9A4204D1496825F08003194314
:101B5000916080F83D40002180F83C10084670BD3F
:101B6000022070BD00000140000400400008004059
:101B7000000C0040000401400040014000180040FB
:101B800010B5040003D094F83D0010B107E0012027
:101B900010BD002084F83C00204600F01FF8022011
:101BA00084F83D00211D206801F0A6F8012084F88A
:101BB000460084F83E0084F83F0084F8400084F832
:101BC000410084F8420084F8430084F8440084F81B
:101BD000450084F83D00002010BD000008B5114A02
:101BE00001681148914211D1016841F0040101607E
:101BF0000068002200F00400009001211E20FFF781
:101C0000B9FABDE808401E20FFF7A6BA074A91427C
:101C100007D1016841F008010160006800F0080088
:101C2000009008BD0008004040380240000C004011
:101C300090F83D10012901D001207047022180F861
:101C40003D100168CA6842F00102CA60006811498B
:101C5000884214D0B0F1804F11D00F4988420ED085
:101C60000E4988420BD00E49884208D00D4988425F
:101C700005D00D49884202D00C49884204D18168C0
:101C800001F00701062903D0016841F0010101605C
:101C900000207047000001400004004000080040A0
:101CA000000C0040000401400040014000180040CA
:101CB00070B5044690F83C000025012817D0012695
:101CC00084F83C60022084F83D002068826822F09D
:101CD000770222F47F4282600868502838D00DDCF9
:101CE00020284FD005DC90B3102811D14AE0022003
:101CF00070BD302846D040280AD13BE060282FD064
:101D000070280DD0B0F5805F03D0B0F5005F12D021
:101D1000012584F83D60002084F83C00284670BD11
:101D2000CB68D1E90121206801F04AF82068816878
:101D300041F0770109E0CB68D1E90121206801F089
:101D40003FF82068816841F480418160E1E719E053
:101D5000CA684968206801F045F85021206806E00B
:101D6000CA684968206801F04EF86021206801F0D7
:101D700031F8CEE7CA684968206801F033F840219D
:101D80002068F4E7226801461046F0E7704770B516
:101D90000446006801694FF00005C943890715D45E
:101DA000C168C943890711D4E91E01610120207768
:101DB000206880698007204602D0FFF7E7FF04E033
:101DC00000F098F8204600F096F825772068016921
:101DD000C943490717D4C168C943490713D46FF0F1
:101DE00004010161022020772068806910F4407F9F
:101DF000204602D0FFF7CAFF04E000F07BF820463F
:101E000000F079F8257720680169C943090716D4DD
:101E1000C168C943090712D46FF0080101610420A9
:101E200020772068C0698007204602D0FFF7AEFF08
:101E300004E000F05FF8204600F05DF825772068A8
:101E40000169C943C90617D4C168C943C90613D477
:101E50006FF010010161082020772068C06910F43C
:101E6000407F204602D0FFF791FF04E000F042F8E7
:101E7000204600F040F8257720680169C943C9076A
:101E800008D1C168C943C90704D1891E0161204630
:101E900000F032F820680169C943090609D4C16815
:101EA000C943090605D46FF0800101612046FFF7A0
:101EB0001DFE20680169C943490609D4C168C943A8
:101EC000490605D46FF040010161204600F038F862
:101ED00020680169C94389060BD4C168C9438906D2
:101EE00007D46FF0200101612046BDE87040FFF784
:101EF000FEBD70BD7047704770B500680D498842DF
:101F000016D10D4C00256068401C6060B0F57A7FEA
:101F100004D1042109486560FEF7BDFE2078401C0D
:101F2000C0B22070052803D3052020F0CDF925701C
:101F300070BD0000000800400000002000040240C6
:101F40007047704710B504460068406994F83D102A
:101F5000C0F3C010212911D180B12068143050E89D
:101F6000001F21F0800140E80012002AF5D1606BCB
:101F700008B1FEF78BFB204600F0F9FF20684069AE
:101F800094F83E10C0F38010222911D180B120684E
:101F9000143050E8001F21F0400140E80012002AF0
:101FA000F5D1A06B08B1FEF771FB204600F0B8FF39
:101FB000002010BD70470000F8B5016804460868AD
:101FC000CA684B6910F00F0F4FF0000559D003F0AD
:101FD000010602F49077374365D0C10705D0D105DB
:101FE00003D5216C41F001012164410705D5D907D2
:101FF00003D0216C41F002012164810705D5D90786
:1020000003D0216C41F004012164010707D502F0DF
:102010002001314303D0216C41F008012164216C7F
:1020200000293AD0800604D5900602D5204600F05B
:10203000ACFF20684069216CC0F38010090700D410
:1020400060B3204600F06CFF20684069400621D54F
:102050002068143050E8001F21F0400140E80012D1
:10206000002AF5D1A06BA8B16C490165A06BFEF701
:1020700056FB002811D0A06B016D01B0BDE8F04007
:10208000084783060FD593060DD52046BDE8F840D6
:1020900000F07BBF2046FFF78DFFF8BD2046FFF71D
:1020A00089FF2564F8BD266B2023012E79D1C60651
:1020B00077D5D60675D50868486800904869400607
:1020C00040D5A16B086840680004000CEAD0A28DDE
:1020D0008242E7D9E085C869B0F5807F2DD02068BD
:1020E0000C3050E8001F21F4807140E80012002AF3
:1020F000F5D12068143050E8001F21F0010140E8BC
:102100000012002AF5D12068143050E8001F21F099
:10211000400140E80012002AF5D184F83E302563E2
:1021200020680C3050E8001F21F0100140E8001238
:10213000002AF5D1A06BFEF7A9FAA08DE18D401A17
:1021400081B229E0A08DE18D401A81B2E08D002896
:10215000A8D00029A6D020680C3050E8002F22F427
:10216000907240E80026002EF5D12068143050E827
:10217000002F22F0010240E80026002EF5D184F85D
:102180003E30256320680C3050E8002F22F010020A
:1021900040E80023002BF5D12046FFF7D2FEF8BD22
:1021A000FFE705062BD5150629D594F83D00212813
:1021B000F5D1A068B0F5805F01D12069B0B1206A87
:1021C000411C2162216800784860E08C401E0004B8
:1021D000000CE084E3D12068C16821F08001C16077
:1021E0002068C16841F04001C160D8E7206A0088DA
:1021F000C0F308004860206A801C2062E5E74006C2
:10220000CDD55006CBD5CA68204622F04002CA6020
:1022100084F83D3000F053F9C1E700002B2E000890
:1022200038B5134A0168914220D10A6800244968F0
:102230000091FFF787FE0F4800684068C0F5007006
:102240000004000C06D00C490C54A1F80002012037
:1022500081F804024FF400720749084800F0BEF804
:10226000002803D0BDE83840FEF701B938BD0000B2
:10227000004400407C040020DC04002038040020DE
:1022800070B5040004D094F83D00002510B106E0BC
:10229000012070BD84F83C50204600F023F8242033
:1022A00084F83D002068C16821F40051C1602046D7
:1022B00000F0CCFE2068016921F4904101612068A2
:1022C000416921F02A0141612068C16841F400514F
:1022D000C1602564202084F83D0084F83E00002081
:1022E00070BD0000F0B587B0064614216846FDF7C2
:1022F000BFFFDFF8D0C03068002533490222032336
:102300000727324C60451CD12F481430066846F030
:1023100010060660006800F010000590086840F0A4
:10232000010008600868694600F001000590580245
:102330008DE82500CDE903372046FEF7AFFB07B057
:10234000F0BDDFF88CC06045F9D11F481030D0F8DF
:1023500000C04CF4003CC0F800C0006800F400303D
:102360000590086840F0010008600868694600F0C0
:10237000010005900C208DE82500CDE903372046AB
:10238000FEF78CFB144C134820604FF00060C4E94A
:1023900001054014C4E903506561A561E56125624A
:1023A00020466562FEF79EFA08B1FEF760F8B46356
:1023B000002211462620A663FEF7DCFE2620FEF74B
:1023C000CBFEBCE700100140303802400000024064
:1023D00000440040886002407C04002090F83E30B9
:1023E000202B0ED159B152B190F83C30012B08D0BE
:1023F000012380F83C300023036300F0ADBE0120D0
:102400007047022070477047704700002DE9F8437D
:10241000044690F83D001F4616460D4620284CD134
:10242000C5B1BEB194F83C00012846D0012084F823
:102430003C004FF00008C4F84080212084F83D00A3
:10244000FEF736FCA6848146E684A068B0F5805F7E
:1024500003D004E00120BDE8F883206928B12E46AE
:102460005FF0000584F83C800EE00026FAE780214A
:10247000204600F0BBFEA0B9AEB116F8010B2168F2
:102480004860E08C401EE084E08C4B464FF0000238
:1024900000970028EBD14FF04001204600F0A6FE47
:1024A00030B10320D7E735F8020BC0F30800E6E7A8
:1024B000202084F83D000020CDE70220CBE77047C4
:1024C000FEE701684A69D24352050FD46FF4806277
:1024D0004A61002140F8301F202242738173026953
:1024E00042F004020261017301207047002070472E
:1024F0002DE9F84F0446006889460B9D016898460F
:10250000174641F4806101602068016841F48071E0
:10251000016000954FF0011B0022594620460A9B9E
:1025200000F064F84FF4007A40B120680068C005FC
:1025300001D5C4F840A00320BDE8F88F216809F058
:10254000FE0008612B46284920460A9A00F082F8CE
:10255000F0BB20684169806900902A4620460A99AC
:1025600000F0F6F840B1206C04283AD120680168E8
:1025700041F40071016034E0FEB2B8F1010F09D0FE
:102580002168380A08612A4620460A9900F0E0F8D6
:102590000028E8D1206806612A4620460A9900F002
:1025A000D7F80028DFD12068016841F4807101600C
:1025B00000950022594620460A9B00F017F8002893
:1025C000B3D1216809F0FF0040F00100086100E08C
:1025D00007E02B46044920460A9A00F03BF8002801
:1025E000AAD00120A8E70000020001002DE9F04771
:1025F0001E4690460D460446C1F30747DDF820907D
:1026000008E0701C06D0FEF753FBA0EB0900B042B7
:102610000FD876B12068012F18D0806925EA000014
:102620000004000C14D000214145EAD00020BDE890
:10263000F087002044F8300F20216173A0732169D6
:1026400041F02001216120730120F0E74069E5E7B6
:102650000121E9E72DE9F0479A4691460E460446E6
:1026600000254FF02008C1F3074725E020684069A6
:10267000C043400514D42068016841F40071016032
:1026800021686FF480604861256384F83D8084F898
:102690003E50206C40F00400206484F83C501FE061
:1026A000B9F1FF3F08D0FEF703FBA0EB0A01494553
:1026B0000CD8B9F1000F09D02068012F13D0806920
:1026C00026EA00000004000C0BD0CFE744F8305F8E
:1026D00084F80D80A573206940F0200020612573E7
:1026E0000120BDE8F0874069EAE72DE9F0410025C7
:1026F00090460E460446202717E04069C043C006B6
:102700000CD454F8301B6FF01000486144F8105995
:102710006777A577206A2062257717E0FEF7C8FA69
:10272000A0EB0800B04208D83EB120684169C94317
:102730004906E2D40020BDE8F08144F8305F6773B9
:10274000A573206940F02000206125730120F2E785
:1027500070B516460D4604460DE02046FFF7B1FE63
:1027600008B1012070BD681C05D0FEF7A1FA801BDE
:10277000A84207D835B120684069C0430006ECD4B0
:10278000002070BD002044F8300F20216173A07339
:10279000216941F0200121612073E2E7114808B569
:1027A000016841F480010160016801F48001009139
:1027B000016841F4001101600068002200F400107B
:1027C000009011461020FEF7D5FC1020FEF7C4FC47
:1027D000002211463B20FEF7CDFCBDE808403B201F
:1027E000FEF7BABC30380240F0B587B01421684615
:1027F000FDF73EFD34480024016841F0800101608E
:10280000016801F080010591016841F0010101605A
:10281000016801F001010591016841F002010160C8
:10282000016801F002010591016841F010010160A9
:102830000068264E00F01000059001220421304669
:10284000FEF731FA224F012280213846FEF72BFA9B
:102850000022B1143846FEF726FA00224FF47051D8
:102860003046FEF720FA43F6044000900125CDE9FA
:102870000154694630460394FEF710F94FF4845032
:102880000090CDE90154694638460394FEF706F9F5
:102890004FF460608DE8310069463846FEF7FEF877
:1028A000A80300904FF48810CDE901046946304632
:1028B000FEF7F4F8002201212820FEF75BFC282017
:1028C000FEF74AFC07B0F0BD303802400004024079
:1028D000001002400D4810B50B4901600C494160E1
:1028E00000214FF480428160C0E90312416181619F
:1028F000C1610162FEF7E2F9002803D0BDE8104093
:10290000FDF7B5BD10BD0000005400405802002086
:10291000A0860100104810B50E4901604FF4827185
:10292000416000218160C1604FF400720161C0E923
:1029300005121022C0E90721416281620A21C162A9
:10294000FEF7EEFE002803D0BDE81040FDF78FBD76
:1029500010BD000000300140AC02002010B586B070
:10296000002417480094019402940394049413499A
:10297000059401605321C0E901144FF47A71C0E954
:1029800003148461FFF7FCF808B1FDF770FD4FF404
:102990008050009069460A48FFF78AF908B1FDF7B0
:1029A00066FD049404A906480594FFF7A1F80028E1
:1029B00001D0FDF75CFD06B010BD0000000800402E
:1029C0006403002010B586B00024164800940194DA
:1029D0000294039404941249059401605321C0E9C0
:1029E0000114611EC0E903148461FFF7C9F808B13E
:1029F000FDF73DFD4FF48050009069460948FFF710
:102A000057F908B1FDF733FD049404A9054805946E
:102A1000FFF76EF8002801D0FDF729FD06B010BDC4
:102A2000000C0040AC0300200C4810B50A490160BE
:102A30004FF4E1314160002181600C22C160C0E9A6
:102A400004128161C161FFF71BFC002803D0BDE8BF
:102A50001040FDF70CBD10BD00100140F403002034
:102A60000C4810B50A4901604FF4E1314160002182
:102A700081600C22C160C0E904128161C161FFF76D
:102A8000FFFB002803D0BDE81040FDF7F0BC10BDEF
:102A90000044004038040020FEE7FEE7704710B510
:102AA000806B01684A6822F003024A60416D41F080
:102AB00010014165012180F85110FEF72DFE10BD77
:102AC00010B5806BFEF7FDFF10BD38B50546846B71
:102AD000FEF7EEF8024628680068C00523D4206897
:102AE000416821F0200141602068416821F0020125
:102AF00041606421204600F01BF818B1606D40F081
:102B000020006065A068002118B92068C26880684C
:102B10000090E186012084F85100606D18B12046D4
:102B2000FEF7FAFD38BD2046FEF7CAFF38BD0000AB
:102B300038B504461248134B0068B0FBF3F04FF46D
:102B40007A73584300906068B0F5827F0DD10B46D0
:102B5000009200228021204600F016F870B1606DCE
:102B600040F020006065032038BD009830B1401E61
:102B7000009020688068C0430006F6D5002038BD6C
:102B80001800002000366E012DE9F8431E469146DC
:102B900088460446089DFEF78BF8401B351AFEF761
:102BA00087F8074625480068C0F3CB30684338E013
:102BB000701C37D0FEF77CF8C01BA84203D215B1B9
:102BC000009860B32CE02068416821F0E00141608A
:102BD0006068B0F5827F0BD1A068B0F5004F02D0DD
:102BE000B0F5806F04D12068016821F040010160D8
:102BF000A06AB0F5005F09D12068016821F4005196
:102C000001602068016841F400510160012084F8EE
:102C10005100002084F850000320BDE8F88300250F
:102C2000401E00902068816838EA010004D000212D
:102C30004945BDD10020F0E70121F9E71800002047
:102C40007047FEF72FBA000030B593B030216846C8
:102C5000FDF70EFB14210CA8FDF70AFB1D4800250B
:102C6000016841F080510160006800F080501190CF
:102C70001948016841F4804101600068022400F4B1
:102C80008040119001200090000401908001CDE966
:102C9000064008AA0420A82182E813000B90684689
:102CA000FEF784FB08B172B6FEE70CA90F2081E89D
:102CB00031004FF4A0500F904FF480501090052138
:102CC0000CA8FEF789FA002801D072B6FEE713B00F
:102CD00030BD0000403802400070004002480168EA
:102CE00041F470010160704788ED00E00148FFF792
:102CF0004EB8000064030020F0B50268254C264D54
:102D0000264E274F274B4FF0804CA04209D06045FC
:102D100007D0A84205D0B04203D0B84201D09842B3
:102D200004D122F0700E4A6842EA0E02A0421BD083
:102D3000604519D0A84217D0B04215D0B84213D080
:102D4000984211D0184DA8420ED0184DA8420BD071
:102D5000174DA84208D0174DA84205D0164DA842DD
:102D600002D0164DA84203D122F44075CA682A4306
:102D70004D6922F080022A4302608A68C2620A68B2
:102D80008262A04201D0984201D109690163012108
:102D90004161F0BD00000140000400400008004017
:102DA000000C00400004014000400140004401408C
:102DB0000048014000180040001C00400020004076
:102DC00010B5846842EA032224F47F440A43224374
:102DD000826010BD826822F070020A4342F007014F
:102DE0008160704710B5036A046A24F0010404622C
:102DF000846924F0F00444EA021423F00A020A432E
:102E00008461026210BD10B5036A23F010030362EF
:102E10008369046A23F4704343EA023224F0A00376
:102E200043EA01118261016210BD10B5806B00217F
:102E3000C185C184FFF7BEF810BD70B5846B2068F2
:102E4000406994F83D10C0F3C0100025212904D139
:102E500018B1E584204600F08AF82068406994F8AB
:102E60003E10C0F38010222904D118B1E585204618
:102E700000F056F8206C40F0100020642046FFF768
:102E800099F870BD10B50146806B09680968C905DD
:102E90002FD40021C18501680C3151E8002F22F4A4
:102EA000807241E80023002BF5D10168143151E80C
:102EB000002F22F0010241E80023002BF5D1016828
:102EC000143151E8002F22F0400241E80023002B8A
:102ED000F5D1202180F83E10016B012909D101684C
:102EE0000C3151E8002F22F0100241E80023002BA2
:102EF000F5D1016B012902D0FFF785FA10BD818D54
:102F0000FFF71FF810BD10B5806B016B012902D0CF
:102F1000FFF77AFA10BD818D4908FFF712F810BD4E
:102F200001680C3151E8002F22F4907241E800232F
:102F3000002BF5D10168143151E8002F22F0010275
:102F400041E80023002BF5D1016B012909D101686B
:102F50000C3151E8002F22F0100241E80023002B31
:102F6000F5D1202180F83E100021016370470168EF
:102F70000C3151E8002F22F0C00241E80023002B61
:102F8000F5D1202180F83D10704708B590F83E102B
:102F9000222901D0022008BD82684FF480539A4252
:102FA00001D1016921B1816A9A421BD04AB10AE07C
:102FB0000268816A5268C2F308020A80816A891C29
:102FC00008E0026972B10268526802F07F020A707A
:102FD000816A491C8162C18D491E0904090CC185A1
:102FE00003D019E002685268F1E70168CA6822F06C
:102FF0002002CA600168CA6822F48072CA6001684F
:103000004A6922F001024A61202180F83E10016BDA
:10301000012903D0FFF7F7F9002008BD0021016363
:1030200001680C3151E8002F22F0100241E8002322
:10303000002BF5D101680A68D20602D50A684968F2
:103040000091818DFEF77DFFE6E7000070B5044634
:1030500000680169E26821F440511143016121696E
:10306000A068E26908436169114308432168CA689E
:1030700049F20C639A430243CA6020684169A2691D
:1030800021F440711143416131492068884202D0E6
:103090003049884202D1FEF749F901E0FEF736F9DE
:1030A000E2690023192164253226B2F5004F6268D7
:1030B00028D0A0FB0101930F9200FDF781F8014693
:1030C000B0FBF5F06FF01802504301EB800006EB07
:1030D0000010B0FBF5F000F0F002B1FBF5F002EBF0
:1030E0000012B1FBF5F06FF01803584301EB8000BC
:1030F00006EB0010B0FBF5F000F00F002168104463
:10310000886070BDA0FB010192185B41FDF758F883
:103110000146B0FBF5F00201B1FBF5F06FF01803CA
:10312000584301EB800006EBC000B0FBF5F000F067
:10313000F80002EB4002B1FBF5F0584301EB8000D0
:1031400006EBC000B0FBF5F000F00700D6E700008A
:10315000001001400014014038B5816282850025CD
:10316000134604460564222084F83E00A26B1C48E6
:10317000D063A26B1B481064A26B1B48D064A06B89
:103180000A4605652168A06B091DFDF715FC20683E
:1031900001684068009084F83C50206948B120687C
:1031A0000C3050E8001F41F4807140E80012002A02
:1031B000F5D12068143050E8001F41F0010140E8CB
:1031C0000012002AF5D12068143050E8001F41F0A9
:1031D000400140E80012002AF5D1002038BD00006F
:1031E000852E0008072F00083B2E00082DE9F0412E
:1031F000984617460E460446069D27E0681C25D0D3
:103200002DB1FDF755FDA0EB0800A8421ED920689E
:103210000C3050E8001F21F4D07140E80012002A61
:10322000F5D12068143050E8001F21F0010140E87A
:103230000012002AF5D1202084F83D0084F83E00D9
:10324000002084F83C000320BDE8F081206800687D
:1032500036EA000004D00020B842CFD00020F3E7C7
:103260000120F9E7074810B500680068C043C006B0
:1032700002D40448FEF7D4FFBDE810400148FEF731
:103280009BBE000038040020FEE700000FB4054B91
:1032900010B503A9044A029801F01CFD10BC5DF8AA
:1032A00014FB000021F000084C0200200907090E61
:1032B000002804DB00F1E02080F80014704700F0E3
:1032C0000F0000F1E02080F8141D704702E008C8EC
:1032D000121F08C1002AFAD170477047002001E090
:1032E00001C1121F002AFBD1704770B504460025AA
:1032F0006FF02F0608E02068411C2160007805EB84
:10330000850106EB410145182068007800F004F8BB
:103310000028F0D1284670BD3038092801D8012096
:10332000704700207047000010B54421074800F0A6
:1033300085FF00220A2106481FF020F8054CA060F6
:1033400002F036F90020207010BD0000C4340020C7
:1033500065560008B40100202DE9F0470E4681466D
:1033600017461146304600F01CF94FF0FF3A00288E
:103370007DD000223946304600F0BFF800284FF0DB
:10338000000075D1B6F90480B6F900305246A8EBBA
:103390000301491C0AFA81F10FFA81FAB6F906C055
:1033A000B6F90210ACEB010C0CF1010C02FA8CF234
:1033B000B7F802C012B2ACEB010C0FFA8CFCBCF1F6
:1033C000000F0EDD63F30F0468F30F0501EB0C0033
:1033D00061F31F4460F31F45C9F800400120C9F89C
:1033E0000450B7F906107388CB1AD21A12B2002A09
:1033F00013DDB6F9063099420FDA338863F30F0410
:10340000B38861F31F4463F30F05114461F31F4553
:1034100009EBC001401C0C604D60B7F90220B6F901
:1034200002108A4200DD1146B7F90630B6F90620CF
:10343000934200DA1A463B88B6F900C0521AA3EB51
:103440000C031BB212B2002B10DD002A0EDD634408
:1034500063F30F058B1863F31F456CF30F0409EB3F
:10346000C00361F31F441C605D60401C01E01AE072
:1034700017E0B7F9043036889F1BAAEB070636B26F
:10348000002E0EDD63F30F0461F31F44334463F336
:103490000F05114461F31F4509EBC001401C0C608E
:1034A0004D60BDE8F0875046FBE770B5B1F90030DC
:1034B000B2F90040A34200DC23460380B1F9025078
:1034C000B2F90240A54200DD2C464480B1F9046007
:1034D000B2F90450AE4200DA35468580B1F90610E3
:1034E000B2F90620914200DB1146C1800120AB42B7
:1034F00001DC8C4200DD002070BDF8B50D460446AD
:10350000B0F90000B1F900101646884247DBB4F963
:103510000210B5F90220914241DBB4F90410B5F96B
:10352000042091423BDCB4F90610B5F90620914223
:1035300035DC96B3ADF800006088ADF80200324685
:103540006946284600F099F8002827D0A088ADF8F1
:1035500000006088ADF8020032466946284600F057
:103560008CF800281AD02088ADF80000E088ADF86B
:10357000020032466946284600F07FF800280DD048
:10358000A088ADF80000E088ADF802003246694638
:10359000284600F072F8002800D00120F8BD002075
:1035A000F8BDB0F90020B1F904309A4213DCB0F94B
:1035B0000420B1F900309A420DDBB0F90220B1F9D4
:1035C00006309A4207DCB0F90600B1F902108842D1
:1035D00001DB0120704700207047F8B50D46044616
:1035E000B0F90400B1F900101646884243DBB4F983
:1035F0000600B5F9021088423DDBB4F90000B5F9C8
:103600000410884237DCB4F90210B5F90620914263
:1036100031DC76B3ADF800006088ADF802003246C8
:103620006946284600F029F818BBA088ADF80000CC
:103630006088ADF8020032466946284600F01DF861
:10364000B8B92088ADF80000E088ADF80200324635
:103650006946284600F011F858B9A088ADF8000076
:10366000E088ADF8020032466946284600F005F8C9
:1036700008B10020F8BD0120F8BD2DE9FC41144639
:103680000E46B1F90020B0F9001005468A423ADB37
:10369000B5F90400824236DCB6F90270B5F90220B1
:1036A000974230DBB5F906309F422CDC002C75DDEB
:1036B000401A9A1A401C521C00B212B200EBD07091
:1036C00002EBD27240105210904200DB104684424E
:1036D00000DD0446ADF80010288800222044ADF833
:1036E00004006888ADF80200688831462044ADF8CF
:1036F00006006846FFF7C1FF40B1BDF80400204452
:10370000ADF804003FE00020BDE8FC81E88800221D
:10371000001BADF80200E888ADF8060031466846A7
:10372000FFF7ABFF28B1BDF804002044ADF804005A
:1037300011E0A8880022001BADF80000A888ADF8B1
:10374000040031466846FFF798FF50B1BDF800000D
:10375000001BADF80000BDF80200001BADF8020030
:1037600016E06888ADF80200688800222044ADF8B1
:10377000060031466846FFF780FF70B1BDF80000D3
:10378000001BADF80000BDF806002044ADF80600AF
:10379000314668461CF0BAFAB6E7FFE70120B3E706
:1037A00010B5B1F90040B2F900309C4200DA23466E
:1037B0000380B1F90240B2F902309C4200DA23469C
:1037C0004380B1F90440B2F904309C4200DD234645
:1037D0008380B1F90610B2F90620914200DC11464F
:1037E000C18010BD2DE9F0418AB007461EF062FD90
:1037F0000026A34C054600960FB1F86801E011F0D1
:1038000075FB606000691CF07DF96068406908B173
:103810001CF078F96068C0691CF074F96068006A8F
:103820001CF070F96068016991B11CF01DFB20F07B
:10383000D5FD20F0FBFA6068B0F85011E9B30068DC
:10384000017CC9071FD0C0684068E0B1002715E0BF
:10385000A0F850610AB0BDE8F081C11991F83011AB
:1038600051B900F5AC7000F040FD616801EBC70193
:103870000A6B0260496B41607F1CBFB26068B0F8A0
:103880005011B942E9D860684FF48071303017F0B8
:10389000DDFD6068202100F5987017F0D7FD6068A5
:1038A000A0F8506128461EF0FFFC00906068006898
:1038B000436A13B122680099984717F00BFC00F097
:1038C0002BF900F0FDF86F4D6F69D7BB17F0B3F916
:1038D00016F0ACFA074600227F211CF028F810F001
:1038E00019FD0146002238461CF010F810F065FF63
:1038F0000146002238461CF06FF8002203213846AA
:103900001CF060F80022032138461CF04CF800221D
:10391000032138461CF04CF80022032138461CF0E5
:103920004CF80022032138461CF051F856A13846C5
:1039300017F002F900231A460621384618F072F9EA
:103940006F6128681EF0B0FC4FF4967840450CD2A9
:10395000206841F28831884234D969680098084467
:103960006860A868401CA8602CE01EF0A3FC2860DA
:103970006068406828B100684FF47A71B1FBF0F0DC
:1039800000E06420696809B901216960A968F1B1A2
:103990004FF47A7251436A68B1FBF2F46E60AE6024
:1039A000844200D90446286920442861E868401C04
:1039B000E8601EF015FDC0F16403224633A13846CD
:1039C00017F0F1F82E4D08356C6814B137E0044655
:1039D000E4E717F030F916F029FA044600227F21B7
:1039E0001BF0A5FF10F096FC0146002220461BF0BC
:1039F0008DFF10F0E2FE0146002220461BF0ECFF96
:103A00000022032120461BF0DDFF00220321204677
:103A10001BF0C9FF0022032120461BF0C9FF002232
:103A2000032120461BF0C9FF17A1204617F084F898
:103A300000231A460421204618F0F4F86C60286828
:103A40001EF032FC40457FF605AF1EF033FC2860C7
:103A500002A817F0D7FB04990298401A820A514233
:103A600000EB81206621B0FBF1F39DF821109DF859
:103A70002000CDE9000109A1204617F094F8E9E6FD
:103A800064000020303300203F00000025752046F0
:103A900050530A25752525204350550025752E25A0
:103AA00075206B42207573656420282564202525C8
:103AB000290A2564252520667261672E0000000012
:103AC00070B50A4D002400BFC4EBC40655F82600AB
:103AD00008B117F073FB05EB86001C2117F0B6FC4C
:103AE000641CE4B2042CEFD370BD0000A0350020AC
:103AF000084949680AE04A68824202D00A6882425C
:103B000003D10A7E42F001020A7649690029F2D106
:103B10007047000038000020704700000421014871
:103B200000F08CBBB83400202021014800F086BB97
:103B3000D03400202DE9FF410446DDE90A671D006D
:103B40004FF0000002D1B6F5807F2BD0039001909A
:103B50000290ADF80C100090ADF80410ADF80A20FA
:103B6000ADF80E203B463246294668461CF02EF83A
:103B70003B463246294601A81CF028F83B4632460F
:103B8000294602A81CF022F83B463246294603A8E3
:103B90001CF01CF8BDF90000BDF90430984209DAA8
:103BA000054608E02080491E6080A180521EE28008
:103BB000BDE8FF811D46BDF90820BDF90C108A4201
:103BC00001DA164600E00E46B54203DA984206DBFB
:103BD000184604E08A4201DA104600E00846801EDA
:103BE0002080BDF90030BDF90420934201DD1D465F
:103BF00000E01546BDF90800BDF90C10884201DD52
:103C0000064600E00E46B54205DD934201DD194649
:103C100004E0114602E0884200DD0146891CA180D3
:103C2000BDF90230BDF90620934201DA1D4600E0DD
:103C30001546BDF90A00BDF90E10884201DA0646A4
:103C400000E00E46B54205DA934201DA194604E077
:103C5000114602E0884200DA0146891E6180BDF902
:103C60000230BDF90620934201DD1D4600E01546F5
:103C7000BDF90A00BDF90E10884201DD064600E0DC
:103C80000E46B54205DD934201DD194604E01146BA
:103C900002E0884200DD0146891CE18088E70000DF
:103CA0002DE9F04115460E460746114C1EF002FB69
:103CB00080462B4632463946204615F0F7FA20B1A9
:103CC0000020A062E06950B110E02C21204617F0DE
:103CD000BDFB4FF00040A0620020BDE8F0814046EF
:103CE0001EF0E2FAE06108B90120E0612046F4E745
:103CF000F434002010B51421074800F09FFA15F0A5
:103D00009BFA40B105490160054941600549816060
:103D10000549C16010BDFEE7DC3400200D8C0108B0
:103D2000898F010859910108D98B010870B50D469A
:103D300004461021284617F089FB206800780128E6
:103D400004D0022807D0042807D008E0A08A2880E1
:103D5000E08A688003E0E06800E00A20686020688C
:103D60004268002A03D02946BDE87040104770BD64
:103D70002DE9FE430446808A10B9E08A002874D0F9
:103D8000D4F82C805FEA080010D120460AF029FC04
:103D90005FEA000869D020460CF0F4FF00220921F8
:103DA000404614F07DF9607880075ED44FF4807946
:103DB00000274E4645460021284619F0A9FF384401
:103DC00007B20021284619F0C1FFC11700EB1160AE
:103DD000001210FB06F006B2284618F095FF050009
:103DE000E9D10FB94E450CD0784201B24FF4803082
:103DF00090FBF6F002B26B4604F1140000951BF044
:103E0000E5FEADF80450ADF8085094F8400000F01D
:103E10000F000328404616D019F0C8F80646404661
:103E200018F07EFF03460C200090B4F916103246BD
:103E3000404609F08FFFADF80800404618F0C2FF79
:103E4000C10713D018E019F045F80646404618F0AF
:103E5000E1FF024603200090B4F9141033464046B7
:103E600009F078FFADF80400E7E736E0BDF904108B
:103E7000002901DDADF80450810705D4BDF9041017
:103E8000002901DAADF80450410705D4BDF9081046
:103E9000002901DDADF80850000705D4BDF9080080
:103EA000002801DAADF8085002AA01A9204620F046
:103EB000CBFDBDF90820BDF90410404600F08AFA98
:103EC0006078800709D4208BBDF804100844208353
:103ED000608BBDF8081008446083BDE8FE832DE9BF
:103EE000FC5F0446C06A5FEA000B71D094F84000A2
:103EF00000076DD015F06CFC019000684021457EF4
:103F000058461AF04FF84FF0000818B9A4F81E8070
:103F1000A4F81C80584619F03BF88246584619F020
:103F20003EF8064694F840004FF0640900F00F0098
:103F30000C2802D003284CD09AE0A4F81C8056B17B
:103F4000B4F91E50002715F043FC00684946407E36
:103F5000C0F1640022E0E08BC5F1640110FB01F1C7
:103F600091FBF9F0E083584618F0DAFE0546584612
:103F700019F01CF802460C200090B4F91E102B46D4
:103F8000584609F0E7FEE083024600231EE07A1956
:103F900017B210FB05F292FBF1F215B2002DF6D12B
:103FA000ADF80070A4F81E806A460021204620F07B
:103FB0004BFD41F6FF72BDF90030514258460AF000
:103FC000A7FCBDF800100123084402B200214CE018
:103FD0009AE0A4F81E80BAF1000F0AD0B4F91C5080
:103FE000002715F0F5FB00684946407EC0F16400EB
:103FF00022E0A08BC5F1640110FB01F191FBF9F007
:10400000A083584618F006FF0546584618F062FF90
:10401000034603200090B4F91C102A46584609F0C4
:1040200099FEA083014600231EE07A1917B210FB07
:1040300005F292FBF1F215B2002DF6D1ADF8007049
:10404000A4F81C8000226946204620F0FDFC41F6C1
:10405000FF72BDF90030514258460AF0D1FBBDF85D
:1040600000100123084401B2002258461BF0C0F89A
:10407000A08B002848D1E08B002845D1C6B958460E
:1040800018F094FF0546584618F04AFE002D06DC4D
:1040900000280DDD002D02DA01232A4604E0002865
:1040A00006DA0123404202B2002158461BF0A0F874
:1040B000BAF1000F19D1584618F0ACFE0546584623
:1040C00018F008FF002D07DC00280EDD002D03DAB4
:1040D00001230022294605E0002806DA01230022F8
:1040E000404201B258461BF083F80A215846019A13
:1040F00013F0D6FF6078800706D414F8400F20F044
:104100000F00207044F8148CBDE8FC9F7FB50E466C
:10411000040003D110F0EAFE04002CD010F05AFF86
:10412000002828D094F82800400724D4002506B39E
:10413000ADF80050ADF80250204610F0EFFE401EE2
:10414000ADF80400204610F02FFF401EADF8060029
:104150006A46314602A8FFF7A8F900280BD020686C
:10416000017C890708D5DDE90001C4E90C010120C3
:1041700029E0A4F850517FBD82690AB102A9904795
:1041800000260AE004EBC601002202A83031FFF746
:10419000B4F90028EFD1761CB6B2B4F85001B042A1
:1041A000F0D880B2202804D204EBC00002A930303D
:1041B00004E0A4F8505104F1300069460EF038FCD8
:1041C000B4F85001401CA4F8500160680028D2D017
:1041D0001EF0B4F97FBD70B5054600F012F8044634
:1041E0000CE02146284600F01EF8064621462846E7
:1041F00000F0A2F8204616F0E1FF3446002CF0D182
:1042000070BD002800D04068704700B5034600220A
:10421000FFF7F7FF03E01846521C00F004F8010016
:10422000F9D1104600BD0068091D4058704700686C
:1042300040587047002800D08068704700224260D4
:10424000C91C21F0030182600160704770B504460B
:104250000068083016F026FF050013D00146002242
:1042600020461FF0E7F92946204662681FF0DCF976
:10427000616819B12A4620461FF0DCF96560A06824
:1042800000B9A560284670BD2DE9F0410C46060036
:104290000AD04CB1FFF7B5FFA04208D13046FFF776
:1042A000D5FF051E01D01EE00020BDE8F08130687A
:1042B000083016F0F7FE051EF7D030682A46075979
:1042C000304639461FF0B0F93A46294630461FF0CD
:1042D000B1F92A46214630461FF0ACF9224629465C
:1042E00030461FF0A1F92846DFE770B504460068A4
:1042F000083016F0D7FE050013D0014600222046F4
:104300001FF092F929462046A2681FF093F9A16890
:1043100019B12A4620461FF087F9A560606800B9E8
:104320006560284670BD28B1416809B9806808B148
:10433000002070470120704770B504000DD0FFF7D2
:1043400060FF00228842204608D1FFF76CFF6060C2
:10435000011E01D000221EE0A26070BDFFF76AFFBF
:104360008842206808440AD10168A16029B120462A
:10437000BDE8704000221FF057B9626070BD05684B
:104380002046FFF750FF06460246294620461FF00A
:104390004BF92A4631462046BDE870401FF04AB925
:1043A00010B50446006882680AB12146904720682B
:1043B0000068002801D02060F5E710BD8068002863
:1043C00001D0B0F9160070478068002801D0807EC7
:1043D0008009704770B5164605460C4651EA06003E
:1043E0001AD0284617F098FDA86801233246018AA2
:1043F00021440182A868418A3144418221462846ED
:104400001AF04EF900220B21284613F049FE01282C
:1044100003D128461AF09DF8012070BD77B581B010
:104420000E46050017D0622219F0A0FB040012D03E
:10443000206880B128463146632219F097FB10F0BE
:10444000FF0208D023682046039998470090BDF8E2
:104450000000ADF80C00039804B070BD2DE9F047E2
:10446000074692B0408C1A9E40F004007884904633
:104470003A8499468A463289384619F077FB0546D0
:10448000A7F8209032895146384619F06FFB044650
:10449000788CA54220F00400788403D12904B1EB84
:1044A000044F68D0A7F8208032895146384619F069
:1044B0005DFB05468046A7F82090514638460BF034
:1044C000AFFC318900682A461CF04AFE30890B286F
:1044D00023D147F6FF794D4501D04C451DD13846D3
:1044E00019F017FD00EBD0704510384618F0CBFBE3
:1044F00000EBD0704010C84506D1691C431C99429E
:1045000000DA00E0194688464C4506D1691C421C79
:10451000914201DA6C1C00E014461948FFF796FE40
:1045200005002BD02F60C5E903843089A880684638
:10453000C5F808A00DF090FD1248FF21CDE900500C
:10454000114802901148039000200890CDE909011C
:1045500030880B9070889DF8421040420C90F068B3
:104560000790002060F300018DF84210306906903A
:1045700068460DF0E5FD12B0BDE8F087FEE70000EB
:10458000E83400207D74020869760208C5750208C7
:1045900014210148FFF752BEE83400202DE9F84FFE
:1045A00000259046894606462C460427E5E000BFD4
:1045B000F16807EBC400085882017AD480B230EA6F
:1045C000090211D05FF0000230EA08000ED000208E
:1045D00082426ED051F834A06A46102150461CF039
:1045E00021FB002871D103E00122EDE70120EFE774
:1045F0006A46112150461CF015FB002865D16A4619
:10460000122150461CF00EFB00285ED16A46132191
:1046100050461CF007FB002857D16A46152150462A
:104620001CF000FB002850D16A46142150461CF0B3
:10463000F9FAE8BB6A460A2150461CF0F3FAB8BB07
:104640006A466B2150461CF0EDFA88BB6A466C2125
:1046500050461CF0E7FA58BB6A46012150461CF050
:10466000E1FA28BB6A46042150461CF0DBFAF8B98F
:104670006A46022150461CF0D5FAC8B96A460321A1
:1046800050461CF0CFFA98B96A46052150461CF0F6
:10469000C9FA68B96A46062150461CF0C3FA38B90F
:1046A0006A46322150461CF0BDFA08B96A4601E05C
:1046B0000BE061E06E2150461CF0B4FA28B96A465E
:1046C0006D2150461CF0AEFA10B10320BDE8F88F02
:1046D0006A46692150461CF0A5FAE8BB6A466A2181
:1046E00050461CF09FFAB8BB6A466E2150461CF03B
:1046F00099FA88BB6A466D2150461CF093FA58BB64
:104700006A46372150461CF08DFA28BB6A4638218C
:1047100050461CF087FAF8B96A46352150461CF01D
:1047200081FAC8B96A46402150461CF07BFA98B914
:104730006A46452150461CF075FA68B96A4641211F
:1047400050461CF06FFA38B96A46422150461CF0B8
:1047500069FA08B96A4600E00AE0432150461CF0B5
:1047600061FA28B96A46492150461CF05BFA08B143
:10477000022501E005B90125641C708CC0F3C50059
:10478000A0423FF615AF2846A0E700000148406868
:10479000704700006400002005490020486008615F
:1047A000C8608860086048610249086048607047D6
:1047B000303300206C000020C0F30410072800D91B
:1047C00007207047A0F57F41FF3905D0002804D0AD
:1047D000712803D208490AE01F2070470749713841
:1047E00080B2096829B1064A5268904201D2085C39
:1047F0007047002070470000C0100308E00100204F
:10480000F401002010B518210348FFF717FD0349F4
:104810000120087010BD000094340020FC0100202D
:104820002DE9F04190460C46050015D0FBF72BFD15
:104830000A4F06462146BA68284690470446BA6899
:104840002819414690470146701A03E06218AA5C95
:104850002A55641CA042F9D2BDE8F0811002002064
:104860002DE9F041094D90460E466A681C46074600
:1048700019469047306020B120686A6838440021AA
:104880009047C8F80000BDE8F08100001002002049
:104890002DE9F04F87B08A46DDE910581F46934650
:1048A0000446002105B129805CB12078002809D098
:1048B000BAF1000F05D0002618F0060F15D0002021
:1048C00004E0002007B0BDE8F08F401C215C0A29FD
:1048D00004D00D2902D00029F7D100E0401C002DA2
:1048E000F0D04FF0FF312980ECE75FEA887001D506
:1048F00041F6FF77894608468DF81410049127E0A9
:104900000498CDF8189068B34FF0000C05AA06ABD8
:10491000CDF80CC0CDF80080CDE9013220443B46F3
:104920005A4651461DF06EFF06997A1A314417B265
:104930000EB288B104990144049120780A280BD062
:104940000D2809D0605C0A280FD00D280DD008462C
:10495000205C08B1002FD3DC049848B105B12E804B
:104960000498AFE74FF0010CD0E7481C0490F3E740
:10497000064A04A9204652689047002DF0D001460F
:104980000022504613F0A0FC06B2E8E71002002017
:104990002DE9F0411746884606001ED0002F1CD096
:1049A000FBF771FC04463846FBF76DFC050014D09C
:1049B0000B4A2C444146926830469047411903E027
:1049C000621BB25C3255641EA142F9D930442A46BA
:1049D0003946BDE8F04116F0FBBCBDE8F0810000AF
:1049E0001002002000230278232902D0012A0DD0D2
:1049F0000FE02AB10021012A04D0022A04D008E0E5
:104A0000012101E0017004E0017001E0202902D0E1
:104A10000123184670470221F6E72DE9F0410E46C2
:104A2000804602460021334608461EF029F9044616
:104A30000027401C16F036FB050008D02F553346E2
:104A40004246611C1EF01CF92846BDE8F081FEE7D5
:104A50002DE9F0471E4614460D468246DDF82090AB
:104A600015E000BF4FEA540808FB06573946504688
:104A70004A469047002808DD44F30000C0EB540488
:104A800007EB0605A4F1010401E005DA4446002C19
:104A9000E8D12046BDE8F0873846FBE72DE9FC5F0A
:104AA0009B460CAB8A468146DDE9116093E8121003
:104AB000DDE90F575FEA80784FF030031AD45EB11A
:104AC0005FEAC07808D000F00C0858EA0C0803D060
:104AD000761E01E00B55641CBC4204D2202CF9D395
:104AE00001E00B55641C5FEAC07803D0B44201D2E8
:104AF000202CF6D35FEAC06825D55FEA40580AD477
:104B00004CB1BC4201D0B44205D1641E03D0102D7B
:104B100003D1641E04E0102D02D0022D0AD00EE055
:104B2000850603D4202C1ED2782506E0202C1AD22C
:104B3000582502E0202C16D262250D55641C202C2D
:104B400011D20B55641C202C0DD2BCF1000F01D0EA
:104B50002D2306E0430701D52B2302E0030702D5EE
:104B600020230B55641CCDE900BAC8461546814682
:104B70008B46AA46800714D1274607E02A46DDE97E
:104B800000316D1C2020C446E0477F1CB742F5D39E
:104B900007E02A466D1C641EDDE900311BF80400A5
:104BA000C047002CF5D15FEA897006D409E02A4697
:104BB000DDE900316D1C2020C047A5EB0A00B042A2
:104BC000F5D32846BDE8FC9F2DE9F04F8FB09946FC
:104BD0008B46DDE91818DDE91C63DDE91A479246CA
:104BE0008646002209B923F01003580507AD00D509
:104BF000C9B1B1FBF4F004FB1010C0B20A2801D215
:104C0000303009E05FEA836C02D54FF0410C01E0DF
:104C10004FF0610C60440A38B1FBF4F1A854521C07
:104C200009B1202AE5D3CDF80880CDE90563CDE9A7
:104C30000052CDE903474B46524659467046FFF7AE
:104C40002DFF0FB0BDE8F08F2DE9FF4F8FB01CACEA
:104C5000DDE9239594E8030820AC94E8C00400241F
:104C600050EA010201D125F010056A050DF11C087A
:104C700002D550EA010217D032463B46FBF7A0FAB4
:104C8000D2B20A2A01D2303206E0AB0601D5412366
:104C900000E061231A440A3A08F80420641C50EA30
:104CA000010201D0202CE7D3CDE90084CDF808B073
:104CB000CDE90595CDE9036A0FAF97E80F00FFF73F
:104CC000EDFE13B0BDE8F08F9A4200D288547047D1
:104CD000704700002DE9FF4F8BB09A460F460546FE
:104CE000002606E025280BD052460D9990476D1CF2
:104CF000761C28780028F5D10FB03046BDE8F08F3B
:104D00000024A0460122604900E0044315F8013F59
:104D1000203B02FA03F00842F7D128782E2817D159
:104D200015F8010F44F004042A280ED06FF02F026A
:104D30002878A0F1300109290AD808EB880102EB94
:104D4000410100EB01086D1CF2E757F8048B6D1C64
:104D5000287869283ED006DC0028CDD063280BD007
:104D6000642804D136E0732810D075284BD0524601
:104D70000D999047761C85E017F8040B8DF800001C
:104D800000208DF80100E946012003E057F8049B5C
:104D90004FF0FF3061074FF0000401D40AE0641CBB
:104DA00044450DDA8442FADB19F804100029F6D1E3
:104DB00006E0641C8442FCDB19F804100029F8D1D9
:104DC000264404E019F8010B52460D999047641EE1
:104DD000F8D257E001CF4FF00A0B002802DA404228
:104DE0002D2102E0210504D52B218DF8241001216D
:104DF00003E0E10705D02021F7E70DF12009089134
:104E00000CE00021F9E701CF4FF00A0BF9E7594612
:104E1000FBF757FA01F1300209F8012D0028F6D10D
:104E2000ADEB090000F1200B600701D44FF0010841
:104E3000D84502DDA8EB0B0000E0002080460024EE
:104E400006E009A85246005D0D999047641C761C47
:104E500008988442F5DB04E0302052460D999047D3
:104E6000761CB8F10001A8F10108F5DC05E019F89D
:104E7000010B52460D999047761CBBF10001ABF136
:104E8000010BF4DC6D1C34E7092801002DE9FF4F0C
:104E900089B005460A9800249246002800D1FE4DAC
:104EA0008FE1252804D02246641C53460A990BE260
:104EB000491C4FF0000808460C9101782B2919D0A5
:104EC00004DC202919D0232904D119E02D290ED082
:104ED000302909D00026C8B2FEF71EFAB0B10CA8DE
:104EE000FEF703FA06461FE048F001010AE048F029
:104EF000020107E048F0040104E048F0080101E085
:104F000048F01001401C88460C90D6E70C990878B0
:104F10002A2809D1169840C81690002E02DA48F0C7
:104F200002087642491C0C910C984FF0000B017856
:104F30002E2919D1401C0C9048F480680078FEF7A7
:104F4000EBF920B10CA8FEF7D0F983460CE00C9ADF
:104F500010782A2808D1169802C81690002900DC7B
:104F60000021521C8B460C920C9801786C290AD0B7
:104F700004DC68290FD06A2919D128E0742929D0C6
:104F80007A2914D126E0401C0C90017848F48078EE
:104F90006C291CD00BE0401C0C90017848F0800874
:104FA000682904D148F04001401C88460C90024614
:104FB0000078692822D015DC62281FD00DDC252856
:104FC00071D050281AD058287FF46DAF16E048F4FD
:104FD0000071E9E748F48071E6E7632878D0642837
:104FE000F2D10BE0732874D004DC6F2806D070284F
:104FF000EAD103E0752801D07828E5D178280DD0D2
:1050000058280BD070280BD0502809D06F2816D004
:10501000622816D00A2128F0100016E0102107E0BF
:105020005078102148F48878562804D1521C0C92EC
:105030001078582807D01078502804D006E00821AE
:1050400009E0022107E048F0200080461078692836
:1050500003D0642801D028F00C085FEA485001D53D
:1050600028F00108107869281ED064281CD0562822
:1050700064D05FEA885072D5169804ABC01D002238
:1050800083E806080292CDE9076820F0070053463E
:10509000F0E80212CDE900121690224628460A993D
:1050A000FFF7D2FD89E00AE15FEA885024D516981F
:1050B00004AFC01D20F00703F3E80202169300239B
:1050C00087E80A08CDE90768002A03DA012102E02F
:1050D00080E0A6E000210023029119461B1A9141AD
:1050E00001DA114603E00021404261EB0201534620
:1050F0002246CDE90001D1E75FEAC85004D51698F1
:1051000004C80FE0524215E05FEA486003D51698E4
:1051100010F8042B06E05FEA0860F0D5169830F826
:10512000042B12B21690CDE9021BCDE90468D00F12
:10513000002AE7DDCDE9002053461EE01698AAEBD1
:10514000040202C816904868006800900A980B682C
:1051500001192846FFF79AFE04442FE0FFE75FEAB3
:10516000C8500CD5CDE9021BCDE904681698002182
:10517000534604C8CDE900211690224619E05FEAA3
:10518000486003D5169810F8042B08E05FEA086021
:10519000169803D530F8042B92B200E004C816909C
:1051A0000020CDE90020CDE9021BCDE9046853467B
:1051B000224628460A99FFF707FD04460C98401C32
:1051C0000C900C99087800287FF46BAE54457DD282
:1051D00022467DE001275FEA887006D509E0224675
:1051E000641C534620200A99A84738467F1CB042C9
:1051F000F5D316992246641C11F8040B16915346F8
:105200000A99A8475FEA887006D4D7E72246641C4B
:10521000534620200A99A84738467F1CB042F5D350
:10522000CCE7169850F8049B16904B46BBF1000053
:1052300001D0014601E04FF0FF31484600E0401C3C
:1052400002780AB1491EFAD2C71A5FEA485003D55C
:1052500058465F4500D307465FEA887006D512E0DE
:105260002246641C534620200A99A84738467F1CD2
:10527000B042F5D307E000BF224609F10109641CE2
:1052800053460A99A84799F8000040B15FEA48518F
:10529000F2D5BBF1010B01E0D14C0008ECD25FEA82
:1052A000887006D48AE72246641C534620200A9957
:1052B000A84738467F1CB042F5D37FE706E0224678
:1052C000641C534625200A99A84777E7AAF10102F2
:1052D000534600200A99A8470DB02046BDE8F08F3C
:1052E00010B502004FF000000CD04B1E194200D048
:1052F000FEE70A44521E9A43B2F5004F02D20C2A2E
:1053000001D9104610BD0C2010BD08444A1E401E95
:105310009043114200D0FEE7704700002DE9F041B4
:105320000F4601210025044641862E460BE01B490D
:10533000FAF7B0FF10B16D1CADB202E0608E401CF8
:105340006086761CB6B257F8260010B101780029A5
:10535000EDD1208EA8421ED0A06A002610B115F013
:105360002DFFA662E06A10B115F028FFE662E800A2
:1053700015F098FEA06238B1680015F093FEE06267
:1053800018B1A16A11B102E0FEE7FEE7002569004D
:1053900016F05CF82586BDE8F08100003034010885
:1053A0002DE9F84F8146407A0F4600F007000228A9
:1053B00019D010468046974200DD3A461646032033
:1053C0002A4C2B4A00EB460020F00305A068116828
:1053D0001035411A636805EB010C9C4505D2416804
:1053E00021F0004124E00846E4E79D4219D89246A6
:1053F0004FF0FF3B48196168884210D90022694686
:105400001C48CDF800B00CF097F8002269461A4805
:105410000CF092F8A168DAF80000091AEAE7A0682F
:10542000DDE7284615F03EFEC0B1416841F000417D
:1054300088EA6702416089EA02010160416801F07F
:105440004041491C31F0804141608681A0F80E80C6
:1054500005D500F110018160BDE8F88FFEE7A16875
:1054600001F1100229448260A160F5E77400002078
:10547000DC010020D1E500089915010870B586B05F
:1054800000224A4C8DF808208DF80C208DF8102051
:10549000E2888A4201D0FF22A270E18090F83C208D
:1054A000142302F003024FF4B475012A24D0022A17
:1054B0005ED0A578AA4211D010F8265F05EB05153D
:1054C00005EB4505B5FBF3F52570407800EB0010C2
:1054D00000EB4000B0FBF3F06070A27004AA03A8D8
:1054E000CDE9000201EB41004FF6FF7101EA4000F7
:1054F00002AB627821781BE0A678B24210D0868C8D
:1055000006EB46067602B6FBF5F5A58090F8270077
:1055100000EB001000EB4000B0FBF3F06070A270F5
:1055200004AA03A8CDE90002C9B202AB62783AE04E
:1055300008F061FD9DF810109DF80C00CB08BDF837
:1055400000109DF8082063F30401ADF800108108F5
:10555000BDF8000061F34A10D10880B261F3CF209A
:10556000ADF8000080B20090BDF8000006B070BD3C
:10557000A678B24210D0868C06EB46067602B6FBC1
:10558000F5F5A58090F8260000EB001000EB400038
:10559000B0FBF3F02070A27004AA03A8CDE90002CA
:1055A000CAB2217802ABA088C2E700002001002027
:1055B00010B5084C012020700748FEF722FE002895
:1055C000A06803D0BDE810401CF0B8BFBDE8104093
:1055D0001CF0A8BFB4010020C434002010B504465C
:1055E00090F84200A16B820709D4B4F840204AB178
:1055F000A2F57F43FF3B1BD0521EA4F84020B4F815
:105600004020AAB909B1820712D521461448FEF7F5
:1056100093FEFFF7CDFFE16809B120468847216975
:1056200009B1204688472046BDE8104015F0C6BDA8
:10563000E26B52422263002911D0820702D4626BCE
:10564000524222634210521C62F3410084F842002D
:10565000A26A206A2262A062E06AE162A06310BDD1
:10566000C434002070B5304D68681CF01DFE06463D
:10567000687880F00100687047E00020287094F896
:1056800042006978C0F380028A4242D061F382000E
:1056900084F84200216B8A19030719D4002917DC0A
:1056A000002A15DBC00709D1616939B12046884756
:1056B000216A01442162A16A0844A062A16809B17B
:1056C0002046884794F8420040F0080084F84200E1
:1056D000206B8019206316D4E16A884200DD2163C3
:1056E000E169204688470146606A884204D06162C9
:1056F00062680AB120689047D4E90B01814202DB5D
:105700002046FFF76BFF287818B10848FEF779FDAF
:1057100003E021460548FEF786FD0400ADD11CF0EC
:10572000C9FD686070BD0000B4010020C4340020D1
:1057300070B5044640680D4608B1FFF7F9FF2268CE
:10574000002A04D029462046BDE87040104770BDAD
:1057500089B20DF0D2B889B20DF00BB92DE9FF4F27
:1057600099B09846DDE926B12D9816468A464FF045
:105770000009042811D0052811D0062812D01428B9
:1057800070D101270225002418FB06F00E901A980C
:10579000401E0D90701E069051E10027F2E7012790
:1057A0000325F0E701270225FEF7F0FF0068D0F897
:1057B0003890E8E7289860430BEB20222998604353
:1057C0000AEB202110124FEA212E7DD41A9B984219
:1057D0007ADABEF1000F77DBB64575DAD2B2CBB21A
:1057E000802A05DAC2F17F024FF0FF31520003E058
:1057F00001215200A2F580720992802B05DAC3F1D3
:105800007F034FF0FF325B0003E001225B00A3F552
:1058100080730A930EFB080C199B0CFB053307934E
:105820004318119372D4DDF834C063456EDC1EEB6F
:1058300002036BD4DDF818C0634567DCDDF81CC0DB
:1058400011FB05C1CDE915C112FB08F101FB05C132
:105850000C91D7B32D99052905D014290BD0062911
:1058600055D066E0EFE01598807807900C98817825
:105870001698807810E0199A0E990EFB08FC02EB3E
:1058800041010A180EFB08111CF80200079011983C
:1058900003FB08F3085C995C079A91420AD00A9AC4
:1058A00011FB02F20A99C1F58073079911FB0321DC
:1058B000C1F30721079A90420DD0099A10FB02F21A
:1058C0000998C0F5807301E02FE035E0079810FBE0
:1058D0000320C0F3072008442C994008085527D01E
:1058E00015980178407801EB0020ADF80C000C9879
:1058F0000178407801EB0020ADF81000169801788F
:10590000407801EB0020ADF8080023E04CE015984A
:1059100001881FFA89F0814207D00C9909888142D9
:1059200003D016990988814203D12C99002008558B
:1059300083E0FF210846CEE715980088ADF80C00FB
:1059400016980088ADF808000888ADF810002C986B
:10595000FF210155BDF80C00BDF81010884209D197
:10596000BDF80810884205D12B98BDF80C1000EB4B
:10597000440017E00A98C2B2DDE903100EF092FE6F
:1059800004900998C2B2DDE902010EF08BFE7F227D
:10599000029004990EF086FE00902B98BDF800103E
:1059A00000EB4400018048E0079B93F800C05B785F
:1059B0000CEB0323DDF8ACC09BB22CF81430DDF8FF
:1059C000B4C0BCF1050F06D0BCF1060F06D0BCF187
:1059D000140F09D10AE0079B9B780FE01FFA89FC9E
:1059E000634501D1002309E0FF2307E0199B0EFB6B
:1059F000083C0E9B00EB43031CF8033008B9002958
:105A000005DBDDF834C0604503D1002901DD0998CC
:105A10000AE0BEF1000F01D1002A04DB06998E4591
:105A200008D1002A06DD0A98C0F1FF0010FB03F040
:105A3000010A00E000212C980155641C24B22A9828
:105A40008442FFF6B7AE1DB0BDE8F08F10B5818F70
:105A500092B00446A9B168460CF0FEFA0B48012149
:105A6000CDE90040A08F0B9000200890CDE90901FE
:105A7000074807900748039068460CF061FB12B096
:105A800010BD12B0BDE810401DF020BF453902081E
:105A9000172101084739020810B512F0FDFA00225B
:105AA000BDE810400A2101481CF068BCA17302083F
:105AB00010B50446406882080AD0496821F0030105
:105AC000091D08446060204600F042F8204610BDE1
:105AD000FEE74068103120F00300884201D3012026
