:020000040800F2
:10000000982300109D0100083F250008A122000848
:100010003D250008EF030008392D0008000000000E
:10002000000000000000000000000000E5260008BD
:10003000AD0400080000000041250008E726000884
:10004000B7010008B7010008B7010008B7010008B0
:10005000B7010008B7010008B7010008B7010008A0
:10006000B7010008B7010008B7010008B701000890
:10007000B7010008B7010008B7010008B701000880
:10008000F1030008B7010008B7010008B701000834
:10009000B7010008B7010008B7010008B701000860
:1000A000B7010008B7010008B7010008B701000850
:1000B000B7010008B701000891270008B701000840
:1000C000B7010008B7010008B7010008B701000830
:1000D000B7010008B7010008092D0008B7010008A2
:1000E000B7010008B7010008B7010008B701000810
:1000F000B7010008B7010008B7010008B701000800
:10010000B7010008B7010008B7010008B7010008EF
:10011000B7010008B7010008B7010008B7010008DF
:10012000B7010008B7010008B7010008FD03000887
:10013000B7010008B7010008B7010008B7010008BF
:10014000B7010008B7010008B7010008B7010008AF
:10015000B7010008B7010008B7010008B70100089F
:10016000B7010008B7010008B7010008B70100088F
:10017000B7010008B7010008B7010008000000003F
:10018000B7010008B7010008DFF80CD000F0E0F874
:1001900000480047E12702089823001006488047DE
:1001A00006480047FEE7FEE7FEE7FEE7FEE7FEE75C
:1001B000FEE7FEE7FEE7FEE7812700088901000869
:1001C0002DE9F05F0546002092469B46884606468C
:1001D000814640241BE0284641464746224600F01F
:1001E000A7F853465A46C01A914110D311461846F3
:1001F000224600F08EF82D1A67EB01084F46224682
:100200000120002100F085F817EB00094E41201E67
:10021000A4F10104DFDC484631462A464346BDE8E6
:10022000F09F10B5431A934209D28318881803E04F
:1002300010F8011D03F8011D521EF9D210BD40EA4D
:1002400001039B0703D009E008C9121F08C0042A54
:10025000FAD203E011F8013B00F8013B521EF9D23B
:1002600010BDD2B201E000F8012B491EFBD270474D
:100270000022F6E710B513460A4604461946FFF772
:10028000F0FF204610BD30B505462A460B4612F851
:10029000010B13F8014B08B1A042F8D01CB10028A3
:1002A00002D06D1CF1E7284630BD421C10F8011B3E
:1002B0000029FBD1801A704710B5002200E0521CC3
:1002C000835C8C5CA34201D1002BF8D1D8B2E1B29F
:1002D000401A10BD034611F8012B00F8012B002A2B
:1002E000F9D11846704730B50B4601460020202250
:1002F000012409E021FA02F59D4205D303FA02F533
:10030000491B04FA02F52844151EA2F10102F1DC92
:1003100030BD202A04DB203A00FA02F100207047A9
:100320009140C2F1200320FA03F319439040704733
:10033000202A04DB203A21FA02F00021704721FA3A
:1003400002F3D040C2F120029140084319467047A1
:10035000064C074D06E0E06840F0010394E8070012
:1003600098471034AC42F6D3FFF712FF341203085B
:100370007412030870B58C1810F8015B15F00703B0
:1003800001D110F8013B2A1106D110F8012B03E02E
:1003900010F8016B01F8016B5B1EF9D12B0705D436
:1003A0000023521E0DD401F8013BFAE710F8013B7F
:1003B000CB1A921C03E013F8015B01F8015B521E9B
:1003C000F9D5A142D8D3002070BD10B5044600F085
:1003D00005FA462000F0D0F900F03CFA204600F083
:1003E000CBF900F037FABDE8104000F017BAFEE78D
:1003F000014800F0B9BA0000CC010010014800F03B
:10040000B3BA00006801002001681823CAB2103A8C
:10041000B2FBF3F2054B6FF30901032A9B5CC36542
:1004200000D9091D8165084670470000567602080C
:1004300010B5014600208B698A6A4FF0C07453B131
:10044000B3F5005F15D072B1012A0CD0022A0AD090
:10045000032A09D104E01AB1012A06D0022A03D1E5
:10046000C96AC90100D5012010BDC96AA142FAD0EC
:1004700010BD002AF7D0012AF2D0022AF3D0032AB5
:10048000F3D010BD30B50468256825F480252560BB
:10049000046863608368402B036803D09960006838
:1004A000C26030BD9A600068C16030BD7047000016
:1004B00038B514480168CA6842F01002CA60006882
:1004C0000168406800904FF400720F490D4801F038
:1004D00075FE08B100F094F84FF47A7402E00BA0B6
:1004E00002F02CFC204600F0B1FB00F07DF8002863
:1004F000F5D10BA002F022FC0E49012081F8020286
:10050000002038BD880100105E0400204154207492
:10051000657374206661696C65640D0A00000000F3
:100520004154207465737420737563636573730D30
:100530000A000000580200202DE9F04115468846C7
:10054000074600F09FFC04464FF4007631461A48F7
:10055000FFF78EFE194801F0EBFB324616491748AB
:1005600001F02CFE08B100F04BF83846FFF79DFE75
:1005700082B264233946114801F038FE394610A092
:1005800002F0DCFB0EE041460B48FFF77CFE30B189
:1005900009490EA002F0D2FB0020BDE8F081012045
:1005A00000F054FB00F06EFC001BA842EBD30BA044
:1005B00002F0C4FB0220F0E75E0400208801001076
:1005C00053656E643A202573000000005265636530
:1005D0006976653A2025730D0A00000054696D653F
:1005E0006F7574210D0A000040F6B83201A102A017
:1005F000FFF7A2BF4F4B000041540D0A000000005E
:1006000072B6FEE79620401E80B2FCD27047000012
:1006100010B586B014216846FFF72AFE1E4801680F
:1006200041F01001016000681C4C00F010000590C2
:100630004FF44040009011200190012002900220D0
:1006400003906946204600F013FB012291032046E7
:1006500000F013FC0122D103204600F00EFC6420C0
:1006600000F0F4FA0020FFF7B0FE0A2000F0EEFAE6
:100670000120FFF7AAFE0A2000F0E8FA0720FFF7A2
:10068000A4FE0A2000F0E2FA1120FFF79EFEB4203B
:1006900000F0DCFA06B010BD303802400010024015
:1006A0002DE9F0470122234E8046D7030024394626
:1006B000304600F0E2FB0025B9467F106006040ECC
:1006C00000223946304600F0D8FBFFF79BFF01229D
:1006D0003946304600F0D1FBFFF794FF49463046DB
:1006E00000F0BEFB08B144F001046D1CEDB2082D12
:1006F000E4D300223946304600F0BFFBB8F1000FCA
:1007000001D0002200E001224946304600F0B5FB4E
:10071000FFF778FF01223946304600F0AEFBFFF7C5
:1007200071FF00223946304600F0A7FB2046BDE8A5
:10073000F08700000010024070B500F04FF847202D
:1007400000F01AF800F086F80120FFF7A9FF044630
:100750000020FFF7A5FF054600F060F845EA0420F9
:1007600000EE100A9FED031AF8EE400A80EE810AAF
:1007700070BD00009A99993F2DE9F041164F05464A
:1007800000244FF400484FF480460022314638469A
:1007900000F073FBFFF736FF280601D5012200E0C9
:1007A00000224146384600F068FB6806050EFFF758
:1007B00029FF01223146384600F05FFBFFF722FF98
:1007C000641CE4B2082CE0D331463846BDE8F04161
:1007D000002200F052BB00000010024070B5012260
:1007E0000D4DD4032146284600F047FB0122960315
:1007F0003146284600F041FBFFF704FF0022214666
:10080000284600F03AFBFFF7FDFE31462846BDE8DA
:100810007040002200F031BB0010024070B50C4D5A
:100820004FF4004400222146284600F026FB012216
:100830009103284600F021FBFFF7E4FE0122214648
:10084000284600F01AFBBDE87040FFF7DBBE000051
:10085000001002402DE9F0410122144DD60300247E
:100860003146284600F009FBFFF7CCFE0122970332
:100870003946284600F001FBFFF7C4FE08E0641C7F
:10088000E4B2FA2C04D9FFF7C9FF0120BDE8F081DA
:100890003146284600F0E4FA0028F0D1002239461B
:1008A000284600F0EAFA0020F0E7000000100240BD
:1008B0002DE9F0410446876D00F0E4FA064694F80D
:1008C00035000025022806D08020606584F8345069
:1008D0000120BDE8F0812068016821F01601016067
:1008E0002068416921F080014161206C08B9A06C49
:1008F00020B12068016821F00801016020680168CA
:1009000021F0010101600CE000F0BCFA801B052819
:1009100007D920206065032084F8350084F834501E
:10092000D7E720680068C007EED194F85C103F203C
:100930008840B860012084F8350084F834500020E5
:10094000C7E790F83510022903D0802141650120C6
:100950007047052180F835100068016821F0010119
:1009600001600020704700002DE9F84304464FF075
:100970000009CDF8009063484FF41651A56D00684A
:10098000B0FBF1F72E6894F85C10082000FA01F132
:1009900031420FD021680A6852070BD50A6822F04D
:1009A00004020A6094F85C108840A860606D40F012
:1009B0000100606594F85C104FF0010808FA01F03E
:1009C000304208D021684969090604D5A860606DE5
:1009D00040F00200606594F85C10042088403042CA
:1009E00008D021680968890704D5A860606D40F0C7
:1009F0000400606594F85C1010208840304218D0E4
:100A000021680968090714D5A860206801684903AE
:100A100004D50068000308D5A16C07E00168C9058A
:100A200003D4016821F008010160216C09B120465E
:100A3000884794F85C1020208840304231D02168EB
:100A40000968C9062DD5A86094F8350005282068E6
:100A5000016806D0490347D5006800031DD4616CC6
:100A60001CE021F0160101602068416921F080013D
:100A70004161206C08B9A06C20B12068016821F0A8
:100A80000801016094F85C103F208840A86084F859
:100A9000358084F83490216D1FE0E16B09B1204668
:100AA0008847606D00282BD0606DC00714D00520EA
:100AB00084F835002068016821F001010160009888
:100AC000401C0090B84203D820680068C007F6D1E7
:100AD00084F8358084F83490E16C002910D001B09E
:100AE0002046BDE8F04308470168C905D5D4016830
:100AF00021F01001016084F8358084F83490CCE74F
:100B0000BDE8F8830C0000102DE9F041044600F028
:100B1000B9F906465CB1022084F83500002584F856
:100B200034502068016821F0010101600DE00120CE
:100B3000BDE8F08100F0A6F9801B052805D920202A
:100B40006065032084F83500F2E720680068C0077C
:100B5000F0D12268116820480140D4E9010318430C
:100B6000D4E903363343184363691843A369184330
:100B7000E3691843236A18430843616A042903D1CF
:100B8000D4E90B1319430843106020684069666A72
:100B900020F0070130460E43012704280CD1A06A3B
:100BA0000643E06A40B12046FFF742FC20B14020F6
:100BB000606584F83570BAE7206846612046FFF723
:100BC00023FC94F85C203F2191408160656584F8A6
:100BD00035700020ACE700003F8010F02DE9F041B7
:100BE0000446866D90F83400002501280DD00120C0
:100BF00084F8340094F835700020012F07D084F871
:100C0000340002252846BDE8F0810220FBE70227D8
:100C100084F8357060652046FFF734FC94F85C106A
:100C20003F208840B0602068016841F016010160F3
:100C3000206C20B12068016841F008010160206843
:100C4000016841F001010160DCE7000070B5044675
:100C500000F018F90546601C02D0044800780444EE
:100C600000F010F9401BA042FAD370BD0000002034
:100C70002DE9F84FDFF8BCA10022012503264FF033
:100C80000F090AF1040BAAF1040E00BF0B6805FA64
:100C900002F42340A34270D10F7907F00307012F1C
:100CA00001D0022F16D187684FEA420806FA08FCE5
:100CB00027EA0C07D1F80CC00CFA08FC4CEA070C28
:100CC000C0F808C04768A7430C79C4F300149440E7
:100CD0003C4344600C79E443A4070AD0C4684FEA5B
:100CE000420C06FA0CF7BC438F6807FA0CF727434F
:100CF000C7600C7904F00304022C12D1D40800EB75
:100D0000840CDCF820405707FF0E09FA07F824EAA4
:100D10000804D1F8108008FA07F848EA0408CCF86B
:100D2000208004684FEA420C06FA0CF7BC430F79A6
:100D300007F0030707FA0CF7274307604C6814F421
:100D4000403F70D03C4C276847F4804727602468B8
:100D500022F0030704F480440094384C07EB040CA1
:100D6000DCF8084897074FEA177809FA08F7BC43F8
:100D7000334FB84202D1002724E054E0314FB8424B
:100D800001D101271EE0304FB84201D1022719E0FE
:100D90002E4FB84201D1032714E02D4FB84201D1A4
:100DA00004270FE02B4FB84201D105270AE02A4F54
:100DB000B84201D1062705E0284FB84201D10727E4
:100DC00000E0082707FA08F72743CCF80878DAF894
:100DD00000405746D1F804C09C435FEACC2C00D5B4
:100DE0001C433C60DBF800405F46D1F804C09C43E4
:100DF0005FEA8C2C00D51C433C60DEF8004077464F
:100E0000D1F804C09C435FEA8C3C00D51C433C6095
:100E1000084F083F3C68D1F804C09C435FEACC3CD3
:100E200000D51C433C60521C102AFFF42FAFBDE8D4
:100E3000F88F0000083C0140443802400030014077
:100E4000000002400004024000080240000C024082
:100E5000001002400014024000180240001C024032
:100E60000069084000D001207047426921EA02036E
:100E70000A4043EA0241816170470AB181617047CB
:100E80000904FBE70148806870470000000000206B
:100E90000248816802781144816070470000002098
:100EA0000B4810B5016841F400710160016841F41C
:100EB00080610160016841F480710160032000F0ED
:100EC0006FF80F2000F006F800F024F8002010BDA5
:100ED000003C024070B50D4D04464FF47A712878FD
:100EE000B1FBF0F00A490968B1FBF0F000F0E0FC5A
:100EF00048B9102C07D200222146501E00F030F8CD
:100F000000206C6070BD012070BD0000000000205A
:100F10000C0000100A4808B5016841F480410160E6
:100F2000006800F4804000900548001F016841F00F
:100F300080510160006800F08050009008BD000002
:100F400044380240002809DB00F01F0201219140D3
:100F50004009800000F1E020C0F800117047000057
:100F6000F0B40E4B1B680C46C3F30223C3F1070514
:100F7000042D00D90425191D072901D2002300E002
:100F8000DB1E012606FA05F1491E214099409E40CC
:100F9000761E16403143F0BC01F0E0BE0CED00E0DF
:100FA000064900F0070208684FF6FF03184040EAC0
:100FB0000220034A10430860704700000CED00E077
:100FC0000000FA052DE9F0470E46050065D0DFF870
:100FD0001481D8F80000F7B200F00700B04207D241
:100FE00088F80070D8F8000000F00700B04254D133
:100FF00028683D4C810712D5400703D5206840F48E
:10100000E05020602878000703D5206840F4604055
:1010100020602068A96820F0F0000843206028784C
:10102000C0072DD0304968680839012812D002283D
:1010300013D0032811D00968890700292DDA216807
:1010400021F0030101432160FFF71CFF814641F2BB
:10105000883A0EE009688903EFE709688901ECE73F
:10106000FFF710FFA0EB0901514502D90320BDE8AD
:10107000F0872068696800F00C00B0EB810FEFD1B9
:10108000D8F80010404601F00701B14207D90770B7
:10109000006800F00700B04201D00120E7E728789F
:1010A000400705D52068E96820F4E0500843206037
:1010B0002878000706D52068296920F4604040EAB6
:1010C000C100206000F038F82168084AC1F303111C
:1010D000515CC8400649086006480068FFF7FAFE00
:1010E0000020C4E7003C0240083802405E76020857
:1010F0000C0000100400002004480549006809683D
:10110000044AC1F38221515CC84070470C000010B2
:10111000083802406E7602080448054900680968EC
:10112000044AC1F34231515CC84070470C000010C2
:10113000083802406E760208154810B5006810F0B5
:101140000C02144813D04110042A0FD0082A0ED1E3
:101150000F4C241F2268236802F03F025B0207D570
:101160002068C0F38810A0FB010106E0084610BD0E
:101170002168C1F38811A1FB00010023FFF720F8CB
:101180002168C1F30141491C4900B0FBF1F010BDD9
:10119000083802400024F4002DE9F84F04006ED016
:1011A0002078DFF84C93C007A9F104054AD009F173
:1011B00004000168C1F38101012908D00068C0F36F
:1011C000810002280AD1D9F80000400206D528681B
:1011D000800337D560680028E1D033E06068B0F55F
:1011E000803F10D0B0F5A02F286810D020F48030B8
:1011F0002860286820F4802028606068A8B1FFF784
:1012000041FE06460DE0286840F48030F4E740F4E3
:1012100080202860F7E700BFFFF734FE801B6428BA
:1012200073D828688003F7D50CE0FFF72BFE06463D
:1012300005E000BFFFF726FE801B6428F0D8286871
:101240008003F7D42078DFF8AC8280074FF0000AE3
:101250003ED5A748001D016811F00C0F08D00068AA
:10126000C0F3810002280BD1D9F80000400207D456
:101270002868800716D5E068012800D112E033E124
:10128000E068B8B10120C8F80000FFF7FBFD064692
:1012900005E000BFFFF7F6FD801B0228C0D82868D4
:1012A0008007F7D52868216920F0F80040EAC100DE
:1012B00028600DE0C8F800A0FFF7E4FD064604E052
:1012C000FFF7E0FD801B02281FD828688007F7D4AD
:1012D0002078000722D5864F87486169703771B141
:1012E00001210160FFF7CEFD064604E0FFF7CAFDCD
:1012F000801B022809D838688007F7D50EE0C0F8AF
:1013000000A0FFF7BFFD064605E082E0FFF7BAFD4B
:10131000801B02287DD838688007F7D420784007E2
:1013200068D5DFF8CCB100270BF13C0BDBF80000EF
:10133000C0000BD4DBF8001041F08051CBF8001056
:10134000DBF80000012700F0805000906B4E306801
:10135000C00510D4306840F480703060FFF792FD13
:10136000009005E0FFF78EFD0099401A022850D842
:101370003068C005F6D55E4EA0686C3601280FD0E7
:101380000528306810D020F001003060306820F06F
:1013900004003060A068B8B1FFF774FD00900FE062
:1013A000306840F00100F4E740F004003060F7E7F7
:1013B000FFF768FD0099411A41F28830814266D8F2
:1013C00030688007F4D50EE0FFF75CFD009007E081
:1013D000FFF758FD0099411A41F28830814256D8F2
:1013E00030688007F4D42FB1DBF8001021F0805171
:1013F000CBF80010A069C8B33D49091D0968C1F3C5
:10140000810102294AD00228504607D0C8F860005E
:1014100000E03CE0FFF736FD04463BE04746C8F8F5
:101420006000FFF72FFD064605E000BFFFF72AFD2D
:10143000801B02282BD828688001F7D4D4E9070143
:101440000843A16A2E4A490802EB0141626A41EA57
:101450008211084394F82C1040EA0161C9F8001089
:1014600001203866FFF70EFD044606E03EE000BFAF
:10147000FFF708FD001B022809D828688001F7D56E
:1014800034E000BFFFF7FEFC001B022802D9032056
:10149000BDE8F88F28688001F4D427E00128F7D050
:1014A000D9F80000E26900F4800191421CD1226A5F
:1014B00000F03F01914217D147F6C071626A0140C6
:1014C000B1EB821F10D1A26A4FF0FF3300F440311C
:1014D00003EB5202B1EB024F06D194F82C1000F04E
:1014E0007060B0EB016F01D00120D1E70020CFE7A1
:1014F0000438024000004742800E4742007000401E
:101500000000FFFF704790F85100704770B504006D
:1015100009D0606A002540B125616561A56294F833
:10152000510040B10CE0012070BD6068B0F5827FD1
:10153000F4D0E561F2E784F85050204600F044F81A
:10154000022084F851002068016821F04001016008
:10155000A088218900F4827001F404410843A18924
:1015600001F400610843217C01F002010843217D60
:1015700001F001010843218B01F400710843217F30
:1015800001F03801084394F8201001F0800108436D
:10159000218D01F40051084321680860A0690421ED
:1015A00001EA104094F8241001F01001084321686A
:1015B00048602068C16921F40061C161656501204E
:1015C00084F85100002070BD70B586B00646142125
:1015D0006846FEF74DFE20493068884239D11F48E1
:1015E0000025016841F480510160006800F48050DA
:1015F00005901A481438016841F001010160006843
:10160000694600F001000590A02000900220CDE97D
:10161000010503200390052004901148FFF728FBE3
:10162000114C104820604FF0C06060604020C4E959
:1016300002050001C4E90405C001A561C4E9075021
:1016400020466562FFF760FA08B1FEF7D9FFB4647F
:10165000A66306B070BD000000300140443802406F
:101660000000024058640240680100202DE9F84F54
:10167000044690F8500000271D461646894601286A
:101680000DD04FF0010B84F850B0FFF7FBFB804604
:1016900094F85100BA46012804D0022793E00220B2
:1016A000BDE8F88FB9F1000F73D0002E71D0032080
:1016B00084F85100C4F854A0C4F83090A686E68699
:1016C000C4F838A0A4F83CA0A4F83EA0C4F844A0F4
:1016D000C4F840A0A068B0F5004F09D120680168A7
:1016E00021F0400101602068016841F480410160FF
:1016F00020680168490603D4016841F04001016097
:10170000E068B0F5006F606803D030B3012E24D0DC
:1017100041E008B1012E1CD1206B21680088C8600F
:1017200006E020688168890709D5216B0988C160B6
:10173000206B801C2063E08E401EE08609E0FFF7EE
:10174000A1FBA0EB0800A84202D3681C01D031E045
:101750007DB3E08E0028E4D120E0206B2168007882
:10176000087306E020688168890709D5216B09782C
:101770000173206B401C2063E08E401EE0860AE06F
:10178000FFF780FBA0EB0800A84203D3681C02D03F
:1017900010E017E06DB1E08E0028E3D14246294603
:1017A000204600F017FF08B120206065A06818B13E
:1017B00006E0FFE7032706E02068C1688068009024
:1017C000606D00B1012784F851B084F850A038460C
:1017D00066E700002DE9F041044690F8500000262D
:1017E000012809D0012784F8507094F85100002591
:1017F000012804D002264EE00220BDE8F08189B124
:1018000082B1032084F8510065652163A286E286D7
:10181000A56365642564A587E587A068B0F5004FDA
:1018200002D00BE0012636E02068016821F040017B
:1018300001602068016841F480410160A16C184892
:101840000864A16C1748C863A16C1748C864A06CF1
:101850000565E38E2268216B0C32A06CFFF7BEF9A0
:1018600038B1606D40F010006065012684F8517059
:1018700011E020680168490603D4016841F0400185
:1018800001602068416841F02001416020684168A2
:1018900041F00201416084F850503046ADE700004D
:1018A000652500086F25000843250008704770472C
:1018B00010B5401EB0F1807F01D3012010BD4FF064
:1018C000E02460610F21601701F048FA0020A06158
:1018D00007202061002010BD7047704770B590F858
:1018E0003C20012A32D0012480F83C40022280F8BA
:1018F0003D2003685A689D6822F070060A683243EA
:101900005A60134B02689A4214D0B2F1804F11D042
:10191000104B9A420ED0104B9A420BD00F4B9A426A
:1019200008D00F4B9A4205D00E4B9A4202D00E4B74
:101930009A4204D1496825F080031943916080F8E8
:101940003D40002180F83C10084670BD022070BD6B
:10195000000001400004004000080040000C00406E
:1019600000040140004001400018004010B5040090
:1019700003D094F83D0010B107E0012010BD002015
:1019800084F83C00204600F01FF8022084F83D0057
:10199000211D206800F002FF012084F8460084F831
:1019A0003E0084F83F0084F8400084F8410084F849
:1019B000420084F8430084F8440084F8450084F829
:1019C0003D00002010BD000008B5114A0168114813
:1019D000914211D1016841F00401016000680022C8
:1019E00000F00400009001211E20FFF7B9FABDE8C5
:1019F00008401E20FFF7A6BA074A914207D10168A6
:101A000041F008010160006800F00800009008BD86
:101A10000008004040380240000C004090F83D10A3
:101A2000012901D001207047022180F83D10016892
:101A3000CA6842F00102CA6000681149884214D0A5
:101A4000B0F1804F11D00F4988420ED00E49884224
:101A50000BD00E49884208D00D49884205D00D4967
:101A6000884202D00C49884204D1816801F0070104
:101A7000062903D0016841F0010101600020704790
:101A8000000001400004004000080040000C00403D
:101A900000040140004001400018004070B50446B9
:101AA00090F83C000025012817D0012684F83C60FE
:101AB000022084F83D002068826822F0770222F438
:101AC0007F4282600868502838D00DDC20284FD033
:101AD00005DC90B3102811D14AE0022070BD3028F7
:101AE00046D040280AD13BE060282FD070280DD086
:101AF000B0F5805F03D0B0F5005F12D0012584F807
:101B00003D60002084F83C00284670BDCB68D1E9D8
:101B10000121206800F0A6FE2068816841F077016D
:101B200009E0CB68D1E90121206800F09BFE206824
:101B3000816841F480418160E1E719E0CA68496841
:101B4000206800F0A1FE5021206806E0CA684968BC
:101B5000206800F0AAFE6021206800F08DFECEE72C
:101B6000CA684968206800F08FFE40212068F4E7C9
:101B7000226801461046F0E7704770B504460068D9
:101B800001694FF00005C943890715D4C168C943ED
:101B9000890711D4E91E016101202077206880693E
:101BA0008007204602D0FFF7E7FF04E000F098F836
:101BB000204600F096F8257720680169C943490757
:101BC00017D4C168C943490713D46FF004010161F8
:101BD000022020772068806910F4407F204602D0E0
:101BE000FFF7CAFF04E000F07BF8204600F079F828
:101BF000257720680169C943090716D4C168C9431C
:101C0000090712D46FF008010161042020772068D1
:101C1000C0698007204602D0FFF7AEFF04E000F065
:101C20005FF8204600F05DF8257720680169C94318
:101C3000C90617D4C168C943C90613D46FF010018F
:101C40000161082020772068C06910F4407F204699
:101C500002D0FFF791FF04E000F042F8204600F0C8
:101C600040F8257720680169C943C90708D1C168D0
:101C7000C943C90704D1891E0161204600F032F82A
:101C800020680169C943090609D4C168C943090626
:101C900005D46FF0800101612046FFF71DFE20682A
:101CA0000169C943490609D4C168C943490605D435
:101CB0006FF040010161204600F038F820680169AA
:101CC000C94389060BD4C168C943890607D46FF09C
:101CD000200101612046BDE87040FFF7FEBD70BDE8
:101CE0007047704770B500680D49884216D10D4C99
:101CF00000256068401C6060B0F57A7F04D1042143
:101D000009486560FFF7B1F82078401CC0B2207028
:101D1000052803D3052020F03FF8257070BD000092
:101D200000080040000000100004024070477047A7
:101D300010B504460068406994F83D10C0F3C01027
:101D4000212911D180B12068143050E8001F21F002
:101D5000800140E80012002AF5D1606B08B1FEF75F
:101D6000A7FD204600F055FE2068406994F83E101B
:101D7000C0F38010222911D180B12068143050E8BE
:101D8000001F21F0400140E80012002AF5D1A06BAD
:101D900008B1FEF78DFD204600F014FE002010BDB6
:101DA00070470000F8B5016804460868CA684B69C6
:101DB00010F00F0F4FF0000559D003F0010602F4A8
:101DC0009077374365D0C10705D0D10503D5216C85
:101DD00041F001012164410705D5D90703D0216CE9
:101DE00041F002012164810705D5D90703D0216C98
:101DF00041F004012164010707D502F020013143BD
:101E000003D0216C41F008012164216C00293AD0F3
:101E1000800604D5900602D5204600F008FE206812
:101E20004069216CC0F38010090700D460B32046DC
:101E300000F0C8FD20684069400621D520681430B4
:101E400050E8001F21F0400140E80012002AF5D1BF
:101E5000A06BA8B16C490165A06BFEF772FD00286C
:101E600011D0A06B016D01B0BDE8F04008478306BA
:101E70000FD593060DD52046BDE8F84000F0D7BD3C
:101E80002046FFF78DFFF8BD2046FFF789FF256448
:101E9000F8BD266B2023012E79D1C60677D5D6064C
:101EA00075D50868486800904869400640D5A16B20
:101EB000086840680004000CEAD0A28D8242E7D98D
:101EC000E085C869B0F5807F2DD020680C3050E8DF
:101ED000001F21F4807140E80012002AF5D120682B
:101EE000143050E8001F21F0010140E80012002AE0
:101EF000F5D12068143050E8001F21F0400140E87F
:101F00000012002AF5D184F83E30256320680C3099
:101F100050E8001F21F0100140E80012002AF5D11E
:101F2000A06BFEF7C5FCA08DE18D401A81B229E0BF
:101F3000A08DE18D401A81B2E08D0028A8D0002943
:101F4000A6D020680C3050E8002F22F4907240E8B0
:101F50000026002EF5D12068143050E8002F22F022
:101F6000010240E80026002EF5D184F83E302563BA
:101F700020680C3050E8002F22F0100240E80023C7
:101F8000002BF5D12046FFF7D2FEF8BDFFE705068E
:101F90002BD5150629D594F83D002128F5D1A06848
:101FA000B0F5805F01D12069B0B1206A411C216287
:101FB000216800784860E08C401E0004000CE0843A
:101FC000E3D12068C16821F08001C1602068C16848
:101FD00041F04001C160D8E7206A0088C0F30800E2
:101FE0004860206A801C2062E5E74006CDD5500697
:101FF000CBD5CA68204622F04002CA6084F83D3042
:1020000000F04DF9C1E70000CF28000838B50C4AB0
:102010000168914213D10A68002549680091FFF7D1
:1020200087FE084800684068C0F5007084B2214609
:1020300005A000F083FE002C01D00848055538BDEE
:1020400000440040CC01001044617461204C656E76
:102050006774683A25640D0A000000005E040020E1
:1020600070B5040004D094F83D00002510B106E0DE
:10207000012070BD84F83C50204600F023F8242055
:1020800084F83D002068C16821F40051C1602046F9
:1020900000F02EFD2068016921F490410161206863
:1020A000416921F02A0141612068C16841F4005171
:1020B000C1602564202084F83D0084F83E000020A3
:1020C00070BD0000F0B587B0064614216846FEF7E3
:1020D000CFF8DFF8D0C0306800253349022203234F
:1020E0000727324C60451CD12F481430066846F053
:1020F00010060660006800F010000590086840F0C7
:10210000010008600868694600F001000590580267
:102110008DE82500CDE903372046FEF7A9FD07B07D
:10212000F0BDDFF88CC06045F9D11F481030D0F801
:1021300000C04CF4003CC0F800C0006800F400305F
:102140000590086840F0010008600868694600F0E2
:10215000010005900C208DE82500CDE903372046CD
:10216000FEF786FD144C134820604FF00060C4E970
:1021700001054014C4E903506561A561E56125626C
:1021800020466562FEF7C0FC08B1FEF739FAB46379
:10219000002211462620A663FEF7E2FE2620FEF767
:1021A000D1FEBCE700100140303802400000024080
:1021B0000044004088600240CC01001090F83E309E
:1021C000202B0ED159B152B190F83C30012B08D0E0
:1021D000012380F83C300023036300F00FBD012091
:1021E0007047022070477047704700002DE9F843A0
:1021F000044690F83D001F4616460D4620284CD157
:10220000C5B1BEB194F83C00012846D0012084F845
:102210003C004FF00008C4F84080212084F83D00C5
:10222000FEF730FEA6848146E684A068B0F5805FA4
:1022300003D004E00120BDE8F883206928B12E46D0
:102240005FF0000584F83C800EE00026FAE780216C
:10225000204600F01DFDA0B9AEB116F8010B2168B3
:102260004860E08C401EE084E08C4B464FF000025A
:1022700000970028EBD14FF04001204600F008FD08
:1022800030B10320D7E735F8020BC0F30800E6E7CA
:10229000202084F83D000020CDE70220CBE77047E6
:1022A000FEE70000114808B5016841F480010160B3
:1022B000016801F480010091016841F4001101609E
:1022C0000068002200F40010009011461020FEF774
:1022D00047FE1020FEF736FE002211463B20FEF797
:1022E0003FFEBDE808403B20FEF72CBE30380240E0
:1022F000F0B587B014216846FDF7BAFF2B480024DB
:10230000016841F080010160016801F080010591E0
:10231000016841F001010160016801F001010591CE
:10232000016841F002010160016801F002010591BC
:10233000016841F01001016000681D4E00F01000BE
:102340000590012204213046FEF797FD194F012226
:1023500080213846FEF791FD0022B1143846FEF781
:102360008CFD00224FF470513046FEF786FD43F697
:10237000044000900125CDE901546946304603949C
:10238000FEF776FC4FF484500090CDE90154694685
:1023900038460394FEF76CFC4FF460608DE8310022
:1023A00069463846FEF764FC07B0F0BD303802409D
:1023B0000004024000100240104810B50E490160B0
:1023C0004FF48271416000218160C1604FF400725E
:1023D0000161C0E905121022C0E907214162816252
:1023E0000A21C162FFF792F8002803D0BDE810402F
:1023F000FEF706B910BD00000030014010010020BA
:1024000010B586B0002417480094019402940394F8
:1024100004941349059401605321C0E901144FF459
:102420007A71C0E903148461FFF7A0FA08B1FEF7DE
:10243000E7F84FF48050009069460A48FFF72EFBFA
:1024400008B1FEF7DDF8049404A906480594FFF7E7
:1024500045FA002801D0FEF7D3F806B010BD000001
:1024600000080040C801002010B586B000241648BE
:102470000094019402940394049412490594016019
:102480005321C0E90114611EC0E903148461FFF700
:102490006DFA08B1FEF7B4F84FF480500090694629
:1024A0000948FFF7FBFA08B1FEF7AAF8049404A95B
:1024B00005480594FFF712FA002801D0FEF7A0F8AE
:1024C00006B010BD000C0040100200200C4810B5F2
:1024D0000A4901604FF4E1314160002181600C2222
:1024E000C160C0E904128161C161FFF7B9FD002834
:1024F00003D0BDE81040FEF783B810BD00100140C6
:10250000440100100C4810B50A4901604FF4E13154
:102510004160002181600C22C160C0E90412816128
:10252000C161FFF79DFD002803D0BDE81040FEF714
:1025300067B810BD0044004088010010FEE7FEE7C8
:10254000704710B5806B01684A6822F003024A6048
:10255000416D41F010014165012180F85110FEF7F5
:10256000D1FF10BD10B5806BFFF7A1F910BD38B5D4
:102570000546846BFEF786FC024628680068C005A5
:1025800023D42068416821F020014160206841681F
:1025900021F0020141606421204600F01BF818B1CF
:1025A000606D40F020006065A068002118B92068C7
:1025B000C26880680090E186012084F85100606D57
:1025C00018B12046FEF79EFF38BD2046FFF76EF992
:1025D00038BD000038B504461248134B0068B0FB04
:1025E000F3F04FF47A73584300906068B0F5827F3F
:1025F0000DD10B46009200228021204600F016F8F3
:1026000070B1606D40F020006065032038BD009817
:1026100030B1401E009020688068C0430006F6D5A7
:10262000002038BD0C00001000366E012DE9F84383
:102630001E46914688460446089DFEF723FC401B33
:10264000351AFEF71FFC074625480068C0F3CB305B
:10265000684338E0701C37D0FEF714FCC01BA8425A
:1026600003D215B1009860B32CE02068416821F0D6
:10267000E00141606068B0F5827F0BD1A068B0F5E1
:10268000004F02D0B0F5806F04D12068016821F0BE
:1026900040010160A06AB0F5005F09D120680168BF
:1026A00021F4005101602068016841F4005101608B
:1026B000012084F85100002084F850000320BDE878
:1026C000F8830025401E00902068816838EA0100E8
:1026D00004D000214945BDD10020F0E70121F9E7F0
:1026E0000C0000107047FEF7D3BB000030B593B06C
:1026F00030216846FDF7BCFD14210CA8FDF7B8FD9C
:102700001D480025016841F080510160006800F01B
:10271000805011901948016841F4804101600068BF
:10272000022400F4804011900120009000040190E8
:102730008001CDE9064008AA0420A82182E8130000
:102740000B906846FEF728FD08B172B6FEE70CA9AB
:102750000F2081E831004FF4A0500F904FF48050CB
:10276000109005210CA8FEF72DFC002801D072B6B0
:10277000FEE713B030BD000040380240007000405A
:102780000248016841F470010160704788ED00E083
:102790000148FFF7F2B90000C8010020F0B5026857
:1027A000254C264D264E274F274B4FF0804CA042FC
:1027B00009D0604507D0A84205D0B04203D0B84246
:1027C00001D0984204D122F0700E4A6842EA0E020B
:1027D000A0421BD0604519D0A84217D0B04215D0F6
:1027E000B84213D0984211D0184DA8420ED0184DBF
:1027F000A8420BD0174DA84208D0174DA84205D0CB
:10280000164DA84202D0164DA84203D122F44075BD
:10281000CA682A434D6922F080022A4302608A680E
:10282000C2620A688262A04201D0984201D109695D
:10283000016301214161F0BD00000140000400403E
:1028400000080040000C004000040140004001402E
:10285000004401400048014000180040001C0040B6
:102860000020004010B5846842EA032224F47F442B
:102870000A432243826010BD826822F070020A433C
:1028800042F007018160704710B5036A046A24F0C2
:1028900001040462846924F0F00444EA021423F081
:1028A0000A020A438461026210BD10B5036A23F074
:1028B000100303628369046A23F4704343EA02321B
:1028C00024F0A00343EA01118261016210BD10B53A
:1028D000806B0021C185C184FFF762FA10BD70B51D
:1028E000846B2068406994F83D10C0F3C010002547
:1028F000212904D118B1E584204600F08AF8206827
:10290000406994F83E10C0F38010222904D118B118
:10291000E585204600F056F8206C40F01000206459
:102920002046FFF73DFA70BD10B50146806B09687F
:102930000968C9052FD40021C18501680C3151E80F
:10294000002F22F4807241E80023002BF5D10168AA
:10295000143151E8002F22F0010241E80023002B3E
:10296000F5D10168143151E8002F22F0400241E80E
:102970000023002BF5D1202180F83E10016B0129A6
:1029800009D101680C3151E8002F22F0100241E812
:102990000023002BF5D1016B012902D0FFF723FCA6
:1029A00010BD818DFFF7C3F910BD10B5806B016BB1
:1029B000012902D0FFF718FC10BD818D4908FFF7EF
:1029C000B6F910BD01680C3151E8002F22F4907265
:1029D00041E80023002BF5D10168143151E8002FA4
:1029E00022F0010241E80023002BF5D1016B0129FF
:1029F00009D101680C3151E8002F22F0100241E8A2
:102A00000023002BF5D1202180F83E100021016326
:102A1000704701680C3151E8002F22F0C00241E8F4
:102A20000023002BF5D1202180F83D10704708B518
:102A300090F83E10222901D0022008BD82684FF490
:102A400080539A4201D1016921B1816A9A421BD017
:102A50004AB10AE00268816A5268C2F308020A8039
:102A6000816A891C08E0026972B10268526802F04A
:102A70007F020A70816A491C8162C18D491E090466
:102A8000090CC18503D019E002685268F1E70168BA
:102A9000CA6822F02002CA600168CA6822F4807203
:102AA000CA6001684A6922F001024A61202180F867
:102AB0003E10016B012903D0FFF795FB002008BDF4
:102AC0000021016301680C3151E8002F22F010024F
:102AD00041E80023002BF5D101680A68D20602D52F
:102AE0000A6849680091818DFFF721F9E6E7000047
:102AF00070B5044600680169E26821F44051114351
:102B000001612169A068E2690843616911430843D2
:102B10002168CA6849F20C639A430243CA6020687C
:102B20004169A26921F44071114341613149206832
:102B3000884202D03049884202D1FEF7EDFA01E026
:102B4000FEF7DAFAE2690023192164253226B2F58C
:102B5000004F626828D0A0FB0101930F9200FDF79F
:102B60002FFB0146B0FBF5F06FF01802504301EB6C
:102B7000800006EB0010B0FBF5F000F0F002B1FBB6
:102B8000F5F002EB0012B1FBF5F06FF018035843BB
:102B900001EB800006EB0010B0FBF5F000F00F0039
:102BA00021681044886070BDA0FB010192185B4150
:102BB000FDF706FB0146B0FBF5F00201B1FBF5F0B5
:102BC0006FF01803584301EB800006EBC000B0FB28
:102BD000F5F000F0F80002EB4002B1FBF5F05843CD
:102BE00001EB800006EBC000B0FBF5F000F0070041
:102BF000D6E70000001001400014014038B58162A2
:102C000082850025134604460564222084F83E0090
:102C1000A26B1C48D063A26B1B481064A26B1B48BC
:102C2000D064A06B0A4605652168A06B091DFDF7FD
:102C3000D5FF206801684068009084F83C50206906
:102C400048B120680C3050E8001F41F4807140E822
:102C50000012002AF5D12068143050E8001F41F01E
:102C6000010140E80012002AF5D12068143050E834
:102C7000001F41F0400140E80012002AF5D1002079
:102C800038BD000029290008AB290008DF2800080A
:102C90002DE9F041984617460E460446069D27E06A
:102CA000681C25D02DB1FEF7EDF8A0EB0800A84276
:102CB0001ED920680C3050E8001F21F4D07140E884
:102CC0000012002AF5D12068143050E8001F21F0CE
:102CD000010140E80012002AF5D1202084F83D00CF
:102CE00084F83E00002084F83C000320BDE8F08119
:102CF0002068006836EA000004D00020B842CFD037
:102D00000020F3E70120F9E7084810B500680068E3
:102D1000C043C00605D406A000F010F80348FFF732
:102D200075F9BDE810400148FFF73CB88801001074
:102D300049444C450D0A0000FEE700000FB4054B66
:102D400010B503A9044A029801F01CFD10BC5DF8FF
:102D500014FB000075EA00083C0100100907090E89
:102D6000002804DB00F1E02080F80014704700F038
:102D70000F0000F1E02080F8141D704702E008C841
:102D8000121F08C1002AFAD170477047002001E0E5
:102D900001C1121F002AFBD1704770B504460025FF
:102DA0006FF02F0608E02068411C2160007805EBD9
:102DB000850106EB410145182068007800F004F811
:102DC0000028F0D1284670BD3038092801D80120EC
:102DD000704700207047000010B54421074800F0FC
:102DE00085FF00220A2106481FF030F8054CA0603C
:102DF00002F036F90020207010BD0000D4E1002060
:102E000015510008E80000102DE9F0470E468146F4
:102E100017461146304600F01CF94FF0FF3A0028E3
:102E20007DD000223946304600F0BFF800284FF030
:102E3000000075D1B6F90480B6F900305246A8EB0F
:102E40000301491C0AFA81F10FFA81FAB6F906C0AA
:102E5000B6F90210ACEB010C0CF1010C02FA8CF289
:102E6000B7F802C012B2ACEB010C0FFA8CFCBCF14B
:102E7000000F0EDD63F30F0468F30F0501EB0C0088
:102E800061F31F4460F31F45C9F800400120C9F8F1
:102E90000450B7F906107388CB1AD21A12B2002A5E
:102EA00013DDB6F9063099420FDA338863F30F0465
:102EB000B38861F31F4463F30F05114461F31F45A9
:102EC00009EBC001401C0C604D60B7F90220B6F957
:102ED00002108A4200DD1146B7F90630B6F9062025
:102EE000934200DA1A463B88B6F900C0521AA3EBA7
:102EF0000C031BB212B2002B10DD002A0EDD63445E
:102F000063F30F058B1863F31F456CF30F0409EB94
:102F1000C00361F31F441C605D60401C01E01AE0C7
:102F200017E0B7F9043036889F1BAAEB070636B2C4
:102F3000002E0EDD63F30F0461F31F44334463F38B
:102F40000F05114461F31F4509EBC001401C0C60E3
:102F50004D60BDE8F0875046FBE770B5B1F9003031
:102F6000B2F90040A34200DC23460380B1F90250CD
:102F7000B2F90240A54200DD2C464480B1F904605C
:102F8000B2F90450AE4200DA35468580B1F9061038
:102F9000B2F90620914200DB1146C1800120AB420C
:102FA00001DC8C4200DD002070BDF8B50D46044602
:102FB000B0F90000B1F900101646884247DBB4F9B9
:102FC0000210B5F90220914241DBB4F90410B5F9C1
:102FD000042091423BDCB4F90610B5F90620914279
:102FE00035DC96B3ADF800006088ADF802003246DB
:102FF0006946284600F099F8002827D0A088ADF847
:1030000000006088ADF8020032466946284600F0AC
:103010008CF800281AD02088ADF80000E088ADF8C0
:10302000020032466946284600F07FF800280DD09D
:10303000A088ADF80000E088ADF80200324669468D
:10304000284600F072F8002800D00120F8BD0020CA
:10305000F8BDB0F90020B1F904309A4213DCB0F9A0
:103060000420B1F900309A420DDBB0F90220B1F929
:1030700006309A4207DCB0F90600B1F90210884226
:1030800001DB0120704700207047F8B50D4604466B
:10309000B0F90400B1F900101646884243DBB4F9D8
:1030A0000600B5F9021088423DDBB4F90000B5F91D
:1030B0000410884237DCB4F90210B5F906209142B9
:1030C00031DC76B3ADF800006088ADF8020032461E
:1030D0006946284600F029F818BBA088ADF8000022
:1030E0006088ADF8020032466946284600F01DF8B7
:1030F000B8B92088ADF80000E088ADF8020032468B
:103100006946284600F011F858B9A088ADF80000CB
:10311000E088ADF8020032466946284600F005F81E
:1031200008B10020F8BD0120F8BD2DE9FC4114468E
:103130000E46B1F90020B0F9001005468A423ADB8C
:10314000B5F90400824236DCB6F90270B5F9022006
:10315000974230DBB5F906309F422CDC002C75DD40
:10316000401A9A1A401C521C00B212B200EBD070E6
:1031700002EBD27240105210904200DB10468442A3
:1031800000DD0446ADF80010288800222044ADF888
:1031900004006888ADF80200688831462044ADF824
:1031A00006006846FFF7C1FF40B1BDF804002044A7
:1031B000ADF804003FE00020BDE8FC81E888002273
:1031C000001BADF80200E888ADF8060031466846FD
:1031D000FFF7ABFF28B1BDF804002044ADF80400B0
:1031E00011E0A8880022001BADF80000A888ADF807
:1031F000040031466846FFF798FF50B1BDF8000063
:10320000001BADF80000BDF80200001BADF8020085
:1032100016E06888ADF80200688800222044ADF806
:10322000060031466846FFF780FF70B1BDF8000028
:10323000001BADF80000BDF806002044ADF8060004
:10324000314668461CF0D0FAB6E7FFE70120B3E745
:1032500010B5B1F90040B2F900309C4200DA2346C3
:103260000380B1F90240B2F902309C4200DA2346F1
:103270004380B1F90440B2F904309C4200DD23469A
:103280008380B1F90610B2F90620914200DC1146A4
:10329000C18010BD2DE9F0418AB007461EF072FDD5
:1032A0000026A34C054600960FB1F86801E011F026
:1032B00061FB606000691CF093F96068406908B1C7
:1032C0001CF08EF96068C0691CF08AF96068006AB9
:1032D0001CF086F96068016991B11CF02DFB20F0AB
:1032E000E7FD20F00DFB6068B0F85011E9B300680D
:1032F000017CC9071FD0C0684068E0B1002715E015
:10330000A0F850610AB0BDE8F081C11991F8301100
:1033100051B900F5AC7000F040FD616801EBC701E8
:103320000A6B0260496B41607F1CBFB26068B0F8F5
:103330005011B942E9D860684FF48071303017F00D
:10334000F3FD6068202100F5987017F0EDFD6068CE
:10335000A0F8506128461EF00FFD009060680068DC
:10336000436A13B122680099984717F021FC00F0D6
:103370002BF900F0FDF86F4D6F69D7BB17F0C9F955
:1033800016F0C2FA074600227F211CF03EF810F02A
:1033900005FD0146002238461CF026F810F051FFCA
:1033A0000146002238461CF085F8002203213846E9
:1033B0001CF076F80022032138461CF062F8002247
:1033C000032138461CF062F80022032138461CF025
:1033D00062F80022032138461CF067F856A13846EF
:1033E00017F018F900231A460621384618F088F914
:1033F0006F6128681EF0C0FC4FF4967840450CD2EF
:10340000206841F28831884234D9696800980844BC
:103410006860A868401CA8602CE01EF0B3FC28601F
:103420006068406828B100684FF47A71B1FBF0F031
:1034300000E06420696809B901216960A968F1B1F7
:103440004FF47A7251436A68B1FBF2F46E60AE6079
:10345000844200D90446286920442861E868401C59
:10346000E8601EF025FDC0F16403224633A1384612
:1034700017F007F92E4D08356C6814B137E0044693
:10348000E4E717F046F916F03FFA044600227F21E0
:103490001BF0BBFF10F082FC0146002220461BF00F
:1034A000A3FF10F0CEFE0146002220461CF002F8D9
:1034B0000022032120461BF0F3FF002203212046B7
:1034C0001BF0DFFF0022032120461BF0DFFF00225C
:1034D000032120461BF0DFFF17A1204617F09AF8C2
:1034E00000231A460421204618F00AF96C60286867
:1034F0001EF042FC40457FF605AF1EF043FC2860FD
:1035000002A817F0EDFB04990298401A820A514272
:1035100000EB81206621B0FBF1F39DF821109DF8AE
:103520002000CDE9000109A1204617F0AAF8E9E63C
:10353000300000108CE100203F000000257520467F
:1035400050530A25752525204350550025752E25F5
:1035500075206B422075736564202825642025251D
:10356000290A2564252520667261672E0000000067
:1035700070B50A4D002400BFC4EBC40655F8260000
:1035800008B117F089FB05EB86001C2117F0CCFC75
:10359000641CE4B2042CEFD370BD0000B0E2002044
:1035A000084949680AE04A68824202D00A688242B1
:1035B00003D10A7E42F001020A7649690029F2D15C
:1035C00070470000180000207047000004210148E7
:1035D00000F08CBBC8E100202021014800F086BB30
:1035E000E0E100202DE9FF410446DDE90A671D0006
:1035F0004FF0000002D1B6F5807F2BD003900190F0
:103600000290ADF80C100090ADF80410ADF80A204F
:10361000ADF80E203B463246294668461CF044F879
:103620003B463246294601A81CF03EF83B4632464E
:10363000294602A81CF038F83B463246294603A822
:103640001CF032F8BDF90000BDF90430984209DAE7
:10365000054608E02080491E6080A180521EE2805D
:10366000BDE8FF811D46BDF90820BDF90C108A4256
:1036700001DA164600E00E46B54203DA984206DB50
:10368000184604E08A4201DA104600E00846801E2F
:103690002080BDF90030BDF90420934201DD1D46B4
:1036A00000E01546BDF90800BDF90C10884201DDA7
:1036B000064600E00E46B54205DD934201DD19469F
:1036C00004E0114602E0884200DD0146891CA18029
:1036D000BDF90230BDF90620934201DA1D4600E033
:1036E0001546BDF90A00BDF90E10884201DA0646FA
:1036F00000E00E46B54205DA934201DA194604E0CD
:10370000114602E0884200DA0146891E6180BDF957
:103710000230BDF90620934201DD1D4600E015464A
:10372000BDF90A00BDF90E10884201DD064600E031
:103730000E46B54205DD934201DD194604E011460F
:1037400002E0884200DD0146891CE18088E7000034
:103750002DE9F04115460E460746114C1EF012FBAE
:1037600080462B4632463946204615F005FB20B1EF
:103770000020A062E06950B110E02C21204617F033
:10378000D3FB4FF00040A0620020BDE8F08140462E
:103790001EF0F2FAE06108B90120E0612046F4E78A
:1037A00004E2002010B51421074800F09FFA15F03C
:1037B000A9FA40B1054901600549416005498160A8
:1037C0000549C16010BDFEE7ECE10020D986010883
:1037D000558A0108258C0108A586010870B50D469B
:1037E00004461021284617F09FFB20680078012826
:1037F00004D0022807D0042807D008E0A08A288037
:10380000E08A688003E0E06800E00A2068602068E1
:103810004268002A03D02946BDE87040104770BDB9
:103820002DE9FE430446808A10B9E08A002874D04E
:10383000D4F82C805FEA080010D120460AF0FBFB88
:103840005FEA000869D020460CF0E0FF0022092161
:10385000404614F069F9607880075ED44FF48079AF
:1038600000274E4645460021284619F0BFFF384440
:1038700007B20021284619F0D7FFC11700EB1160ED
:10388000001210FB06F006B2284618F0ABFF050048
:10389000E9D10FB94E450CD0784201B24FF48030D7
:1038A00090FBF6F002B26B4604F1140000951BF099
:1038B000FBFEADF80450ADF8085094F8400000F05D
:1038C0000F000328404616D019F0DEF806464046A1
:1038D00018F094FF03460C200090B4F916103246FD
:1038E000404609F03FFFADF80800404618F0D8FF09
:1038F000C10713D018E019F05BF80646404618F0EF
:10390000F7FF024603200090B4F9141033464046F6
:1039100009F028FFADF80400E7E736E0BDF9041030
:10392000002901DDADF80450810705D4BDF904106C
:10393000002901DAADF80450410705D4BDF908109B
:10394000002901DDADF80850000705D4BDF90800D5
:10395000002801DAADF8085002AA01A9204620F09B
:10396000DDFDBDF90820BDF90410404600F08AFADB
:103970006078800709D4208BBDF8041008442083A8
:10398000608BBDF8081008446083BDE8FE832DE914
:10399000FC5F0446C06A5FEA000B71D094F84000F7
:1039A00000076DD015F07AFC019000684021457E3B
:1039B00058461AF065F84FF0000818B9A4F81E80B0
:1039C000A4F81C80584619F051F88246584619F060
:1039D00054F8064694F840004FF0640900F00F00D8
:1039E0000C2802D003284CD09AE0A4F81C8056B1D1
:1039F000B4F91E50002715F051FC00684946407E7E
:103A0000C0F1640022E0E08BC5F1640110FB01F11C
:103A100091FBF9F0E083584618F0F0FE0546584651
:103A200019F032F802460C200090B4F91E102B4613
:103A3000584609F097FEE083024600231EE07A19FB
:103A400017B210FB05F292FBF1F215B2002DF6D180
:103A5000ADF80070A4F81E806A460021204620F0D0
:103A60005DFD41F6FF72BDF90030514258460AF043
:103A700079FCBDF800100123084402B200214CE09B
:103A80009AE0A4F81E80BAF1000F0AD0B4F91C50D5
:103A9000002715F003FC00684946407EC0F1640031
:103AA00022E0A08BC5F1640110FB01F191FBF9F05C
:103AB000A083584618F01CFF0546584618F078FFBA
:103AC000034603200090B4F91C102A46584609F01A
:103AD00049FEA083014600231EE07A1917B210FBAD
:103AE00005F292FBF1F215B2002DF6D1ADF800709F
:103AF000A4F81C8000226946204620F00FFD41F604
:103B0000FF72BDF90030514258460AF0A3FBBDF8E0
:103B100000100123084401B2002258461BF0D6F8D9
:103B2000A08B002848D1E08B002845D1C6B9584663
:103B300018F0AAFF0546584618F060FE002D06DC76
:103B400000280DDD002D02DA01232A4604E00028BA
:103B500006DA0123404202B2002158461BF0B6F8B3
:103B6000BAF1000F19D1584618F0C2FE0546584662
:103B700018F01EFF002D07DC00280EDD002D03DAF3
:103B800001230022294605E0002806DA012300224D
:103B9000404201B258461BF099F80A215846019A52
:103BA00013F0C2FF6078800706D414F8400F20F0AD
:103BB0000F00207044F8148CBDE8FC9F7FB50E46C2
:103BC000040003D110F0D6FE04002CD010F046FF04
:103BD000002828D094F82800400724D4002506B3F4
:103BE000ADF80050ADF80250204610F0DBFE401E4C
:103BF000ADF80400204610F01BFF401EADF8060093
:103C00006A46314602A8FFF7A8F900280BD02068C1
:103C1000017C890708D5DDE90001C4E90C01012018
:103C200029E0A4F850517FBD82690AB102A99047EA
:103C300000260AE004EBC601002202A83031FFF79B
:103C4000B4F90028EFD1761CB6B2B4F85001B042F6
:103C5000F0D880B2202804D204EBC00002A9303092
:103C600004E0A4F8505104F1300069460EF024FC41
:103C7000B4F85001401CA4F8500160680028D2D06C
:103C80001EF0C4F97FBD70B5054600F012F8044679
:103C90000CE02146284600F01EF80646214628463C
:103CA00000F0A2F8204616F0F7FF3446002CF0D1C1
:103CB00070BD002800D04068704700B50346002260
:103CC000FFF7F7FF03E01846521C00F004F801006C
:103CD000F9D1104600BD0068091D405870470068C2
:103CE00040587047002800D080687047002242602A
:103CF000C91C21F0030182600160704770B5044661
:103D00000068083016F03CFF050013D00146002281
:103D100020461FF0F9F92946204662681FF0EEF9A7
:103D2000616819B12A4620461FF0EEF96560A06867
:103D300000B9A560284670BD2DE9F0410C4606008B
:103D40000AD04CB1FFF7B5FFA04208D13046FFF7CB
:103D5000D5FF051E01D01EE00020BDE8F0813068CF
:103D6000083016F00DFF051EF7D030682A460759B7
:103D7000304639461FF0C2F93A46294630461FF010
:103D8000C3F92A46214630461FF0BEF9224629468D
:103D900030461FF0B3F92846DFE770B504460068E7
:103DA000083016F0EDFE050013D001460022204633
:103DB0001FF0A4F929462046A2681FF0A5F9A168C2
:103DC00019B12A4620461FF099F9A560606800B92C
:103DD0006560284670BD28B1416809B9806808B19E
:103DE000002070470120704770B504000DD0FFF728
:103DF00060FF00228842204608D1FFF76CFF606018
:103E0000011E01D000221EE0A26070BDFFF76AFF14
:103E10008842206808440AD10168A16029B120467F
:103E2000BDE8704000221FF069B9626070BD05688E
:103E30002046FFF750FF06460246294620461FF05F
:103E40005DF92A4631462046BDE870401FF05CB956
:103E500010B50446006882680AB121469047206880
:103E60000068002801D02060F5E710BD80680028B8
:103E700001D0B0F9160070478068002801D0807E1C
:103E80008009704770B5164605460C4651EA060093
:103E90001AD0284617F0AEFDA86801233246018AE1
:103EA00021440182A868418A314441822146284642
:103EB0001AF064F900220B21284613F035FE012880
:103EC00003D128461AF0B3F8012070BD77B581B050
:103ED0000E46050017D0622219F0B6FB040012D07E
:103EE000206880B128463146632219F0ADFB10F0FE
:103EF000FF0208D023682046039998470090BDF838
:103F00000000ADF80C00039804B070BD2DE9F04737
:103F1000074692B0408C1A9E40F004007884904688
:103F20003A8499468A463289384619F08DFB05460F
:103F3000A7F8209032895146384619F085FB04468F
:103F4000788CA54220F00400788403D12904B1EBD9
:103F5000044F68D0A7F8208032895146384619F0BE
:103F600073FB05468046A7F82090514638460BF073
:103F7000A9FC318900682A461CF05AFE30890B28BA
:103F800023D147F6FF794D4501D04C451DD1384628
:103F900019F02DFD00EBD0704510384618F0E1FB0C
:103FA00000EBD0704010C84506D1691C431C9942F3
:103FB00000DA00E0194688464C4506D1691C421CCF
:103FC000914201DA6C1C00E014461948FFF796FE96
:103FD00005002BD02F60C5E903843089A88068468E
:103FE000C5F808A00DF07CFD1248FF21CDE9005076
:103FF000114802901148039000200890CDE9090172
:1040000030880B9070889DF8421040420C90F06808
:104010000790002060F300018DF84210306906908F
:1040200068460DF0D1FD12B0BDE8F087FEE7000054
:10403000F8E10020F16E0208DD7002083970020814
:1040400014210148FFF752BEF8E100202DE9F84F96
:1040500000259046894606462C460427E5E000BF29
:10406000F16807EBC400085882017AD480B230EAC4
:10407000090211D05FF0000230EA08000ED00020E3
:1040800082426ED051F834A06A46102150461CF08E
:1040900031FB002871D103E00122EDE70120EFE7B9
:1040A0006A46112150461CF025FB002865D16A465E
:1040B000122150461CF01EFB00285ED16A461321D7
:1040C00050461CF017FB002857D16A461521504670
:1040D0001CF010FB002850D16A46142150461CF0F9
:1040E00009FBE8BB6A460A2150461CF003FBB8BB3B
:1040F0006A466B2150461CF0FDFA88BB6A466C216B
:1041000050461CF0F7FA58BB6A46012150461CF095
:10411000F1FA28BB6A46042150461CF0EBFAF8B9C4
:104120006A46022150461CF0E5FAC8B96A460321E6
:1041300050461CF0DFFA98B96A46052150461CF03B
:10414000D9FA68B96A46062150461CF0D3FA38B944
:104150006A46322150461CF0CDFA08B96A4601E0A1
:104160000BE061E06E2150461CF0C4FA28B96A46A3
:104170006D2150461CF0BEFA10B10320BDE8F88F47
:104180006A46692150461CF0B5FAE8BB6A466A21C6
:1041900050461CF0AFFAB8BB6A466E2150461CF080
:1041A000A9FA88BB6A466D2150461CF0A3FA58BB99
:1041B0006A46372150461CF09DFA28BB6A463821D2
:1041C00050461CF097FAF8B96A46352150461CF063
:1041D00091FAC8B96A46402150461CF08BFA98B94A
:1041E0006A46452150461CF085FA68B96A46412165
:1041F00050461CF07FFA38B96A46422150461CF0FE
:1042000079FA08B96A4600E00AE0432150461CF0FA
:1042100071FA28B96A46492150461CF06BFA08B178
:10422000022501E005B90125641C708CC0F3C500AE
:10423000A0423FF615AF2846A0E7000001484068BD
:1042400070470000300000100549002048600861F8
:10425000C86088600860486102490860486070472B
:104260008CE1002038000010C0F30410072800D9AA
:1042700007207047A0F57F41FF3905D0002804D002
:10428000712803D208490AE01F2070470749713896
:1042900080B2096829B1064A5268904201D2085C8E
:1042A0007047002070470000340B0308080100101D
:1042B000E400002010B518210348FFF717FD03495B
:1042C0000120087010BD0000A4E10020EC000020D7
:1042D0002DE9F04190460C46050015D0FBF7E5FFAF
:1042E0000A4F06462146BA68284690470446BA68EF
:1042F0002819414690470146701A03E06218AA5CEB
:104300002A55641CA042F9D2BDE8F0810C010010CE
:104310002DE9F041094D90460E466A681C46074655
:1043200019469047306020B120686A6838440021FF
:104330009047C8F80000BDE8F08100000C010010B3
:104340002DE9F04F87B08A46DDE910581F469346A5
:104350000446002105B129805CB12078002809D0ED
:10436000BAF1000F05D0002618F0060F15D0002076
:1043700004E0002007B0BDE8F08F401C215C0A2952
:1043800004D00D2902D00029F7D100E0401C002DF7
:10439000F0D04FF0FF312980ECE75FEA887001D55B
:1043A00041F6FF77894608468DF81410049127E0FE
:1043B0000498CDF8189068B34FF0000C05AA06AB2E
:1043C000CDF80CC0CDF80080CDE9013220443B4649
:1043D0005A4651461DF07EFF06997A1A314417B2AB
:1043E0000EB288B104990144049120780A280BD0B8
:1043F0000D2809D0605C0A280FD00D280DD0084682
:10440000205C08B1002FD3DC049848B105B12E80A0
:104410000498AFE74FF0010CD0E7481C0490F3E795
:10442000064A04A9204652689047002DF0D0014664
:104430000022504613F08CFC06B2E8E70C01001095
:104440002DE9F0411746884606001ED0002F1CD0EB
:10445000FBF72BFF04463846FBF727FF050014D077
:104460000B4A2C444146926830469047411903E07C
:10447000621BB25C3255641EA142F9D930442A460F
:104480003946BDE8F04116F011BDBDE8F0810000ED
:104490000C01001000230278232902D0012A0DD03C
:1044A0000FE02AB10021012A04D0022A04D008E03A
:1044B000012101E0017004E0017001E0202902D037
:1044C0000123184670470221F6E72DE9F0410E4618
:1044D000804602460021334608461EF039F904465C
:1044E0000027401C16F04CFB050008D02F55334622
:1044F0004246611C1EF02CF92846BDE8F081FEE71B
:104500002DE9F0471E4614460D468246DDF8209000
:1045100015E000BF4FEA540808FB065739465046DD
:104520004A469047002808DD44F30000C0EB5404DD
:1045300007EB0605A4F1010401E005DA4446002C6E
:10454000E8D12046BDE8F0873846FBE72DE9FC5F5F
:104550009B460CAB8A468146DDE9116093E8121058
:10456000DDE90F575FEA80784FF030031AD45EB16F
:104570005FEAC07808D000F00C0858EA0C0803D0B5
:10458000761E01E00B55641CBC4204D2202CF9D3EA
:1045900001E00B55641C5FEAC07803D0B44201D23D
:1045A000202CF6D35FEAC06825D55FEA40580AD4CC
:1045B0004CB1BC4201D0B44205D1641E03D0102DD1
:1045C00003D1641E04E0102D02D0022D0AD00EE0AB
:1045D000850603D4202C1ED2782506E0202C1AD282
:1045E000582502E0202C16D262250D55641C202C83
:1045F00011D20B55641C202C0DD2BCF1000F01D040
:104600002D2306E0430701D52B2302E0030702D543
:1046100020230B55641CCDE900BAC84615468146D7
:104620008B46AA46800714D1274607E02A46DDE9D3
:1046300000316D1C2020C446E0477F1CB742F5D3F3
:1046400007E02A466D1C641EDDE900311BF80400FA
:10465000C047002CF5D15FEA897006D409E02A46EC
:10466000DDE900316D1C2020C047A5EB0A00B042F7
:10467000F5D32846BDE8FC9F2DE9F04F8FB0994651
:104680008B46DDE91818DDE91C63DDE91A4792461F
:104690008646002209B923F01003580507AD00D55E
:1046A000C9B1B1FBF4F004FB1010C0B20A2801D26A
:1046B000303009E05FEA836C02D54FF0410C01E035
:1046C0004FF0610C60440A38B1FBF4F1A854521C5D
:1046D00009B1202AE5D3CDF80880CDE90563CDE9FD
:1046E0000052CDE903474B46524659467046FFF704
:1046F0002DFF0FB0BDE8F08F2DE9FF4F8FB01CAC40
:10470000DDE9239594E8030820AC94E8C004002474
:1047100050EA010201D125F010056A050DF11C08CF
:1047200002D550EA010217D032463B46FBF748FD5E
:10473000D2B20A2A01D2303206E0AB0601D54123BB
:1047400000E061231A440A3A08F80420641C50EA85
:10475000010201D0202CE7D3CDE90084CDF808B0C8
:10476000CDE90595CDE9036A0FAF97E80F00FFF794
:10477000EDFE13B0BDE8F08F9A4200D28854704726
:10478000704700002DE9FF4F8BB09A460F46054653
:10479000002606E025280BD052460D9990476D1C47
:1047A000761C28780028F5D10FB03046BDE8F08F90
:1047B0000024A0460122604900E0044315F8013FAF
:1047C000203B02FA03F00842F7D128782E2817D1AF
:1047D00015F8010F44F004042A280ED06FF02F02C0
:1047E0002878A0F1300109290AD808EB880102EBEA
:1047F000410100EB01086D1CF2E757F8048B6D1CBA
:10480000287869283ED006DC0028CDD063280BD05C
:10481000642804D136E0732810D075284BD0524656
:104820000D999047761C85E017F8040B8DF8000071
:1048300000208DF80100E946012003E057F8049BB1
:104840004FF0FF3061074FF0000401D40AE0641C10
:1048500044450DDA8442FADB19F804100029F6D138
:1048600006E0641C8442FCDB19F804100029F8D12E
:10487000264404E019F8010B52460D999047641E36
:10488000F8D257E001CF4FF00A0B002802DA40427D
:104890002D2102E0210504D52B218DF824100121C2
:1048A00003E0E10705D02021F7E70DF12009089189
:1048B0000CE00021F9E701CF4FF00A0BF9E7594668
:1048C000FBF711FD01F1300209F8012D0028F6D1A6
:1048D000ADEB090000F1200B600701D44FF0010897
:1048E000D84502DDA8EB0B0000E000208046002444
:1048F00006E009A85246005D0D999047641C761C9D
:1049000008988442F5DB04E0302052460D99904728
:10491000761CB8F10001A8F10108F5DC05E019F8F2
:10492000010B52460D999047761CBBF10001ABF18B
:10493000010BF4DC6D1C34E7092801002DE9FF4F61
:1049400089B005460A9800249246002800D1FE4D01
:104950008FE1252804D02246641C53460A990BE2B5
:10496000491C4FF0000808460C9101782B2919D0FA
:1049700004DC202919D0232904D119E02D290ED0D7
:10498000302909D00026C8B2FEF71EFAB0B10CA833
:10499000FEF703FA06461FE048F001010AE048F07E
:1049A000020107E048F0040104E048F0080101E0DA
:1049B00048F01001401C88460C90D6E70C99087806
:1049C0002A2809D1169840C81690002E02DA48F01D
:1049D00002087642491C0C910C984FF0000B0178AC
:1049E0002E2919D1401C0C9048F480680078FEF7FD
:1049F000EBF920B10CA8FEF7D0F983460CE00C9A35
:104A000010782A2808D1169802C81690002900DCD0
:104A10000021521C8B460C920C9801786C290AD00C
:104A200004DC68290FD06A2919D128E0742929D01B
:104A30007A2914D126E0401C0C90017848F4807843
:104A40006C291CD00BE0401C0C90017848F08008C9
:104A5000682904D148F04001401C88460C90024669
:104A60000078692822D015DC62281FD00DDC2528AB
:104A700071D050281AD058287FF46DAF16E048F452
:104A80000071E9E748F48071E6E7632878D064288C
:104A9000F2D10BE0732874D004DC6F2806D07028A4
:104AA000EAD103E0752801D07828E5D178280DD027
:104AB00058280BD070280BD0502809D06F2816D05A
:104AC000622816D00A2128F0100016E0102107E015
:104AD0005078102148F48878562804D1521C0C9242
:104AE0001078582807D01078502804D006E0082104
:104AF00009E0022107E048F020008046107869288C
:104B000003D0642801D028F00C085FEA485001D592
:104B100028F00108107869281ED064281CD0562877
:104B200064D05FEA885072D5169804ABC01D00228D
:104B300083E806080292CDE9076820F00700534693
:104B4000F0E80212CDE900121690224628460A9992
:104B5000FFF7D2FD89E00AE15FEA885024D5169874
:104B600004AFC01D20F00703F3E8020216930023F0
:104B700087E80A08CDE90768002A03DA012102E084
:104B800080E0A6E000210023029119461B1A914102
:104B900001DA114603E00021404261EB0201534675
:104BA0002246CDE90001D1E75FEAC85004D5169846
:104BB00004C80FE0524215E05FEA486003D516983A
:104BC00010F8042B06E05FEA0860F0D5169830F87C
:104BD000042B12B21690CDE9021BCDE90468D00F68
:104BE000002AE7DDCDE9002053461EE01698AAEB27
:104BF000040202C816904868006800900A980B6882
:104C000001192846FFF79AFE04442FE0FFE75FEA08
:104C1000C8500CD5CDE9021BCDE9046816980021D7
:104C2000534604C8CDE900211690224619E05FEAF8
:104C3000486003D5169810F8042B08E05FEA086076
:104C4000169803D530F8042B92B200E004C81690F1
:104C50000020CDE90020CDE9021BCDE904685346D0
:104C6000224628460A99FFF707FD04460C98401C87
:104C70000C900C99087800287FF46BAE54457DD2D7
:104C800022467DE001275FEA887006D509E02246CA
:104C9000641C534620200A99A84738467F1CB0421E
:104CA000F5D316992246641C11F8040B169153464D
:104CB0000A99A8475FEA887006D4D7E72246641CA1
:104CC000534620200A99A84738467F1CB042F5D3A6
:104CD000CCE7169850F8049B16904B46BBF10000A9
:104CE00001D0014601E04FF0FF31484600E0401C92
:104CF00002780AB1491EFAD2C71A5FEA485003D5B2
:104D000058465F4500D307465FEA887006D512E033
:104D10002246641C534620200A99A84738467F1C27
:104D2000B042F5D307E000BF224609F10109641C37
:104D300053460A99A84799F8000040B15FEA4851E4
:104D4000F2D5BBF1010B01E081470008ECD25FEA2C
:104D5000887006D48AE72246641C534620200A99AC
:104D6000A84738467F1CB042F5D37FE706E02246CD
:104D7000641C534625200A99A84777E7AAF1010247
:104D8000534600200A99A8470DB02046BDE8F08F91
:104D900010B502004FF000000CD04B1E194200D09D
:104DA000FEE70A44521E9A43B2F5804F02D20C2A03
:104DB00001D9104610BD0C2010BD08444A1E401EEB
:104DC0009043114200D0FEE7704700002DE9F0410A
:104DD0000F4601210025044641862E460BE01B4963
:104DE000FBF76AFA10B16D1CADB202E0608E401C98
:104DF0006086761CB6B257F8260010B101780029FB
:104E0000EDD1208EA8421ED0A06A002610B115F068
:104E100043FFA662E06A10B115F03EFFE662E800CB
:104E200015F0AEFEA06238B1680015F0A9FEE06290
:104E300018B1A16A11B102E0FEE7FEE700256900A2
:104E400016F072F82586BDE8F0810000B82E010842
:104E50002DE9F84F8146407A0F4600F007000228FE
:104E600019D010468046974200DD3A461646032088
:104E70002A4C2B4A00EB460020F00305A06811687D
:104E80001035411A636805EB010C9C4505D2416859
:104E900021F0004124E00846E4E79D4219D89246FB
:104EA0004FF0FF3B48196168884210D900226946DB
:104EB0001C48CDF800B00CF083F8002269461A486F
:104EC0000CF07EF8A168DAF80000091AEAE7A06899
:104ED000DDE7284615F054FEC0B1416841F00041BD
:104EE00088EA6702416089EA02010160416801F0D5
:104EF0004041491C31F0804141608681A0F80E801C
:104F000005D500F110018160BDE8F88FFEE7A168CA
:104F100001F1100229448260A160F5E73000002011
:104F20000401001025E000082110010870B586B0CA
:104F300000224A4C8DF808208DF80C208DF81020A6
:104F4000E2888A4201D0FF22A270E18090F83C20E2
:104F5000142302F003024FF4B475012A24D0022A6C
:104F60005ED0A578AA4211D010F8265F05EB051592
:104F700005EB4505B5FBF3F52570407800EB001017
:104F800000EB4000B0FBF3F06070A27004AA03A82D
:104F9000CDE9000201EB41004FF6FF7101EA40004C
:104FA00002AB627821781BE0A678B24210D0868CE2
:104FB00006EB46067602B6FBF5F5A58090F82700CD
:104FC00000EB001000EB4000B0FBF3F06070A2704B
:104FD00004AA03A8CDE90002C9B202AB62783AE0A4
:104FE00008F033FD9DF810109DF80C00CB08BDF8BB
:104FF00000109DF8082063F30401ADF8001081084B
:10500000BDF8000061F34A10D10880B261F3CF20EF
:10501000ADF8000080B20090BDF8000006B070BD91
:10502000A678B24210D0868C06EB46067602B6FB16
:10503000F5F5A58090F8260000EB001000EB40008D
:10504000B0FBF3F02070A27004AA03A8CDE900021F
:10505000CAB2217802ABA088C2E700007400001039
:1050600010B5084C012020700748FEF722FE0028EA
:10507000A06803D0BDE810401CF0C8BFBDE81040D8
:105080001CF0B8BFE8000010D4E1002010B50446C1
:1050900090F84200A16B820709D4B4F840204AB1CD
:1050A000A2F57F43FF3B1BD0521EA4F84020B4F86A
:1050B0004020AAB909B1820712D521461448FEF74B
:1050C00093FEFFF7CDFFE16809B1204688472169CB
:1050D00009B1204688472046BDE8104015F0DCBDE8
:1050E000E26B52422263002911D0820702D4626B24
:1050F000524222634210521C62F3410084F8420083
:10510000A26A206A2262A062E06AE162A06310BD26
:10511000D4E1002070B5304D68681CF02DFE0646C5
:10512000687880F00100687047E00020287094F8EB
:1051300042006978C0F380028A4242D061F3820063
:1051400084F84200216B8A19030719D4002917DC5F
:10515000002A15DBC00709D1616939B120468847AB
:10516000216A01442162A16A0844A062A16809B1D0
:105170002046884794F8420040F0080084F8420036
:10518000206B8019206316D4E16A884200DD216318
:10519000E169204688470146606A884204D061621E
:1051A00062680AB120689047D4E90B01814202DBB2
:1051B0002046FFF76BFF287818B10848FEF779FD05
:1051C00003E021460548FEF786FD0400ADD11CF042
:1051D000D9FD686070BD0000E8000010D4E1002037
:1051E00070B5044640680D4608B1FFF7F9FF226824
:1051F000002A04D029462046BDE87040104770BD03
:1052000089B20DF0BEB889B20DF0F7B82DE9FF4FA5
:1052100099B09846DDE926B12D9816468A464FF09A
:105220000009042811D0052811D0062812D014280E
:1052300070D101270225002418FB06F00E901A9861
:10524000401E0D90701E069051E10027F2E70127E5
:105250000325F0E701270225FEF7F0FF0068D0F8EC
:105260003890E8E7289860430BEB202229986043A8
:105270000AEB202110124FEA212E7DD41A9B98426E
:105280007ADABEF1000F77DBB64575DAD2B2CBB26F
:10529000802A05DAC2F17F024FF0FF31520003E0AD
:1052A00001215200A2F580720992802B05DAC3F128
:1052B0007F034FF0FF325B0003E001225B00A3F5A8
:1052C00080730A930EFB080C199B0CFB05330793A4
:1052D0004318119372D4DDF834C063456EDC1EEBC5
:1052E00002036BD4DDF818C0634567DCDDF81CC031
:1052F00011FB05C1CDE915C112FB08F101FB05C188
:105300000C91D7B32D99052905D014290BD0062966
:1053100055D066E0EFE01598807807900C9881787A
:105320001698807810E0199A0E990EFB08FC02EB93
:1053300041010A180EFB08111CF802000790119891
:1053400003FB08F3085C995C079A91420AD00A9A19
:1053500011FB02F20A99C1F58073079911FB032131
:10536000C1F30721079A90420DD0099A10FB02F26F
:105370000998C0F5807301E02FE035E0079810FB35
:105380000320C0F3072008442C994008085527D073
:1053900015980178407801EB0020ADF80C000C98CE
:1053A0000178407801EB0020ADF8100016980178E4
:1053B000407801EB0020ADF8080023E04CE01598A0
:1053C00001881FFA89F0814207D00C99098881422F
:1053D00003D016990988814203D12C9900200855E1
:1053E00083E0FF210846CEE715980088ADF80C0051
:1053F00016980088ADF808000888ADF810002C98C1
:10540000FF210155BDF80C00BDF81010884209D1EC
:10541000BDF80810884205D12B98BDF80C1000EBA0
:10542000440017E00A98C2B2DDE903100EF07EFED8
:1054300004900998C2B2DDE902010EF077FE7F22E6
:10544000029004990EF072FE00902B98BDF80010A7
:1054500000EB4400018048E0079B93F800C05B78B4
:105460000CEB0323DDF8ACC09BB22CF81430DDF854
:10547000B4C0BCF1050F06D0BCF1060F06D0BCF1DC
:10548000140F09D10AE0079B9B780FE01FFA89FCF3
:10549000634501D1002309E0FF2307E0199B0EFBC0
:1054A000083C0E9B00EB43031CF8033008B90029AD
:1054B00005DBDDF834C0604503D1002901DD099822
:1054C0000AE0BEF1000F01D1002A04DB06998E45E7
:1054D00008D1002A06DD0A98C0F1FF0010FB03F096
:1054E000010A00E000212C980155641C24B22A987E
:1054F0008442FFF6B7AE1DB0BDE8F08F10B5818FC6
:1055000092B00446A9B168460CF0EAFA0B480121B2
:10551000CDE90040A08F0B9000200890CDE9090153
:10552000074807900748039068460CF04DFB12B0FF
:1055300010BD12B0BDE810401DF032BF1934020892
:105540009F1B01081B34020810B512F0E9FA002273
:10555000BDE810400A2101481CF078BC756E0208B5
:1055600010B50446406882080AD0496821F003015A
:10557000091D08446060204600F042F8204610BD36
:10558000FEE74068103120F00300884201D301207B
:105590007047002070472DE9FC47054648680C46D7
:1055A00020F0030001AA69461DF050FCDDE90070FF
:1055B00005EBC71101EB80098046D9F8340060B1D2
:1055C00064B1C4E9020504F10806C4603046042150
:1055D000FFF7F3FB864202D0FEE7FEE7FEE7C9F8DD
:1055E00034400120296900FA07F21143296105EBD3
:1055F000870100FA08F04A6902434A61BDE8FC8766
:1056000010B5044600F087F8046010BD2DE9FC4792
:1056100006464FF000000D0000900746019042D072
:105620000C46E9460DF10408802907D3084621F00D
:1056300057FC411F01208840401E04444246494611
:1056400020461DF003FC009C082C2CDA06EB84009D
:10565000019A40694FF0FF3101FA02F210400CD17B
:10566000641C3069A14008401DD021F031FC044683
:10567000009006EB8000406978B121F029FC0346D8
:1056800006EBC411019001EB8000476B5FB17868B5
:1056900020F00300A84201D2FEE7FEE7394630467B
:1056A000009A1EF053FD3846BDE8FC8710B504464D
:1056B000FFF7A6FF416841F002014160606840F0D9
:1056C0000100606010BD10B5044600F024F8416888
:1056D00021F002014160606820F00100606010BDAF
:1056E00070B506460D46084600F015F8040010D0C7
:1056F0002079C0070BD0686880080BD0214630465F
:1057000000F03CF821462846FFF72AFF05462846C8
:1057100070BDFEE7FEE7426800F1080122F00300D9
:10572000001F0844910800D1FEE7704770B5064697
:105730000C004FF000001ED0F2B120791546C007D2
:105740001BD011462046FFF71CFF78B129462046A2
:1057500000F025F805462046FFF752FF6868294605
:1057600040F0020068603046FFF715FF2046FFF763
:10577000AAFF04F1080070BDFEE7FEE77CB5054610
:1057800048680C4620F0030001AA69461DF05EFB44
:10579000DDE90023214628461EF0D8FC7CBD2DE91A
:1057A000F0410D46044600F10801281F0E186068FC
:1057B00006F1080720F00300401BA0F1040838465A
:1057C0000421FFF7FAFA874200D0FEE7606820F074
:1057D000030108EB0500001D814200D0FEE730798F
:1057E00000F0030040EA0800706020F003000C287D
:1057F00000D2FEE7207900F00300284360603046C5
:10580000FFF754FF3046BDE8F08138B5044613F089
:1058100045FD054613F077FD0028204605D0218F71
:10582000E18618F004FC012038BD11F03BFF002890
:1058300020461ED011F00AFE218FE08E81420CD04E
:105840002087E08E00906A461C21204612F06CF9F9
:105850000128E9D1204618F0EAFB284613F05FFD45
:105860000428E0D1204616F077FF002112F08AFECE
:10587000D9E711F073FFD6E770B512F051F905467C
:1058800016F0B0FF044628460DF0DEFB0146204628
:10589000BDE8704000221BF09DBD00002DE9F04FD7
:1058A0000D4687B00446002116F08AFE60B32946F3
:1058B000204600F061FA2946204600F06FF80021EA
:1058C000204617F0ADFD05900021204617F05CFE44
:1058D00004900021204617F06EFC012800D0002023
:1058E00080460021204617F0B1FF074600212046E0
:1058F00017F0DCFC42F2D17906464F450BD1608CA3
:10590000400508D4012707E007B02846BDE8F04F5E
:105910001C2115F009BB0027204616F0CFFEDFF84A
:1059200078A0834620460021BAF8042017F08CFEA8
:10593000D5F810C0AB682968CDF800C0CDF80C8050
:10594000CDE90131C2B239465846059B0AF02CF820
:1059500028834E4504D1608C800501D4012600E0E7
:105960000026204616F090FE074620460021BAF891
:10597000082017F069FEC2B2686900246B68E96804
:105980008DE81B0031463846049B0AF00DF8688309
:1059900007B0BDE8F08F00003C0000202DE9F34F78
:1059A00081B00C46019809F081FA0646019816F07C
:1059B00085FE8246304600F0E3FF2061400015F08E
:1059C0000DF920602069400015F008F9002541F626
:1059D0009A79A0603AE036F91510DFF82081494540
:1059E00033D10027DFF818B11FE03946019816F0CF
:1059F000E7FD5946009018F04AF8A8B9009809F058
:105A000067FA012810D1009809F058FAA8420BD182
:105A1000009817F0ECFF4146404501DA084602E0E5
:105A2000009817F0E4FF80467F1C019816F0DAFD1D
:105A3000B842DAD8B8F1000F03DBA16821F815806D
:105A400003E0A168002021F815006D1C2069A84220
:105A5000C1D800252F46284641F69B784B4615E0D5
:105A600036F91010414504DB0D44A5F5F8559B3D72
:105A70000BE0994204D1A16831F81010394403E0D9
:105A8000A26822F8101039440FB2401C21698142EB
:105A9000E6D80021019817F0C3FC2169C1F1010289
:105AA00000FB02A0C01B00B2002800DA0020002288
:105AB0004FF0FF331146C44611E000BF36F91170B4
:105AC00067450BDBA7F5F8579B3F3AB210FB02F393
:105AD000B3FBF5F3A76827F811300B46491C27697B
