:020000040800F2
:10000000988E00205D020008032C0008412800089B
:10001000012C000845050008E53300080000000039
:100020000000000000000000000000009D0100082A
:10003000CD07000800000000F9010008052C0008A9
:1000400077020008770200087702000877020008AC
:10005000770200087702000877020008770200089C
:10006000770200087702000877020008770200088C
:10007000770200087702000877020008770200087C
:1000800011070008770200087702000877020008CD
:10009000770200087702000877020008770200085C
:1000A00077020008C52C00087702000877020008D4
:1000B000770200087702000877020008770200083C
:1000C000770200087702000877020008770200082C
:1000D0007702000877020008C133000877020008A1
:1000E000CF070008770200087702000877020008AF
:1000F00077020008770200087702000877020008FC
:1001000077020008770200087702000877020008EB
:1001100077020008770200087702000877020008DB
:100120007702000877020008770200081D07000820
:1001300077020008770200087702000877020008BB
:1001400077020008770200087702000877020008AB
:10015000770200087702000877020008770200089B
:10016000770200087702000877020008770200088B
:1001700077020008770200087702000800000000FC
:100180007702000877020008DFF80CD000F022F9AF
:100190000048004719360008988E00202C4B19683B
:1001A0000868B0E8F04F80F30988BFF36F8F4FF015
:1001B000000080F3118870470000000008480068C4
:1001C000006880F308884FF0000080F3148862B65E
:1001D00061B6BFF34F8FBFF36F8F00DF00BF00BF6B
:1001E00008ED00E0DFF80C00016841F470010160E7
:1001F000704700BF88ED00E0EFF30980BFF36F8F19
:10020000134B1A681EF0100F08BF20ED108A20E96A
:10021000F04F106009B44FF0500080F31188BFF325
:100220004F8FBFF36F8F04F067F94FF0000080F33A
:10023000118809BC19680868B0E8F04F1EF0100F6B
:1002400008BFB0EC108A80F30988BFF36F8F704746
:1002500020000020EFF3058070470000064880472B
:1002600006480047FEE7FEE7FEE7FEE7FEE7FEE79B
:10027000FEE7FEE7FEE7FEE7B52C0008890100086F
:100280002DE9F05F0546002092469B4688460646CB
:10029000814640241BE0284641464746224600F05E
:1002A00089F853465A46C01A914110D31146184650
:1002B000224600F070F82D1A67EB01084F462246DF
:1002C0000120002100F067F817EB00094E41201EC5
:1002D000A4F10104DFDC484631462A464346BDE826
:1002E000F09F10B5431A934209D28318881803E08F
:1002F00010F8011D03F8011D521EF9D210BD40EA8D
:1003000001039B0703D009E008C9121F08C0042A93
:10031000FAD203E011F8013B00F8013B521EF9D27A
:1003200010BDD2B201E000F8012B491EFBD270478C
:100330000022F6E710B513460A4604461946FFF7B1
:10034000F0FF204610BD30B505462A460B4612F890
:10035000010B13F8014B08B1A042F8D01CB10028E2
:1003600002D06D1CF1E7284630BD30B50B46014682
:1003700000202022012409E021FA02F59D4205D344
:1003800003FA02F5491B04FA02F52844151EA2F1EE
:100390000102F1DC30BD202A04DB203A00FA02F130
:1003A000002070479140C2F1200320FA03F3194363
:1003B00090407047202A04DB203A21FA02F0002105
:1003C000704721FA02F3D040C2F120029140084365
:1003D00019467047064C074D06E0E06840F00103FF
:1003E00094E8070098471034AC42F6D3FFF7D0FEEC
:1003F0004050000860500008464910B54A6822F491
:1004000040324A604A6843681A434A6001684A6851
:1004100022F480724A6001684A68036942EA032252
:100420004A6001684A6822F040724A6001684A687E
:1004300083681A434A6001688A6822F400628A600D
:1004400001688A68C3681A438A60816A6FF07062C3
:10045000D14201688A6822F070628A6001688A6805
:100460000CD0836A1A438A6001688A6822F040527D
:100470008A6001688A68C36A1A4301E022F0405228
:100480008A6001688A6822F002028A6001688A68CC
:10049000037E42EA43028A6090F820100029016836
:1004A0004A680FD042F400624A6001684A6822F448
:1004B00060424A6001684A68174C436A04EB433360
:1004C0001A4301E022F400624A600168CA6A22F419
:1004D0007002CA620168CA6A838B104C04EB035332
:1004E0001A43CA6201688A6822F400728A6001684D
:1004F0008A6890F8303042EA43228A6001688A684C
:1005000022F480628A6001688A68406942EA802039
:10051000886010BD0023014000E0FFFF0000F0FFF5
:1005200010B5044600F0F8F9462000F0C3F900F0D9
:100530002FFA204600F0BEF900F02AFABDE810407C
:1005400000F00ABAFEE7000010B500F01BF8012227
:100550001102064800F051FE4FF47A7000F016FDCB
:10056000BDE8104002A002F03FBF000000100240B2
:10057000444854313120696E697469616C697A65E7
:10058000640D0A0000B585B014216846FFF7D0FE5F
:100590004FF4807000900120019002200390002011
:1005A00002906946024800F02BFD05B000BD000036
:1005B000001002402DE9F0470024254626464FF45E
:1005C0008079DFF86C8004E0012003F04BF86D1CAB
:1005D000EDB24F464946404600F00AFE08B9642D88
:1005E000F2D30025282003F03DF86006040EB9463A
:1005F00039464746404600F0FBFD012807D144F04C
:10060000010404E0012003F02DF86D1CEDB2494611
:10061000384600F0EDFD012801D1642DF2D3761C9F
:100620000025F6B2082ED4D32046BDE8F08700009E
:1006300000100240F0B585B004460026FFF7A2FF87
:10064000314F4FF4807500222946384600F0D5FD21
:10065000122000F09BFC01222946384600F0CDFD17
:10066000142002F0FFFF14216846FFF761FE00200E
:10067000CDE90050012002906946384600F0C0FCE8
:10068000142002F0EFFF2946384600F0B1FD28B1F2
:1006900037E0012002F0E6FF761CF6B22946384624
:1006A00000F0A6FD08B9642EF3D3002604E0012073
:1006B00002F0D8FF761CF6B22946384600F098FDC5
:1006C000012801D1642EF2D30026104DFFF772FFEE
:1006D000A855761CF6B2052EF8D303F0A1FD2978B3
:1006E0006878AB78EA780E189F182D793E44AE42B0
:1006F00007D121706070A370E2702571012005B0F0
:10070000F0BD0020FBE700000010024018000020B0
:10071000014800F0C9BA000010030020014800F0B1
:10072000C3BA00009801002001681823CAB2103A29
:10073000B2FBF3F2054B6FF30901032A9B5CC3651F
:1007400000D9091D8165084670470000085000085F
:1007500010B5014600208B698A6A4FF0C07453B10E
:10076000B3F5005F15D072B1012A0CD0022A0AD06D
:10077000032A09D104E01AB1012A06D0022A03D1C2
:10078000C96AC90100D5012010BDC96AA142FAD0C9
:1007900010BD002AF7D0012AF2D0022AF3D0032A92
:1007A000F3D010BD30B50468256825F48025256098
:1007B000046863608368402B036803D09960006815
:1007C000C26030BD9A600068C16030BD70474FF4B0
:1007D000804000F009BC72B6FEE7002000BF401C5C
:1007E000C0B20A28FAD3704710B586B01421684603
:1007F000FFF79EFD2D48016841F01001016000687F
:100800002B4C00F0100005904FF440400090112058
:10081000019001200290022003906946204600F0DA
:10082000EFFB01229103204600F0E7FC0122D103F7
:10083000204600F0E2FC00F0E5FC044600F0E2FC9B
:10084000001B6428FAD30020FFF76AFE00F0DAFCF0
:100850004FEA000400F0D6FC001B0A28FAD301205E
:10086000FFF75EFE00F0CEFC4FEA000400F0CAFC89
:10087000001B0A28FAD30720FFF752FE00F0C2FC43
:100880004FEA000400F0BEFC001B0A28FAD3112036
:10089000FFF746FE00F0B6FC4FEA000400F0B2FCA1
:1008A000001BB428FAD306B010BD00003038024057
:1008B000001002402DE9F041164F054600244FF488
:1008C00000484FF4804600223146384600F095FC3F
:1008D000FFF783FF280601D5012200E000224146F0
:1008E000384600F08AFC6806050EFFF776FF012205
:1008F0003146384600F081FCFFF76FFF641CE4B21C
:10090000082CE0D331463846BDE8F041002200F023
:1009100074BC00000010024070B501220D4DD403DC
:100920002146284600F069FC0122960331462846FC
:1009300000F063FCFFF751FF00222146284600F03B
:100940005CFCFFF74AFF31462846BDE870400022B4
:1009500000F053BC0010024070B50C4D4FF4004441
:1009600000222146284600F048FC01229103284637
:1009700000F043FCFFF731FF01222146284600F03A
:100980003CFCBDE87040FFF728BF000000100240AB
:100990002DE9F0410122154DD6034FF47A7431460A
:1009A000284600F02AFCFFF718FF0122970339467A
:1009B000284600F022FCFFF710FF04E0641E240428
:1009C000240C0ED000BF3146284600F011FC002850
:1009D000F4D100223946284600F00FFC0020BDE883
:1009E000F081FFF7B9FF0120F9E700000010024095
:1009F00078B50024009490F83C20012A19D00122F7
:100A000080F83C200A6807230568092A13D9EE6894
:100A10000A3A02EB420293409E43EE600B788A68EA
:100A20000A3B03EB43039A400368DD682A43DA601C
:100A300010E0022078BD2E6902EB420293409E43F3
:100A40002E610B788A6803EB43039A4003681D69A3
:100A50002A431A614A681F23072A13D205686E6B5E
:100A6000521E02EB820293409E436E630B790A880A
:100A70005B1E92B203EB83039A4003685D6B2A43CB
:100A80005A6327E005680D2A12D22E6BD21F02EBA3
:100A9000820293409E432E630B790A88DB1F92B239
:100AA00003EB83039A4003681D6B2A431A6311E02A
:100AB000EE6A0D3A02EB820293409E43EE620B799E
:100AC0000A880D3B92B203EB83039A400368DD6A08
:100AD0002A43DA62164B0568144A9D4206D10D6816
:100AE000122D03D1556845F48005556005689D4277
:100AF00018D10B68102B01D0112B13D1536843F47C
:100B000000035360096810290CD10A490A4A096890
:100B1000B1FBF2F101EB8101490000E0491E0091B7
:100B20000029FBD180F83C40002078BD0023014023
:100B3000002001401400002040420F0070B5040066
:100B40004FF0000503D0206C002610B107E0012013
:100B500070BD204600F01CF8666484F83C60206C90
:100B6000C00610D4206C20F4885040F002002064AD
:100B70002046FFF741FC6664206C20F0020040F044
:100B80000100206400E0012584F83C60284670BD27
:100B900010B586B0044614216846FFF7C9FB114919
:100BA000206888421CD110480021026842F48072FB
:100BB0000260006800F4807005900B4814380268E9
:100BC00042F001020260006800F001000590102070
:100BD00000900320CDE901016946044800F010FAB5
:100BE00006B010BD00200140443802400000024021
:100BF0002DE9F0410446876D00F004FB064694F8A9
:100C000035000025022806D08020606584F8345025
:100C10000120BDE8F0812068016821F01601016023
:100C20002068416921F080014161206C08B9A06C05
:100C300020B12068016821F0080101602068016886
:100C400021F0010101600CE000F0DCFA801B0528B6
:100C500007D920206065032084F8350084F83450DB
:100C6000D7E720680068C007EED194F85C103F20F9
:100C70008840B860012084F8350084F834500020A2
:100C8000C7E790F83510022903D080214165012083
:100C90007047052180F835100068016821F00101D6
:100CA00001600020704700002DE9F84304464FF032
:100CB0000009CDF8009063484FF41651A56D006807
:100CC000B0FBF1F72E6894F85C10082000FA01F1EF
:100CD00031420FD021680A6852070BD50A6822F00A
:100CE00004020A6094F85C108840A860606D40F0CF
:100CF0000100606594F85C104FF0010808FA01F0FB
:100D0000304208D021684969090604D5A860606DA1
:100D100040F00200606594F85C1004208840304286
:100D200008D021680968890704D5A860606D40F083
:100D30000400606594F85C1010208840304218D0A0
:100D400021680968090714D5A8602068016849036B
:100D500004D50068000308D5A16C07E00168C90547
:100D600003D4016821F008010160216C09B120461B
:100D7000884794F85C1020208840304231D02168A8
:100D80000968C9062DD5A86094F8350005282068A3
:100D9000016806D0490347D5006800031DD4616C83
:100DA0001CE021F0160101602068416921F08001FA
:100DB0004161206C08B9A06C20B12068016821F065
:100DC0000801016094F85C103F208840A86084F816
:100DD000358084F83490216D1FE0E16B09B1204625
:100DE0008847606D00282BD0606DC00714D00520A7
:100DF00084F835002068016821F001010160009845
:100E0000401C0090B84203D820680068C007F6D1A3
:100E100084F8358084F83490E16C002910D001B05A
:100E20002046BDE8F04308470168C905D5D40168EC
:100E300021F01001016084F8358084F83490CCE70B
:100E4000BDE8F883140000202DE9F041044600F0CD
:100E5000D9F906465CB1022084F83500002584F8F3
:100E600034502068016821F0010101600DE001208B
:100E7000BDE8F08100F0C6F9801B052805D92020C7
:100E80006065032084F83500F2E720680068C00739
:100E9000F0D12268116820480140D4E901031843C9
:100EA000D4E903363343184363691843A3691843ED
:100EB000E3691843236A18430843616A042903D18C
:100EC000D4E90B1319430843106020684069666A2F
:100ED00020F0070130460E43012704280CD1A06AF8
:100EE0000643E06A40B12046FFF732FC20B14020C3
:100EF000606584F83570BAE7206846612046FFF7E0
:100F000013FC94F85C203F2191408160656584F872
:100F100035700020ACE700003F8010F02DE9F04173
:100F20000446866D90F83400002501280DD001207C
:100F300084F8340094F835700020012F07D084F82D
:100F4000340002252846BDE8F0810220FBE7022795
:100F500084F8357060652046FFF724FC94F85C1037
:100F60003F208840B0602068016841F016010160B0
:100F7000206C20B12068016841F008010160206800
:100F8000016841F001010160DCE7000070B5044632
:100F900000F038F90546601C02D00448007804448B
:100FA00000F030F9401BA042FAD370BD08000020C9
:100FB00010B54FF48044A0420AD12146054800F004
:100FC00017F9012802D104A002F00EFA05480460C6
:100FD00010BD000000040240BCECB2E2B5BDBBF0A5
:100FE000D1E60A00143C0140044910B50A680242E7
:100FF00002D00860FFF7DCFF10BD0000143C014088
:101000002DE9F84FDFF8BCA10022012503264FF09F
:101010000F090AF1040BAAF1040E00BF0B6805FAD0
:1010200002F42340A34270D10F7907F00307012F88
:1010300001D0022F16D187684FEA420806FA08FC51
:1010400027EA0C07D1F80CC00CFA08FC4CEA070C94
:10105000C0F808C04768A7430C79C4F30014944053
:101060003C4344600C79E443A4070AD0C4684FEAC7
:10107000420C06FA0CF7BC438F6807FA0CF72743BB
:10108000C7600C7904F00304022C12D1D40800EBE1
:10109000840CDCF820405707FF0E09FA07F824EA11
:1010A0000804D1F8108008FA07F848EA0408CCF8D8
:1010B000208004684FEA420C06FA0CF7BC430F7913
:1010C00007F0030707FA0CF7274307604C6814F48E
:1010D000403F70D03C4C276847F480472760246825
:1010E00022F0030704F480440094384C07EB040C0E
:1010F000DCF8084897074FEA177809FA08F7BC4365
:10110000334FB84202D1002724E054E0314FB842B7
:1011100001D101271EE0304FB84201D1022719E06A
:101120002E4FB84201D1032714E02D4FB84201D110
:1011300004270FE02B4FB84201D105270AE02A4FC0
:10114000B84201D1062705E0284FB84201D1072750
:1011500000E0082707FA08F72743CCF80878DAF800
:1011600000405746D1F804C09C435FEACC2C00D520
:101170001C433C60DBF800405F46D1F804C09C4350
:101180005FEA8C2C00D51C433C60DEF800407746BB
:10119000D1F804C09C435FEA8C3C00D51C433C6002
:1011A000084F083F3C68D1F804C09C435FEACC3C40
:1011B00000D51C433C60521C102AFFF42FAFBDE841
:1011C000F88F0000083C01404438024000300140E4
:1011D000000002400004024000080240000C0240EF
:1011E000001002400014024000180240001C02409F
:1011F0000069084000D0012070470AB18161704742
:101200000904FBE7014880687047000008000020DF
:1012100070B5040025D094F83D00002520B984F86D
:101220003C50204600F0B8F8242084F83D002068A7
:10123000016821F0010101602068016841F400416A
:1012400001602068016821F40041016000F056FA55
:101250004D4A6168914201D84C4900E04C498842AE
:1012600001D2012070BD4B492368B0FBF1F15E68EB
:1012700026F03F060E435E606368934206D94FF442
:10128000967359434FF47A73B1FBF3F12368491C09
:101290001E6A26F03F06314319626168914210D8F8
:1012A0004900401EB0FBF1F2521CC2F30B02042AAB
:1012B00001D2042022E0B0FBF1F0401CC0F30B008F
:1012C0001CE0A268F2B301EBC10303EB0116431E5D
:1012D000B3FBF6F35B1C43F480431B0549D092B388
:1012E00001EBC10202EB0111401EB0FBF1F0401C0A
:1012F000C0F30B0040F4804040F400402168CA690C
:101300004CF6FF739A431043C861D4E907100143B8
:101310002068026822F0C00211430160D4E9030191
:1013200001432068826848F2FF339A431143816089
:10133000D4E9050108432168CA6822F0FF0210437E
:10134000C86001E00EE016E02068016841F001018C
:1013500001602564202084F83D00256384F83E5018
:10136000002070BD01EB4106431EB3FBF6F35B1C8E
:10137000B3E70120C2E701EB4101401EB0FBF1F0F1
:10138000401CC0F30B00B7E7A086010080841E005C
:1013900000093D0040420F0010B586B004461421FC
:1013A0006846FEF7C5FF13492068884220D11248DD
:1013B0000021026842F002020260006800F00200B0
:1013C0000590C02000901220CDE901010320039078
:1013D0000420049069460948FFF712FE06481030C1
:1013E000016841F400110160006800F400100590EC
:1013F00006B010BD005400403038024000040240E6
:10140000024881680278114481607047080000201A
:101410000B4810B5016841F400710160016841F4A6
:1014200080610160016841F480710160032000F077
:1014300099F80F2000F006F800F04AF8002010BDDF
:10144000003C024030B505461C4887B000240168C6
:1014500041F001010160006806A900F00100009060
:1014600001A800F02BF900F059F915494000B0FB34
:10147000F1F11548134A491E026040F2E732C0E913
:101480000324C0E90114846100F038FC040012D187
:101490000D4800F0BBFC04000DD1192000F034F819
:1014A000102D07D200222946192000F03BF80748EA
:1014B000056000E0012407B0204630BD44380240FA
:1014C00040420F0000000140700300200C0000208B
:1014D0000C4882B0016841F480410160006800F46A
:1014E000804000900748001F016841F08051016072
:1014F0000068002200F0805000900F21901E02B082
:1015000000F010B844380240002809DB00F01F0248
:10151000012191404009800000F1E020C0F8001155
:1015200070470000F0B40E4B1B680C46C3F3022357
:10153000C3F10705042D00D90425191D072901D27F
:10154000002300E0DB1E012606FA05F1491E2140BA
:1015500099409E40761E16403143F0BC01F054BFC6
:101560000CED00E0064900F0070208684FF6FF03A3
:10157000184040EA0220034A104308607047000008
:101580000CED00E00000FA052DE9F0470E460500DD
:1015900065D0DFF81481D8F80000F7B200F007003A
:1015A000B04207D288F80070D8F8000000F00700B9
:1015B000B04254D128683D4C810712D5400703D56D
:1015C000206840F4E05020602878000703D52068A8
:1015D00040F4604020602068A96820F0F0000843D3
:1015E00020602878C0072DD0304968680839012864
:1015F00012D0022813D0032811D0096889070029C6
:101600002DDA216821F0030101432160FFF7FAFD83
:10161000814641F2883A0EE009688903EFE70968DC
:101620008901ECE7FFF7EEFDA0EB0901514502D976
:101630000320BDE8F0872068696800F00C00B0EB7B
:10164000810FEFD1D8F80010404601F00701B142F8
:1016500007D90770006800F00700B04201D00120F0
:10166000E7E72878400705D52068E96820F4E050CE
:10167000084320602878000706D52068296920F4EF
:10168000604040EAC100206000F058F82168084A34
:10169000C1F30311515CC840064908600648006860
:1016A000FFF7D0FE0020C4E7003C024008380240AB
:1016B00010500008140000200C0000200F220260CF
:1016C0000C4A136803F003034360136803F0F0034C
:1016D0008360136803F4E053C36012684FF4E0536F
:1016E00003EAD20202610448006800F007000860C3
:1016F0007047000008380240003C02400448054999
:1017000000680968044AC1F38221515CC8407047EF
:101710001400002008380240205000080448054901
:1017200000680968044AC1F34231515CC8407047FF
:10173000140000200838024020500008154810B559
:10174000006810F00C02144813D04110042A0FD086
:10175000082A0ED10F4C241F2268236802F03F0292
:101760005B0207D52068C0F38810A0FB010106E0EA
:10177000084610BD2168C1F38811A1FB00010023B8
:10178000FEF77EFD2168C1F30141491C4900B0FB11
:10179000F1F010BD083802400024F4002DE9F84FA4
:1017A00004006ED02078DFF84C93C007A9F104053F
:1017B0004AD009F104000168C1F38101012908D070
:1017C0000068C0F3810002280AD1D9F80000400265
:1017D00006D52868800337D560680028E1D033E05B
:1017E0006068B0F5803F10D0B0F5A02F286810D009
:1017F00020F480302860286820F480202860606809
:10180000A8B1FFF7FFFC06460DE0286840F48030E1
:10181000F4E740F480202860F7E700BFFFF7F2FC10
:10182000801B642873D828688003F7D50CE0FFF785
:10183000E9FC064605E000BFFFF7E4FC801B6428D6
:10184000F0D828688003F7D42078DFF8AC828007CE
:101850004FF0000A3ED5A748001D016811F00C0F9B
:1018600008D00068C0F3810002280BD1D9F800002D
:10187000400207D42868800716D5E068012800D107
:1018800012E033E1E068B8B10120C8F80000FFF7CA
:10189000B9FC064605E000BFFFF7B4FC801B022838
:1018A000C0D828688007F7D52868216920F0F8009B
:1018B00040EAC10028600DE0C8F800A0FFF7A2FCD4
:1018C000064604E0FFF79EFC801B02281FD828680C
:1018D0008007F7D42078000722D5864F87486169B2
:1018E000703771B101210160FFF78CFC064604E0FE
:1018F000FFF788FC801B022809D838688007F7D5D5
:101900000EE0C0F800A0FFF77DFC064605E082E08F
:10191000FFF778FC801B02287DD838688007F7D451
:101920002078400768D5DFF8CCB100270BF13C0BDD
:10193000DBF80000C0000BD4DBF8001041F0805150
:10194000CBF80010DBF80000012700F08050009079
:101950006B4E3068C00510D4306840F48070306041
:10196000FFF750FC009005E0FFF74CFC0099401A8F
:10197000022850D83068C005F6D55E4EA0686C3697
:1019800001280FD00528306810D020F00100306009
:10199000306820F004003060A068B8B1FFF732FC76
:1019A00000900FE0306840F00100F4E740F00400E0
:1019B0003060F7E7FFF726FC0099411A41F28830C2
:1019C000814266D830688007F4D50EE0FFF71AFC34
:1019D000009007E0FFF716FC0099411A41F28830A9
:1019E000814256D830688007F4D42FB1DBF800105C
:1019F00021F08051CBF80010A069C8B33D49091D02
:101A00000968C1F3810102294AD00228504607D053
:101A1000C8F8600000E03CE0FFF7F4FB04463BE060
:101A20004746C8F86000FFF7EDFB064605E000BF3B
:101A3000FFF7E8FB801B02282BD828688001F7D429
:101A4000D4E907010843A16A2E4A490802EB014183
:101A5000626A41EA8211084394F82C1040EA01615D
:101A6000C9F8001001203866FFF7CCFB044606E0F9
:101A70003EE000BFFFF7C6FB001B022809D828681C
:101A80008001F7D534E000BFFFF7BCFB001B022844
:101A900002D90320BDE8F88F28688001F4D427E03C
:101AA0000128F7D0D9F80000E26900F480019142E2
:101AB0001CD1226A00F03F01914217D147F6C07154
:101AC000626A0140B1EB821F10D1A26A4FF0FF336E
:101AD00000F4403103EB5202B1EB024F06D194F80F
:101AE0002C1000F07060B0EB016F01D00120D1E745
:101AF0000020CFE70438024000004742800E4742F2
:101B0000007000400000FFFF70B5040009D0606A5B
:101B1000002540B125616561A56294F8510040B18E
:101B20000CE0012070BD6068B0F5827FF4D0E56103
:101B3000F2E784F85050204600F044F8022084F880
:101B400051002068016821F040010160A0882189CE
:101B500000F4827001F404410843A18901F400619A
:101B60000843217C01F002010843217D01F00101BD
:101B70000843218B01F400710843217F01F03801F3
:101B8000084394F8201001F080010843218D01F4EE
:101B90000051084321680860A069042101EA10404F
:101BA00094F8241001F0100108432168486020686F
:101BB000C16921F40061C1616565012084F85100AB
:101BC000002070BD70B586B0064614216846FEF749
:101BD000AFFB20493068884239D11F480025016891
:101BE00041F480510160006800F4805005901A486B
:101BF0001438016841F0010101600068694600F095
:101C000001000590A02000900220CDE901050320ED
:101C10000390052004901148FFF7F2F9114C104889
:101C200020604FF0C06060604020C4E90205000100
:101C3000C4E90405C001A561C4E9075020466562F6
:101C4000FFF702F908B1FEF7C6FDB464A66306B05B
:101C500070BD0000003001404438024000000240E6
:101C600058640240980100207047704770B590F8A2
:101C70003C20012A32D0012480F83C40022280F826
:101C80003D2003685A689D6822F070060A68324356
:101C90005A60134B02689A4214D0B2F1804F11D0AF
:101CA000104B9A420ED0104B9A420BD00F4B9A42D7
:101CB00008D00F4B9A4205D00E4B9A4202D00E4BE1
:101CC0009A4204D1496825F080031943916080F855
:101CD0003D40002180F83C10084670BD022070BDD8
:101CE000000001400004004000080040000C0040DB
:101CF00000040140004001400018004010B50400FD
:101D000003D094F83D0010B107E0012010BD002081
:101D100084F83C00204600F01FF8022084F83D00C3
:101D2000211D206800F0D4FF012084F8460084F8CB
:101D30003E0084F83F0084F8400084F8410084F8B5
:101D4000420084F8430084F8440084F8450084F895
:101D50003D00002010BD000008B501680B48B1F13E
:101D6000804F0BD00A4A914207D1016841F0080127
:101D70000160006800F00800009008BD016841F0B3
:101D800001010160006800F00100F5E74038024001
:101D9000000C004090F83D10012901D0012070474F
:101DA000022180F83D1000681149884214D0B0F13A
:101DB000804F11D00F4988420ED00F4988420BD076
:101DC0000E49884208D00E49884205D00D49884204
:101DD00002D00D49884204D1816801F0070106292B
:101DE00003D0016841F0010101600020704700004C
:101DF000000001400004004000080040000C0040CA
:101E000000040140004001400018004090F83D10DF
:101E1000012901D001207047022180F83D1001689E
:101E2000CA6842F00102CA6000681149884214D0B1
:101E3000B0F1804F11D00F4988420ED00E49884230
:101E40000BD00E49884208D00D49884205D00D4973
:101E5000884202D00C49884204D1816801F0070110
:101E6000062903D0016841F001010160002070479C
:101E7000000001400004004000080040000C004049
:101E800000040140004001400018004001680A6A57
:101E900041F211131A4207D10A6A9B101A4203D168
:101EA0000A6822F001020A60012180F83D1000203A
:101EB000704770B5044690F83C000025012817D003
:101EC000012684F83C60022084F83D002068826886
:101ED00022F0770222F47F4282600868502838D0CE
:101EE0000DDC20284FD005DC90B3102811D14AE03A
:101EF000022070BD302846D040280AD13BE060283F
:101F00002FD070280DD0B0F5805F03D0B0F5005F02
:101F100012D0012584F83D60002084F83C0028465A
:101F200070BDCB68D1E90121206800F035FF206841
:101F3000816841F0770109E0CB68D1E9012120688F
:101F400000F02AFF2068816841F480418160E1E768
:101F500019E0CA684968206800F0F2FF5021206843
:101F600006E0CA684968206800F0FBFF602120682D
:101F700000F01CFFCEE7CA684968206800F0E0FF67
:101F800040212068F4E7226801461046F0E77047D8
:101F900070B50446006801694FF00005C943890720
:101FA00015D4C168C943890711D4E91E0161012014
:101FB0002077206880698007204602D0FFF7E7FF7E
:101FC00004E000F0C1F8204600F053F925772068BE
:101FD0000169C943490717D4C168C943490713D4E4
:101FE0006FF004010161022020772068806910F4FD
:101FF000407F204602D0FFF7CAFF04E000F0A4F8BB
:10200000204600F036F9257720680169C9430907A1
:1020100016D4C168C943090712D46FF008010161E1
:10202000042020772068C0698007204602D0FFF78F
:10203000AEFF04E000F088F8204600F01AF925779A
:1020400020680169C943C90617D4C168C943C906D4
:1020500013D46FF010010161082020772068C06957
:1020600010F4407F204602D0FFF791FF04E000F01B
:102070006BF8204600F0FDF8257720680169C94318
:10208000C90708D1C168C943C90704D1891E0161C4
:10209000204600F0EFF820680169C943090609D419
:1020A000C168C943090605D46FF08001016120466B
:1020B000FFF7DAFD20680169C943490609D4C16800
:1020C000C943490605D46FF040010161204600F084
:1020D000DBF820680169C94389060BD4C168C9438C
:1020E000890607D46FF0200101612046BDE87040E9
:1020F000FFF7BBBD70BD000010B586B004461421CB
:102100006846FEF715F92068B0F1804F16D10C48EB
:102110000021026842F002020260006800F0020042
:1021200005904FF4806000900220CDE9010101206C
:10213000CDE9031069460348FEF762FF06B010BD03
:102140003038024000040240704770B5044690F8F1
:102150003C0000260D4601280FD0012084F83C00E9
:102160006AB1042A1DD0082A2FD00C2A3FD001269C
:10217000002084F83C00304670BD022070BD20680D
:1021800000F01CFE2068816941F00801816120682F
:10219000816921F004018161206881692A69114304
:1021A00011E0206800F03AFE2068816941F4006186
:1021B00081612068816921F4806181612068816981
:1021C0002A6941EA02218161D2E7206800F05CFEC1
:1021D0002068C16941F00801C1612068C16921F02E
:1021E0000401C1612068C1692A69114311E02068B6
:1021F00000F07EFE2068C16941F40061C161206881
:10220000C16921F48061C1612068C1692A6941EA1C
:102210000221C161ACE710B5040003D094F83D0081
:1022200010B107E0012010BD002084F83C002046DA
:1022300000F01EF8022084F83D00211D206800F007
:1022400047FD012084F8460084F83E0084F83F00F2
:1022500084F8400084F8410084F8420084F8430088
:1022600084F8440084F8450084F83D00002010BD47
:102270007047704700680349884201D1FFF7C0B832
:1022800070470000000001407047704710B50446D9
:102290000068406994F83D10C0F3C010212911D1A5
:1022A00080B12068143050E8001F21F0800140E820
:1022B0000012002AF5D1606B08B1FEF799FC2046A8
:1022C00000F003FF2068406994F83E10C0F38010CE
:1022D000222911D180B12068143050E8001F21F06C
:1022E000400140E80012002AF5D1A06B08B1FEF7CA
:1022F0007FFC204600F0C2FE002010BD70470000A9
:10230000F8B5016804460868CA684B6910F00F0FF9
:102310004FF0000559D003F0010602F490773743DF
:1023200065D0C10705D0D10503D5216C41F001016D
:102330002164410705D5D90703D0216C41F0020182
:102340002164810705D5D90703D0216C41F0040130
:102350002164010707D502F02001314303D0216C2D
:1023600041F008012164216C00293AD0800604D58F
:10237000900602D5204600F0B6FE20684069216C28
:10238000C0F38010090700D460B3204600F076FE49
:1023900020684069400621D52068143050E8001FAD
:1023A00021F0400140E80012002AF5D1A06BA8B14D
:1023B0006C490165A06BFEF764FC002811D0A06B8E
:1023C000016D01B0BDE8F040084783060FD59306C4
:1023D0000DD52046BDE8F84000F085BE2046FFF749
:1023E0008DFFF8BD2046FFF789FF2564F8BD266BF9
:1023F0002023012E79D1C60677D5D60675D5086873
:10240000486800904869400640D5A16B086840685C
:102410000004000CEAD0A28D8242E7D9E085C869A9
:10242000B0F5807F2DD020680C3050E8001F21F4DB
:10243000807140E80012002AF5D12068143050E87D
:10244000001F21F0010140E80012002AF5D12068A8
:10245000143050E8001F21F0400140E80012002A2B
:10246000F5D184F83E30256320680C3050E8001F19
:1024700021F0100140E80012002AF5D1A06BFEF710
:10248000B7FBA08DE18D401A81B229E0A08DE18DCE
:10249000401A81B2E08D0028A8D00029A6D020687B
:1024A0000C3050E8002F22F4907240E80026002EF5
:1024B000F5D12068143050E8002F22F0010240E8E6
:1024C0000026002EF5D184F83E30256320680C30BC
:1024D00050E8002F22F0100240E80023002BF5D135
:1024E0002046FFF7D2FEF8BDFFE705062BD51506FF
:1024F00029D594F83D002128F5D1A068B0F5805F7A
:1025000001D12069B0B1206A411C216221680078A4
:102510004860E08C401E0004000CE084E3D1206899
:10252000C16821F08001C1602068C16841F04001AC
:10253000C160D8E7206A0088C0F308004860206ABC
:10254000801C2062E5E74006CDD55006CBD5CA6891
:10255000204622F04002CA6084F83D3000F06FF956
:10256000C1E70000872F0008F8B5184A01689142BA
:102570002AD10A68002649680091FFF787FE1448AF
:1025800000684068C0F500700404240C10D0114DA0
:1025900011A128462E55FDF7D6FE20B1294612A0DE
:1025A00000F022FF04E0A5F80042012085F80402B3
:1025B0004FF400720749114800F0D0F8002803D00A
:1025C000BDE8F840FEF707B9F8BD00000044004040
:1025D00010030020B80300202B4D51545453554292
:1025E00052454356000000004D515454204D657330
:1025F000736167653A2025730A000000CC02002051
:1026000070B5040004D094F83D00002510B106E038
:10261000012070BD84F83C50204600F023F82420AF
:1026200084F83D002068C16821F40051C160204653
:1026300000F0BAFD2068016921F490410161206831
:10264000416921F02A0141612068C16841F40051CB
:10265000C1602564202084F83D0084F83E000020FD
:1026600070BD0000F0B587B0064614216846FDF73E
:102670005FFEDFF8D0C03068002533490222032313
:102680000727324C60451CD12F481430066846F0AD
:1026900010060660006800F010000590086840F021
:1026A000010008600868694600F0010005905802C2
:1026B0008DE82500CDE903372046FEF7A1FC07B0E1
:1026C000F0BDDFF88CC06045F9D11F481030D0F85C
:1026D00000C04CF4003CC0F800C0006800F40030BA
:1026E0000590086840F0010008600868694600F03D
:1026F000010005900C208DE82500CDE90337204628
:10270000FEF77EFC144C134820604FF00060C4E9D3
:1027100001054014C4E903506561A561E5612562C6
:1027200020466562FEF790FB08B1FEF754F8B463EB
:10273000002205212620A663FEF7F4FE2620FEF7E0
:10274000E3FEBCE7001001403038024000000240C8
:1027500000440040886002401003002090F83E30A2
:10276000202B0ED159B152B190F83C30012B08D03A
:10277000012380F83C300023036300F09BBD01205F
:102780007047022070477047704700002DE9F843FA
:10279000044690F83D001F4616460D4620284CD1B1
:1027A000C5B1BEB194F83C00012846D0012084F8A0
:1027B0003C004FF00008C4F84080212084F83D0020
:1027C000FEF720FDA6848146E684A068B0F5805F10
:1027D00003D004E00120BDE8F883206928B12E462B
:1027E0005FF0000584F83C800EE00026FAE78021C7
:1027F000204600F0A9FDA0B9AEB116F8010B216882
:102800004860E08C401EE084E08C4B464FF00002B4
:1028100000970028EBD14FF04001204600F094FDD6
:1028200030B10320D7E735F8020BC0F30800E6E724
:10283000202084F83D000020CDE70220CBE7704740
:10284000FEE700007FB5002415480094019402942F
:102850001249039401604FF48031C0E9011401254D
:102860000461057680F820400E49C0E90A14C5616C
:10287000C46080F830404561FEF760F908B1FDF7AB
:10288000AAFF0420CDE90005694602940448FEF73A
:10289000AFF8002801D0FDF79EFF7FBD002001406A
:1028A000A40000200100000F114808B5016841F4A0
:1028B00080010160016801F480010091016841F428
:1028C000001101600068002200F400100090052152
:1028D0001020FEF727FE1020FEF716FE002205212D
:1028E0003B20FEF71FFEBDE808403B20FEF70CBE74
:1028F0003038024010B5064800F012FF054C044A7B
:1029000000216060243A044800F03EFF206010BDC2
:10291000F84F000800000020C9400008F0B587B05B
:1029200014216846FDF704FD35480024016841F094
:1029300080010160016801F080010591016841F0AA
:1029400001010160016801F001010591016841F098
:1029500002010160016801F002010591016841F086
:10296000100101600068274E00F010000590012260
:1029700004213046FEF741FC234F012280213846D6
:10298000FEF73BFC00224FF488513846FEF735FC39
:1029900000224FF460513046FEF72FFC43F604004E
:1029A00000900125CDE90154694630460394FEF7B5
:1029B00027FB4FF48C500090CDE90154694638460E
:1029C0000394FEF71DFB4FF460608DE8310069460B
:1029D0003846FEF715FBA80300904FF48810CDE9A8
:1029E000010469463046FEF70BFB00220521282032
:1029F000FEF798FD2820FEF787FD07B0F0BD000028
:102A00003038024000040240001002400D4810B56A
:102A10000B4901600C49416000214FF48042816004
:102A2000C0E9031241618161C1610162FEF7F0FBFF
:102A3000002803D0BDE81040FDF7CDBE10BD00005A
:102A400000540040EC000020A0860100104810B5A2
:102A50000E4901604FF48271416000218160C160C4
:102A60004FF400720161C0E905121022C0E907218C
:102A7000416281620A21C162FFF746F8002803D053
:102A8000BDE81040FDF7A7BE10BD000000300140BA
:102A90004001002010B58EB00024079408940994DA
:102AA0000A940B941C2168460C94FDF741FC1E48C7
:102AB0004FF0804101605321C0E9011440F2E73139
:102AC000C0E9031480218161FFF718F908B1FDF70F
:102AD00082FE4FF48050079007A91348FFF7E9F9E9
:102AE00008B1FDF778FE1048FFF795FB08B1FDF738
:102AF00072FE0B940BA90C480C94FFF7B7F808B1C1
:102B0000FDF769FE6020CDE90004029408226946C1
:102B100005480494FFF719FB08B1FDF75CFE024875
:102B2000FFF7EAFA0EB010BDF801002010B586B02C
:102B300000241648009401940294039404941249CA
:102B400005940160A721C0E90114611EC0E90314C6
:102B50008461FFF7D3F808B1FDF73DFE4FF48050D4
:102B6000009069460948FFF7A4F908B1FDF733FE64
:102B7000049404A905480594FFF778F8002801D0CB
:102B8000FDF729FE06B010BD000C004040020020F9
:102B90000C4810B50A4901604FF4E1314160002151
:102BA00081600C22C160C0E904128161C161FFF73C
:102BB00027FD002803D0BDE81040FDF70CBE10BD76
:102BC00000100140880200200C4810B50A4901603D
:102BD0004FF4E1314160002181600C22C160C0E905
:102BE00004128161C161FFF70BFD002803D0BDE82D
:102BF0001040FDF7F0BD10BD00440040CC020020A5
:102C0000FEE7FEE710B54FF0E020006902F024F87F
:102C1000012803D0BDE8104001F01ABD10BD00002E
:102C200030B593B030216846FDF782FB14210CA823
:102C3000FDF77EFB1D480025016841F080510160D1
:102C4000006800F0805011901948016841F48041FB
:102C500001600068022400F480401190012000907F
:102C6000000401908001CDE9064008AA0420A821B3
:102C700082E813000B906846FEF790FD08B172B62B
:102C8000FEE70CA90F2081E831004FF4A0500F900F
:102C90004FF48050109005210CA8FEF775FC002819
:102CA00001D072B6FEE713B030BD000040380240DC
:102CB000007000400248016841F4700101607047F3
:102CC00088ED00E00148FFF763B9000070030020C1
:102CD000F0B50268254C264D264E274F274B4FF066
:102CE000804CA04209D0604507D0A84205D0B04230
:102CF00003D0B84201D0984204D122F0700E4A6845
:102D000042EA0E02A0421BD0604519D0A84217D05B
:102D1000B04215D0B84213D0984211D0184DA842F5
:102D20000ED0184DA8420BD0174DA84208D0174D11
:102D3000A84205D0164DA84202D0164DA84203D194
:102D400022F44075CA682A434D6922F080022A4362
:102D500002608A68C2620A688262A04201D0984218
:102D600001D10969016301214161F0BD0000014009
:102D70000004004000080040000C00400004014036
:102D8000004001400044014000480140001800405C
:102D9000001C00400020004010B5846842EA032275
:102DA00024F47F440A432243826010BD826822F0EB
:102DB00070020A4342F0070181607047F0B5026A71
:102DC00022F001020262036A42688469124E24F012
:102DD00073050C682C4323F002058B682B430D4DC3
:102DE000A84201D0B04205D123F00807CB683B438D
:102DF00023F00403A84201D0B04205D14D6922F46A
:102E0000407215438A692A4342608461496841637C
:102E10000362F0BD0000014000040140F0B5026A09
:102E200022F010020262026A436884690D6824F489
:102E3000E64444EA05248D6822F0200242EA0512A5
:102E40000F4D104EA84201D0B04206D1CF6822F0FB
:102E5000800242EA071222F04002A84201D0B042AA
:102E600007D14D6923F4406343EA85038D6943EA42
:102E7000850343608461496881630262F0BD00009C
:102E80000000014000040140F0B5026A22F48072A3
:102E90000262026A4368C46922F4007224F0730576
:102EA0000C68124E2C438D6842EA05220E4DA84252
:102EB00001D0B04206D1CF6822F4006242EA072274
:102EC00022F48062A84201D0B04207D14D6923F4B8
:102ED000405343EA05138D6943EA05134360C46117
:102EE0004968C1630262F0BD000001400004014076
:102EF00030B5026A22F480520262046A4268C369F1
:102F00000D6823F4E64343EA05238D6824F4005456
:102F100044EA0534084DA84202D0084DA84204D125
:102F20004D6922F4804242EA85124260C3614968D9
:102F30000164046230BD0000000001400004014053
:102F400010B5036A046A24F001040462846924F061
:102F5000F00444EA021423F00A020A438461026284
:102F600010BD10B5036A23F0100303628369046A7D
:102F700023F4704343EA023224F0A00343EA011130
:102F80008261016210BD10B5806B0021C185C184D2
:102F9000FFF7B4F910BD70B5846B2068406994F8F0
:102FA0003D10C0F3C0100025212904D118B1E584DB
:102FB000204600F08AF82068406994F83E10C0F37B
:102FC0008010222904D118B1E585204600F056F87A
:102FD000206C40F0100020642046FFF78FF970BD90
:102FE00010B50146806B09680968C9052FD4002116
:102FF000C18501680C3151E8002F22F4807241E84C
:103000000023002BF5D10168143151E8002F22F084
:10301000010241E80023002BF5D10168143151E889
:10302000002F22F0400241E80023002BF5D120219F
:1030300080F83E10016B012909D101680C3151E87B
:10304000002F22F0100241E80023002BF5D1016B84
:10305000012902D0FFF797FB10BD818DFFF715F90D
:1030600010BD10B5806B016B012902D0FFF78CFBFE
:1030700010BD818D4908FFF708F910BD01680C31BA
:1030800051E8002F22F4907241E80023002BF5D183
:103090000168143151E8002F22F0010241E80023B9
:1030A000002BF5D1016B012909D101680C3151E8E0
:1030B000002F22F0100241E80023002BF5D120213F
:1030C00080F83E1000210163704701680C3151E81F
:1030D000002F22F0C00241E80023002BF5D120216F
:1030E00080F83D10704708B590F83E10222901D0B5
:1030F000022008BD82684FF480539A4201D10169D1
:1031000021B1816A9A421BD04AB10AE00268816A01
:103110005268C2F308020A80816A891C08E00269C9
:1031200072B10268526802F07F020A70816A491C1B
:103130008162C18D491E0904090CC18503D019E0C3
:1031400002685268F1E70168CA6822F02002CA608A
:103150000168CA6822F48072CA6001684A6922F074
:1031600001024A61202180F83E10016B012903D041
:10317000FFF709FB002008BD0021016301680C3145
:1031800051E8002F22F0100241E80023002BF5D176
:1031900001680A68D20602D50A6849680091818DE3
:1031A000FFF773F8E6E7000070B5044600680169B0
:1031B000E26821F44051114301612169A068E2698C
:1031C00008436169114308432168CA6849F20C63E6
:1031D0009A430243CA6020684169A26921F44071A0
:1031E0001143416131492068884202D03049884208
:1031F00002D1FEF793FA01E0FEF780FAE2690023BC
:10320000192164253226B2F5004F626828D0A0FB50
:103210000101930F9200FDF733F80146B0FBF5F082
:103220006FF01802504301EB800006EB0010B0FB7A
:10323000F5F000F0F002B1FBF5F002EB0012B1FB8B
:10324000F5F06FF01803584301EB800006EB001017
:10325000B0FBF5F000F00F0021681044886070BDED
:10326000A0FB010192185B41FDF70AF80146B0FB93
:10327000F5F00201B1FBF5F06FF01803584301EBD4
:10328000800006EBC000B0FBF5F000F0F80002EBA8
:103290004002B1FBF5F0584301EB800006EBC000A3
:1032A000B0FBF5F000F00700D6E700000010014089
:1032B0000014014038B5816282850025134604461A
:1032C0000564222084F83E00A26B1C48D063A26BE8
:1032D0001B481064A26B1B48D064A06B0A460565AE
:1032E0002168A06B091DFDF719FE20680168406880
:1032F000009084F83C50206948B120680C3050E8B8
:10330000001F41F4807140E80012002AF5D12068C6
:10331000143050E8001F41F0010140E80012002A7B
:10332000F5D12068143050E8001F41F0400140E81A
:103330000012002AF5D1002038BD0000E12F00085E
:1033400063300008972F00082DE9F0419846174692
:103350000E460446069D27E0681C25D02DB1FDF7DA
:1033600051FFA0EB0800A8421ED920680C3050E89D
:10337000001F21F4D07140E80012002AF5D1206826
:10338000143050E8001F21F0010140E80012002A2B
:10339000F5D1202084F83D0084F83E00002084F818
:1033A0003C000320BDE8F0812068006836EA000098
:1033B00004D00020B842CFD00020F3E70120F9E785
:1033C000074810B500680068C043C00602D404482E
:1033D000FFF7CAF8BDE810400148FEF791BF0000B2
:1033E000CC020020FEE700000FB4054B10B503A986
:1033F000044A029800F028F810BC5DF814FB0000A5
:1034000001360008A00000200907090E002804DB8F
:1034100000F1E02080F80014704700F00F0000F188
:10342000E02080F8141D704702E008C8121F08C190
:10343000002AFAD170477047002001E001C1121F35
:10344000002AFBD1704700002DE9FF4F8BB09A4650
:103450000F460546002606E025280BD052460D995A
:1034600090476D1C761C28780028F5D10FB03046A7
:10347000BDE8F08F0024A0460122604900E004432B
:1034800015F8013F203B02FA03F00842F7D12878F3
:103490002E2817D115F8010F44F004042A280ED065
:1034A0006FF02F022878A0F1300109290AD808EB23
:1034B000880102EB410100EB01086D1CF2E757F8AF
:1034C000048B6D1C287869283ED006DC0028CDD0FE
:1034D00063280BD0642804D136E0732810D07528F7
:1034E0004BD052460D999047761C85E017F8040B97
:1034F0008DF8000000208DF80100E946012003E06E
:1035000057F8049B4FF0FF3061074FF0000401D4DF
:103510000AE0641C44450DDA8442FADB19F8041011
:103520000029F6D106E0641C8442FCDB19F8041083
:103530000029F8D1264404E019F8010B52460D99F0
:103540009047641EF8D257E001CF4FF00A0B0028D5
:1035500002DA40422D2102E0210504D52B218DF80D
:103560002410012103E0E10705D02021F7E70DF148
:10357000200908910CE00021F9E701CF4FF00A0B78
:10358000F9E75946FCF7F1FE01F1300209F8012D87
:103590000028F6D1ADEB090000F1200B600701D443
:1035A0004FF00108D84502DDA8EB0B0000E0002039
:1035B0008046002406E009A85246005D0D99904718
:1035C000641C761C08988442F5DB04E030205246E7
:1035D0000D999047761CB8F10001A8F10108F5DCBF
:1035E00005E019F8010B52460D999047761CBBF186
:1035F0000001ABF1010BF4DC6D1C34E7092801007C
:1036000013B54FF0FF33012269460248FFF7BEF8B9
:1036100000981CBD88020020FDF7FAFEFFF700FBB2
:10362000FFF77CF9FFF740F9FFF710FAFFF7B0FA60
:10363000FFF7CAFAFFF7EAF9FFF704F9FFF72AFAEA
:10364000FFF774FA012280210548FDF7D6FDFDF74A
:10365000CBF800F037F8FFF74DF900F045F8FEE73A
:103660000010024070B50C4D0446002029684862E5
:103670002846FEF78FFB214608A0FFF7B5FE286815
:10368000416AA142FCD3416A0AA0FFF7ADFEBDE842
:1036900070400148FEF7FABB4002002064656C618F
:1036A000795F75732073746172743A2025640D0A12
:1036B0000000000064656C61795F75733A202564D1
:1036C0000D0A0000EFF3058010B16FF005007047A0
:1036D0000448016811B14FF0FF30704701210160CB
:1036E000002070477000002010B5EFF3058010B186
:1036F0006FF0050010BD08480168012902D04FF0A5
:10370000FF3010BD054A002182F8141D022101601E
:1037100000F0A6FE002010BD700000200BE000E0CD
:1037200070B505464FF00004EFF3058050BB0DB1B6
:10373000686800E00020C10701D0012600E00026F3
:1037400000071FD46DB1D5E9021021B1502819D35B
:103750001EB1042002E020B114E0012000F099FF26
:1037600005E00EB1042000E0012000F087FF040016
:1037700008D00DB1296800E0002100F0D3FD0EB1A2
:1037800044F00104204670BD2DE9FF414FEA0103DA
:103790004FF00005EFF30581039549BB40B3802747
:1037A000182100244AB3166806B1344696691EB142
:1037B0003146761E382E02D21679F60703D0002045
:1037C00004B0BDE8F081566906B1B708D2F808C068
:1037D000BCF1000F0DD0D5685C2D18D312693AB139
:1037E00036B18DE806103A46214601F00AFA0390F8
:1037F0000DE0D6685EB912694AB903AACDE9001294
:10380000BAB2214601F0D0F9012800D003950398FF
:10381000D6E700002DE9F041134C0F460546E66857
:103820002068001D00F07EFC681C07D137B12168BC
:10383000BDE8F0410D48091D00F0C5BC20683544C5
:10384000B5424560216805D2A06BBDE8F041091D75
:1038500000F0A1BC606B091D00F09DFCA06A8542D0
:1038600000D2A562BDE8F08120000020B00A00204F
:103870002DE9F041054600F0B3FC2D4CA068401C3A
:10388000A06020682B4F10B1606930B32BE0256039
:10389000A068012827D1002606EB860007EB8000F0
:1038A00000F06BFC761C382EF6D3234800F065FC44
:1038B0002148143000F061FC1F48283000F05DFC06
:1038C0001D483C3000F059FC1B48503000F055FCBE
:1038D000194860631430A06305E02068E96AC06A93
:1038E000884200D82560606A401C60626864E86AAB
:1038F0002169884200D9206100EB800007EB80003D
:10390000291D00F060FC00F08BFC606900280CD0E1
:103910002068E96AC06A884207D208494FF080509F
:103920000860BFF34F8FBFF36F8FBDE8F0810000D9
:103930002000002000060020600A002004ED00E0C6
:1039400038B500F04DFC104C2068C8B90F4800F0A5
:1039500014FC0E48143000F010FC0C48E0601430E9
:1039600020610A4B0020F03B009003F1500210212F
:103970000A2000F0BCFE206010B105A100F0D2FCCE
:10398000BDE8384000F04CBC5C000020B40B0020C7
:10399000546D72510000000030B4026C0B46002AD6
:1039A0000BD0C1681144C1608468A14201D3016891
:1039B000C16030BC1846FCF794BC30BC70472DE9A0
:1039C000F041856B174604460026026C82B1C7B1F0
:1039D000E068FCF786FCE168206C091AE160226867
:1039E000914202D2A168081AE060022F16D017E0B7
:1039F0002068A8B9A06801F0AFF906460020A060D1
:103A00000EE06068FCF76DFC216C60680844606043
:103A1000A168884204D32068606001E005B16D1E92
:103A20006D1CA5633046BDE8F08110B5044690F8E2
:103A3000590058B101280CD002280FD0502080F333
:103A40001188BFF34F8FBFF36F8FFEE7206B00F03D
:103A5000FBFB2046BDE8104000F0F6BB10BD0000A7
:103A600010484FF47051420706D0C01D0D4920F098
:103A70000700411AC1F570510B4A00230144C2E905
:103A800000030839183A21F0070111604B600B6000
:103A90000B1AC0E9001393604FF00040536050616F
:103AA00070470000941200208C000020144E154C2A
:103AB000A6F29C474FF08058DFF84C9012E000BF10
:103AC00000F08EFBF068C568281D00F02BFBA06895
:103AD000401EA0606068401E606000F0A1FB2846A8
:103AE000FFF7A3FF60680028EAD138680128F9D9F8
:103AF000C9F80080BFF34F8FBFF36F8FF2E700006C
:103B00009C0A00202000002004ED00E0002807D0DF
:103B10000021816001600B460A46C16000F05EBE74
:103B20007047000070B51D46049C51B1C4F80020D8
:103B3000C4E90F010121204600F00CFE84F84C502E
:103B400070BD2460F4E700002DE9F05F8846DDE9F0
:103B50000B941546834691009A460A9EA522206B37
:103B6000FCF7DFFB6FF00301206B01EB85010844DC
:103B700020F00707780707D0502080F31188BFF3A3
:103B80004F8FBFF36F8FFEE70025B8F1000F0FD006
:103B90005FF00000221818F8001082F8341018F8AE
:103BA000001011B1401C1028F4D384F8435001E0F8
:103BB00084F83450382E00D33726E662C4E9136502
:103BC000201D00F0E5FA04F1180000F0E1FA24618C
:103BD000C6F138006462A061656584F858505246A9
:103BE0005946384600F05AFA2060B9F1000F01D06A
:103BF000C9F80040BDE8F09F30B5114900E011461A
:103C00000A688242FBD34B685C18844203D1406847
:103C100018444860084643681C18944209D1084C6F
:103C2000183C2468A24209D052681A4442600A68CB
:103C300012680260814200D0086030BD0460F9E77C
:103C40008C00002070B5002441600B4D0061914252
:103C500006D8D11A8269914206D2011D286907E06F
:103C60009A4203D2994201D3012403E0011DE8687E
:103C700000F091FA204670BD5C00002010B50446AB
:103C800000F0AEFAA06B28B15FF0000400F0C8FAB3
:103C9000204610BD0124F9E730B589B03C4D6EE0F7
:103CA0000498002806DADDE90601059A9047049891
:103CB000002864DB069C606910B1201D00F032FA18
:103CC00003A800F0D7F8024604980A2857D2DFE884
:103CD00000F00505052D334A05052D3394F828001D
:103CE00040F0010084F828000599A069059B014473
:103CF0002046FFF7A7FF68B3216A2046884794F85B
:103D0000280040073BD5002000900598A1690023BA
:103D100042181946204601F029F9D8B9502080F3FD
:103D20001188BFF34F8FBFF36F8FFEE714F8280F92
:103D300020F00100207022E094F8280040F00100FB
:103D400084F828000598A06128B181181346204600
:103D5000FFF778FF13E0502080F31188BFF34F8FF7
:103D6000BFF36F8FFEE794F82800810703D4204645
:103D700000F06AFA03E020F0010084F82800002235
:103D800004A9286800F03AFE002889D109B030BDA6
:103D90005C0000202DE9FC410F46054600F0A4FB25
:103DA00001A800F067F80446019818B101F04CF83A
:103DB000BDE8FC81254EAFB130690068D0B3002763
:103DC000291B3A46306800F0C1FA01F03DF800289E
:103DD000EED11F494FF080500860BFF34F8FBFF303
:103DE0006F8FE5E7A542EBD801F02EF8F068274683
:103DF000C068C468201D00F095F994F828004107B8
:103E000019D5A0692B4641193A462046FFF71AFFFB
:103E1000A8B100200346014600902A46204601F042
:103E2000A5F860B9502080F31188BFF34F8FBFF31E
:103E30006F8FFEE707E020F0010084F82800216A78
:103E400020468847B4E70127BAE700005C0000205D
:103E500004ED00E00648416B096829B1416BC9686F
:103E6000C9684968816270474FF0FF31FAE7000086
:103E70002000002070B5054600F0FCFE064E04460A
:103E8000B068844203D200F009F8012000E000206D
:103E900028602046B46070BD5C000020F8B5194D64
:103EA00020E0C068C4680668201D00F03BF9216A64
:103EB0002046884794F82800400713D5A06930446D
:103EC000B04206D924616060211DE86800F063F902
:103ED00008E000200346014600903246204601F0EB
:103EE00045F838B1E86801680029DAD12969C5E9DF
:103EF0000310F8BD502080F31188BFF34F8FBFF33C
:103F00006F8FFEE75C00002008484068401C4FF0BF
:103F1000500080F3118804D0BFF34F8FBFF36F8F31
:103F2000FEE7BFF34F8FBFF36F8FFEE794000020D3
:103F3000074CE068016841B1C0680021D0F800007A
:103F4000FFF728FFFFF7A8FEF3E701210020F7E7BE
:103F50005C0000202DE9F041044600F041F994F99D
:103F6000455004F1240609E0606A48B1304600F08B
:103F700033FF08B100F03AFA6D1E6DB2002DF3DC8C
:103F80004FF0FF3684F8456000F04AF900F028F958
:103F900094F9445004F1100709E0206948B138460B
:103FA00000F01AFF08B100F021FA6D1E6DB2002D6D
:103FB000F3DC84F84460BDE8F04100F031B9000062
:103FC0002DE9F0410546002700F08EFA324E3068A8
:103FD00008B9FFF745FD706905424ED1C5B30835F4
:103FE00068070ED005F00700C0F108000544680717
:103FF00007D0502080F31188BFF34F8FBFF36F8F2E
:10400000FEE72DB37068854237D823481830014643
:104010000C6801E020460C466168A94202D2216882
:104020000029F7D131688C4227D0076821680160E8
:1040300060680837411B10290FD96019420708D062
:10404000502080F31188BFF34F8FBFF36F8FFEE7CF
:1040500013E041606560FFF7CFFD61687068401A4A
:104060007060B268904200D2B06070690143002075
:10407000C4E90001F068401CF06000F0E5FE78073C
:1040800007D0502080F31188BFF34F8FBFF36F8F9D
:10409000FEE73846BDE8F0817400002010B5031F2C
:1040A0004FF080741C601B1F21F001011960191F63
:1040B000044B0B6014390A60091F6FF00202443888
:1040C0000A6010BD093F00081CB5FCF73DFA40F638
:1040D000B83407A0FFF788F96846FCF7ABFA10B9C7
:1040E0000AA0FFF781F9204600F052F9F1E700003D
:1040F0000D0A2D2D2D2052656164696E672044489C
:10410000543131202D2D2D0D0A000000444854312A
:10411000312072656164206661696C6564210D0AF5
:1041200000000000D0E9013201699A60D0E9012362
:104130005A604A68824201D182684A600022026164
:104140000868401E0860086870470000034B036061
:1041500003F15C000860802010607047DC0B0020D9
:10416000044B036003F15C0008604FF48070106042
:1041700070470000380E0020704700F108014FF032
:10418000FF32C0E90112C160016100210160704786
:1041900000210161704730B50B685A1C02D000F154
:1041A000080202E0026904E02246546825689D4244
:1041B000FAD953684B6099608A6051600861016860
:1041C000491C016030BD42684A6093688B60936807
:1041D0005960916008610168491C016070470000E6
:1041E000502080F31188BFF34F8FBFF36F8F0A49C0
:1041F0004868401C486001280CD10848006810F04D
:10420000FF0F07D0502080F31188BFF34F8FBFF30B
:104210006F8FFEE7704700009400002004ED00E07F
:104220000849486828B1401E486001D180F31188D0
:104230007047502080F31188BFF34F8FBFF36F8F0B
:10424000FEE700009400002070B500282AD0164D2B
:10425000A0F1080460686969084207D1502080F322
:104260001188BFF34F8FBFF36F8FFEE722683AB11B
:10427000502080F31188BFF34F8FBFF36F8FFEE79D
:104280008843606000F030F96068696808446860DD
:104290002046FFF7B1FC2869401C2861BDE870404A
:1042A00000F0D2BD70BD0000740000204FF0E0208F
:1042B00000210161816105494FF47A720968B1FBFF
:1042C000F2F1491E4161072101617047140000208D
:1042D00010B5FBF7BFFF114910280ED300F1E02005
:1042E00090F8F0030A78904207D2502080F31188AA
:1042F000BFF34F8FBFF36F8FFEE7094800688968EF
:1043000000F4E060884207D9502080F31188BFF3A1
:104310004F8FBFF36F8FFEE710BD000094000020A9
:104320000CED00E010B5084B002200BF53F83240FE
:104330001CB1521C082AF9D310BD43F8321003EB0C
:10434000C201486010BD0000C005002070B51546D0
:104350000E460446FFF744FF94F944100020491C20
:1043600001D184F8440094F94510491C01D184F826
:104370004500FFF755FFA06B28B92A46314604F1E6
:10438000240000F051F82046BDE87040FFF7E2BD80
:1043900010B5020014D00F48006B38B1502080F3E4
:1043A0001188BFF34F8FBFF36F8FFEE700F09CF8CB
:1043B00000211046FFF72EFA00F046FD002807D135
:1043C00005494FF080500860BFF34F8FBFF36F8FE8
:1043D00010BD00002000002004ED00E002490A6A40
:1043E0000260C96841607047200000200149012037
:1043F000C86170472000002010B50C4650B1094933
:1044000009681831FFF7C7FE2046BDE810400121BA
:10441000FFF700BA502080F31188BFF34F8FBFF32E
:104420006F8FFEE72000002070B514460D4668B17E
:104430000A4909681831FFF7C6FE0CB14FF0FF3585
:1044400021462846BDE87040FFF7E4B9502080F3CC
:104450001188BFF34F8FBFF36F8FFEE7200000205E
:1044600030B587B00024039405AA04A903A80494D6
:10447000FFF76CFEDDE903010094CDE90110002394
:1044800015A11748059A00F0BCFB164D0028E862FC
:104490001FD000F03BFD012809D0401C19D150204D
:1044A00080F31188BFF34F8FBFF36F8FFEE750206B
:1044B00080F31188BFF34F8FBFF36F8F4FF0FF3042
:1044C000A86201206861EC6007B0BDE8304000F0F0
:1044D00045B807B030BD000049444C45000000001D
:1044E000AD3A0008200000200248016B491C01631E
:1044F0007047000020000020164810B5016B11B174
:104500000121C16110BD0021C1610169124A01E0B0
:10451000B9B1491E01EB810352F82330002BF7D0CB
:1045200001EB810302EB830202F1080453685B682C
:104530005360A34201D15B685360DA680260016195
:1045400010BD502080F31188BFF34F8FBFF36F8FE2
:10455000FEE7000020000020000600201CB53748C0
:104560000168374A914207D1502080F31188BFF388
:104570004F8FBFF36F8FFEE700683149491E8842B5
:1045800007D1502080F31188BFF34F8FBFF36F8F97
:10459000FEE72C4908780190FF20087008788DF814
:1045A00000009DF800009DF8002000F0F00090420F
:1045B00007D0502080F31188BFF34F8FBFF36F8F68
:1045C000FEE79DF80000204C00F05000207007200E
:1045D000A06005E09DF8002052008DF80020401EEC
:1045E0009DF800201206F5D4A060032807D05020C3
:1045F00080F31188BFF34F8FBFF36F8FFEE74FF447
:104600004070A060019808700C482030016841F4A7
:1046100070010160016841F070410160FFF746FEE2
:1046200000206060FBF7DEFD0848016841F0404172
:104630000160FBF7C3FD00201CBD000000ED00E0A1
:1046400071C20F4100E400E09400002034EF00E06C
:1046500010B5502080F31188BFF34F8FBFF36F8FD9
:1046600000F00EFB18B104494FF0805008600020A4
:1046700080F3118810BD000004ED00E010B5024683
:104680000021012000F012F80446FFF73FFA20460F
:1046900010BD38B50B46002200901146012000F0F5
:1046A00026F80446FFF732FA204638BDF8B517461B
:1046B0000E46050013D005FB06F05030FFF780FCD6
:1046C00004000AD0002084F8460004F150023B4662
:1046D000314628460094FFF725FA2046F8BD5020C1
:1046E00080F31188BFF34F8FBFF36F8FFEE738B5AC
:1046F000049D18B153B1CAB181B120E0502080F3BC
:104700001188BFF34F8FBFF36F8FFEE7502080F308
:104710001188BFF34F8FBFF36F8FFEE7502080F3F8
:104720001188BFF34F8FBFF36F8FFEE739B1502071
:1047300080F31188BFF34F8FBFF36F8FFEE75024D4
:104740001C46012384F846302B460094FFF7EAF913
:10475000204638BD70B50D46040025D0FFF740FD5A
:10476000D4E90F20216802FB0011A1600021A163A0
:10477000216861600A46D4E90F01401E00FB012157
:10478000E16021464FF0FF3001F8440F487004F11A
:1047900010008DB1FFF7F1FC04F12400FFF7EDFCF0
:1047A000FFF73EFD012070BD502080F31188BFF35C
:1047B0004F8FBFF36F8FFEE721690029F0D000F023
:1047C0000BFB0028ECD004494FF080500860BFF389
:1047D0004F8FBFF36F8FE3E704ED00E02DE9FF4754
:1047E00082B01D468A464FF00008040003D0BAF19B
:1047F000000F08D011E0502080F31188BFF34F8FD5
:10480000BFF36F8FFEE7206C38B1502080F3118822
:10481000BFF34F8FBFF36F8FFEE7022D0AD1E06B1E
:10482000012807D0502080F31188BFF34F8FBFF3CA
:104830006F8FFEE700F010FA3F4F4FF000094FF086
:10484000805648B9049838B1502080F31188BFF3DE
:104850004F8FBFF36F8FFEE7FFF7C2FCA06BE16BDA
:10486000884207D3022D05D00498D0B1B8F1000FCB
:104870001AD01EE02A4651462046FFF7A0F8616A8A
:1048800019B104F1240000F0A7FA20B13E60BFF393
:104890004F8FBFF36F8FFFF7C3FC012006B0BDE859
:1048A000F087FFF7BDFC22E06846FFF797FD4FF069
:1048B0000108FFF7B5FCFFF717FEFFF791FC94F92D
:1048C0004400401C01D184F8449094F94500401CF8
:1048D00001D184F84590FFF7A3FC04A9684600F0D5
:1048E00029F930B12046FFF735FB00F0ADFA002082
:1048F000D4E7FFF775FCA06BE16B884213D1FFF79B
:104900008FFC04F110000499FFF776FD2046FFF7B5
:1049100021FB00F099FA00289ED13E60BFF34F8F33
:10492000BFF36F8F98E7FFF77BFC2046FFF712FB82
:1049300000F08AFA90E7000004ED00E02DE9F0476E
:104940001F4690468946040003D0B9F1000F08D0F5
:1049500011E0502080F31188BFF34F8FBFF36F8FAA
:10496000FEE7206C38B1502080F31188BFF34F8FE1
:10497000BFF36F8FFEE7022F0AD1E06B012807D04B
:10498000502080F31188BFF34F8FBFF36F8FFEE786
:10499000FFF79EFC5020EFF3118680F31188BFF3E0
:1049A0004F8FBFF36F8FA06BE16B884206D3022F4E
:1049B00004D0002086F31188BDE8F08794F94550B3
:1049C000A06B3A4649462046FEF7F9FF681C04D022
:1049D0006D1C84F845500120ECE7606A0028FAD08D
:1049E00004F1240000F0F8F90028F4D0B8F1000F29
:1049F000F1D00121C8F80010EDE700002DE9F747DC
:104A0000002683B08A46040003D0BAF1000F08D014
:104A100011E0502080F31188BFF34F8FBFF36F8FE9
:104A2000FEE7206C38B1502080F31188BFF34F8F20
:104A3000BFF36F8FFEE700F00FF9DFF8F4804FF05F
:104A400000094FF0805748B9059838B1502080F3DD
:104A50001188BFF34F8FBFF36F8FFEE7FFF7C0FBE7
:104A6000A56BC5B151462046FEF796FF6D1EA563A6
:104A7000206950B104F1100000F0AEF928B1C8F877
:104A80000070BFF34F8FBFF36F8FFFF7C9FB01209B
:104A900006B0BDE8F087059808B11EB106E0FFF743
:104AA000BFFB27E06846FFF799FC0126FFF7B8FB3C
:104AB000FFF71AFDFFF794FB94F94400401C01D165
:104AC00084F8449094F94500401C01D184F8459045
:104AD000FFF7A6FB05A9684600F02CF80028204641
:104AE0000AD0FFF737FA00F0AFF92046FFF7C6F813
:104AF0000028B3D00020CBE7FFF7C0F890B104F155
:104B000024000599FFF778FC2046FFF723FA00F010
:104B10009BF90028A2D1C8F80070BFF34F8FBFF3F4
:104B20006F8F9BE72046FFF715FA00F08DF995E7A8
:104B300004ED00E02DE9F0410C46050011D0C4B1B0
:104B4000FFF74EFB174BDA686E682068911B471C15
:104B500017D02F681B6A9F4219D0964217D801249C
:104B600010E0502080F31188BFF34F8FBFF36F8F99
:104B7000FEE7502080F31188BFF34F8FBFF36F8F94
:104B8000FEE70024FFF74CFB2046BDE8F081884299
:104B900005D9401A20602846FFF720FCF1E70020E5
:104BA0002060DCE7200000202DE9FF5F8346DDE97F
:104BB0000E87994616468A469000FFF701FA0500CF
:104BC0001CD05C20FFF7FCF9040014D00020256302
:104BD00084F85900CDE90240CDE900874B463246C2
:104BE00051465846FEF7B0FF2046FEF741FE012031
:104BF00004B0BDE8F09F2846FFF726FB4FF0FF30DA
:104C0000F6E7F0B585B0DDE90B640A9DA6B1DCB12D
:104C10005C2700972663022684F85960002604AFBB
:104C2000CDE90246CDE90057FEF78EFF2046FEF79C
:104C30001FFE049805B0F0BD502080F31188BFF32B
:104C40004F8FBFF36F8FFEE7502080F31188BFF3C3
:104C50004F8FBFF36F8FFEE70548416919B1006BB5
:104C600018B10020704701207047022070470000F3
:104C7000200000200148C06870470000200000208C
:104C80002DE9F041324C0027206B38B1A069401C5F
:104C9000A061FFF771FA3846BDE8F081E668761C3E
:104CA000E66013D1606B006838B1502080F3118842
:104CB000BFF34F8FBFF36F8FFEE7606BA16B616334
:104CC000A063206A401C2062FFF7C4F8A06ADFF8E6
:104CD0008480864209D3606B006890B1606BC068C5
:104CE000C568686886420FD2A0622068C06A00EB7F
:104CF000800158F82100012800D90127A069F8B1E6
:104D000020E04FF0FF30EFE7281DFFF70BFAA86A0D
:104D100018B105F11800FFF705FAE86A2169884221
:104D200000D9206100EB800108EB8100291DFFF70D
:104D30004AFAE86A2168C96A8842CCD30127CAE7DF
:104D4000FFF71AFAE0690028A5D00127A3E70000C1
:104D5000200000200006002070B504004FF0000184
:104D600033D01B4D2868844207D0502080F311882F
:104D7000BFF34F8FBFF36F8FFEE7206D38B1401E3A
:104D80002065E36CE26A9A421FD040B11DE05020DA
:104D900080F31188BFF34F8FBFF36F8FFEE7201DA5
:104DA000FFF7C0F9E06CE062C0F13800A061E06A92
:104DB0002969884200D92861064900EB800001EB8F
:104DC0008000211DFFF7FFF90121084670BD00009A
:104DD000200000200006002070B5C068C46854B1EF
:104DE00004F118000646FFF79DF9144D286B50B1E9
:104DF0003146134815E0502080F31188BFF34F8FE0
:104E0000BFF36F8FFEE7201DFFF78CF9E06A296979
:104E1000884200D928610B4900EB800001EB80003B
:104E2000211DFFF7D0F9E06A2968C96A884202D9D2
:104E30000120E86170BD002070BD0000200000204E
:104E4000880A0020000600202DE9F0472C4D0024A0
:104E50002746286B38B1FFF7C3F9286B401E28633B
:104E6000286B40B146E0502080F31188BFF34F8F8C
:104E7000BFF36F8FFEE7A968224E0120D1B3A6F5DC
:104E8000916980463068E0B1F068C46804F11800A8
:104E9000FFF748F9201DFFF745F9E06A29698842C4
:104EA00000D9286100EB800109EB8100211DFFF78B
:104EB0008AF9E06A2968C96A8842E3D3C5F81C8088
:104EC000E0E70CB1FEF7C6FFAC694CB14FEA08064B
:104ED000FFF7D6FE00B1EE61641EF9D10020A86193
:104EE000E86938B10849012738070860BFF34F8FD8
:104EF000BFF36F8FFFF794F93846BDE8F0870000E5
:104F000020000020880A002004ED00E010B586B0E3
:104F1000FEF716FD114C2068B8B1002003900490F4
:104F200005AA04A903A8FFF71BF9DDE90321022064
:104F30008DE8070000230AA10B48059AFFF761FEE0
:104F4000606010B106B0012010BD502080F31188C0
:104F5000BFF34F8FBFF36F8FFEE700005C000020B0
:104F6000546D722053766300313F00082DE9FF41F4
:104F70001E46134602000A9D4FF0000016D0144C46
:104F80002768002F0FD0CDE900130292062917DA07
:104F9000FFF762FE02284FF000030FD0002269469F
:104FA0002068FFF71BFC04B0BDE8F081502080F3BF
:104FB0001188BFF34F8FBFF36F8FFEE72A46EEE7EE
:104FC0000023324669463846FFF7B8FCEBE700009D
:104FD0005C000020285000080000000000000000D5
:104FE0000000000000000000000C0000180000009D
:104FF0000000000000000000345000080000000025
:105000000000000000000000000610160006101648
:105010000000000000000000010203040607080968
:10502000000000000102030473656E736F72546127
:10503000736B00006C76676C5F4D7574657800006B
:105040006050000800000020A40000002834000880
:1050500004510008A4000020F48D0000383400083A
:10506000000000000000000001000000100000002F
:10507000000000000024F400000000000000000018
:105080000000000000000000000000000000000020
:105090000000000000000000000000000000000010
:1050A0000000000000000000000000000000000000
:1050B00000000000000000000000000000000000F0
:1050C00000000000000000000000000000000000E0
:1050D00000000000000000000000000000000000D0
:1050E00000000000000000000000000000000000C0
:1050F0000000000000000000AAAAAAAA0000000008
:0451000000000000AB
:040000050800018965
:00000001FF
