:020000040800F2
:10000000D02200209D010008C31D0008251B000808
:10001000C11D00088B0300089D220008000000009D
:10002000000000000000000000000000C71D0008E4
:100030002104000800000000C51D0008C91D0008BB
:10004000B7010008B7010008B7010008B7010008B0
:10005000B7010008B7010008B7010008B7010008A0
:10006000B7010008B7010008B7010008B701000890
:10007000B7010008B7010008B7010008B701000880
:100080008D030008B7010008B7010008B701000898
:10009000B7010008B7010008B7010008B701000860
:1000A000B7010008B7010008B7010008B701000850
:1000B000B7010008B7010008711E0008B701000869
:1000C000B7010008B7010008B7010008B701000830
:1000D000B7010008B70100086D220008B701000849
:1000E000B7010008B7010008B7010008B701000810
:1000F000B7010008B7010008B7010008B701000800
:10010000B7010008B7010008B7010008B7010008EF
:10011000B7010008B7010008B7010008B7010008DF
:10012000B7010008B7010008B701000899030008EB
:10013000B7010008B7010008B7010008B7010008BF
:10014000B7010008B7010008B7010008B7010008AF
:10015000B7010008B7010008B7010008B70100089F
:10016000B7010008B7010008B7010008B70100088F
:10017000B7010008B7010008B7010008000000003F
:10018000B7010008B7010008DFF80CD000F0C0F894
:100190000048004789ED0008D0220020064880472B
:1001A00006480047FEE7FEE7FEE7FEE7FEE7FEE75C
:1001B000FEE7FEE7FEE7FEE7611E00088901000892
:1001C0002DE9F05F0546002092469B46884606468C
:1001D000814640241BE0284641464746224600F01F
:1001E00087F853465A46C01A914110D31146184613
:1001F000224600F06EF82D1A67EB01084F462246A2
:100200000120002100F065F817EB00094E41201E87
:10021000A4F10104DFDC484631462A464346BDE8E6
:10022000F09F10B5431A934209D28318881803E04F
:1002300010F8011D03F8011D521EF9D210BD40EA4D
:1002400001039B0703D009E008C9121F08C0042A54
:10025000FAD203E011F8013B00F8013B521EF9D23B
:1002600010BDD2B201E000F8012B491EFBD270474D
:100270000022F6E710B513460A4604461946FFF772
:10028000F0FF204610BD421C10F8011B0029FBD1D5
:10029000801A7047034611F8012B00F8012B002A41
:1002A000F9D11846704730B50B4601460020202290
:1002B000012409E021FA02F59D4205D303FA02F573
:1002C000491B04FA02F52844151EA2F10102F1DCD3
:1002D00030BD202A04DB203A00FA02F100207047EA
:1002E0009140C2F1200320FA03F319439040704774
:1002F000202A04DB203A21FA02F00021704721FA7B
:1003000002F3D040C2F120029140084319467047E1
:10031000064C074D06E0E06840F0010394E8070052
:1003200098471034AC42F6D3FFF732FF548D0208E1
:10033000748D020870B58C1810F8015B15F0070376
:1003400001D110F8013B2A1106D110F8012B03E06E
:1003500010F8016B01F8016B5B1EF9D12B0705D476
:100360000023521E0DD401F8013BFAE710F8013BBF
:10037000CB1A921C03E013F8015B01F8015B521EDB
:10038000F9D5A142D8D3002070BDFEE7014800F0A6
:10039000A5B800006C0A0020014800F09FB80000DA
:1003A000F408002001681823CAB2103AB2FBF3F235
:1003B000054B6FF30901032A9B5CC36500D9091D36
:1003C0008165084670470000A602010810B5014685
:1003D00000208B698A6A4FF0C07453B1B3F5005F97
:1003E00015D072B1012A0CD0022A0AD0032A09D1F1
:1003F00004E01AB1012A06D0022A03D1C96AC90150
:1004000000D5012010BDC96AA142FAD010BD002A52
:10041000F7D0012AF2D0022AF3D0032AF3D010BD7C
:10042000704772B6FEE72DE9F0410446876D00F093
:10043000A7FA064694F835000025022806D0802049
:10044000606584F834500120BDE8F08120680168BF
:1004500021F0160101602068416921F080014161AD
:10046000206C08B9A06C20B12068016821F0080157
:1004700001602068016821F0010101600CE000F0DA
:100480007FFA801B052807D920206065032084F8A7
:10049000350084F83450D7E720680068C007EED1F3
:1004A00094F85C103F208840B860012084F8350043
:1004B00084F834500020C7E790F83510022903D0A3
:1004C0008021416501207047052180F835100068C2
:1004D000016821F001010160002070472DE9F84317
:1004E00004464FF00009CDF8009063484FF41651D0
:1004F000A56D0068B0FBF1F72E6894F85C10082039
:1005000000FA01F131420FD021680A6852070BD579
:100510000A6822F004020A6094F85C108840A8601F
:10052000606D40F00100606594F85C104FF00108C8
:1005300008FA01F0304208D021684969090604D55B
:10054000A860606D40F00200606594F85C100420C3
:100550008840304208D021680968890704D5A8601E
:10056000606D40F00400606594F85C1010208840D5
:10057000304218D021680968090714D5A86020689E
:100580000168490304D50068000308D5A16C07E0A1
:100590000168C90503D4016821F008010160216CDC
:1005A00009B12046884794F85C10202088403042EA
:1005B00031D021680968C9062DD5A86094F83500A6
:1005C00005282068016806D0490347D50068000364
:1005D0001DD4616C1CE021F01601016020684169A6
:1005E00021F080014161206C08B9A06C20B1206825
:1005F000016821F00801016094F85C103F208840F8
:10060000A86084F8358084F83490216D1FE0E16B98
:1006100009B120468847606D00282BD0606DC00767
:1006200014D0052084F835002068016821F001010C
:1006300001600098401C0090B84203D82068006810
:10064000C007F6D184F8358084F83490E16C002935
:1006500010D001B02046BDE8F04308470168C90545
:10066000D5D4016821F01001016084F8358084F848
:100670003490CCE7BDE8F883180000202DE9F04164
:10068000044600F07DF906465CB1022084F835008E
:10069000002584F834502068016821F001010160D0
:1006A0000DE00120BDE8F08100F06AF9801B05280B
:1006B00005D920206065032084F83500F2E7206822
:1006C0000068C007F0D12268116820480140D4E9D1
:1006D00001031843D4E903363343184363691843CD
:1006E000A3691843E3691843236A18430843616AFE
:1006F000042903D1D4E90B1319430843106020687F
:100700004069666A20F0070130460E43012704283D
:100710000CD1A06A0643E06A40B12046FFF756FEBE
:1007200020B14020606584F83570BAE720684661E2
:100730002046FFF737FE94F85C203F21914081600E
:10074000656584F835700020ACE700003F8010F04C
:1007500070B5044600F014F90546601C02D0044848
:100760000078044400F00CF9401BA042FAD370BD9D
:100770000C0000202DE9F84FDFF8BCA10022012574
:1007800003264FF00F090AF1040BAAF1040E00BF73
:100790000B6805FA02F42340A34270D10F7907F0E9
:1007A0000307012F01D0022F16D187684FEA4208B4
:1007B00006FA08FC27EA0C07D1F80CC00CFA08FC72
:1007C0004CEA070CC0F808C04768A7430C79C4F38B
:1007D000001494403C4344600C79E443A4070AD0DD
:1007E000C4684FEA420C06FA0CF7BC438F6807FA5C
:1007F0000CF72743C7600C7904F00304022C12D1D4
:10080000D40800EB840CDCF820405707FF0E09FAEF
:1008100007F824EA0804D1F8108008FA07F848EA33
:100820000408CCF8208004684FEA420C06FA0CF762
:10083000BC430F7907F0030707FA0CF7274307605B
:100840004C6814F4403F70D03C4C276847F4804714
:100850002760246822F0030704F480440094384C95
:1008600007EB040CDCF8084897074FEA177809FAF9
:1008700008F7BC43334FB84202D1002724E054E0CC
:10088000314FB84201D101271EE0304FB84201D1AB
:10089000022719E02E4FB84201D1032714E02D4F53
:1008A000B84201D104270FE02B4FB84201D10527F0
:1008B0000AE02A4FB84201D1062705E0284FB84286
:1008C00001D1072700E0082707FA08F72743CCF8EB
:1008D0000878DAF800405746D1F804C09C435FEA34
:1008E000CC2C00D51C433C60DBF800405F46D1F8BF
:1008F00004C09C435FEA8C2C00D51C433C60DEF8AE
:1009000000407746D1F804C09C435FEA8C3C00D598
:100910001C433C60084F083F3C68D1F804C09C432E
:100920005FEACC3C00D51C433C60521C102AFFF40B
:100930002FAFBDE8F88F0000083C0140443802406A
:100940000030014000000240000402400008024064
:10095000000C024000100240001402400018024047
:10096000001C0240426921EA02030A4043EA0241B4
:10097000816170470AB1816170470904FBE700009B
:1009800001488068704700000C0000200248816820
:1009900002781144816070470C0000200B4810B5AC
:1009A000016841F400710160016841F480610160F7
:1009B000016841F480710160032000F06FF80F209E
:1009C00000F006F800F024F8002010BD003C0240C2
:1009D00070B50D4D04464FF47A712878B1FBF0F0F4
:1009E0000A490968B1FBF0F000F0BAFB48B9102CD5
:1009F00007D200222146501E00F030F800206C6023
:100A000070BD012070BD00000C0000201800002007
:100A10000A4808B5016841F480410160006800F4AB
:100A2000804000900548001F016841F0805101603E
:100A3000006800F08050009008BD0000443802407B
:100A4000002809DB00F01F020121914040098000CD
:100A500000F1E020C0F8001170470000F0B40E4B28
:100A60001B680C46C3F30223C3F10705042D00D90C
:100A70000425191D072901D2002300E0DB1E0126F1
:100A800006FA05F1491E214099409E40761E164007
:100A90003143F0BC01F014BC0CED00E0064900F05D
:100AA000070208684FF6FF03184040EA0220034A95
:100AB00010430860704700000CED00E00000FA05EC
:100AC0002DE9F0470E46050065D0DFF81481D8F80F
:100AD0000000F7B200F00700B04207D288F80070BB
:100AE000D8F8000000F00700B04254D128683D4C0F
:100AF000810712D5400703D5206840F4E0502060FC
:100B00002878000703D5206840F460402060206802
:100B1000A96820F0F000084320602878C0072DD095
:100B2000304968680839012812D0022813D00328F8
:100B300011D00968890700292DDA216821F0030105
:100B400001432160FFF71CFF814641F2883A0EE025
:100B500009688903EFE709688901ECE7FFF710FFEF
:100B6000A0EB0901514502D90320BDE8F0872068B8
:100B7000696800F00C00B0EB810FEFD1D8F80010DD
:100B8000404601F00701B14207D90770006800F044
:100B90000700B04201D00120E7E72878400705D5DB
:100BA0002068E96820F4E0500843206028780007B6
:100BB00006D52068296920F4604040EAC100206021
:100BC00000F038F82168084AC1F30311515CC840AD
:100BD0000649086006480068FFF7FAFE0020C4E7EF
:100BE000003C024008380240AE0201081800002014
:100BF000100000200448054900680968044AC1F350
:100C00008221515CC840704718000020083802401B
:100C1000BE0201080448054900680968044AC1F396
:100C20004231515CC840704718000020083802402B
:100C3000BE020108154810B5006810F00C021448F7
:100C400013D04110042A0FD0082A0ED10F4C241FB4
:100C50002268236802F03F025B0207D52068C0F3D8
:100C60008810A0FB010106E0084610BD2168C1F311
:100C70008811A1FB00010023FFF7A2FA2168C1F34C
:100C80000141491C4900B0FBF1F010BD0838024099
:100C90000024F4002DE9F84F04006ED02078DFF82E
:100CA0004C93C007A9F104054AD009F1040001687A
:100CB000C1F38101012908D00068C0F38100022836
:100CC0000AD1D9F80000400206D52868800337D53C
:100CD00060680028E1D033E06068B0F5803F10D054
:100CE000B0F5A02F286810D020F480302860286844
:100CF00020F4802028606068A8B1FFF741FE064616
:100D00000DE0286840F48030F4E740F4802028604B
:100D1000F7E700BFFFF734FE801B642873D828680C
:100D20008003F7D50CE0FFF72BFE064605E000BF79
:100D3000FFF726FE801B6428F0D828688003F7D4CC
:100D40002078DFF8AC8280074FF0000A3ED5A74834
:100D5000001D016811F00C0F08D00068C0F381007D
:100D600002280BD1D9F80000400207D42868800778
:100D700016D5E068012800D112E033E1E068B8B18F
:100D80000120C8F80000FFF7FBFD064605E000BFA4
:100D9000FFF7F6FD801B0228C0D828688007F7D52A
:100DA0002868216920F0F80040EAC10028600DE0C1
:100DB000C8F800A0FFF7E4FD064604E0FFF7E0FDF9
:100DC000801B02281FD828688007F7D420780007E6
:100DD00022D5864F87486169703771B10121016062
:100DE000FFF7CEFD064604E0FFF7CAFD801B022890
:100DF00009D838688007F7D50EE0C0F800A0FFF7E3
:100E0000BFFD064605E082E0FFF7BAFD801B022821
:100E10007DD838688007F7D42078400768D5DFF898
:100E2000CCB100270BF13C0BDBF80000C0000BD469
:100E3000DBF8001041F08051CBF80010DBF8000027
:100E4000012700F0805000906B4E3068C00510D430
:100E5000306840F480703060FFF792FD009005E04C
:100E6000FFF78EFD0099401A022850D83068C0055F
:100E7000F6D55E4EA0686C3601280FD00528306884
:100E800010D020F001003060306820F004003060A5
:100E9000A068B8B1FFF774FD00900FE0306840F033
:100EA0000100F4E740F004003060F7E7FFF768FD69
:100EB0000099411A41F28830814266D83068800733
:100EC000F4D50EE0FFF75CFD009007E0FFF758FD5A
:100ED0000099411A41F28830814256D83068800723
:100EE000F4D42FB1DBF8001021F08051CBF80010C2
:100EF000A069C8B33D49091D0968C1F381010229F0
:100F00004AD00228504607D0C8F8600000E03CE014
:100F1000FFF736FD04463BE04746C8F86000FFF7A0
:100F20002FFD064605E000BFFFF72AFD801B0228C3
:100F30002BD828688001F7D4D4E907010843A16AB7
:100F40002E4A490802EB0141626A41EA82110843D4
:100F500094F82C1040EA0161C9F8001001203866AD
:100F6000FFF70EFD044606E03EE000BFFFF708FD78
:100F7000001B022809D828688001F7D534E000BF9B
:100F8000FFF7FEFC001B022802D90320BDE8F88F02
:100F900028688001F4D427E00128F7D0D9F80000B0
:100FA000E26900F4800191421CD1226A00F03F0105
:100FB000914217D147F6C071626A0140B1EB821FBE
:100FC00010D1A26A4FF0FF3300F4403103EB52021C
:100FD000B1EB024F06D194F82C1000F07060B0EB2A
:100FE000016F01D00120D1E70020CFE70438024093
:100FF00000004742800E4742007000400000FFFFA3
:1010000070B5040009D0606A002540B125616561B2
:10101000A56294F8510040B10CE0012070BD6068F9
:10102000B0F5827FF4D0E561F2E784F850502046B5
:1010300000F044F8022084F851002068016821F093
:1010400040010160A088218900F4827001F404410C
:101050000843A18901F400610843217C01F00201E9
:101060000843217D01F001010843218B01F4007147
:101070000843217F01F03801084394F8201001F063
:1010800080010843218D01F4005108432168086064
:10109000A069042101EA104094F8241001F0100125
:1010A0000843216848602068C16921F40061C1617A
:1010B0006565012084F85100002070BD70B586B0D0
:1010C000064614216846FFF7D3F820493068884265
:1010D00039D11F480025016841F480510160006842
:1010E00000F4805005901A481438016841F001015D
:1010F00001600068694600F001000590A0200090A2
:101100000220CDE901050320039005200490114839
:10111000FFF730FB114C104820604FF0C06060605A
:101120004020C4E902050001C4E90405C001A5612D
:10113000C4E9075020466562FFF7A0FA08B1FFF73F
:1011400070F9B464A66306B070BD000000300140C1
:10115000443802400000024058640240F408002075
:1011600010B5401EB0F1807F01D3012010BD4FF0BB
:10117000E02460610F21601701F0A2F80020A06157
:1011800007202061002010BD7047704770B590F8AF
:101190003C20012A32D0012480F83C40022280F811
:1011A0003D2003685A689D6822F070060A68324341
:1011B0005A60134B02689A4214D0B2F1804F11D09A
:1011C000104B9A420ED0104B9A420BD00F4B9A42C2
:1011D00008D00F4B9A4205D00E4B9A4202D00E4BCC
:1011E0009A4204D1496825F080031943916080F840
:1011F0003D40002180F83C10084670BD022070BDC3
:10120000000001400004004000080040000C0040C5
:1012100000040140004001400018004010B50400E7
:1012200003D094F83D0010B107E0012010BD00206C
:1012300084F83C00204600F01FF8022084F83D00AE
:10124000211D206800F01AFE012084F8460084F871
:101250003E0084F83F0084F8400084F8410084F8A0
:10126000420084F8430084F8440084F8450084F880
:101270003D00002010BD000008B5114A016811486A
:10128000914211D1016841F004010160006800221F
:1012900000F00400009001211E20FFF7DFFBBDE8F5
:1012A00008401E20FFF7CCBB074A914207D10168D6
:1012B00041F008010160006800F00800009008BDDE
:1012C0000008004040380240000C004090F83D10FB
:1012D000012901D001207047022180F83D100168EA
:1012E000CA6842F00102CA6000681149884214D0FD
:1012F000B0F1804F11D00F4988420ED00E4988427C
:101300000BD00E49884208D00D49884205D00D49BE
:10131000884202D00C49884204D1816801F007015B
:10132000062903D0016841F00101016000207047E7
:10133000000001400004004000080040000C004094
:1013400000040140004001400018004070B5044610
:1013500090F83C000025012817D0012684F83C6055
:10136000022084F83D002068826822F0770222F48F
:101370007F4282600868502838D00DDC20284FD08A
:1013800005DC90B3102811D14AE0022070BD30284E
:1013900046D040280AD13BE060282FD070280DD0DD
:1013A000B0F5805F03D0B0F5005F12D0012584F85E
:1013B0003D60002084F83C00284670BDCB68D1E930
:1013C0000121206800F0BEFD2068816841F07701AE
:1013D00009E0CB68D1E90121206800F0B3FD206865
:1013E000816841F480418160E1E719E0CA68496899
:1013F000206800F0B9FD5021206806E0CA684968FD
:10140000206800F0C2FD6021206800F0A5FDCEE755
:10141000CA684968206800F0A7FD40212068F4E709
:10142000226801461046F0E7704770B50446006830
:1014300001694FF00005C943890715D4C168C94344
:10144000890711D4E91E0161012020772068806995
:101450008007204602D0FFF7E7FF04E000F098F88D
:10146000204600F096F8257720680169C9434907AE
:1014700017D4C168C943490713D46FF0040101614F
:10148000022020772068806910F4407F204602D037
:10149000FFF7CAFF04E000F07BF8204600F079F87F
:1014A000257720680169C943090716D4C168C94373
:1014B000090712D46FF00801016104202077206829
:1014C000C0698007204602D0FFF7AEFF04E000F0BD
:1014D0005FF8204600F05DF8257720680169C94370
:1014E000C90617D4C168C943C90613D46FF01001E7
:1014F0000161082020772068C06910F4407F2046F1
:1015000002D0FFF791FF04E000F042F8204600F01F
:1015100040F8257720680169C943C90708D1C16827
:10152000C943C90704D1891E0161204600F032F881
:1015300020680169C943090609D4C168C94309067D
:1015400005D46FF0800101612046FFF71DFE206881
:101550000169C943490609D4C168C943490605D48C
:101560006FF040010161204600F038F82068016901
:10157000C94389060BD4C168C943890607D46FF0F3
:10158000200101612046BDE87040FFF7FEBD70BD3F
:101590007047704770B500680D49884216D10D4CF0
:1015A00000256068401C6060B0F57A7F04D104219A
:1015B00009486560FFF7D6F92078401CC0B220705A
:1015C000052803D305200DF00DF8257070BD00002F
:1015D00000080040000000200004024070477047EF
:1015E00010B504460068406994F83D10C0F3C0107F
:1015F000212911D180B12068143050E8001F21F05A
:10160000800140E80012002AF5D1606B08B1FEF7B6
:101610000AFF204600F0FAFC2068406994F83E106A
:10162000C0F38010222911D180B12068143050E815
:10163000001F21F0400140E80012002AF5D1A06B04
:1016400008B1FEF7F0FE204600F0B9FC002010BD06
:1016500070470000F8B5016804460868CA684B691D
:1016600010F00F0F4FF0000559D003F0010602F4FF
:101670009077374365D0C10705D0D10503D5216CDC
:1016800041F001012164410705D5D90703D0216C40
:1016900041F002012164810705D5D90703D0216CEF
:1016A00041F004012164010707D502F02001314314
:1016B00003D0216C41F008012164216C00293AD04B
:1016C000800604D5900602D5204600F0ADFC2068C7
:1016D0004069216CC0F38010090700D460B3204634
:1016E00000F06DFC20684069400621D52068143068
:1016F00050E8001F21F0400140E80012002AF5D117
:10170000A06BA8B16C490165A06BFEF7D5FE00285F
:1017100011D0A06B016D01B0BDE8F0400847830611
:101720000FD593060DD52046BDE8F84000F07CBCEF
:101730002046FFF78DFFF8BD2046FFF789FF25649F
:10174000F8BD266B2023012E79D1C60677D5D606A3
:1017500075D50868486800904869400640D5A16B77
:10176000086840680004000CEAD0A28D8242E7D9E4
:10177000E085C869B0F5807F2DD020680C3050E836
:10178000001F21F4807140E80012002AF5D1206882
:10179000143050E8001F21F0010140E80012002A37
:1017A000F5D12068143050E8001F21F0400140E8D6
:1017B0000012002AF5D184F83E30256320680C30F1
:1017C00050E8001F21F0100140E80012002AF5D176
:1017D000A06BFEF728FEA08DE18D401A81B229E0B2
:1017E000A08DE18D401A81B2E08D0028A8D000299B
:1017F000A6D020680C3050E8002F22F4907240E808
:101800000026002EF5D12068143050E8002F22F079
:10181000010240E80026002EF5D184F83E30256311
:1018200020680C3050E8002F22F0100240E800231E
:10183000002BF5D12046FFF7D2FEF8BDFFE70506E5
:101840002BD5150629D594F83D002128F5D1A0689F
:10185000B0F5805F01D12069B0B1206A411C2162DE
:10186000216800784860E08C401E0004000CE08491
:10187000E3D12068C16821F08001C1602068C1689F
:1018800041F04001C160D8E7206A0088C0F3080039
:101890004860206A801C2062E5E74006CDD55006EE
:1018A000CBD5CA68204622F04002CA6084F83D3099
:1018B00000F037F9C1E70000AF1F000838B50C4A47
:1018C0000168914213D10A68002549680091FFF729
:1018D00087FE084800684068C0F5007084B2214661
:1018E00005A000F0DDFC002C01D00848055538BDEE
:1018F000004400406C0A002044617461204C656E15
:101900006774683A25640D0A00000000D20C0020BC
:1019100070B5040004D094F83D00002510B106E035
:10192000012070BD84F83C50204600F023F82420AC
:1019300084F83D002068C16821F40051C160204650
:1019400000F0D2FB2068016921F490410161206818
:10195000416921F02A0141612068C16841F40051C8
:10196000C1602564202084F83D0084F83E000020FA
:1019700070BD0000F0B587B0064614216846FEF73A
:1019800077FCDFF8D0C030680025334902220323FA
:101990000727324C60451CD12F481430066846F0AA
:1019A00010060660006800F010000590086840F01E
:1019B000010008600868694600F0010005905802BF
:1019C0008DE82500CDE903372046FEF7D3FE07B0AA
:1019D000F0BDDFF88CC06045F9D11F481030D0F859
:1019E00000C04CF4003CC0F800C0006800F40030B7
:1019F0000590086840F0010008600868694600F03A
:101A0000010005900C208DE82500CDE90337204624
:101A1000FEF7B0FE144C134820604FF00060C4E99C
:101A200001054014C4E903506561A561E5612562C3
:101A300020466562FEF722FE08B1FEF7F2FCB463B1
:101A4000002211462620A663FFF708F82620FEF79D
:101A5000F7FFBCE7001001403038024000000240B0
:101A600000440040886002406C0A0020704700007B
:101A70002DE9F843044690F83D001F4616460D46F2
:101A800020284CD1C5B1BEB194F83C00012846D005
:101A9000012084F83C004FF00008C4F84080212069
:101AA00084F83D00FEF76CFFA6848146E684A068BA
:101AB000B0F5805F03D004E00120BDE8F883206921
:101AC00028B12E465FF0000584F83C800EE0002629
:101AD000FAE78021204600F08DFBA0B9AEB116F8E0
:101AE000010B21684860E08C401EE084E08C4B468E
:101AF0004FF0000200970028EBD14FF04001204644
:101B000000F078FB30B10320D7E735F8020BC0F3C3
:101B10000800E6E7202084F83D000020CDE7022001
:101B2000CBE77047FEE70000114808B5016841F4B3
:101B300080010160016801F480010091016841F4B5
:101B4000001101600068002200F4001000901146AE
:101B50001020FEF783FF1020FEF772FF00221146CF
:101B60003B20FEF77BFFBDE808403B20FEF768BF47
:101B700030380240F0B587B014216846FEF778FB94
:101B80002B480024016841F080010160016801F0E8
:101B900080010591016841F001010160016801F0D7
:101BA00001010591016841F002010160016801F045
:101BB00002010591016841F01001016000681D4EAD
:101BC00000F010000590012204213046FEF7D2FEFD
:101BD000194F012280213846FEF7CCFE0022B114B5
:101BE0003846FEF7C7FE00224FF470513046FEF72C
:101BF000C1FE43F6044000900125CDE90154694639
:101C000030460394FEF7B6FD4FF484500090CDE9C2
:101C10000154694638460394FEF7ACFD4FF460600A
:101C20008DE8310069463846FEF7A4FD07B0F0BDE7
:101C3000303802400004024000100240104810B545
:101C40000E4901604FF48271416000218160C160E2
:101C50004FF400720161C0E905121022C0E90721AA
:101C6000416281620A21C162FFF7CAF9002803D0EC
:101C7000BDE81040FEF7D5BB10BD000000300140AC
:101C80009C08002010B586B00024174800940194E9
:101C90000294039404941349059401605321C0E90C
:101CA00001144FF47A71C0E903148461FFF7B6FAA6
:101CB00008B1FEF7B6FB4FF48050009069460A4821
:101CC000FFF744FB08B1FEF7ACFB049404A90648F7
:101CD0000594FFF75BFA002801D0FEF7A2FB06B0DF
:101CE00010BD0000000800405409002010B586B067
:101CF0000024164800940194029403940494124919
:101D0000059401605321C0E90114611EC0E9031468
:101D10008461FFF783FA08B1FEF783FB4FF480502C
:101D2000009069460948FFF711FB08B1FEF779FBFF
:101D3000049404A905480594FFF728FA002801D067
:101D4000FEF76FFB06B010BD000C00409C090020A0
:101D50000C4810B50A4901604FF4E131416000219F
:101D600081600C22C160C0E904128161C161FFF78A
:101D7000CFFD002803D0BDE81040FEF752BB10BDD8
:101D800000100140E40900200C4810B50A49016028
:101D90004FF4E1314160002181600C22C160C0E953
:101DA00004128161C161FFF7B3FD002803D0BDE8D3
:101DB0001040FEF736BB10BD00440040280A00204A
:101DC000FEE7FEE770477047FEF7E0BD30B593B021
:101DD00030216846FEF74CFA14210CA8FEF748FAA9
:101DE0001D480025016841F080510160006800F045
:101DF000805011901948016841F4804101600068E9
:101E0000022400F480401190012000900004019011
:101E10008001CDE9064008AA0420A82182E8130029
:101E20000B906846FEF736FF08B172B6FEE70CA9C4
:101E30000F2081E831004FF4A0500F904FF48050F4
:101E4000109005210CA8FEF73BFE002801D072B6C9
:101E5000FEE713B030BD0000403802400070004083
:101E60000248016841F470010160704788ED00E0AC
:101E70000148FFF7DABA000054090020F0B5026803
:101E8000254C264D264E274F274B4FF0804CA04225
:101E900009D0604507D0A84205D0B04203D0B8426F
:101EA00001D0984204D122F0700E4A6842EA0E0234
:101EB000A0421BD0604519D0A84217D0B04215D01F
:101EC000B84213D0984211D0184DA8420ED0184DE8
:101ED000A8420BD0174DA84208D0174DA84205D0F4
:101EE000164DA84202D0164DA84203D122F44075E7
:101EF000CA682A434D6922F080022A4302608A6838
:101F0000C2620A688262A04201D0984201D1096986
:101F1000016301214161F0BD000001400004004067
:101F200000080040000C0040000401400040014057
:101F3000004401400048014000180040001C0040DF
:101F40000020004010B5846842EA032224F47F4454
:101F50000A432243826010BD826822F070020A4365
:101F600042F007018160704710B5036A046A24F0EB
:101F700001040462846924F0F00444EA021423F0AA
:101F80000A020A438461026210BD10B5036A23F09D
:101F9000100303628369046A23F4704343EA023244
:101FA00024F0A00343EA01118261016210BD10B563
:101FB000806B0021C185C184FFF74AFB10BD016819
:101FC0000C3151E8002F22F4907241E80023002BDD
:101FD000F5D10168143151E8002F22F0010241E8E7
:101FE0000023002BF5D1016B012909D101680C31C7
:101FF00051E8002F22F0100241E80023002BF5D118
:10200000202180F83E1000210163704701680C31E7
:1020100051E8002F22F0C00241E80023002BF5D147
:10202000202180F83D10704708B590F83E10222915
:1020300001D0022008BD82684FF480539A4201D13A
:10204000016921B1816A9A421BD04AB10AE0026853
:10205000816A5268C2F308020A80816A891C08E01A
:10206000026972B10268526802F07F020A70816AE6
:10207000491C8162C18D491E0904090CC18503D028
:1020800019E002685268F1E70168CA6822F020028C
:10209000CA600168CA6822F48072CA6001684A692D
:1020A00022F001024A61202180F83E10016B0129D3
:1020B00003D0FFF7DBFC002008BD002101630168AD
:1020C0000C3151E8002F22F0100241E80023002BD0
:1020D000F5D101680A68D20602D50A6849680091FC
:1020E000818DFFF77CFAE6E770B504460068016968
:1020F000E26821F44051114301612169A068E2695D
:1021000008436169114308432168CA6849F20C63B6
:102110009A430243CA6020684169A26921F4407170
:102120001143416131492068884202D030498842D8
:1021300002D1FEF76FFD01E0FEF75CFDE2690023CE
:10214000192164253226B2F5004F626828D0A0FB21
:102150000101930F9200FEF733F80146B0FBF5F052
:102160006FF01802504301EB800006EB0010B0FB4B
:10217000F5F000F0F002B1FBF5F002EB0012B1FB5C
:10218000F5F06FF01803584301EB800006EB0010E8
:10219000B0FBF5F000F00F0021681044886070BDBE
:1021A000A0FB010192185B41FEF70AF80146B0FB63
:1021B000F5F00201B1FBF5F06FF01803584301EBA5
:1021C000800006EBC000B0FBF5F000F0F80002EB79
:1021D0004002B1FBF5F0584301EB800006EBC00074
:1021E000B0FBF5F000F00700D6E70000001001405A
:1021F000001401402DE9F041984617460E4604466A
:10220000069D27E0681C25D02DB1FEF7B9FBA0EB99
:102210000800A8421ED920680C3050E8001F21F4A5
:10222000D07140E80012002AF5D12068143050E83F
:10223000001F21F0010140E80012002AF5D1202002
:1022400084F83D0084F83E00002084F83C00032020
:10225000BDE8F0812068006836EA000004D0002064
:10226000B842CFD00020F3E70120F9E7084810B5C5
:1022700000680068C043C00605D406A000F010F84E
:102280000348FFF71BFBBDE810400148FFF7E2B928
:10229000280A002049444C450D0A0000FEE70000D2
:1022A0000FB4054B10B503A9044A029800F064FF6F
:1022B00010BC5DF814FB0000795400089808002059
:1022C0000907090E002804DB00F1E02080F8001463
:1022D000704700F00F0000F1E02080F8141D7047F7
:1022E00002E008C8121F08C1002AFAD170477047DF
:1022F000002001E001C1121F002AFBD1704770B518
:10230000044600256FF02F0608E02068411C21607C
:10231000007805EB850106EB41014518206800783F
:1023200000F004F80028F0D1284670BD30380928A4
:1023300001D8012070470020704770B5B1F9003016
:10234000B2F90040A34200DC23460380B1F90250F9
:10235000B2F90240A54200DD2C464480B1F9046088
:10236000B2F90450AE4200DA35468580B1F9061064
:10237000B2F90620914200DB1146C1800120AB4238
:1023800001DC8C4200DD002070BDF8B50D4604462E
:10239000B0F90000B1F900101646884247DBB4F9E5
:1023A0000210B5F90220914241DBB4F90410B5F9ED
:1023B000042091423BDCB4F90610B5F906209142A5
:1023C00035DC96B3ADF800006088ADF80200324607
:1023D0006946284600F02DF8002827D0A088ADF8DF
:1023E00000006088ADF8020032466946284600F0D9
:1023F00020F800281AD02088ADF80000E088ADF859
:10240000020032466946284600F013F800280DD035
:10241000A088ADF80000E088ADF8020032466946B9
:10242000284600F006F8002800D00120F8BD002062
:10243000F8BD2DE9FC4114460E46B1F90020B0F973
:10244000001005468A423ADBB5F90400824236DCC8
:10245000B6F90270B5F90220974230DBB5F90630C3
:102460009F422CDC002C75DD401A9A1A401C521C2D
:1024700000B212B200EBD07002EBD27240105210D8
:10248000904200DB1046844200DD0446ADF80010A7
:10249000288800222044ADF804006888ADF80200C6
:1024A000688831462044ADF806006846FFF7C1FF52
:1024B00040B1BDF804002044ADF804003FE0002026
:1024C000BDE8FC81E8880022001BADF80200E88826
:1024D000ADF8060031466846FFF7ABFF28B1BDF8FE
:1024E00004002044ADF8040011E0A8880022001B7D
:1024F000ADF80000A888ADF8040031466846FFF743
:1025000098FF50B1BDF80000001BADF80000BDF809
:102510000200001BADF8020016E06888ADF802006A
:10252000688800222044ADF8060031466846FFF76F
:1025300080FF70B1BDF80000001BADF80000BDF8D1
:1025400006002044ADF80600314668460BF0F8FA64
:10255000B6E7FFE70120B3E710B518B905F000F8BA
:10256000002800D0406810BD084949680AE04A6860
:10257000824202D00A68824203D10A7E42F00102FE
:102580000A7649690029F2D1704700001C0000203A
:102590002DE9FF410446DDE90A671D004FF0000008
:1025A00002D1B6F5807F2BD0039001900290ADF858
:1025B0000C100090ADF80410ADF80A20ADF80E2014
:1025C0003B463246294668460BF01AFA3B463246ED
:1025D000294601A80BF014FA3B463246294602A8C8
:1025E0000BF00EFA3B463246294603A80BF008FAD8
:1025F000BDF90000BDF90430984209DA054608E04B
:102600002080491E6080A180521EE280BDE8FF81CB
:102610001D46BDF90820BDF90C108A4201DA1646A4
:1026200000E00E46B54203DA984206DB184604E0A5
:102630008A4201DA104600E00846801E2080BDF97B
:102640000030BDF90420934201DD1D4600E015462F
:10265000BDF90800BDF90C10884201DD064600E016
:102660000E46B54205DD934201DD194604E01146F0
:1026700002E0884200DD0146891CA180BDF90230DC
:10268000BDF90620934201DA1D4600E01546BDF96A
:102690000A00BDF90E10884201DA064600E00E4637
:1026A000B54205DA934201DA194604E0114602E028
:1026B000884200DA0146891E6180BDF90230BDF909
:1026C0000620934201DD1D4600E01546BDF90A00D3
:1026D000BDF90E10884201DD064600E00E46B54207
:1026E00005DD934201DD194604E0114602E088420F
:1026F00000DD0146891CE18088E700002DE9F041FA
:1027000015460E460746114C0BF062FF80462B46DD
:1027100032463946204606F01FFA20B10020A0625A
:10272000E06950B110E02C21204607F04BFD4FF03E
:102730000040A0620020BDE8F08140460BF041FF60
:10274000E06108B90120E0612046F4E7340F002081
:102750007FB50E46040003D104F002FF04002CD024
:1027600004F064FF002828D094F82800400724D4FF
:10277000002506B3ADF80050ADF80250204604F035
:1027800003FF401EADF80400204604F039FF401E50
:10279000ADF806006A46314602A8FFF7CEFD0028D4
:1027A0000BD02068017C890708D5DDE90001C4E968
:1027B0000C01012029E0A4F850517FBD82690AB1C3
:1027C00002A9904700260AE004EBC601002202A8F5
:1027D0003031FFF7DAFD0028EFD1761CB6B2B4F83D
:1027E0005001B042F0D880B2202804D204EBC000DF
:1027F00002A9303004E0A4F8505104F130006946D9
:1028000004F0A5FCB4F85001401CA4F85001606825
:102810000028D2D00BF0C1FF7FBD002800D0406857
:1028200070470068091D405870470068405870475D
:10283000002800D08068704770B5044600680830F2
:1028400007F088FB050013D00146002220460CF05B
:10285000C1FB2946204662680CF0B6FB616819B1DD
:102860002A4620460CF0B6FB6560A06800B9A5605A
:10287000284670BD70B504460068083007F06AFB52
:10288000050013D00146002220460CF09DFB29468E
:102890002046A2680CF09EFBA16819B12A4620468A
:1028A0000CF092FBA560606800B96560284670BDB9
:1028B00028B1416809B9806808B10020704701203B
:1028C000704770B504000DD0FFF7A7FF00228842C3
:1028D000204608D1FFF7A5FF6060011E01D000224D
:1028E0001EE0A26070BDFFF7A3FF88422068084485
:1028F0000AD10168A16029B12046BDE870400022DC
:102900000CF062BB626070BD05682046FFF789FF6E
:1029100006460246294620460CF056FB2A4631461A
:102920002046BDE870400CF055BB10B50446006869
:1029300082680AB12146904720680068002801D0CB
:102940002060F5E710BD8068002801D0B0F91600BE
:1029500070478068002801D0807E8009704770B57C
:10296000164605460C4651EA06001AD0284607F0DE
:1029700073FEA86801233246018A21440182A868B7
:10298000418A314441822146284609F0C3FF002292
:102990000B21284605F05EFE012803D1284609F0E8
:1029A00012FF012070BD77B581B00E46050017D02B
:1029B000622209F0DBFA040012D0206880B12846B8
:1029C0003146632209F0D2FA10F0FF0208D02368E2
:1029D0002046039998470090BDF80000ADF80C0020
:1029E000039804B070BD00002DE9F047074692B08F
:1029F000408C1A9E40F00400788490463A849946B0
:102A00008A463289384609F0B1FA0546A7F820907F
:102A100032895146384609F0A9FA0446788CA54215
:102A200020F00400788403D12904B1EB044F68D06E
:102A3000A7F8208032895146384609F097FA0546B2
:102A40008046A7F820905146384603F087FA31892E
:102A500000682A460BF066FA30890B2823D147F626
:102A6000FF794D4501D04C451DD1384609F0FDFB9D
:102A700000EBD0704510384608F081FC00EBD070B8
:102A80004010C84506D1691C431C994200DA00E099
:102A9000194688464C4506D1691C421C914201DA10
:102AA0006C1C00E014461948FFF7C6FE05002BD049
:102AB0002F60C5E903843089A8806846C5F808A05E
:102AC00003F0E8FE1248FF21CDE9005011480290C2
:102AD0001148039000200890CDE9090130880B903F
:102AE00070889DF8421040420C90F06807900020DA
:102AF00060F300018DF8421030690690684603F0DB
:102B00001DFF12B0BDE8F087FEE70000280F00208F
:102B100069FC000855FE0008B1FD00082DE9F84FDA
:102B200000259046894606462C460427E5E000BF6E
:102B3000F16807EBC400085882017AD480B230EA09
:102B4000090211D05FF0000230EA08000ED0002028
:102B500082426ED051F834A06A46102150460BF0E4
:102B600023F8002871D103E00122EDE70120EFE70F
:102B70006A46112150460BF017F8002865D16A46C5
:102B8000122150460BF010F800285ED16A4613213E
:102B900050460BF009F8002857D16A4615215046D7
:102BA0000BF002F8002850D16A46142150460AF072
:102BB000FBFFE8BB6A460A2150460AF0F5FFB8BBA6
:102BC0006A466B2150460AF0EFFF88BB6A466C21CB
:102BD00050460AF0E9FF58BB6A46012150460AF008
:102BE000E3FF28BB6A46042150460AF0DDFFF8B92E
:102BF0006A46022150460AF0D7FFC8B96A46032147
:102C000050460AF0D1FF98B96A46052150460AF0AD
:102C1000CBFF68B96A46062150460AF0C5FF38B9AD
:102C20006A46322150460AF0BFFF08B96A4601E001
:102C30000BE061E06E2150460AF0B6FF28B96A4603
:102C40006D2150460AF0B0FF10B10320BDE8F88FA7
:102C50006A46692150460AF0A7FFE8BB6A466A2126
:102C600050460AF0A1FFB8BB6A466E2150460AF0F2
:102C70009BFF88BB6A466D2150460AF095FF58BB02
:102C80006A46372150460AF08FFF28BB6A46382132
:102C900050460AF089FFF8B96A46352150460AF0D5
:102CA00083FFC8B96A46402150460AF07DFF98B9B3
:102CB0006A46452150460AF077FF68B96A464121C5
:102CC00050460AF071FF38B96A46422150460AF070
:102CD0006BFF08B96A4600E00AE0432150460AF05B
:102CE00063FF28B96A46492150460AF05DFF08B1E2
:102CF000022501E005B90125641C708CC0F3C500F4
:102D0000A0423FF615AF2846A0E7C0F304100728FD
:102D100000D9072070470000A0F57F41FF3905D09A
:102D2000002804D0712803D208490AE01F20704708
:102D30000749713880B2096829B1064A5268904241
:102D400001D2085C7047002070470000683A010813
:102D5000A0000020B40000202DE9F041094D90466C
:102D60000E466A681C46074619469047306020B1F7
:102D700020686A68384400219047C8F80000BDE820
:102D8000F0810000D00000202DE9F04F87B08A4686
:102D9000DDE910581F4693460446002105B12980FD
:102DA0005CB12078002809D0BAF1000F05D00026C8
:102DB00018F0060F15D0002004E0002007B0BDE891
:102DC000F08F401C215C0A2904D00D2902D0002973
:102DD000F7D100E0401C002DF0D04FF0FF312980EA
:102DE000ECE75FEA887001D541F6FF77894608462F
:102DF0008DF81410049127E00498CDF8189068B36A
:102E00004FF0000C05AA06ABCDF80CC0CDF8008041
:102E1000CDE9013220443B465A4651460BF0ACFD09
:102E200006997A1A314417B20EB288B10499014456
:102E3000049120780A280BD00D2809D0605C0A285C
:102E40000FD00D280DD00846205C08B1002FD3DC30
:102E5000049848B105B12E800498AFE74FF0010CFB
:102E6000D0E7481C0490F3E7064A04A920465268BC
:102E70009047002DF0D001460022504605F0D4FCCA
:102E800006B2E8E7D000002000230278232902D010
:102E9000012A0DD00FE02AB10021012A04D0022A14
:102EA00004D008E0012101E0017004E0017001E0BC
:102EB000202902D00123184670470221F6E72DE9A8
:102EC000F0410E46804602460021334608460BF08C
:102ED0004FFF04460027401C07F03CF8050008D0CF
:102EE0002F5533464246611C0BF042FF2846BDE891
:102EF000F081FEE72DE9F0471E4614460D46824656
:102F0000DDF8209015E000BF4FEA540808FB065793
:102F1000394650464A469047002808DD44F30000F1
:102F2000C0EB540407EB0605A4F1010401E005DA47
:102F30004446002CE8D12046BDE8F0873846FBE740
:102F40002DE9FC5F9B460CAB8A468146DDE91160AA
:102F500093E81210DDE90F575FEA80784FF03003F5
:102F60001AD45EB15FEAC07808D000F00C0858EAC5
:102F70000C0803D0761E01E00B55641CBC4204D241
:102F8000202CF9D301E00B55641C5FEAC07803D014
:102F9000B44201D2202CF6D35FEAC06825D55FEA9F
:102FA00040580AD44CB1BC4201D0B44205D1641E91
:102FB00003D0102D03D1641E04E0102D02D0022D89
:102FC0000AD00EE0850603D4202C1ED2782506E018
:102FD000202C1AD2582502E0202C16D262250D553D
:102FE000641C202C11D20B55641C202C0DD2BCF17A
:102FF000000F01D02D2306E0430701D52B2302E06B
:10300000030702D520230B55641CCDE900BAC8463E
:10301000154681468B46AA46800714D1274607E00D
:103020002A46DDE900316D1C2020C446E0477F1CA4
:10303000B742F5D307E02A466D1C641EDDE9003176
:103040001BF80400C047002CF5D15FEA897006D454
:1030500009E02A46DDE900316D1C2020C047A5EBC0
:103060000A00B042F5D32846BDE8FC9F2DE9F04F99
:103070008FB099468B46DDE91818DDE91C63DDE960
:103080001A4792468646002209B923F010035805D4
:1030900007AD00D5C9B1B1FBF4F004FB1010C0B20C
:1030A0000A2801D2303009E05FEA836C02D54FF084
:1030B000410C01E04FF0610C60440A38B1FBF4F1BF
:1030C000A854521C09B1202AE5D3CDF80880CDE9D7
:1030D0000563CDE90052CDE903474B4652465946B8
:1030E0007046FFF72DFF0FB0BDE8F08F2DE9FF4FC1
:1030F0008FB01CACDDE9239594E8030820AC94E87C
:10310000C004002450EA010201D125F010056A052F
:103110000DF11C0802D550EA010217D032463B4699
:10312000FDF74EF8D2B20A2A01D2303206E0AB06E1
:1031300001D5412300E061231A440A3A08F804202B
:10314000641C50EA010201D0202CE7D3CDE90084B1
:10315000CDF808B0CDE90595CDE9036A0FAF97E842
:103160000F00FFF7EDFE13B0BDE8F08F9A4200D2DA
:1031700088547047704700002DE9FF4F8BB09A4686
:103180000F460546002606E025280BD052460D992D
:1031900090476D1C761C28780028F5D10FB030467A
:1031A000BDE8F08F0024A0460122604900E00443FE
:1031B00015F8013F203B02FA03F00842F7D12878C6
:1031C0002E2817D115F8010F44F004042A280ED038
:1031D0006FF02F022878A0F1300109290AD808EBF6
:1031E000880102EB410100EB01086D1CF2E757F882
:1031F000048B6D1C287869283ED006DC0028CDD0D1
:1032000063280BD0642804D136E0732810D07528C9
:103210004BD052460D999047761C85E017F8040B69
:103220008DF8000000208DF80100E946012003E040
:1032300057F8049B4FF0FF3061074FF0000401D4B2
:103240000AE0641C44450DDA8442FADB19F80410E4
:103250000029F6D106E0641C8442FCDB19F8041056
:103260000029F8D1264404E019F8010B52460D99C3
:103270009047641EF8D257E001CF4FF00A0B0028A8
:1032800002DA40422D2102E0210504D52B218DF8E0
:103290002410012103E0E10705D02021F7E70DF11B
:1032A000200908910CE00021F9E701CF4FF00A0B4B
:1032B000F9E75946FCF7F7FF01F1300209F8012D53
:1032C0000028F6D1ADEB090000F1200B600701D416
:1032D0004FF00108D84502DDA8EB0B0000E000200C
:1032E0008046002406E009A85246005D0D999047EB
:1032F000641C761C08988442F5DB04E030205246BA
:103300000D999047761CB8F10001A8F10108F5DC91
:1033100005E019F8010B52460D999047761CBBF158
:103320000001ABF1010BF4DC6D1C34E7092801004E
:103330002DE9FF4F89B005460A98002492460028DF
:1033400000D1FE4D8FE1252804D02246641C53464F
:103350000A990BE2491C4FF0000808460C910178CD
:103360002B2919D004DC202919D0232904D119E0F4
:103370002D290ED0302909D00026C8B2FEF7D6FF7D
:10338000B0B10CA8FEF7BBFF06461FE048F00101F4
:103390000AE048F0020107E048F0040104E048F0C8
:1033A000080101E048F01001401C88460C90D6E767
:1033B0000C9908782A2809D1169840C81690002E32
:1033C00002DA48F002087642491C0C910C984FF042
:1033D000000B01782E2919D1401C0C9048F480680C
:1033E0000078FEF7A3FF20B10CA8FEF788FF834604
:1033F0000CE00C9A10782A2808D1169802C816906A
:10340000002900DC0021521C8B460C920C9801789C
:103410006C290AD004DC68290FD06A2919D128E068
:10342000742929D07A2914D126E0401C0C90017807
:1034300048F480786C291CD00BE0401C0C9001787B
:1034400048F08008682904D148F04001401C8846B3
:103450000C9002460078692822D015DC62281FD023
:103460000DDC252871D050281AD058287FF46DAF74
:1034700016E048F40071E9E748F48071E6E7632854
:1034800078D06428F2D10BE0732874D004DC6F2864
:1034900006D07028EAD103E0752801D07828E5D15C
:1034A00078280DD058280BD070280BD0502809D080
:1034B0006F2816D0622816D00A2128F0100016E0D6
:1034C000102107E05078102148F48878562804D15C
:1034D000521C0C921078582807D01078502804D02D
:1034E00006E0082109E0022107E048F020008046BC
:1034F0001078692803D0642801D028F00C085FEA0E
:10350000485001D528F00108107869281ED0642899
:103510001CD0562864D05FEA885072D5169804AB48
:10352000C01D002283E806080292CDE9076820F05A
:1035300007005346F0E80212CDE900121690224629
:1035400028460A99FFF7D2FD89E00AE15FEA885030
:1035500024D5169804AFC01D20F00703F3E802023B
:103560001693002387E80A08CDE90768002A03DAE2
:10357000012102E080E0A6E000210023029119462B
:103580001B1A914101DA114603E00021404261EB30
:10359000020153462246CDE90001D1E75FEAC85057
:1035A00004D5169804C80FE0524215E05FEA48605F
:1035B00003D5169810F8042B06E05FEA0860F0D5F2
:1035C000169830F8042B12B21690CDE9021BCDE903
:1035D0000468D00F002AE7DDCDE9002053461EE045
:1035E0001698AAEB040202C816904868006800907A
:1035F0000A980B6801192846FFF79AFE04442FE049
:10360000FFE75FEAC8500CD5CDE9021BCDE904689D
:1036100016980021534604C8CDE900211690224691
:1036200019E05FEA486003D5169810F8042B08E00B
:103630005FEA0860169803D530F8042B92B200E0D8
:1036400004C816900020CDE90020CDE9021BCDE989
:1036500004685346224628460A99FFF707FD0446A8
:103660000C98401C0C900C99087800287FF46BAEE5
:1036700054457DD222467DE001275FEA887006D559
:1036800009E02246641C534620200A99A847384680
:103690007F1CB042F5D316992246641C11F8040B26
:1036A000169153460A99A8475FEA887006D4D7E76F
:1036B0002246641C534620200A99A84738467F1C9E
:1036C000B042F5D3CCE7169850F8049B16904B46C1
:1036D000BBF1000001D0014601E04FF0FF31484648
:1036E00000E0401C02780AB1491EFAD2C71A5FEA0C
:1036F000485003D558465F4500D307465FEA8870B7
:1037000006D512E02246641C534620200A99A84799
:1037100038467F1CB042F5D307E000BF224609F1CE
:103720000109641C53460A99A84799F8000040B162
:103730005FEA4851F2D5BBF1010B01E07531000899
:10374000ECD25FEA887006D48AE72246641C5346AE
:1037500020200A99A84738467F1CB042F5D37FE75E
:1037600006E02246641C534625200A99A84777E7BD
:10377000AAF10102534600200A99A8470DB020463D
:10378000BDE8F08F10B502004FF000000CD04B1ECA
:10379000194200D0FEE70A44521E9A43B2F5004F88
:1037A00002D20C2A01D9104610BD0C2010BD0844CD
:1037B0004A1E401E9043114200D0FEE770470000B1
:1037C00010B5084C012020700748FFF726F80028A4
:1037D000A06803D0BDE810400AF0DFBFBDE810408C
:1037E0000AF0D8BF74000020040F002070B5044612
:1037F00040680D4608B1FFF7F9FF2268002A04D09F
:1038000029462046BDE87040104770BD89B203F0DC
:1038100006BC00002DE9F14FDFF8C0A0DFF8C0B012
:1038200092B000254FF4003940F267164FF6FF784A
:10383000DAF8140003F0F2F8044609F011FD03F081
:103840008FFE03F0A1FE00EBD070411006200BF0BC
:103850000BFE07B203F084FE03F096FE00EBD0707F
:10386000411006200BF000FE01B23A46204609F056
:10387000C4FE4F464A462046129906F01DFD5946A1
:1038800000200BF0F1FD03F0BEFD01463A46204654
:1038900009F09BFF0021204603F0FAFBFA213220B9
:1038A0000BF0E2FD0746684602F0F4FF0D4809A957
:1038B000CDE900400020089081E8C1000E97ADF8E6
:1038C0004080684603F03AF8204601F01DFD6D1C6B
:1038D000082DADD313B0BDE8F08F0000E800002044
:1038E000F0FFFF000D38000810B50B480AF0D9FAB8
:1038F0000D2109480AF0EDFA07482838007808B188
:103900007F2100E0FF2104480AF0DFFABDE8104003
:103910000148FFF77FBF00001001002010B50B48E1
:103920000AF0BFFA022109480AF0D3FA07482838FA
:10393000007808B17F2100E0FF2104480AF0C5FAB1
:10394000BDE810400148FFF765BF000010010020EE
:10395000F8B503F005FE02682B4C2A4951626178E4
:1039600069B1406820B10168E16001210AF018FFE7
:1039700002F08AFF0168216101210AF011FF0AF0BB
:10398000FBF8054609F06CFC0022FF21284609F0EF
:1039900034FF284605F0FEFC04221146A06109F020
:1039A00021FE284605F0F6FC0021E0610B4600915F
:1039B0000D22A16906F0E4FC284607F0B9F8606121
:1039C00009F04EFC284607F0DAFCE169498B401A01
:1039D000001F06B2284608F048FC014632466069DE
:1039E00009F00BFE00231A460521606906F0BAFCB7
:1039F000054828300AF07DF92846BDE8F84009F06E
:103A0000D5BF000015EE0008E800002010B5044600
:103A1000406882080AD0496821F00301091D084462
:103A20006060204600F042F8204610BDFEE7406886
:103A3000103120F00300884201D30120704700209C
:103A400070472DE9FC47054648680C4620F0030006
:103A500001AA69460BF0B8F9DDE9007005EBC71162
:103A600001EB80098046D9F8380060B164B1C4E93F
:103A7000020504F10806C46030460421FFF797FEF2
:103A8000864202D0FEE7FEE7FEE7C9F83840012093
:103A9000296900FA07F21143296105EB870100FA51
:103AA00008F04A6902434A61BDE8FC8710B5044644
:103AB00000F087F8046010BD2DE9FC4706464FF082
:103AC00000000D0000900746019042D00C46E946E8
:103AD0000DF10408802907D308460CF0BDF8411FFA
:103AE00001208840401E04444246494620460BF0CF
:103AF0006BF9009C092C2CDA06EB8400019A4069D2
:103B00004FF0FF3101FA02F210400CD1641C306911
:103B1000A14008401DD00CF097F80446009006EB39
:103B20008000406978B10CF08FF8034606EBC411B1
:103B3000019001EB8000876B5FB1786820F0030093
:103B4000A84201D2FEE7FEE739463046009A0BF064
:103B50006AFC3846BDE8FC8710B50446FFF7A6FFAF
:103B6000416841F002014160606840F0010060601E
:103B700010BD10B5044600F024F8416821F00201A0
:103B80004160606820F00100606010BD70B50646BD
:103B90000D46084600F015F8040010D02079C00743
:103BA0000BD0686880080BD02146304600F03CF806
:103BB00021462846FFF72AFF0546284670BDFEE746
:103BC000FEE7426800F1080122F00300001F0844EC
:103BD000910800D1FEE7704770B506460C004FF023
:103BE00000001ED0F2B120791546C0071BD0114647
:103BF0002046FFF71CFF78B12946204600F025F843
:103C000005462046FFF752FF6868294640F002004B
:103C100068603046FFF715FF2046FFF7AAFF04F162
:103C2000080070BDFEE7FEE77CB5054648680C4617
:103C300020F0030001AA69460BF0C6F8DDE9002375
:103C4000214628460BF0EFFB7CBD2DE9F0410D46E7
:103C5000044600F10801281F0E18606806F10807E5
:103C600020F00300401BA0F1040838460421FFF7B0
:103C70009EFD874200D0FEE7606820F0030108EB5C
:103C80000500001D814200D0FEE7307900F00300FE
:103C900040EA0800706020F003000C2800D2FEE724
:103CA000207900F00300284360603046FFF754FF9E
:103CB0003046BDE8F081000010B50B480AF0F1F87D
:103CC000032109480AF019F907482838007808B193
:103CD0007F2100E0FF2104480AF007F9BDE8104009
:103CE00001480BF011BA00001001002010B50D487A
:103CF0000AF0D7F847F6FF710A480AF098F903214D
:103D000008480AF0FAF807482838007808B17F21F7
:103D100000E0FF2103480AF0E8F8BDE81040014840
:103D20000BF0F2B91001002010B50F480AF0B9F8F5
:103D300008210D480AF07BF903210B480AF0DDF851
:103D400009482838007808B17F2100E0FF210648A3
:103D50000AF0CBF8042104480AF0CBF8BDE8104083
:103D600001480BF0D1B900001001002010B50F4838
:103D70000AF097F808210D480AF059F903210B4879
:103D80000AF0BBF809482838007808B17F2100E024
:103D9000FF2106480AF0A9F80C2104480AF0A9F806
:103DA000BDE8104001480BF0AFB900001001002041
:103DB00010B50D480AF075F808210B480AF037F9DC
:103DC000032109480AF099F807482838007808B113
:103DD0007F2100E0FF2104480AF087F8BDE8104089
:103DE00001480BF091B900001001002010B50F48F8
:103DF0000AF057F808210D480AF019F903210B4879
:103E00000AF07BF809482838007808B17F2100E0E3
:103E1000FF2106480AF069F8032104480AF069F80E
:103E2000BDE8104001480BF06FB900001001002000
:103E300010B50F480AF035F808210D480AF0F7F8D8
:103E400003210B480AF059F809482838007808B1CE
:103E50007F2100E0FF2106480AF047F802210448CC
:103E60000AF047F8BDE8104001480BF04DB90000DA
:103E70001001002010B50F480AF013F808210D4872
:103E80000AF0D5F803210B480AF037F8094828381A
:103E9000007808B17F2100E0FF2106480AF025F8EC
:103EA000062104480AF025F8BDE8104001480BF04F
:103EB0002BB90000100100202DE9F14F002211461E
:103EC000009809F015FB0021009807F075FF0446E3
:103ED0000021009808F032F820440FFA80F9002100
:103EE000009807F0E3FF20440FFA80F8009807F0ED
:103EF000FDFE00EB090101EB0800DFF898A006B217
:103F00005446009807F07CF9074600252AE00098FF
:103F100021498068006850F82500834608F0B2F90E
:103F2000F8B9584608F0A8FC40BB0021584607F0F5
:103F300001FF18B3012821D002281FD003281DD06B
:103F40000021584608F0D8F858B9BBF81A10BBF849
:103F50001600081A401C00B24844A04200DB044688
:103F600024B26D1CBD42D2D3544504D004EB0800EA
:103F700000B2B04200DC3046BDE8F88F0098BBF9D3
:103F80001A10B0F91600081A411CA142E8DB0C46D1
:103F9000E6E7000001E0FFFF010004002DE9F84F13
:103FA00000228046114609F08DFA0021404607F0B4
:103FB00003FF04460021404607F0A8FF20440FFA03
:103FC00080FA0021404607F089FF20440FFA80F96B
:103FD000404607F099FE00EB090101EB0A00DFF80B
:103FE00044B105B25C46404607F00AF90746002195
:103FF000404607F0AEFE01284FF0000644D078E0BE
:10400000D8F808004849006850F82600009008F0E9
:1040100039F9C0BB009808F02FFC50B10098B8F9EE
:104020001810B0F91400091A481CA0422ADB4C1CD5
:1040300028E00021009807F07DFE58B1032809D040
:10404000062807D0082805D00021009808F04EF86F
:1040500058B118E00098B8F91810B0F91400081A0F
:10406000411CA1420EDB0C460CE00098143000907D
:1040700003F09FF85044A04204DB009803F099F845
:1040800000EB0A0424B2761CBE42B9D35C453BD097
:1040900004EB090033E000BFD8F8080022490068AB
:1040A00050F82600009008F0EDF808BB009808F0E2
:1040B000E3FB60BB0021009807F03CFE38B3012809
:1040C00025D0042823D0072821D00021009808F00B
:1040D00013F868B900981430009003F06AF8484467
:1040E000A04204DB009803F064F800EB090424B25A
:1040F000761CBE42D0D35C4506D004EB0A0000B269
:10410000584501D0A84200DC2846BDE8F88F009849
:10411000B0F91810B8F91400091A481CA042E6DBDF
:104120004C1CE4E701E0FFFF010004002DE9F04F23
:1041300091B00E0005463FD02E83286808B105F0E7
:104140007FFF06EB4600062101EB400005F002FF71
:10415000286040B3022101EB46010144E9600421DB
:1041600001EB86010144C5E9010101210024012E72
:104170001AD0F000083005F005FF814600EB8600FC
:1041800000F10408B00000B2A346ADF81000C0F181
:1041900001028010ADF812B00FFA82FA5C46CDF839
:1041A00028B00690ABE0FEE7B4220270E868048015
:1041B000E8684180A868048011B0BDE8F08F00274E
:1041C000BDF81220BAF1000F07DC032101EB420118
:1041D0000AEB01000FFA80FA0CE0BDF8101005237D
:1041E000521A03EB420202EB0A00491E0FFA80FA50
:1041F000ADF81010BDF81200401CADF8120004A874
:1042000000F0E9F868B1BDF9100006A9821041F884
:1042100027200AA900F0030041F827007F1C042F83
:10422000CEDB042F71D109990698884212D129F862
:10423000140028F814B0DDE90A010144DDE90C207E
:104240001044084469680855696800010855641CF1
:1042500024B252E00799884219D029F8140028F8AE
:1042600014B06A680A9810556A6800011055641CF9
:10427000069A20B2521E29F8102028F810B0DDE965
:104280000B120A440D99091D11446A682FE0089920
:1042900029F81400884228F814B0DDE90A025946CA
:1042A000104412D06A6810556A6800011055641CE9
:1042B000069A20B2521E29F8102028F81010DDE9C5
:1042C0000C12114408316A6811E00C9A10446A68B3
:1042D00010556A6800011055641C069A20B2521EDF
:1042E00029F8102028F810100D996A680C31115423
:1042F0006A6809011154401C04B20BF1010B04A8B7
:1043000000F069F800287FF45AAF40F2D32016FB82
:1043100000F109EB4402881232F9022C824205D1E5
:1043200008EB440232F9022C82421AD0A1EB802120
:10433000B1F5007F03DC494341F3CF3106E0C1F51D
:104340008061494341F3CF31C1F10F0129F81400D5
:1043500028F8140068680155686809010155641C53
:1043600024B2A01E0EE000BF38F8102029F8142057
:1043700039F8102028F8142069680A5C0A55641C72
:1043800024B2401E0028EFDAEA68002108461180B6
:104390001BE0EA6822F81100AB6839F8102023F816
:1043A00011200AE0AE6839F9102036F81130934236
:1043B00000DA1A4626F81120401C38F910208A42EB
:1043C00001D1A042EEDB491C09B2A042E1DB484624
:1043D00005F024FEF0E6B0F90210B0F900008142C9
:1043E00001DC01207047002070472DE9F04F07469F
:1043F000C87A89B015460E46022803D8012009B0B4
:10440000BDE8F08F18463269B168FEF777F9041EEF
:10441000F5D0207D00F01F0004F01DFB4FF48078E4
:1044200008B1062011E0207D00F01F000E2806D004
:1044300014280AD004F0FFFA30B1052005E03088D6
:104440004FF00E0930B902E00420814606E0708882
:10445000404503D000204FF00509A061226A22B137
:10446000294638460BF0E2FAB7E0A069E0B32946E6
:1044700002A802F07EFEB6F9003013B970884045FC
:1044800029D0A88829886A88401A401C01B2E88887
:1044900006F1040C801A401C02B27088CDE9000CB1
:1044A00002A8FEF775F8BDF8080029880844ADF8A1
:1044B0000800BDF80A1068880844ADF80A00BDF885
:1044C0000C0029880844ADF80C00BDF80E1068886F
:1044D0000844ADF80E0002AA04A8B968FDF72DFF44
:1044E00000287AD004A800E00DE0D7F80880B86072
:1044F000CDF800902A4631463846A36903F0D8FA31
:10450000C7F8088069E02A4604A8B968FDF715FFD6
:10451000E0B3BDF81400BDF81010401A401C0FFAAB
:1045200080FB0BEB4B0005F02DFD039004A901A8C7
:10453000D7F808A002F01DFE012101A802F066FED6
:10454000BDF91000B5F90010BDF91280401A0690AF
:10455000B5F90200A8EB000536E001AA514607A80C
:10456000FDF7EBFE70B30398009006985B4601B22E
:104570002AB2204604F04EFB01280ED0204604F05B
:10458000ADFA039805F04AFD204600E025E004F06E
:10459000A5FA0020C7F808A031E707A8B860CDF851
:1045A000009001AA31463846039B03F081FABDF81A
:1045B0000600401CADF80600BDF80A00401CADF82E
:1045C0000A006D1C08F10108BDF916004045C4DA67
:1045D000C7F808A0039805F021FD204604F07EFAF4
:1045E0000CE700002DE9F04F9BB0834603F0F2FF8B
:1045F0000646584604F02CF80446122E7ED0152E9E
:1046000001D0182E7BD107F030FE0490204606F032
:10461000B6FE039020460021322207F0A7FC054693
:1046200020460021122207F0A1FC28440FFA80F84E
:1046300020460021132207F099FC28440FFA80FA43
:1046400020460021102207F091FC284407B22046A2
:104650000021112207F08AFC2844618E0FFA80F9AC
:1046600001EB0800ADF86000A08E3844ADF86200A0
:1046700094F8390000F0030001287DD018A9E08EDD
:10468000CDE90001DDE90321B4F9303005A8FDF7DB
:104690007FFFBDF81410A08A0844ADF81400BDF8DF
:1046A0001610E08A0844ADF81600BDF81810A08A6C
:1046B0000844ADF81800BDF81A10E08A0844ADF8B7
:1046C0001A0000BF04F114010D4619A80C9102F064
:1046D00059FD05A9284602F055FD5946D24806F075
:1046E00067FD012861D119A90C9802F04BFD152E28
:1046F0005BD1E08D002858D0A08D01E058E054E057
:10470000002852D0E08E00284FD0584603F068FFB2
:10471000064603A80C9902F035FD204604F09AFBEA
:10472000054694F8390000F0030001287DD0BDF85B
:104730001800BDF81410401ABDF80C100844ADF86C
:104740001000BDF81A00BDF81610401ABDF80E1082
:1047500000EB0100BDF80C10ADF8120001EB0800F1
:10476000ADF80C00BDF80E00BDF810103844ADF8DF
:104770000E00A1EB0A0000E07FE0ADF81000BDF8EC
:104780001210A1EB0900ADF8120094F8381001F0F6
:10479000030001286FD089076DD002286CD0002358
:1047A000194630460C9A03F057F91BB0BDE8F08F5C
:1047B000584603F04BFF054600780228F5D094F8E0
:1047C00038004FF00106C14389074ED000F00301C5
:1047D00002294AD0C0F38400042801D0012844D122
:1047E00020460021462207F0C1FBC0B2FF283CD181
:1047F000208ED0BB584603F029FF0746E08EB0F567
:10480000807F34D0204606F0BAFD8046204607F06F
:104810002CFD014604F13202E08ECDE900020023B6
:10482000424603A8FDF7B4FE00E02BE0BDF80C0003
:10483000A18A00220844ADF80C00BDF80E00E18A00
:104840000844ADF80E00BDF81000A18A0844ADF888
:104850001000BDF81200E18A0844ADF8120003A967
:104860003846FDF792FD00289FD12E709DE700226B
:1048700004F11401F4E730E0C5E005A9204606F094
:1048800045FD1FE7B4F92C0029B2401ABDF80C1001
:10489000401C00EBD070A1EB6001ADF80C10BDF82E
:1048A0001010BDF80E20A1EB6000ADF81000B4F9B7
:1048B0002E002914401A401C00EBD070A2EB6000BF
:1048C000ADF80E00B4F92E00401ABDF81210401CCD
:1048D00000EBD070A1EB60003CE70FA803F0F0F80C
:1048E0000FAA0021204607F028FDE08EADF83E001B
:1048F000208EADF83C00608EADF84000A08EADF883
:10490000420094F8380016AAC0098DF85000BDF88E
:10491000141001EB0800ADF85800BDF81600BDF802
:1049200018103844ADF85A00A1EB0A00BDF81A106F
:10493000ADF85C00A1EB0900ADF85E00B16810466F
:104940000F46FDF7FAFC002890D016A8B060B4F925
:104950002800B4F92C1090FBF1F201FB1208B4F915
:104960002A00B4F92E1090FBF1F201FB1200BDF900
:104970000E10084400B2ADF80200884203DDE18D5C
:10498000401AADF80200E18D80B20844401E30E0CC
:10499000BDF90C1001EB080000B2ADF80000884230
:1049A00003DDA18D401AADF80000A18D80B208444E
:1049B000401E0DE06A460FA93046636A03F04CF8CA
:1049C000BDF800002844ADF80000BDF804002844FC
:1049D000ADF80400BDF90000BDF910108842E9DB14
:1049E000BDF8021028140144ADF80210BDF80610FD
:1049F0000844ADF80600BDF90200BDF91210884266
:104A0000C6DBB760D1E60DA803F012FB0DAA0021AA
:104A1000204607F0E5FC00200090636A0DA93046AF
:104A20000C9A03F065F8C0E6F83A01082DE9F04762
:104A300098B0054603F00CFE0446284603F0D0FD6E
:104A4000064609A9204606F0FFFB94F84800002519
:104A5000C10600D50125800601D545F002050021DB
:104A6000204607F03DFBA0F51C51D13904D1608CE4
:104A7000400501D445F004050BA803F0D9FAB4F8B9
:104A80004400ADF84200B4F84600ADF844008DF89B
:104A900049500BAA0021204607F0A2FC9DF84800CF
:104AA0004FF0010808B98DF84880E06B0C90206C3D
:104AB0000D900C994FF6FF7081421ED00D998142E6
:104AC0001BD04FF48029274655224946204607F03F
:104AD0004DFA024649463846FDF765FF0090BDF89D
:104AE0000000ADF83A0020462022494607F03EFA81
:104AF0000090BDF80000ADF83C0094F8480041F685
:104B0000FF7A00F00700022801D003281ED19DF88B
:104B10004800022801D0032818D1BDF93E10CDE984
:104B2000001A0295BDF940300B9A16A8616A09F087
:104B3000BDFFBDF82800BDF82410401A401CBDF987
:104B4000581000B2884201DA8DF8488094F8480085
:104B500004F1300700F00700032809D0BDF82A004F
:104B6000BDF82610401A401C00B2B0F5806F00DA84
:104B7000002709A914A8B268FDF7DFFB00287DD043
:104B800094F8480040070BD1204606F06BFD4042E8
:104B900002B2002109A802F025FB608BADF82A00C3
:104BA00094F848000DF1500900F00700022813D0D6
:104BB000032811D0009709AA0BA93046636A02F0B6
:104BC00097FFB068C6F80890804694F8480000F057
:104BD000070003280FD05FE0D6F80880C6F80890D9
:104BE000009709AA0BA93046636A02F081FF40468C
:104BF000C6F80880E6E7BDF93E10CDE9001A029537
:104C0000BDF940300B9A06A8616A09F04FFFBDF864
:104C10002800BDF82410401A401CBDF9181000B23D
:104C2000884219DA202211460B9803F0FDFDB4F8F2
:104C30004410BDF8182000EB400011440844ADF8C2
:104C40004200B4F84600ADF84400009709AA0BA949
:104C50003046636A02F04CFFBDF82A00BDF826100A
:104C6000401A401C01B2BDF91A00814214DAB4F8AE
:104C70004410ADF842100B99098900E00EE0B4F839
:104C80004620009710440844ADF8440009AA0BA937
:104C90003046636A02F02CFFC6F8088018B0BDE801
:104CA000F08700002DE9F04FE1B0054603F0D0FC9D
:104CB0000446284603F094FC8246826804F11401FD
:104CC00030A8FDF73AFB00287ED0DAF808000F90F4
:104CD00030A8CAF8080020460021322207F046F921
:104CE00000B257900021204607F03AF95B9000216E
:104CF000204607F0EDF85D900021204607F000F90E
:104D00005A900021204607F013F95990208C002674
:104D100009902684608C40F00400608422A803F08F
:104D20001FFC4FF4A02522AA2946204607F006FCC6
:104D300032A803F07DF932AA2946204607F050FB3D
:104D400009982084608C002720F0040060842046AD
:104D500006F096FC0146E28A5B981044411A579887
:104D60000844401EADF81600204606F082FC58901C
:104D70000021204606F0F9FF012800D000208346DC
:104D8000514642A806F070F84FF4A0204F90EB482F
:104D900043900020449014A846903AA847900020E1
:104DA00089E0E06A30F91910BDF816005491401CF2
:104DB00000B2491E0144ADF81200ADF81610BDF95D
:104DC000C61088427CDC00E07DE0BBF1000F0AD019
:104DD000218B5998091A5898091A5798081A401E91
:104DE000ADF8100009E0A18A5A9801445898091AB0
:104DF00057980844401EADF81400002555E00020E7
:104E00005590A06A50F8270008B100785590BBF182
:104E1000000F0CD0BDF81000401EADF81400216B3F
:104E200031F81510401A401CADF810000BE0BDF829
:104E30001400401CADF81000216B31F81510084427
:104E4000401EADF8140000261DE0A06AB91950F804
:104E50002100E8B10078C0071AD0206BA9190222FE
:104E600002EB4101405EBBF1000F05D0BDF8101010
:104E7000081AADF8100004E0BDF814100844ADF8AD
:104E80001400761CB6B2A08C7119401E8142DCDB86
:104E9000BDF91600BDF9C210884217DAB819401CD6
:104EA00087B2A81980B2401C85B2A08CA842A6D8AF
:104EB00009F1010080B2E18C814649453FF671AFAE
:104EC0000F99CAF8081061B0BDE8F08FBDF9102045
:104ED000ADF82820BDF91280ADF82A80BDF9141074
:104EE000ADF82C10ADF82E0086469DF8AB00C0F34F
:104EF000440043070DD5B4F914C05A9B63449A4249
:104F000007DDBDF9A83003EBD373A2EB6302ADF864
:104F1000282082070DD5B4F916305B9A1A449045C3
:104F200007DDBDF9A82002EBD272A8EB6202ADF852
:104F30002A20020711D5B4F91830599A9A1A521E2C
:104F400091420ADABDF9A82002F0010302EBD27205
:104F500003EB62021144ADF82C10C00712D0B4F973
:104F60001A205D98101A401E86450BDABDF9A8007C
:104F700000F0010100EBD07001EB600101EB0E00CD
:104F8000ADF82E00E28E00214A457DD1A08EA842C8
:104F90007AD1208C420602D4820600D520218207D5
:104FA00001D541F00201420701D541F0040100079B
:104FB00001D541F00801002966D02184608C40F0C1
:104FC0000401618414A803F0CBFA3AA803F030F886
:104FD0004FF4A02814AA4146204607F0AFFA3AAA97
:104FE0004146204607F0FCF909982084608C20F0A7
:104FF000040161840AA84590A18C42AA09FB0150D2
:1050000050901A21204603F025FB0AAA14A9504605
:1050100003F092FAA06A50F8270000287ED04FF4DF
:10502000A0284146204606F06BFF0C9041462046E2
:1050300006F07EFF12904146204606F091FF029056
:105040004146204606F044FFBDF810300C9ABDF8EA
:1050500012C01A440FFA82F8BDF81430129AADF853
:1050600040809A1A13B2ADF84430029A0146624465
:10507000ADF84220BDF816200020511AADF84610B8
:105080005599C1F3400100E018E05E9101B10220A2
:10509000A3EB0801491CBDF9FA2009B20092CDE941
:1050A0000110A06ABDF9FC30329A50F827105CA8B4
:1050B000491C09F0FBFC5E9858B11FE0382222A978
:1050C00014A804F0EBFF202232A93AA804F0E6FF6E
:1050D00090E75498BDF81210BDF9722100EBD07022
:1050E00001EB600302EBD272401000EB6200A3EB15
:1050F00062030844ADF84230ADF8460004AA30A976
:105100005FA8FDF71AF948B15FA90020CAF8081096
:105110000090A06A10AA50F8273000E007E03AA9F2
:1051200050465B1C02F0E4FC30A9CAF8081042AA01
:105130001B21204603F08EFAB0E600004C3B01082C
:1051400070B5A4B00C46054620AA22A906F09FFA25
:1051500022A802F020F820B920A802F01CF80028AC
:105160003ED012A928460AF03BFB012838D121463F
:10517000684605F079FE1B4801900220029012A8B3
:1051800004904FF480300D9022A802F004F880B112
:1051900022A803906A461A21284603F05BFA22AA45
:1051A00012A9204603F0C8F96A461B21284603F0DD
:1051B00051FA20A801F0EFFF002811D020AE6A4676
:1051C0001A212846039603F045FA20AA12A9204680
:1051D000039603F0B1F96A461B21284603F03AFA18
:1051E00024B070BDC802010870B5044604F016F87A
:1051F00048B1006882680AB1217A9047207E810711
:1052000042D4C0077BD10021606806F0A3F80025D6
:1052100018E0017ACA0910D0802904D0227A21F03E
:105220008001914209D14168E160016820468847C8
:10523000207E810728D4C00761D16D1C2946606893
:1052400006F088F818B101680029F6D0E1E7214698
:10525000002005F0ADFF050053D00021606806F086
:1052600079F8002619E0016891B1017A0A060FD495
:1052700011B1227A91420BD14168E1600168204668
:105280008847207E810701D5012070BDC00736D137
:10529000761C3146606806F05DF810B1012DE2D051
:1052A0002FE0012D2DD16068416851B3217E49075F
:1052B00027D4217A232919D0242917D0A90306F04D
:1052C000DAFFF0B1207A11381C280FD2DFE800F0A5
:1052D00019191919191919191919190E0E190E0E6A
:1052E000191919190E0E0E0E19190E196068406859
:1052F00060602046FFF778FF0546012801D00020B6
:1053000070BD284670BD0000F0B51C4E054691B03A
:10531000706906F0AAFF0446284606F0A6FF211A87
:1053200000200AF0A1F801B2284608F0DEFA4FF496
:105330007A71C8200AF098F80446684601F0AAFA83
:105340000F480027CDE90050706906F018F80646AE
:10535000284606F014F8301ACDE90A044FF6FF701B
:10536000ADF8400004EBD470401009970C900897FA
:105370000E94684601F0E2FA11B0F0BDE80000209A
:105380008553000809B208F0C6BA2DE9F74F054663
:10539000007F93464FF0000AC00760D14FF001082C
:1053A000EC680026C1467CB9287FC0F3C000401ECF
:1053B000304254D1B9F1000F51D0019928468847A5
:1053C0004FF000080446C1460EB9261E47D0B8F17A
:1053D000000F06D0214628465A4690470446B04260
:1053E0003DD04FF00108002CDED0206806F09AFC7A
:1053F0000006D8D427681FE00121384606F03BFF9D
:10540000B0B12FB10121384606F035FF0028CAD1CE
:10541000E868A04223D0B0B1284600F011FB024654
:10542000E8680F21006803F015F9012817D106E09C
:10543000384605F0E5FF0746002FDDD1E8E7E868CC
:10544000006807F0C0F92846EC6000F0F9FA02465F
:10545000E8680E21006803F0FDF8012802D05046EC
:10546000BDE8FE8FE868006807F0ADF9296909B169
:10547000284688470120F3E713B54FF0FF33012298
:1054800069460248FCF7F4FA00981CBDE4090020C4
:105490002DE9F0470023C0B01A46194618461F46AA
:1054A000924C10E096F82050D6F818C02B440CFB14
:1054B0000511032D01D96D0800E00125F6692A4484
:1054C00006FB05007F1C07EBC70504EB8506756826
:1054D000002DE7D10E189D18B0FBF2F0B1FBF3F1EF
:1054E000B6FBF5F864225043B0FBF1F77F4E303E37
:1054F000706800B1804708F03FFB05F06DFA0025A9
:10550000756108F039FB012108F032F808F034FB2E
:1055100003F040FF424676A1B06104F0F4FB08F0CE
:105520002BFB03F037FF3A4676A1F06104F0EBFB6A
:1055300008F022FB05F0D0FE074608F01DFB08F03E
:10554000E7FD8246022108F039FF07EB4700C1174B
:1055500000EB9170EE1E06EBA00002B20021504657
:1055600008F09AFFF91707EB917006EBA0020121F2
:10557000504608F091FF42F26401504608F09FF94E
:10558000012300222946504608F071FD62A3002243
:105590002946504608F0D0FE012500274FF48079B7
:1055A00040E0B069142818D296F820000A2814D3D5
:1055B00054F8283000222946504608F0BDFE5CA26F
:1055C00049466846B36908F0DFFA6B46012229466E
:1055D000504608F0B1FE6D1CADB2F069142820D21F
:1055E00096F8200003281CD914281AD354F8283020
:1055F00050A24946684608F0C7FA6B460022294681
:10560000504608F099FE4AA249466846F36908F0F8
:10561000BBFA6B4601222946504608F08DFE6D1CF0
:10562000ADB27F1C07EBC70804EB88067068002842
:10563000B7D1012D0CD1012300222946504608F094
:1056400016FD3FA300222946504608F075FE0225AC
:10565000012300222946504608F009FD3BA3002201
:105660002946504608F068FE6D1CADB20026A046E3
:1056700031E000BF58F8273000222946504608F094
:105680005BFE2BA249466846A36908F07DFA6B468B
:1056900001222946504608F04FFE6D1CADB258F865
:1056A000273024A24946684608F06EFA6B4600226D
:1056B0002946504608F040FE1DA249466846E36967
:1056C00008F062FA6B4601222946504608F034FE83
:1056D0006D1CADB2761C06EBC60708EB870461684B
:1056E0000029C7D140B0BDE8F087000018010020B4
:1056F0005765696768746564204650533A2025757C
:10570000000000004F70612E2073706565643A20C0
:105710002575252500000000536C6F772062757495
:1057200020636F6D6D6F6E206361736573000000A1
:10573000257500002573202B206F7061000000008C
:10574000416C6C20676F6F6400000000416C6C203E
:10575000636173657300000070B5828E818C12F0F6
:10576000060F06D0C2F34102022A04D0012A05D056
:1057700022E0008D00E0C08C08441CE0B0F92C5001
:10578000468DAAB2B24202D202F5B47215B2B0F995
:105790002830C48C9AB2A24202D202F5B47003B28D
:1057A000701900EBD0704010844201DA601802E0FA
:1057B000834203DD501881B208B270BD0844FAE795
:1057C0002DE9F0474FF0000805461C4616460F46E7
:1057D000A3F80080404606E0296B228831F81010BB
:1057E000401C11442180B042F6D30021284606F027
:1057F000BCFA0128284615D005F03BFF2188081A7D
:1058000020800021284606F07BFB21880844208068
:10581000296B31F816100844401EA080A4F80280BD
:1058200000201FE005F025FF21880844208028463D
:1058300006F01BFD81460021284606F079FB2288F0
:105840000146A9EB0200401AA080296B31F816101E
:10585000401A2080E2E7E96A628831F81010401CA3
:1058600011446180B842F6D30021284606F078FB47
:10587000618808446080284605F002FF6188081AA4
:105880006080E96A31F817100844401EE080BDE8E6
:10589000F0872DE9F05F894693468246002106F0A5
:1058A00029FB05460021504606F03CFB80460021BE
:1058B000504606F04FFB04460021504606F002FB1E
:1058C0000646504606F0D1FC411BA1EB08075046A6
:1058D00005F055FD001B801B8742504605DA06F097
:1058E000C4FC411BA1EB080003E005F048FD001BD0
:1058F000801B00EBD07040F34F00BAF8141042192F
:105900001144A9F80010BAF8161002191144A9F8A8
:105910000210BBF1000F01D0ABF80000BDE8F09F12
:105920002DE9FC470F0023D00569686928B101689B
:10593000B94202D14068BDE8FC87698A00224FF075
:10594000040CC1F308040CE0AE6802EB820356F8C5
:1059500023100CEB8303F35A791A8B420AD2521CA0
:1059600092B29442F0D818B107606969002048608B
:105970000020E0E702EB82041222A86802EB840216
:105980000026825C4FF00609022A0CD04FF00C0A68
:105990006AB1DFF8A8C008234FF01008032A0FD01F
:1059A000012A26D043E009EB8402805A06E00AEB84
:1059B000840209EB84038258C05A515C461836E0D1
:1059C000ADF8041008EB8401CDF800C003EB8408A7
:1059D000425A50F80810022301A8FDF78BFA30B3A1
:1059E000A96851F80820801A09EB84024010895AEE
:1059F0001CE0ADF8041008EB8401CDF800C003EB07
:105A00008408425A50F80810022301A8FDF772FAE0
:105A100068B1A96809EB840351F80820801A0AEBE1
:105A2000840240108A58C95A32F810000E1868696A
:105A300010B107606869466030467CE7DD01010807
:105A40002DE9F041002607463546304610E000BFFC
:105A500003F025FC616DB94209D1022802D0042867
:105A600003D003E02046BDE8F081264625462046C7
:105A700003F0DAFB0400EBD10EB13046F3E70DB1D1
:105A80002846F0E7BDE8F041002003F0CDBB000060
:105A90007CB50369006900255B8AC4689E04A3681D
:105AA0002BD4980F17D00120B0EB937F31D101EBAD
:105AB00002402668019018480090A068042320F056
:105AC0004042314601A8FDF715FA10B3801B801043
:105AD00061680D561DE001EB02202668ADF8040058
